:100000000C9436020C9467020C9467020C946702FD
:100010000C9467020C9467020C9467020C946702BC
:100020000C9467020C9467020C9467020C946702AC
:100030000C9467020C9467020C9467020C9467029C
:100040000C9467020C9467020C9467020C9467028C
:100050000C9467020C9467020C9467020C94270EB0
:100060000C9467020C949B0E0C94710E0C94670216
:100070000C9467020C9467020C9467020C9467025C
:100080000C94670F0C9467020C9467020C9467023F
:100090000C9467020C9467020C9467020C9467023C
:1000A0000C9467020C9467020C9467020C9467022C
:1000B0000C9467020C9467020C9467020C94D10EA6
:1000C0000C9467020C9467020C9467020C9467020C
:1000D0000C9467020C9467020C9467020C946702FC
:1000E0000C9467020C948A020C94FE040C94B403E2
:1000F0000C94E2030C94CA020C94B3020C949F0279
:100100000C9490020C9405040C94C5020C94A00469
:100110000C94AF020C94B7020C94EC030C942D04D5
:100120000C94FD0F0C9423040C94770D0C949504FF
:100130000C9498020C94DC040C9494020C94CD045E
:100140000C94FB030C94AA030C94C1020C94A90216
:100150000C94A5020C94C6030C94BE030C94CB0221
:100160000C949B030C94CE030C9483050C949C027A
:100170000C940F040C94F0040C9493030C94CF0291
:100180000C9436050C9419040C94BD020C94A00335
:100190000C94D80352657475726E696E6720746F23
:1001A0002050726576696F7573204D6F64652046C7
:1001B00061696C7572652E2E2E0053657474696EBC
:1001C000672042617564726174652053756363656D
:1001D000737366756C2100456E746572696E672075
:1001E000436F6E66696775726174696F6E204D6FDB
:1001F0006465205375636365737366756C21004590
:100200006E746572696E6720436F6E66696775729A
:100210006174696F6E204D6F6465204661696C750D
:1002200072652E2E2E0000002100240027002A00D7
:100230002D003000330001010000040107010A0114
:1002400000002200250028002B002E003100340081
:1002500002010000050108010B010000200023003D
:10026000260029002C002F003200000100000301AD
:100270000601090105050505070508080808020229
:1002800002020A0A08080404040401010101010130
:1002900001010303030303030303040707070C0C13
:1002A0000C0C0C0C0C0C02020202060606060606DA
:1002B00006060B0B0B0B0B0B0B0B0102102020087F
:1002C00008102040102040800201020108040201B1
:1002D0000102040810204080804020100804020120
:1002E0008004020180402010080402010804020179
:1002F0000102040810204080010204081020408000
:1003000000000A0B02090C0D0E080703040100008F
:1003100000000000000000000000000000000000DD
:10032000000000000000000000000000121110009A
:1003300000000000000000000000000000000000BD
:1003400000000000000053657474696E67204D6101
:10035000736B205375636365737366756C2100530B
:10036000657474696E67204D61736B204661696CBA
:100370007572652E2E2E00456E746572696E67204B
:1003800050726576696F7573204D6F6465204661A4
:10039000696C7572652E2E2E00456E746572696EDD
:1003A0006720436F6E66696775726174696F6E204E
:1003B0004D6F6465204661696C7572652E2E2E0046
:1003C0005374617274696E6720746F205365742072
:1003D0004D61736B210053657474696E67204669C3
:1003E0006C746572205375636365737366756C21F5
:1003F0000053657474696E672046696C7465722079
:100400004661696C7572652E2E2E00456E7465729C
:10041000696E672050726576696F7573204D6F64E1
:1004200065204661696C7572652E2E2E00456E74CE
:10043000657220436F6E66696775726174696F6E6D
:10044000204D6F6465204661696C7572652E2E2E95
:10045000005374617274696E6720746F2053657401
:100460002046696C746572210000FD0F11241FBEC7
:10047000CFEFD1E2DEBFCDBF00E00CBF14E0A0E0C3
:10048000B2E0ECEDF7E300E00BBF02C007900D9285
:10049000A239B107D9F725E0A2E9B4E001C01D9265
:1004A000A93DB207E1F712E0C6E3D2E000E006C0E2
:1004B00021970109802FFE010E949419C533D107AD
:1004C00080E00807A9F70E948F100C94EC1B0C9495
:1004D00000008CBD9DBD08958150823108F05AC046
:1004E000E82FF0E08827E858FD4F8F4F0C949419BF
:1004F00098029C028A0290029402CA029F02A502FC
:10050000A902AF02B302B702BD02C102CA02C5020C
:10051000CB02CF02809180008F7780938000089576
:10052000809180008F7DF9CF80918000877FF5CF0B
:1005300084B58F7784BD089584B58F7DFBCF80917E
:10054000B0008F778093B00008958091B0008F7DC8
:10055000F9CF809190008F778093900008958091DB
:1005600090008F7DF9CF80919000877FF5CF8091AB
:10057000A0008F778093A00008958091A0008F7DC8
:10058000F9CF8091A000877FF5CF809120018F77F0
:10059000809320010895809120018F7DF9CF809173
:1005A0002001877FF5CFCF93DF93282F30E0F9012B
:1005B000E050FD4F8491F901E654FD4FD491F901CB
:1005C000EC58FD4FC491CC23A1F081110E946C0224
:1005D000EC2FF0E0EE0FFF1FE65AFD4FA591B4910E
:1005E000EC91ED2381E090E009F480E0DF91CF9180
:1005F000089580E090E0FACF1F93CF93DF93282FE8
:1006000030E0F901E050FD4F8491F901E654FD4FCF
:10061000D491F901EC58FD4FC491CC23A9F0162FC9
:1006200081110E946C02EC2FF0E0EE0FFF1FE05CE6
:10063000FD4FA591B4918FB7F894EC91111108C0BA
:10064000D095DE23DC938FBFDF91CF911F9108956A
:10065000DE2BF8CFCF93DF9390E0FC01E654FD4F03
:1006600024918C589D4FFC0184918823D1F090E017
:10067000880F991FFC01EA5DFD4FA591B491FC0123
:10068000E05CFD4FC591D49161110EC09FB7F89405
:100690008C91E22FE0958E238C932881E223E883CE
:1006A0009FBFDF91CF9108958FB7F894EC91E22B23
:1006B000EC938FBFF6CF1F93CF93DF93182FEB01EF
:1006C00061E00E942A03209739F460E0812FDF91D6
:1006D000CF911F910C94FC02CF3FD10511F461E042
:1006E000F5CFE12FF0E0E050FD4FE491E150E23131
:1006F00008F0B3C0F0E08827EF57FC4F8F4F0C9401
:10070000941993039B03A003AA03B4032D04BE030F
:10071000C603CE03D803E203EC03FB0305042D0458
:100720000F041904230484B5806884BDC7BDDF911C
:10073000CF911F91089584B5806284BDC8BDF7CF65
:1007400080918000806880938000D0938900C0935E
:100750008800EDCF80918000806280938000D093EC
:100760008B00C0938A00E3CF8091800088608093E3
:100770008000D0938D00C0938C00D9CF8091B000C1
:1007800080688093B000C093B300D1CF8091B00057
:1007900080628093B000C093B400C9CF8091900074
:1007A000806880939000D0939900C0939800BFCF49
:1007B00080919000806280939000D0939B00C093C2
:1007C0009A00B5CF80919000886080939000D0937C
:1007D0009D00C0939C00ABCF8091A0008068809367
:1007E000A0008091A0008F7B8093A000D093A900EF
:1007F000C093A8009CCF8091A00080628093A0004D
:10080000D093AB00C093AA0092CF8091A0008860E3
:100810008093A000D093AD00C093AC0088CF8091AE
:100820002001806880932001D0932901C093280182
:100830007ECF80912001806280932001D0932B0194
:10084000C0932A0174CF8091200188608093200199
:10085000D0932D01C0932C016ACFC038D1050CF084
:100860003ECF33CF3FB7F8948091DC049091DD0404
:10087000A091DE04B091DF0426B5A89B05C02F3FF0
:1008800019F00196A11DB11D3FBFBA2FA92F982FB6
:100890008827BC01CD01620F711D811D911D42E0B1
:1008A000660F771F881F991F4A95D1F708958F9279
:1008B0009F92AF92BF92CF92DF92EF92FF924B0145
:1008C0005C010E9432046B017C010E9432046C19AD
:1008D0007D098E099F09683E734081059105A8F343
:1008E00021E0821A9108A108B10888EEC80E83E0C1
:1008F000D81EE11CF11C81149104A104B10429F754
:10090000FF90EF90DF90CF90BF90AF909F908F902F
:1009100008952FB7F8946091D8047091D90480910C
:10092000DA049091DB042FBF08950E94890460933C
:100930009A0470939B0480939C0490939D04089563
:10094000AF92BF92CF92DF92EF92FF920F931F93DD
:10095000CF93DF936C017B018B01040F151FEB011B
:100960005E01AE18BF08C017D10759F06991D601D2
:10097000ED91FC910190F081E02DC6011995892B34
:1009800079F7C501DF91CF911F910F91FF90EF9003
:10099000DF90CF90BF90AF900895FC01538D448DB0
:1009A000252F30E0842F90E0821B930B541710F01A
:1009B000CF96089501970895FC01918D828D981727
:1009C00061F0A28DAE0FBF2FB11D5D968C91928DFF
:1009D0009F5F9F73928F90E008958FEF9FEF089530
:1009E000FC01918D828D981731F0828DE80FF11DF9
:1009F000858D90E008958FEF9FEF0895FC01918D14
:100A0000228D892F90E0805C9F4F821B91098F730C
:100A10009927089580EE94E00E94FE0421E0892B3E
:100A200009F420E0822F0895FC01A48DA80FB92FAE
:100A3000B11DA35ABF4F2C91848D90E001968F7306
:100A40009927848FA689B7892C93A089B1898C9125
:100A5000837080648C93938D848D981306C0028874
:100A6000F389E02D80818F7D80830895EF92FF923E
:100A70000F931F93CF93DF93EC0181E0888F9B8DC1
:100A80008C8D98131AC0E889F989808185FF15C07B
:100A90009FB7F894EE89FF896083E889F98980819E
:100AA0008370806480839FBF81E090E0DF91CF916D
:100AB0001F910F91FF90EF900895F62E0B8D10E08F
:100AC0000F5F1F4F0F731127E02E8C8D8E110CC0FE
:100AD0000FB607FCFACFE889F989808185FFF5CF49
:100AE000CE010E941405F1CFEB8DEC0FFD2FF11D0F
:100AF000E35AFF4FF0829FB7F8940B8FEA89FB8986
:100B000080818062CFCFCF93DF93EC01888D8823E3
:100B1000B9F0AA89BB89E889F9898C9185FD03C060
:100B2000808186FD0DC00FB607FCF7CF8C9185FF45
:100B3000F2CF808185FFEDCFCE010E941405E9CF71
:100B4000DF91CF91089580E090E0892B29F00E94F9
:100B50000A0581110E94000080E090E0892B49F095
:100B600080E090E0892B29F00E94000081110E9412
:100B7000000080E090E0892B49F080E090E0892B34
:100B800029F00E94000081110E94000080E090E0A6
:100B9000892B49F080E090E0892B29F00E94000029
:100BA00081110C940000089508958EBD00000DB4CD
:100BB00007FEFDCF8EB50895FF920F931F93CF933D
:100BC000DF93F82E062F142F80E591E00E94690232
:100BD000C5E9D5E060E08A890E94FC0285E00E94B8
:100BE000D5058F2D0E94D505802F0E94D505812F18
:100BF0000E94D50561E08A89DF91CF911F910F9105
:100C0000FF900C94FC02FF920F931F93CF93DF93FE
:100C1000C82FF62E172F042F80E591E00E9469025D
:100C200060E08091A7050E94FC0283E00E94D50548
:100C30008C2F0E94D505CF2DD12F0C0F1D2F111DEC
:100C4000C017D10729F080E00E94D5058993F8CF1D
:100C500061E08091A705DF91CF911F910F91FF90E7
:100C60000C94FC021F93CF93DF93182F80E591E043
:100C70000E946902C5E9D5E060E08A890E94FC0211
:100C800083E00E94D505812F0E94D50580E00E9457
:100C9000D505182F61E08A890E94FC02812FDF911F
:100CA000CF911F9108950F931F93CF93DF9300D09F
:100CB0001F92CDB7DEB7182F1092950510929605AA
:100CC00010929705109298051092990544E0BE0184
:100CD0006F5F7F4F0E9403062A81898138E0839FDE
:100CE000C0011124422F50E065E0559547956A9563
:100CF000E1F7840F951F092E000CAA0BBB0B809304
:100D0000960590939705A0939805B093990523FFB6
:100D100029C032E0880F991FAA1FBB1F3A95D1F74F
:100D20002370820F911DA11DB11DBA2FA92F982FDD
:100D300088272B81820F911DA11DB11DBA2FA92FCC
:100D4000982F88272C81820F911DA11DB11D8093A2
:100D5000960590939705A0939805B093990581E027
:100D6000809395058FEF810F0E943206082F84E053
:100D7000810F0E94320603FF16C091E09093A305F5
:100D8000482F4F7040939A056BE975E085E0810F1D
:100D90000E9403060F900F900F900F90DF91CF915C
:100DA0001F910F9108951092A305EACFCF93DF937F
:100DB000C82F0E948904D62F4C2F60EE8FE00E942E
:100DC000DC058EE00E943206807EC81749F00E9442
:100DD00089046D1B693C80F381E0DF91CF91089518
:100DE00080E0FBCFCF93DF93C82F8EE00E943206C6
:100DF000807E8032F9F4C032E9F08BE20E94320644
:100E0000D82FD07486FD05C040E460E48BE20E94D8
:100E1000DC0540E460E48CE20E94DC0580E60E9490
:100E2000D606811111C0D11105C040E060E48BE20B
:100E30000E94DC0540E060E48CE20E94DC058C2F1F
:100E4000DF91CF910C94D60681E0DF91CF91089588
:100E50001F93CF93DF9380E591E00E946902C5E97B
:100E6000D5E060E08A890E94FC0280EA0E94D505F4
:100E700080E00E94D505182F61E08A890E94FC025B
:100E8000812FDF91CF911F910895EF92FF920F93E1
:100E90001F93CF93DF937C018B01EA010E94280707
:100EA00080FF52C081E60E94530640E061E08CE280
:100EB0000E94DC0580919505882389F08091960534
:100EC00090919705A0919805B0919905B06880938D
:100ED000960590939705A0939805B09399058091F6
:100EE000A305882389F08091960590919705A0919C
:100EF0009805B0919905B0648093960590939705F5
:100F0000A0939805B09399058091960590919705C7
:100F1000A0919805B0919905F70180839183A283F0
:100F2000B38380919A05F8018083ABE9B5E0FE01B7
:100F300020919A05CF018C1B9D0B28171906A1F053
:100F40009CF08D918193F4CF81FF06C081E70E94D0
:100F5000530640E062E0ABCF84E0DF91CF911F9178
:100F60000F91FF90EF90089580E0F7CFFF920F93DD
:100F70001F93CF93DF93C82FF62E172F042F80E5F2
:100F800091E00E94690260E08091A7050E94FC0246
:100F900082E00E94D5058C2F0E94D505CF2DD12F40
:100FA0000C0F1D2F111DC017D10721F089910E9430
:100FB000D505F9CF61E08091A705DF91CF911F9111
:100FC0000F91FF900C94FC02CF93DF9300D01F92FF
:100FD000CDB7DEB71C821B82613081F498E09A8322
:100FE000198244E0BE016F5F7F4F0E94B6070F90E9
:100FF0000F900F900F90DF91CF9108951A82F0CF4C
:101000000F931F93CF93DF93082F162F80E591E066
:101010000E946902C5E9D5E060E08A890E94FC026D
:1010200082E00E94D505802F0E94D505812F0E9465
:10103000D50561E08A89DF91CF911F910F910C94C2
:10104000FC022F923F924F925F926F927F928F920B
:101050009F92AF92CF92DF92EF92FF920F931F93E6
:10106000CF93DF9300D01F92CDB7DEB76093960584
:1010700070939705809398059093990596FB552753
:1010800050F95093A305662797FD63957727882726
:1010900099276093950540939A05F901ABE9B5E06E
:1010A000C901089621912D93E817F907D9F70E94F5
:1010B00032042B013C0180902D0290902E02A090D2
:1010C0002F021E0124E0220E311C89829A82AB82FB
:1010D000CE0101966C01F82E0D2DF60111916F01D4
:1010E000812F0E94320683FD14C01F5FE12C0E94F5
:1010F0003204DC01CB0184199509A609B709F2E095
:10110000EF120EC0843C9940A105B105F0F206E053
:101110007DC02C143D0409F710E072E0E72EE7CF04
:10112000843C9940A105B10590F740919A056BE97F
:1011300075E085E0810F0E94B6078091A30581309C
:1011400029F480919A05806480939A0560919A05AC
:1011500084E0810F0E940008409196055091970508
:101160006091980570919905809195058130D9F528
:101170004C835B83AB0166277727842F837088605D
:10118000942F990F990F990F907E892B8A8365E090
:10119000569547956A95E1F7498344E06F2D702F86
:1011A000812F0E94B607115048E068E0812F0E940D
:1011B000DC050E9432046B017C01812F0E94320603
:1011C000082F08700E943204DC01CB018C199D09A4
:1011D000AE09BF090023A9F0843C9940A105B105DF
:1011E00060F307E013C0CA0123E0969587952A951E
:1011F000E1F789834295440F407E4A831C821B821B
:10120000CCCF843C9940A105B10558F7802F0F90B1
:101210000F900F900F90DF91CF911F910F91FF9042
:10122000EF90DF90CF90AF909F908F907F906F90D6
:101230005F904F903F902F900895F894FC0181812A
:101240008330E9F034F4813071F0823091F0789499
:1012500008958430D1F08530D1F7809173008D7F6F
:1012600080937300F4CF80916F008D7F80936F0027
:10127000EECF809170008D7F80937000E8CF8091D9
:1012800071008D7F80937100E2CF809172008D7F1D
:1012900080937200DCCFFC01F8946330C9F13CF418
:1012A0006130C1F0623029F161837894089564302F
:1012B000F1F16530C9F7109220011092210190914F
:1012C0002101986090932101909121019160909368
:1012D0002101EACF1092800010928100809181005C
:1012E000886080938100809181008160809381007B
:1012F000DBCF1092B0001092B1008091B0008260FC
:101300008093B0008091B10081608093B100CCCF18
:10131000109290001092910090919100986090939B
:10132000910090919100916090939100BDCF1092A7
:10133000A0001092A1009091A10098609093A1004C
:101340009091A10091609093A100AECFFC014085E7
:101350005185628573858181833009F470C084F47E
:10136000813089F1823009F44CC080859185A28555
:10137000B385892B8A2B8B2B11F481E08083089510
:10138000843009F47AC0853081F7DB01CA01411548
:10139000510521E06207710520F08FEF9FEFA0E07B
:1013A000B0E09093290180932801481B590B6A0BE8
:1013B0007B0B4087518762877387809173008260BF
:1013C00080937300D2CFDB01CA014115510521E0A2
:1013D0006207710520F08FEF9FEFA0E0B0E09093DF
:1013E000890080938800481B590B6A0B7B0B408750
:1013F00051876287738780916F00826080936F004E
:10140000B4CF4F3F51056105710529F020F04FEF32
:1014100050E060E070E04093B30080859185A28544
:10142000B385841B950BA60BB70B80879187A2878A
:10143000B3878091700082608093700096CFDB014B
:10144000CA014115510521E06207710520F08FEFB7
:101450009FEFA0E0B0E09093990080939800481B24
:10146000590B6A0B7B0B408751876287738780918A
:10147000710082608093710078CFDB01CA01411551
:10148000510521E06207710520F08FEF9FEFA0E08A
:10149000B0E09093A9008093A800481B590B6A0BF9
:1014A0007B0B4087518762877387809172008260CF
:1014B000809372005ACF4F925F926F927F928F9279
:1014C0009F92AF92BF92CF92DF92EF92FF920F93D3
:1014D0001F93CF93DF93EC01198111160CF03AC1E1
:1014E0004901CB01BA010E94C31A9B01AC0160E023
:1014F00070E08AE794E40E94221A6B017C012EEAD4
:1015000037E346E856E40E947A1B2B013C0120E0B9
:1015100030E040E85FE30E941D1A87FD1BC18FEF9A
:101520009FEFDC018C879D87AE87BF8720E030E08E
:1015300040E852E4C301B201123009F487C00E94AE
:10154000751B01E010E0181674F020E030E040E078
:1015500051E4C301B2010E94751B03E010E01816AC
:1015600014F402E010E0C801880F991F9C01205973
:101570003D4F5901F501619171915F0190E080E06B
:101580000E94C31AA70196010E947A1B9B01AC011D
:1015900060E074E284E79BE40E94221A20E030E0DD
:1015A00040E85FE30E94B0190E94941A6115F0ECC4
:1015B0007F07FFEF8F07FFE39F07A8F56C837D830D
:1015C0008E839F83688779878A879B871B830A839B
:1015D000F894C88AD98AEA8AFB8A9D8A8C8A1F8AEB
:1015E0001E8A18828981823009F08BC08091B100F7
:1015F000887F9A81892B8093B100CE010E94A60931
:10160000789481E0DF91CF911F910F91FF90EF903F
:10161000DF90CF90BF90AF909F908F907F906F9012
:101620005F904F9008950F5F1F4F0630110509F02E
:10163000A1CF6C837D838E839F83688779878A8718
:101640009B8785E090E09B838A83C2CF0E94751BB5
:1016500001E010E01816D4F020E030E040E051E462
:10166000C301B2010E94751B02E010E0181674F06D
:1016700020E030E040E050E4C301B2010E94751B5D
:1016800004E010E0181614F403E010E0C801880F1D
:10169000991F9C01205A3D4F5901F50161917191AB
:1016A0005F0190E080E00E94C31AA70196010E94AA
:1016B0007A1B9B01AC0160E074E284E79BE40E942A
:1016C000221A20E030E040E85FE30E94B0190E9457
:1016D000941A6115F0EC7F07FFE38F07910508F47A
:1016E0006DCF0F5F1F4F08301105B9F66C837D83F6
:1016F0008E839F83688779878A879B8787E090E0BE
:10170000A2CF813041F480918100887F9A81892B1A
:101710008093810072CF833041F480919100887F63
:101720009A81892B8093910068CF843041F4809115
:10173000A100887F9A81892B8093A1005ECF85309C
:1017400009F05BCF80912101887F9A81892B80935A
:10175000210153CF80E056CFCF93DF93EC01F89473
:10176000298188859985AA85BB852230A9F18F3F7B
:101770009F4FA105B10518F4CE010E94A6098885E6
:101780009985AA85BB85AC01BD01009721E0A20720
:10179000B10520F04FEF5FEF60E070E0841B950B28
:1017A000A60BB70B88879987AA87BB8788859985F9
:1017B000AA85BB85892B8A2B8B2B39F58C819D8142
:1017C000AE81BF8188879987AA87BB8781E088839C
:1017D0007894DF91CF9108958F3F9105A105B105D0
:1017E00018F4CE010E94A60988859985AA85BB8533
:1017F000AC01BD018F3F9105A105B10579F270F2F1
:101800004FEF50E060E070E0C9CF1882E1CF8F92D7
:101810009F92AF92BF92EF92FF920F931F93CF933D
:10182000DF9300D000D01F921F92CDB7DEB7FC012E
:10183000F1802081F0E12F9F900111244F2D50E085
:1018400064E0559547956A95E1F7242B352B2332B3
:1018500041E0340761F12032314009F45CC0198263
:1018600082E08A8380E090E0A0E2B2E48B839C83F4
:10187000AD83BE8388EE93E098878F8329813A8178
:101880004B815C816D817E818F81988528960FB612
:10189000F894DEBF0FBECDBFDF91CF911F910F91A6
:1018A000FF90EF90BF90AF909F908F900895E12CA4
:1018B0008C01FC018281F8E78F9FC00111246FEF3A
:1018C00070E00E945E19072E000C880B990B0E9495
:1018D000C51A4B015C01F801638170E090E080E083
:1018E0000E94C31A20E030E44CE156E40E947A1BC7
:1018F00020E030E04FE753E40E94221A0E94941A3D
:10190000E9822F2D23702A838B829C82AD82BE8236
:1019100078876F83B3CFEE24E394CACFFC010190A4
:101920000020E9F73197AF01481B590BBC0180EE4D
:1019300094E00C94A0048F929F92AF92BF920F9369
:101940001F93CF93DF93CDB7DEB7A1970FB6F8946F
:10195000DEBF0FBECDBF19A2423008F44AE08E01AF
:101960000F5D1F4F842E912CB12CA12CA501940149
:101970000E947219E62FB901CA01EA30F4F4E05D61
:10198000D801EE938D01232B242B252B79F790E0A2
:1019900080E0109719F0CD010E948E0CA1960FB631
:1019A000F894DEBF0FBECDBFDF91CF911F910F9195
:1019B000BF90AF909F908F900895E95CE1CF0C9419
:1019C0008E0CCF93DF930E948E0CEC018EE892E098
:1019D0000E948E0C8C0F9D1FDF91CF9108950F9365
:1019E0001F93CF93DF938C01D0E0C0E0F801EC0FA0
:1019F000FD1F6491662341F080EE94E00E9436055D
:101A0000892B11F02196F2CF8EE892E00E948E0C85
:101A10008C0F9D1FDF91CF911F910F910895CF9350
:101A2000DF93C82F81E594E00E94EF0C80E80E94CC
:101A3000F206D82F8DE294E0D11129C060E080E158
:101A4000C330A1F058F460E084E0C13079F060E088
:101A500088E0C23059F060E080E008C060E084E1D6
:101A6000C43021F060E088E1C530A9F70E94E407A6
:101A70008091A8050E94F206D82F86ED93E0DD2321
:101A800031F08BE094E00E94EF0C81EF93E00E9434
:101A9000EF0C8D2FDF91CF910895CF93DF93D82F47
:101AA00080EC93E00E94EF0C80E80E94F206C82FC1
:101AB00089E993E0C11115C060E080E2D11184E2B0
:101AC0000E94E4078091A8050E94F206C82F86E4D0
:101AD00093E0CC2331F087E793E00E94EF0C8FE591
:101AE00093E00E94EF0C8C2FDF91CF9108950F931C
:101AF0001F9381E992E00E94DF0C0E94890400910B
:101B0000A8041091A9042091AA043091AB04601B91
:101B1000710B820B930B4AE00E949B0C8EE892E0C3
:101B20000E948E0C0E9489046093A8047093A904FB
:101B30008093AA049093AB041F910F9108950F9383
:101B40001F93CF93DF931F921F92CDB7DEB78C0107
:101B50000E9448198983C80101960E9448198A8306
:101B600089819A810F900F90DF91CF911F910F91F2
:101B70000895CF92DF92EF92FF920F931F93CF932E
:101B8000DF9300D01F92CDB7DEB76E0125E0C20E05
:101B9000D11C8E010F5F1F4F7C01E01AF10AC016A5
:101BA000D10649F0C701800F911F0E944819F80122
:101BB00081938F01F4CF69817A818B819C810F9011
:101BC0000F900F900F90DF91CF911F910F91FF9089
:101BD000EF90DF90CF900895FF920F931F93CF93D4
:101BE000DF93EC01F62E08811981C8010E94481983
:101BF000F81621F06F2DC8010E945019CE01DF9117
:101C0000CF911F910F91FF900895FF920F931F9313
:101C1000CF93DF931F921F92CDB7DEB78C01F72EC3
:101C20009A838983CE0101960E94EC0D0F5F1F4FAE
:101C30001A8309836F2DCE0101960E94EC0D0F903F
:101C40000F90DF91CF911F910F91FF9008951F92F8
:101C50000F920FB60F9211242F933F938F939F9360
:101C6000AF93BF938091D8049091D904A091DA04E6
:101C7000B091DB043091D70423E0230F2D3758F5C2
:101C80000196A11DB11D2093D7048093D804909391
:101C9000D904A093DA04B093DB048091DC04909122
:101CA000DD04A091DE04B091DF040196A11DB11DF9
:101CB0008093DC049093DD04A093DE04B093DF04F2
:101CC000BF91AF919F918F913F912F910F900FBE38
:101CD0000F901F90189526E8230F0296A11DB11DA5
:101CE000D2CF1F920F920FB60F9211240BB60F9204
:101CF0002F933F934F935F936F937F938F939F9314
:101D0000AF93BF93EF93FF9380EE94E00E9414058E
:101D1000FF91EF91BF91AF919F918F917F916F91C3
:101D20005F914F913F912F910F900BBE0F900FBE7F
:101D30000F901F9018951F920F920FB60F921124BB
:101D40000BB60F922F938F939F93EF93FF93E09196
:101D5000F004F091F1048081E091F604F091F70431
:101D600082FD1DC090818091F9048F5F8F73209157
:101D7000FA04821741F0E091F904F0E0E052FB4FE1
:101D8000958F8093F904FF91EF919F918F912F91FF
:101D90000F900BBE0F900FBE0F901F901895808173
:101DA000F2CF1F920F920FB60F9211240BB60F9223
:101DB000CF92DF92EF92FF922F933F934F935F93D7
:101DC0006F937F938F939F93AF93BF93EF93FF9303
:101DD000C090B505D090B605E090B705F090B80575
:101DE0008091AA05853009F04FC0C114D104E104E7
:101DF000F10409F467C08091A905882309F45DC046
:101E0000E091BD05F091BE05309741F08091BF058E
:101E10009091C005009709F44EC019958091AD05C9
:101E20009091AE05A091AF05B091B0050097A1408B
:101E3000B105C4F0F8948091AD059091AE05A091E4
:101E4000AF05B091B0058093B1059093B205A09312
:101E5000B305B093B40589EA95E00E94A6091092F3
:101E6000A90578941C141D041E041F046CF481E061
:101E7000C81AD108E108F108C092B505D092B6059C
:101E8000E092B705F092B805FF91EF91BF91AF9145
:101E90009F918F917F916F915F914F913F912F9182
:101EA000FF90EF90DF90CF900F900BBE0F900FBE82
:101EB0000F901F9018951995B1CF89EA95E00E946F
:101EC000AC0BE2CF89EA95E00E941D09DDCF1F929D
:101ED0000F920FB60F9211240BB60F92CF92DF9292
:101EE000EF92FF922F933F934F935F936F937F9364
:101EF0008F939F93AF93BF93EF93FF93C090CD05C4
:101F0000D090CE05E090CF05F090D0058091C2052D
:101F1000833009F04FC0C114D104E104F10409F485
:101F200067C08091C105882309F45DC0E091D505A3
:101F3000F091D605309741F08091D7059091D80562
:101F4000009709F44EC019958091C5059091C6057A
:101F5000A091C705B091C8050097A140B105C4F094
:101F6000F8948091C5059091C605A091C705B091E0
:101F7000C8058093C9059093CA05A093CB05B0937B
:101F8000CC0581EC95E00E94A6091092C1057894D9
:101F90001C141D041E041F046CF481E0C81AD1082F
:101FA000E108F108C092CD05D092CE05E092CF05B0
:101FB000F092D005FF91EF91BF91AF919F918F91DA
:101FC0007F916F915F914F913F912F91FF90EF9093
:101FD000DF90CF900F900BBE0F900FBE0F901F9011
:101FE00018951995B1CF81EC95E00E94AC0BE2CF2A
:101FF00081EC95E00E941D09DDCFCF93DF93E0EEE9
:10200000F4E01382128288EE93E0A0E0B0E08483D3
:102010009583A683B78380E892E09183808385ECE3
:1020200090E09587848784EC90E09787868780ECA2
:1020300090E0918B808B81EC90E0938B828B82EC93
:1020400090E0958B848B86EC90E0978B868B118E3D
:10205000128E138E148EE1ECF5E083E08183108AFA
:10206000118A128A138A158A148A178A168A10828C
:1020700021E030E033832283148215821682178296
:1020800010861186128613868FEF9FEFDC018487FE
:102090009587A687B787E9EAF5E045E04183108A8E
:1020A000118A128A138A158A148A178A168A10824C
:1020B000338322831482158216821782108611863A
:1020C0001286138684879587A687B787C5E9D5E0EA
:1020D00081E28A8B61E00E94FC0261E08A890E94B1
:1020E0002A038DE795E0998B888BE8E8F5E089E194
:1020F0008083148282E390E094878387E3E8F5E0AD
:102100001182128288EE93E094838383EEE7F5E0F8
:102110001182128294838383DF91CF910895CF93AC
:10212000DF93CDB7DEB72E970FB6F894DEBF0FBEA4
:10213000CDBF789484B5826084BD84B5816084BD50
:1021400085B5826085BD85B5816085BD80916E0055
:10215000816080936E001092810080918100826086
:1021600080938100809181008160809381008091C3
:1021700080008160809380008091B10084608093B2
:10218000B1008091B00081608093B0008091910097
:102190008260809391008091910081608093910092
:1021A000809190008160809390008091A100826076
:1021B0008093A1008091A10081608093A100809113
:1021C000A00081608093A0008091210182608093B3
:1021D0002101809121018160809321018091200162
:1021E00081608093200180917A00846080937A00DE
:1021F00080917A00826080937A0080917A00816079
:1022000080937A0080917A00806880937A0010929F
:10221000C10061E08DE00E942A0361E087E20E9434
:102220002A0361E089E20E942A0361E080E20E94C1
:102230002A0361E082E20E942A0361E084E20E94B4
:102240002A0361E086E20E942A0361E088E20E949C
:102250002A0361E08AE20E942A0360E083E00E9490
:102260002A0361E08CE20E942A0361E08EE20E9470
:102270002A0361E088E00E942A0361E086E00E9470
:102280002A0361E085E20E942A0361E080E10E9466
:102290002A0361E080E10E942A0361E081E10E945B
:1022A0002A0361E080E10E94FC0261E081E10E947A
:1022B000FC02E091F004F091F10482E08083E0916F
:1022C000EC04F091ED041082E091EE04F091EF0443
:1022D00080E180831092F804E091F404F091F50419
:1022E00086E08083E091F204F091F30480818061C4
:1022F0008083E091F204F091F30480818860808310
:10230000E091F204F091F304808180688083E09191
:10231000F204F091F30480818F7D80836091C20587
:1023200081EC95E00E944B096091AA0589EA95E04D
:102330000E944B091FB7F89480919E04811127C019
:10234000E9EAF2E08491EFEEF2E09491E82FF0E018
:10235000EE0FFF1FEA5DFD4FA591B491EC91E923CB
:1023600021F461E085E30E94FC0261E085E30E94C4
:102370002A038CB580618CBD8CB580648CBD61E016
:1023800084E30E942A0361E083E30E942A03809190
:102390009E048F5F80939E041FBF80E591E00E94A2
:1023A000690260E08091A7050E94FC0280EC0E9417
:1023B000D50561E08091A7050E94FC0265E070E010
:1023C00080E090E00E94570480E48093A80580E8B4
:1023D0000E94F206882309F4E0C58FEF91E00E9485
:1023E000EF0C83E794E00E94E10C80E00E944D0D29
:1023F00081E00E944D0D80E00E940F0D81E00E945F
:102400000F0D82E00E940F0D83E00E940F0D84E00B
:102410000E940F0D85E00E940F0D86EB92E00E9456
:10242000E10C1092A80580E00E94F20604E610E09C
:102430000E942807837069F0AE014F5F5F4FBE01B5
:10244000635F7F4FCE0109960E9445070150110935
:1024500079F78DEC92E00E94E10C88E199E20FB6E9
:10246000F894A895809360000FBE909360008FED64
:1024700092E00E94E10C90E080E00E94B90D609330
:102480000E0270930F02809310029093110288E065
:1024900090E00E949F0D90931302809312028CE0B3
:1024A00090E00E94481980930D0284E090E00E9421
:1024B000B90D60930602709307028093080290930F
:1024C00009028AE090E00E949F0D90930B02809396
:1024D0000A028DE090E00E944819809305020AEFFD
:1024E00010E08DE0282E312C9CE0892E912C20E5E7
:1024F000A22E22E0B22E0E9489044090D304509074
:10250000D4046090D5047090D604641975098609C6
:102510009709693E734081059105C0F08DE00E94E6
:10252000D30261E0892B09F060E08DE00E94FC029B
:1025300084EF92E00E94E10C0E9489046093D3042E
:102540007093D4048093D5049093D60483E00E94C2
:10255000D3026C0177247394892B09F4712C809138
:102560002C02781671F084E093E00E94DF0C82EB7D
:1025700092E0CD2811F08DEA92E00E94E10C709279
:102580002C0283E00E94D302892B09F07EC085E1F2
:1025900093E00E94E10C44E252E06EEC74E08FECB8
:1025A00094E00E944507811176C582E393E00E9482
:1025B000DF0C6091CF047091D0048091D104909190
:1025C000D20440E10E949B0C89E393E00E94DF0C5F
:1025D0006091CE0470E090E080E04AE00E949B0CA5
:1025E0008CE393E00E94E10C8091CF049091D004A1
:1025F000A091D104B091D20481309440A105B105DD
:1026000059F58EE393E00E94E10C30E020E040E0D9
:1026100061E074E080E090E00E942108D82E8111F2
:102620002AC58DE593E00E94E10CB6E0CB2ED12CBB
:102630008DE00E94D30261E0892B09F060E08DE01B
:102640000E94FC0264E670E080E090E00E94570483
:10265000F1E0CF1AD10861F78091CF049091D004B6
:10266000A091D104B091D20483349240A105B10568
:1026700061F486E993E00E94E10C64E670E080E09A
:1026800090E00E9457040C9400008091CF04909138
:10269000D004A091D104B091D20482309440A1051D
:1026A000B10509F016C180912402282F237030E073
:1026B0003093C5042093C40490E09C013595279580
:1026C00035952795237033273093C3042093C20494
:1026D0009C0144E0359527954A95E1F7237033270F
:1026E0003093C1042093C00456E0959587955A9580
:1026F000E1F79093BF048093BE0480912502282FB8
:10270000237030E03093CD042093CC0490E09C0102
:102710003595279535952795237033273093CB042E
:102720002093CA049C0174E0359527957A95E1F7CA
:10273000237033273093C9042093C804E6E09595AD
:102740008795EA95E1F79093C7048093C604FEEB62
:102750006F2EF4E07F2EA0E5CA2EA2E0DA2EF30160
:10276000819191913F018130910509F499C48230A2
:10277000910509F49BC460E0892B09F492C4F2E04E
:10278000CF0ED11C8EEC94E08615970541F7809111
:102790002602282F30E02B3F31050CF08CC4EFEFE0
:1027A0008E9FC0011124B8010E945E197093BD0470
:1027B0006093BC0480912702282F30E02B3F310525
:1027C0000CF082C4FFEF8F9FC0011124B8010E945A
:1027D0005E197093BB046093BA0480912802282F7D
:1027E00030E02B3F31050CF078C42FEF829FC00101
:1027F0001124B8010E945E197093B9046093B80463
:10280000C090BC047091BD046C2D8CE20E945B03EF
:10281000D090BA047091BB046D2D8EE20E945B03D0
:102820002091B8048091BE049091BF0436E0880FD7
:10283000991F3A95E1F74091C0045091C10464E0BA
:10284000440F551F6A95E1F7842B9091C404892B9E
:102850004091C2045091C304440F551F440F551FAB
:10286000842B80931C028091C6049091C704E6E0FB
:10287000880F991FEA95E1F74091C8045091C90467
:10288000F4E0440F551FFA95E1F7842B9091CC04A6
:10289000892B4091CA045091CB04440F551F440F1B
:1028A000551F842B80931D02C0921E02D0921F02DE
:1028B00020932002109221021092220210922302F1
:1028C0002CE132E048E062E274E080E090E00E94B7
:1028D00021088091CF049091D004A091D104B091AF
:1028E000D20483309440A105B10509F01BC184E2F4
:1028F00092E00E94070C209314023093150240933B
:102900001602509317026093180270931902809375
:102910001A0290931B02323008F4E8C3323009F4F3
:10292000EFC380910C02813091F580910E0290915D
:102930000F02A0911002B091110289879A87AB878C
:10294000BC873E01F9E06F0E711CD12CC12CF30144
:1029500061913F01DE86CD86CE010D960E94EC0D81
:10296000FFEFCF1ADF0A24E0C216D10481F760918D
:1029700012027091130288E090E00E94050E6091AF
:102980000D029E868D86CE010D960E94EC0D88E28A
:1029900092E00E94070C209314023093150240939A
:1029A00016025093170260931802709319028093D5
:1029B0001A0290931B02323008F4A7C3323009F494
:1029C000AEC380910402813091F58091060290910E
:1029D0000702A0910802B091090289839A83AB8310
:1029E000BC83CE0101963C01B4E0CB2ED12CF30187
:1029F00061913F01DE86CD86CE010D960E94EC0DE1
:102A0000FFEFCF1ADF0A28E0C216D10481F76091E8
:102A10000A0270910B028AE090E00E94050E60911C
:102A200005023E862D86CE010D960E94EC0D20916A
:102A30000D0260910E0270910F0280911002909130
:102A40001102C0901202D0901302A2E17A2E70926D
:102A50001C02206320931D0220E030E04FE753E486
:102A60000E947A1B20E030E040EF52E40E94221ADC
:102A70000E94941A60931E02B60190E080E00E94CA
:102A8000C31A20E030E04FE753E40E947A1B20E0B5
:102A900030E44CE156E40E94221A0E94941A60939A
:102AA0001F02209105026091060270910702809139
:102AB000080290910902C0900A02D0900B02709215
:102AC000200220632093210220E030E04FE753E40E
:102AD0000E947A1B20E030E040EF52E40E94221A6C
:102AE0000E94941A60932202B60190E080E00E9456
:102AF000C31A20E030E04FE753E40E947A1B20E045
:102B000030E44CE156E40E94221A0E94941A609329
:102B100023022CE132E048E063E274E080E090E0E0
:102B20000E9421088091CF049091D004A091D104FB
:102B3000B091D20484309440A105B10509F042C09F
:102B40008091240290912502982789279827209127
:102B50002602217030912702337030937E05109247
:102B60007F0520938005909382058093810585E001
:102B7000EEE7F5E0A3E8B5E001900D928A95E1F764
:102B80008091830590918505209186053091870578
:102B900030931C0220931D0290931E028370809339
:102BA0001F02109220021092210210922202109213
:102BB00023022CE132E048E064E274E080E090E03F
:102BC0000E9421088091CF049091D004A091D1045B
:102BD000B091D20485309440A105B10509F58091EA
:102BE000240290E0F6E095958795FA95E1F781301B
:102BF00009F49DC208F498C2823009F49DC2809104
:102C0000840520E4829FC00111248093B70427EB40
:102C100034E048E065E274E080E090E00E94210842
:102C20008091CF049091D004A091D104B091D204AE
:102C300080319540A105B10509F0D2C07090250200
:102C40008091260290E04091280250E0B42FAA27FC
:102C5000AA27BF7020912702A22BB85020912A02E8
:102C600030E060912902F4E06F9FB0011124FA0175
:102C7000689415F8F595E7951694E1F76E2B7F2B80
:102C8000F901FE2FEE27FF0FFF0FEE27FC706E2BD2
:102C90007F2B7850F0912B02E0E1FE9F7001112410
:102CA0006901E4E0D594C794EA95E1F7EC28FD28A2
:102CB0002701F8E05F1AD0902402F0E8FF2EDF0C25
:102CC000D0928805E72DE370E09389056C01E6E07A
:102CD000D594C794EA95E1F7C0928A05F4E055953A
:102CE0004795FA95E1F7437040938B053595279505
:102CF00035952795237020938C0556E0880F991FF2
:102D00005A95E1F7807C9F70272D30E03595279507
:102D100035952795822B932B985090938E05809311
:102D20008D05B0939005A0938F05709392056093E5
:102D30009105509294054092930540909F045090C5
:102D4000A0046090A1047090A204072E000C880BD0
:102D5000990B0E94C51A2DEC3CEC4CEC5DE30E94F3
:102D60007A1B6B017C0126E636E646E65FE3C3018B
:102D7000B2010E947A1B9B01AC01C701B6010E94FF
:102D8000B11960939F047093A0048093A104909361
:102D9000A2046093B3047093B4048093B504909339
:102DA000B60482E194E00E94DF0C4090B30450909E
:102DB000B4046090B5047090B604A3019201C301FD
:102DC000B2010E94E71B882309F4BBC18BE294E0A7
:102DD0000E948E0C8EE892E00E948E0C0E94890464
:102DE0000E9489044090AF045090B0046090B104F8
:102DF0007090B204AB01BC0144195509660977090A
:102E00008091860590918705B0E0A0E048175907AA
:102E10006A077B0708F43FC080918405811104C0D4
:102E2000809183058823B9F11092840580E3C82E30
:102E300082E0D82EF60161917191819191916F019B
:102E400030E020E040E00E94210887E090E0019718
:102E5000F1F744E252E06EEC74E08FEC94E00E94F3
:102E60004507AC14BD0431F71092AD041092AE04C6
:102E70002DEA34E048E066E274E080E090E00E94F1
:102E800021080E9489046093AF047093B00480937A
:102E9000B1049093B204D0900D02F1E0DF12E3C1CF
:102EA0002091B3043091B4044091B5045091B6041C
:102EB00060910E0270910F028091100290911102A8
:102EC0000E941D1A18160CF4CEC18091AC04811119
:102ED00018C0409112025091130270E060E027E7A1
:102EE0003DE089EA95E00E945B0A0E9489046093B4
:102EF000A8047093A9048093AA049093AB04D09281
:102F0000AC04D0900502FF24F394DF10B3C12091EC
:102F1000A4043091A5044091A6045091A7046091A7
:102F200006027091070280910802909109020E94A6
:102F30001D1A18160CF49EC18091A30481110EC0B5
:102F400040910A0250910B0270E060E025E934E004
:102F500081EC95E00E945B0AD092A30470E060E0EF
:102F600085E20E945B0370E060E080E10E945B0309
:102F700070E060E088E00E945B0370E060E086E063
:102F80000E945B031092CF041092D0041092D104DF
:102F90001092D2040E94A305AECA87ED91E00E9470
:102FA000EF0C60E08AE20E94000861ED89E20E9475
:102FB000000861E888E20E9400088AEB91E00E9424
:102FC000EF0C61E080E20E94E40761E084E20E948D
:102FD000E40761E080E00E94E40760E084E00E9492
:102FE000E40761E088E00E94E40760E080E10E947D
:102FF000E40761E084E10E94E40760E088E10E9468
:10300000E40710E360E0812F0E94000860E080E1A7
:10301000810F0E94000860E080E2810F0E9400089A
:103020001F5F1E3379F760E080E60E94000860E0D1
:1030300080E70E94000863E08BE20E9400086CE3D6
:103040008CE00E94000860E08DE00E94000844E6E9
:1030500064E680E60E94DC0540E660E680E70E94C8
:10306000DC058091A8050E94F206882309F409C1B5
:1030700084E991E0B4C987E793E00E94DF0C6D2DED
:1030800070E090E080E04AE00E949B0C8EE892E0C5
:103090000E948E0CCACA82EA93E00E94E10CF5CA33
:1030A00061E0F60180810E94FC0269CB8AEB93E02B
:1030B0000E94E10C64CB2F3F310509F47BCB85ECFA
:1030C00093E00E94DF0C76CB2F3F310509F485CBCE
:1030D00081ED93E00E94DF0C80CB2F3F310509F496
:1030E0008FCB8DED93E00E94DF0C8ACB88E0E4E18A
:1030F000F2E0ACE0B2E001900D928A95E1F711CCDC
:103100008BEE93E00E94DF0C0CCC88E0E4E1F2E06F
:10311000A4E0B2E001900D928A95E1F752CC87EFDE
:1031200093E00E94DF0C4DCC1092840568CDFF2403
:10313000F394F092840563CD86E094E00E94DF0C66
:103140005ECD73016201E894F7F82FEF3FEF4FE790
:103150005FE7C701B6010E94E71B81110DC02FEF89
:103160003FEF4FE75FE7C701B6010E941D1A18162F
:103170001CF48FE294E02CCE2FEF3FEF4FE75FE49B
:10318000C301B2010E94751B18161CF483E394E07E
:103190001FCE2FEF3FEF4FE75FECC301B2010E945C
:1031A0001D1A87FDF3CF20E030E0A901C301B20171
:1031B0000E941D1A87FF09C06DE280EE94E00E9414
:1031C000360577FA709477F870942AE037ED43EA81
:1031D0005BE3C301B2010E94B1196B017C010E9443
:1031E000941A2B013C010E94C31A9B01AC01C70138
:1031F000B6010E94B0196B017C014AE0C301B20123
:103200000E949B0C6EE280EE94E00E94360520E066
:1032100030E040E251E4C701B6010E947A1B6B0125
:103220007C010E94941A2B01712C612C4AE0C3018D
:10323000B2010E949B0CC301B2010E94C31A9B0100
:10324000AC01C701B6010E94B01920E030E040E2B5
:1032500051E40E947A1B0E94941A90E080E04AE0B8
:103260000E949B0CB7CD89EA95E00E941D0910923F
:10327000AC0447CE81EC95E00E941D091092A30496
:103280006DCE87E394E00E94E10C89E594E0ABC841
:10329000F999FECF92BD81BDF89A992780B508951E
:1032A000262FF999FECF1FBA92BD81BD20BD0FB662
:1032B000F894FA9AF99A0FBE0196089597FB072E93
:1032C00016F4009407D077FD09D00E949C1907FCE2
:1032D00005D03EF4909581959F4F08957095619526
:1032E0007F4F0895A1E21A2EAA1BBB1BFD010DC042
:1032F000AA1FBB1FEE1FFF1FA217B307E407F507A6
:1033000020F0A21BB30BE40BF50B661F771F881F81
:10331000991F1A9469F760957095809590959B0117
:10332000AC01BD01CF010895EE0FFF1F881F8BBFB9
:103330000790F691E02D1994AA1BBB1B51E107C021
:10334000AA1FBB1FA617B70710F0A61BB70B881F35
:10335000991F5A95A9F780959095BC01CD010895C4
:103360005058BB27AA270E94C8190C943B1B0E94E7
:103370002D1B38F00E94341B20F039F49F3F19F4C4
:1033800026F40C942A1B0EF4E095E7FB0C94241B06
:10339000E92F0E944C1B58F3BA1762077307840782
:1033A000950720F079F4A6F50C946E1B0EF4E095C9
:1033B0000B2EBA2FA02D0B01B90190010C01CA01EF
:1033C000A0011124FF27591B99F0593F50F4503E9A
:1033D00068F11A16F040A22F232F342F4427585F8C
:1033E000F3CF469537952795A795F0405395C9F7A4
:1033F0007EF41F16BA0B620B730B840BBAF091505C
:10340000A1F0FF0FBB1F661F771F881FC2F70EC0FA
:10341000BA0F621F731F841F48F4879577956795CD
:10342000B795F7959E3F08F0B0CF9395880F08F0B9
:103430009927EE0F9795879508950E94001B08F431
:1034400081E008950E94361A0C943B1B0E94341BA5
:1034500058F00E942D1B40F029F45F3F29F00C9496
:10346000241B51110C946F1B0C942A1B0E944C1BA3
:1034700068F39923B1F3552391F3951B550BBB27A3
:10348000AA2762177307840738F09F5F5F4F220FE8
:10349000331F441FAA1FA9F335D00E2E3AF0E0E8DF
:1034A00032D091505040E695001CCAF72BD0FE2F29
:1034B00029D0660F771F881FBB1F261737074807BD
:1034C000AB07B0E809F0BB0B802DBF01FF27935875
:1034D0005F4F3AF09E3F510578F00C94241B0C94FA
:1034E0006F1B5F3FE4F3983ED4F38695779567951D
:1034F000B795F7959F5FC9F7880F911D96958795AA
:1035000097F90895E1E0660F771F881FBB1F6217C8
:1035100073078407BA0720F0621B730B840BBA0B86
:10352000EE1F88F7E09508950E94541B88F09F577E
:1035300098F0B92F9927B751B0F0E1F0660F771FD7
:10354000881F991F1AF0BA95C9F714C0B13091F0CD
:103550000E946E1BB1E008950C946E1B672F782FAC
:103560008827B85F39F0B93FCCF386957795679592
:10357000B395D9F73EF490958095709561957F4FFE
:103580008F4F9F4F0895E89409C097FB3EF49095A4
:103590008095709561957F4F8F4F9F4F9923A9F02C
:1035A000F92F96E9BB279395F695879577956795BB
:1035B000B795F111F8CFFAF4BB0F11F460FF1BC0FF
:1035C0006F5F7F4F8F4F9F4F16C0882311F096E992
:1035D00011C0772321F09EE8872F762F05C0662340
:1035E00071F096E8862F70E060E02AF09A95660FF9
:1035F000771F881FDAF7880F9695879597F90895B2
:10360000990F0008550FAA0BE0E8FEEF16161706F3
:10361000E807F907C0F012161306E407F50798F05B
:10362000621B730B840B950B39F40A2661F0232B74
:10363000242B252B21F408950A2609F4A140A695F0
:103640008FEF811D811D089597F99F6780E870E0D5
:1036500060E008959FEF80EC089500240A94161608
:10366000170618060906089500240A941216130670
:10367000140605060895092E0394000C11F48823FE
:1036800052F0BB0F40F4BF2B11F460FF04C06F5F1A
:103690007F4F8F4F9F4F089557FD9058440F551FF0
:1036A00059F05F3F71F04795880F97FB991F61F0C4
:1036B0009F3F79F087950895121613061406551F3B
:1036C000F2CF4695F1DF08C0161617061806991FA7
:1036D000F1CF86957105610508940895E894BB279C
:1036E00066277727CB0197F908950E94001B08F4FD
:1036F0008FEF08950E948D1B0C943B1B0E942D1B85
:1037000038F00E94341B20F0952311F00C94241BF8
:103710000C942A1B11240C946F1B0E944C1B70F3F9
:10372000959FC1F3950F50E0551F629FF001729F66
:10373000BB27F00DB11D639FAA27F00DB11DAA1F75
:10374000649F6627B00DA11D661F829F2227B00DC2
:10375000A11D621F739FB00DA11D621F839FA00D4D
:10376000611D221F749F3327A00D611D231F849F9D
:10377000600D211D822F762F6A2F11249F575040F4
:103780009AF0F1F088234AF0EE0FFF1FBB1F661F6F
:10379000771F881F91505040A9F79E3F510580F038
:1037A0000C94241B0C946F1B5F3FE4F3983ED4F3FE
:1037B000869577956795B795F795E7959F5FC1F7DC
:1037C000FE2B880F911D9695879597F908950E9475
:0C37D000001B880B990B0895F894FFCFA4
:1037DC0078007800000000002042E80300000000A0
:1037EC002042E803000000002042E8032000000013
:1037FC0000000000200000000000000001304050DC
:10380C001005004020050040300500401006004027
:10381C001106004020060040210600402206004010
:10382C0027002900200022002400260028002A005E
:10383C00010001000800200040008000000100048D
:10384C00010001000800400000010004000000001D
:10385C003605A004CD048305FE04DC04F0040D0A37
:10386C00004954696D6572312063616C6C65642C20
:10387C00206D696C6C69732829203D2000484947EC
:10388C0048004C4F570046696C74726F7320646526
:10389C00736162696C697461646F7321004275664F
:1038AC006665722043414E206C696D706F21005724
:1038BC0061746368646F6720686162696C697461C4
:1038CC00646F21004C6F6F7020726F64616E646F57
:1038DC002E2E2E00494E54206D75646F752070612C
:1038EC0072613A2000494E54203D204C4F572C20F9
:1038FC006C656E646F206D656E736167656D2E2EE1
:10390C002E0052583A20307800205B005D002020B9
:10391C002D3E204845415254424541542120526588
:10392C0073706F6E64656E646F2E2E2E0020202DCA
:10393C003E20526573706F73746120656E76696199
:10394C006461204F4B210020202D3E204552524FC8
:10395C0020616F20656E76696172212043C3B36468
:10396C0069676F3A200020202D3E20524553455464
:10397C0021004552524F20616F206C657220627598
:10398C00666665722043414E21004572726F72204B
:10399C004C454473004572726F722050574D203164
:1039AC00004572726F722050574D20320045727272
:1039BC006F7220456E636F646572004572726F7230
:1039CC00203078343033004572726F722030783486
:1039DC003033202B34004572726F722030783430C3
:1039EC00350054656D70657261747572612031209B
:1039FC0046696C74726164613A20006E616E006994
:103A0C006E66006F7666004D435032353135204975
:103A1C006E697469616C697A65642053756363655A
:103A2C00737366756C6C79210054457374652073DF
:103A3C006520657374612066756E63696F6E616E67
:103A4C00646F004572726F7220496E697469616CA3
:103A5C00697A696E67204D4350323531352E2E2EE2
:023A6C00000058
:00000001FF
