:100000000C94A4010C94D5010C94D5010C94D50149
:100010000C94D5010C94D5010C94D5010C94D50108
:100020000C94D5010C94D5010C94D5010C94D501F8
:100030000C94D5010C94D5010C94D5010C94D501E8
:100040000C94D5010C94D5010C94D5010C94D501D8
:100050000C94D5010C94D5010C94D5010C94AE0DE3
:100060000C94D5010C94220E0C94F80D0C94D5012F
:100070000C94D5010C94D5010C94D5010C94D501A8
:100080000C94EE0E0C94D5010C94D5010C94D50172
:100090000C94D5010C94D5010C94D5010C94D50188
:1000A0000C94D5010C94D5010C94D5010C94D50178
:1000B0000C94D5010C94D5010C94D5010C94580ED8
:1000C0000C94D5010C94D5010C94D5010C94D50158
:1000D0000C94D5010C94D5010C94D5010C94D50148
:1000E0000C94D5010C9483020C94B0040C948E04EF
:1000F0000C94A1020C94FE0C0C94E9030C94740271
:100100000C9447040C9407040C94BC030C949702C1
:100110000C94B2030C94AE020C94A9020C947F04CC
:100120000C9480020C9484030C94E8040C947802E0
:100130000C94AF020C949B020C9498030C94D00383
:100140000C94A2030C9452040C9435050C94A20454
:100150000C948E030C94840F0C94B3020C94110431
:100160000C94AA030C9493020C94F3030C9477035D
:100170000C9489020C94C6030C94DF030C948D023A
:100180000C94FD030C94A5020C946E020C947C025A
:100190000C947F0352657475726E696E6720746F7C
:1001A0002050726576696F7573204D6F64652046C7
:1001B00061696C7572652E2E2E0053657474696EBC
:1001C000672042617564726174652053756363656D
:1001D000737366756C2100456E746572696E672075
:1001E000436F6E66696775726174696F6E204D6FDB
:1001F0006465205375636365737366756C21004590
:100200006E746572696E6720436F6E66696775729A
:100210006174696F6E204D6F6465204661696C750D
:1002200072652E2E2E0000002100240027002A00D7
:100230002D003000330001010000040107010A0114
:1002400000002200250028002B002E003100340081
:1002500002010000050108010B010000200023003D
:10026000260029002C002F003200000100000301AD
:100270000601090105050505070508080808020229
:1002800002020A0A08080404040401010101010130
:1002900001010303030303030303040707070C0C13
:1002A0000C0C0C0C0C0C02020202060606060606DA
:1002B00006060B0B0B0B0B0B0B0B0102102020087F
:1002C00008102040102040800201020108040201B1
:1002D0000102040810204080804020100804020120
:1002E0008004020180402010080402010804020179
:1002F0000102040810204080010204081020408000
:1003000000000A0B02090C0D0E080703040100008F
:1003100000000000000000000000000000000000DD
:10032000000000000000000000000000121110009A
:1003300000000000000000000000000000000000BD
:10034000000000000000840F11241FBECFEFD1E297
:10035000DEBFCDBF00E00CBF14E0A0E0B2E0E4E5FA
:10036000F5E300E00BBF02C007900D92A83DB10776
:10037000D9F726E0A8EDB4E001C01D92A333B2077F
:10038000E1F711E0C4EAD1E000E006C021970109DD
:10039000802FFE010E945018C33AD10780E0080761
:1003A000A9F70E941C100C94A81A0C940000FC01E0
:1003B000A4E2B2E08C918058808311964C91119701
:1003C000842F8370818312962C91129730E0C9019B
:1003D00056E0880F991F5A95E1F7807C9F7050E096
:1003E0005595479555954795842B952B9850968311
:1003F000858376E0359527957A95E1F722831496E3
:100400004C91149750E0942F882788279F7013965B
:100410002C911397822B985090878783CA0124E0F0
:10042000959587952A95E1F78370838316962C918D
:10043000169730E015969C91159764E0969FC00141
:10044000112466E0559547956A95E1F7842B952B25
:10045000A901542F4427550F550F44275C70842B56
:10046000952B985092878187C90195958795959589
:1004700087958370848317969C9140E1949FC00177
:10048000112454E0359527955A95E1F7822B932B4B
:10049000985094878387CF0108958CBD9DBD0895A2
:1004A0008150823108F05AC0E82FF0E08827E45AE2
:1004B000FD4F8F4F0C9450187C0280026E02740224
:1004C0007802AE02830289028D02930297029B0298
:1004D000A102A502AE02A902AF02B3028091800080
:1004E0008F77809380000895809180008F7DF9CF71
:1004F00080918000877FF5CF84B58F7784BD089584
:1005000084B58F7DFBCF8091B0008F778093B00052
:1005100008958091B0008F7DF9CF809190008F7702
:10052000809390000895809190008F7DF9CF809105
:100530009000877FF5CF8091A0008F778093A000F7
:1005400008958091A0008F7DF9CF8091A000877FD2
:10055000F5CF809120018F778093200108958091BD
:1005600020018F7DF9CF80912001877FF5CFCF9338
:10057000DF93282F30E0F901E050FD4F8491F9011D
:10058000E654FD4FD491F901EC58FD4FC491CC23B2
:10059000A1F081110E945002EC2FF0E0EE0FFF1F3E
:1005A000E65AFD4FA591B491EC91ED2381E090E0E6
:1005B00009F480E0DF91CF91089580E090E0FACFD8
:1005C0001F93CF93DF93282F30E0F901E050FD4FC8
:1005D0008491F901E654FD4FD491F901EC58FD4F97
:1005E000C491CC23A9F0162F81110E945002EC2F48
:1005F000F0E0EE0FFF1FE05CFD4FA591B4918FB7C7
:10060000F894EC91111108C0D095DE23DC938FBFD4
:10061000DF91CF911F910895DE2BF8CFCF93DF9319
:1006200090E0FC01E654FD4F24918C589D4FFC0155
:1006300084918823D1F090E0880F991FFC01EA5D36
:10064000FD4FA591B491FC01E05CFD4FC591D491A3
:1006500061110EC09FB7F8948C91E22FE0958E2324
:100660008C932881E223E8839FBFDF91CF91089587
:100670008FB7F894EC91E22BEC938FBFF6CF1F93DA
:10068000CF93DF93182FEB0161E00E940E032097B8
:1006900039F460E0812FDF91CF911F910C94E0023B
:1006A000CF3FD10511F461E0F5CFE12FF0E0E0504C
:1006B000FD4FE491E150E23108F0B3C0F0E088274B
:1006C000EB59FC4F8F4F0C94501877037F03840332
:1006D0008E0398031104A203AA03B203BC03C6034A
:1006E000D003DF03E9031104F303FD03070484B51A
:1006F000806884BDC7BDDF91CF911F91089584B5F7
:10070000806284BDC8BDF7CF8091800080688093EF
:100710008000D0938900C0938800EDCF8091800045
:10072000806280938000D0938B00C0938A00E3CFD7
:1007300080918000886080938000D0938D00C0936A
:100740008C00D9CF8091B00080688093B000C093B6
:10075000B300D1CF8091B00080628093B000C0938D
:10076000B400C9CF80919000806880939000D093AE
:100770009900C0939800BFCF8091900080628093D1
:100780009000D0939B00C0939A00B5CF80919000C9
:10079000886080939000D0939D00C0939C00ABCF65
:1007A0008091A00080688093A0008091A0008F7B42
:1007B0008093A000D093A900C093A8009CCF809103
:1007C000A00080628093A000D093AB00C093AA00E9
:1007D00092CF8091A00088608093A000D093AD005C
:1007E000C093AC0088CF8091200180688093200165
:1007F000D0932901C09328017ECF8091200180628F
:1008000080932001D0932B01C0932A0174CF809153
:100810002001886080932001D0932D01C0932C018A
:100820006ACFC038D1050CF03ECF33CF3FB7F89434
:100830008091250590912605A0912705B091280566
:1008400026B5A89B05C02F3F19F00196A11DB11D2B
:100850003FBFBA2FA92F982F8827BC01CD01620F67
:10086000711D811D911D42E0660F771F881F991F22
:100870004A95D1F708952FB7F894609121057091AA
:10088000220580912305909124052FBF08950E9491
:100890003B046093DC047093DD048093DE0490934A
:1008A000DF040895AF92BF92CF92DF92EF92FF9252
:1008B0000F931F93CF93DF936C017B018B01040F88
:1008C000151FEB015E01AE18BF08C017D10759F024
:1008D0006991D601ED91FC910190F081E02DC60166
:1008E0001995892B79F7C501DF91CF911F910F9150
:1008F000FF90EF90DF90CF90BF90AF900895FC01F4
:10090000538D448D252F30E0842F90E0821B930B74
:10091000541710F0CF96089501970895FC01918D1A
:10092000828D981761F0A28DAE0FBF2FB11D5D961D
:100930008C91928D9F5F9F73928F90E008958FEFBF
:100940009FEF0895FC01918D828D981731F0828D73
:10095000E80FF11D858D90E008958FEF9FEF0895CA
:10096000FC01918D228D892F90E0805C9F4F821B2E
:1009700091098F739927089589E295E00E94B00448
:1009800021E0892B09F420E0822F0895FC01A48D39
:10099000A80FB92FB11DA35ABF4F2C91848D90E0A1
:1009A00001968F739927848FA689B7892C93A08984
:1009B000B1898C91837080648C93938D848D98130E
:1009C00006C00288F389E02D80818F7D80830895A1
:1009D000EF92FF920F931F93CF93DF93EC0181E08F
:1009E000888F9B8D8C8D98131AC0E889F989808136
:1009F00085FF15C09FB7F894EE89FF896083E88969
:100A0000F98980818370806480839FBF81E090E05A
:100A1000DF91CF911F910F91FF90EF900895F62EE7
:100A20000B8D10E00F5F1F4F0F731127E02E8C8D81
:100A30008E110CC00FB607FCFACFE889F9898081C6
:100A400085FFF5CFCE010E94C604F1CFEB8DEC0FF0
:100A5000FD2FF11DE35AFF4FF0829FB7F8940B8FE3
:100A6000EA89FB8980818062CFCFCF93DF93EC014D
:100A7000888D8823B9F0AA89BB89E889F9898C9186
:100A800085FD03C0808186FD0DC00FB607FCF7CF42
:100A90008C9185FFF2CF808185FFEDCFCE010E9442
:100AA000C604E9CFDF91CF91089580E090E0892BD3
:100AB00029F00E94BC0481110E94000080E090E0B7
:100AC000892B49F080E090E0892B29F00E940000FA
:100AD00081110E94000080E090E0892B49F080E0C5
:100AE00090E0892B29F00E94000081110E940000F3
:100AF00080E090E0892B49F080E090E0892B29F09C
:100B00000E94000081110C940000089508958EBD8C
:100B100000000DB407FEFDCF8EB50895FF920F9330
:100B20001F93CF93DF93F82E062F142F80E591E0CB
:100B30000E944D02CFEED5E060E08A890E94E0027B
:100B400085E00E9487058F2D0E948705802F0E94D7
:100B50008705812F0E94870561E08A89DF91CF9107
:100B60001F910F91FF900C94E002FF920F931F933F
:100B7000CF93DF93C82FF62E172F042F80E591E037
:100B80000E944D0260E0809101060E94E00283E035
:100B90000E9487058C2F0E948705CF2DD12F0C0F27
:100BA0001D2F111DC017D10729F080E00E94870575
:100BB0008993F8CF61E080910106DF91CF911F9179
:100BC0000F91FF900C94E0021F93CF93DF93182FA7
:100BD00080E591E00E944D02CFEED5E060E08A8989
:100BE0000E94E00283E00E948705812F0E94870512
:100BF00080E00E948705182F61E08A890E94E00248
:100C0000812FDF91CF911F9108950F931F93CF9361
:100C1000DF9300D01F92CDB7DEB7182F1092EF05EB
:100C20001092F0051092F1051092F2051092F30562
:100C300044E0BE016F5F7F4F0E94B5052A81898124
:100C400038E0839FC0011124422F50E065E05595A4
:100C500047956A95E1F7840F951F092E000CAA0BA2
:100C6000BB0B8093F0059093F105A093F205B09330
:100C7000F30523FF29C032E0880F991FAA1FBB1F6D
:100C80003A95D1F72370820F911DA11DB11DBA2F86
:100C9000A92F982F88272B81820F911DA11DB11D8F
:100CA000BA2FA92F982F88272C81820F911DA11D63
:100CB000B11D8093F0059093F105A093F205B093D8
:100CC000F30581E08093EF058FEF810F0E94E4052B
:100CD000082F84E0810F0E94E40503FF16C091E015
:100CE0009093FD05482F4F704093F40565EF75E034
:100CF00085E0810F0E94B5050F900F900F900F9027
:100D0000DF91CF911F910F9108951092FD05EACFC9
:100D1000CF93DF93C82F0E943B04D62F4C2F60EE59
:100D20008FE00E948E058EE00E94E405807EC81749
:100D300049F00E943B046D1B693C80F381E0DF9128
:100D4000CF91089580E0FBCFCF93DF93C82F8EE043
:100D50000E94E405807E8032F9F4C032E9F08BE233
:100D60000E94E405D82FD07486FD05C040E460E4FD
:100D70008BE20E948E0540E460E48CE20E948E05C6
:100D800080E60E948806811111C0D11105C040E0A3
:100D900060E48BE20E948E0540E060E48CE20E94F9
:100DA0008E058C2FDF91CF910C94880681E0DF9126
:100DB000CF9108951F93CF93DF9380E591E00E9438
:100DC0004D02CFEED5E060E08A890E94E00280EA21
:100DD0000E94870580E00E948705182F61E08A89BC
:100DE0000E94E002812FDF91CF911F910895EF9231
:100DF000FF920F931F93CF93DF937C018B01EA0146
:100E00000E94DA0680FF52C081E60E94050640E09B
:100E100061E08CE20E948E058091EF05882389F0C5
:100E20008091F0059091F105A091F205B091F30544
:100E3000B0688093F0059093F105A093F205B0930C
:100E4000F3058091FD05882389F08091F00590914C
:100E5000F105A091F205B091F305B0648093F0051F
:100E60009093F105A093F205B093F3058091F005FE
:100E70009091F105A091F205B091F305F7018083FF
:100E80009183A283B3838091F405F8018083A5EF59
:100E9000B5E0FE012091F405CF018C1B9D0B2817B6
:100EA0001906A1F09CF08D918193F4CF81FF06C0CB
:100EB00081E70E94050640E062E0ABCF84E0DF916D
:100EC000CF911F910F91FF90EF90089580E0F7CFA1
:100ED0000F931F93CF93DF93082F162F80E591E098
:100EE0000E944D02CFEED5E060E08A890E94E002C8
:100EF00082E00E948705802F0E948705812F0E9433
:100F0000870561E08A89DF91CF911F910F910C9441
:100F1000E002FF920F931F93CF93DF93C82FF62E1B
:100F2000172F042F80E591E00E944D0260E0809130
:100F300001060E94E00282E00E9487058C2F0E9439
:100F40008705CF2DD12F0C0F1D2F111DC017D107D5
:100F500021F089910E948705F9CF61E08091010617
:100F6000DF91CF911F910F91FF900C94E002CF93EE
:100F7000DF9300D01F92CDB7DEB71C821B82613099
:100F800081F498E09A83198244E0BE016F5F7F4F3D
:100F90000E9489070F900F900F900F90DF91CF91D3
:100FA00008951A82F0CF2F923F924F925F926F92E4
:100FB0007F928F929F92AF92CF92DF92EF92FF92A9
:100FC0000F931F93CF93DF9300D01F92CDB7DEB75F
:100FD0006093F0057093F1058093F2059093F3050B
:100FE00096FB552750F95093FD05662797FD6395AD
:100FF0007727882799276093EF054093F405F90137
:10100000A5EFB5E0C901089621912D93E817F907DE
:10101000D9F70E9416042B013C0180902C0290907D
:101020002D02A0902E021E0124E0220E311C898286
:101030009A82AB82CE0101966C01F82E0D2DF6013D
:1010400011916F01812F0E94E40583FD14C01F5F81
:10105000E12C0E941604DC01CB0184199509A60934
:10106000B709F2E0EF120EC0843C9940A105B1052A
:10107000F0F206E07DC02C143D0409F710E072E0A8
:10108000E72EE7CF843C9940A105B10590F7409148
:10109000F40565EF75E085E0810F0E948907809176
:1010A000FD05813029F48091F40580648093F40576
:1010B0006091F40584E0810F0E9468074091F0057B
:1010C0005091F1056091F2057091F3058091EF0563
:1010D0008130D9F54C835B83AB0166277727842F5A
:1010E00083708860942F990F990F990F907E892BA8
:1010F0008A8365E0569547956A95E1F7498344E010
:101100006F2D702F812F0E948907115048E068E0F1
:10111000812F0E948E050E9416046B017C01812F95
:101120000E94E405082F08700E941604DC01CB0120
:101130008C199D09AE09BF090023A9F0843C994090
:10114000A105B10560F307E013C0CA0123E096953D
:1011500087952A95E1F789834295440F407E4A831B
:101160001C821B82CCCF843C9940A105B10558F765
:10117000802F0F900F900F900F90DF91CF911F91C4
:101180000F91FF90EF90DF90CF90AF909F908F9056
:101190007F906F905F904F903F902F900895F894BC
:1011A000FC0181818330E9F034F4813071F08230C8
:1011B00091F0789408958430D1F08530D1F7809102
:1011C00073008D7F80937300F4CF80916F008D7FCB
:1011D00080936F00EECF809170008D7F80937000C0
:1011E000E8CF809171008D7F80937100E2CF809174
:1011F00072008D7F80937200DCCFFC01F894633025
:10120000C9F13CF46130C1F0623029F16183789416
:1012100008956430F1F16530C9F710922001109201
:1012200021019091210198609093210190912101D9
:10123000916090932101EACF10928000109281007A
:10124000809181008860809381008091810081601D
:1012500080938100DBCF1092B0001092B10080919A
:10126000B00082608093B0008091B1008160809373
:10127000B100CCCF1092900010929100909191000B
:10128000986090939100909191009160909391005B
:10129000BDCF1092A0001092A1009091A100986083
:1012A0009093A1009091A10091609093A100AECF86
:1012B000FC0140855185628573858181833009F405
:1012C00070C084F4813089F1823009F44CC080858B
:1012D0009185A285B385892B8A2B8B2B11F481E014
:1012E00080830895843009F47AC0853081F7DB016A
:1012F000CA014115510521E06207710520F08FEF09
:101300009FEFA0E0B0E09093290180932801481B53
:10131000590B6A0B7B0B40875187628773878091DB
:101320007300826080937300D2CFDB01CA01411544
:10133000510521E06207710520F08FEF9FEFA0E0DB
:10134000B0E09093890080938800481B590B6A0B8A
:101350007B0B408751876287738780916F00826023
:1013600080936F00B4CF4F3F51056105710529F09F
:1013700020F04FEF50E060E070E04093B3008085D4
:101380009185A285B385841B950BA60BB70B80872F
:101390009187A287B38780917000826080937000EC
:1013A00096CFDB01CA014115510521E062077105A5
:1013B00020F08FEF9FEFA0E0B0E090939900809332
:1013C0009800481B590B6A0B7B0B4087518762873B
:1013D00073878091710082608093710078CFDB0108
:1013E000CA014115510521E06207710520F08FEF18
:1013F0009FEFA0E0B0E09093A9008093A800481B65
:10140000590B6A0B7B0B40875187628773878091EA
:1014100072008260809372005ACF4F925F926F92F7
:101420007F928F929F92AF92BF92CF92DF92EF9274
:10143000FF920F931F93CF93DF93EC011981111645
:101440000CF03AC14901CB01BA010E947F199B01FE
:10145000AC0160E070E08AE794E40E94DE186B0162
:101460007C012EEA37E346E856E40E94361A2B0147
:101470003C0120E030E040E85FE30E94D91887FD9E
:101480001BC18FEF9FEFDC018C879D87AE87BF87E5
:1014900020E030E040E852E4C301B201123009F428
:1014A00087C00E94311A01E010E0181674F020E0A5
:1014B00030E040E051E4C301B2010E94311A03E080
:1014C00010E0181614F402E010E0C801880F991F0C
:1014D0009C01215B3D4F5901F501619171915F01C3
:1014E00090E080E00E947F19A70196010E94361AC1
:1014F0009B01AC0160E074E284E79BE40E94DE188B
:1015000020E030E040E85FE30E946C180E94501930
:101510006115F0EC7F07FFEF8F07FFE39F07A8F54A
:101520006C837D838E839F83688779878A879B8777
:101530001B830A83F894C88AD98AEA8AFB8A9D8A1F
:101540008C8A1F8A1E8A18828981823009F08BC09A
:101550008091B100887F9A81892B8093B100CE0160
:101560000E945809789481E0DF91CF911F910F91EB
:10157000FF90EF90DF90CF90BF90AF909F908F90B3
:101580007F906F905F904F9008950F5F1F4F0630D0
:10159000110509F0A1CF6C837D838E839F836887BB
:1015A00079878A879B8785E090E09B838A83C2CF77
:1015B0000E94311A01E010E01816D4F020E030E06B
:1015C00040E051E4C301B2010E94311A02E010E090
:1015D000181674F020E030E040E050E4C301B2019E
:1015E0000E94311A04E010E0181614F403E010E031
:1015F000C801880F991F9C01215C3D4F5901F501DD
:10160000619171915F0190E080E00E947F19A701D4
:1016100096010E94361A9B01AC0160E074E284E7F7
:101620009BE40E94DE1820E030E040E85FE30E9487
:101630006C180E9450196115F0EC7F07FFE38F07CB
:10164000910508F46DCF0F5F1F4F08301105B9F6F3
:101650006C837D838E839F83688779878A879B8746
:1016600087E090E0A2CF813041F480918100887FB3
:101670009A81892B8093810072CF833041F48091CD
:101680009100887F9A81892B8093910068CF843064
:1016900041F48091A100887F9A81892B8093A100D9
:1016A0005ECF853009F05BCF80912101887F9A81E0
:1016B000892B8093210153CF80E056CFCF93DF93C6
:1016C000EC01F894298188859985AA85BB8522300B
:1016D000A9F18F3F9F4FA105B10518F4CE010E94DB
:1016E000580988859985AA85BB85AC01BD010097FD
:1016F00021E0A207B10520F04FEF5FEF60E070E05E
:10170000841B950BA60BB70B88879987AA87BB8785
:1017100088859985AA85BB85892B8A2B8B2B39F5E2
:101720008C819D81AE81BF8188879987AA87BB877D
:1017300081E088837894DF91CF9108958F3F910560
:10174000A105B10518F4CE010E9458098885998534
:10175000AA85BB85AC01BD018F3F9105A105B105EF
:1017600079F270F24FEF50E060E070E0C9CF18827C
:10177000E1CFFC0101900020E9F73197AF01481B50
:10178000590BBC0189E295E00C9452048F929F9210
:10179000AF92BF920F931F93CF93DF93CDB7DEB776
:1017A000A1970FB6F894DEBF0FBECDBF19A242308D
:1017B00008F44AE08E010F5D1F4F842E912CB12C4E
:1017C000A12CA50194010E942E18E62FB901CA018F
:1017D000EA30F4F4E05DD801EE938D01232B242B45
:1017E000252B79F790E080E0109719F0CD010E9449
:1017F000B90BA1960FB6F894DEBF0FBECDBFDF9137
:10180000CF911F910F91BF90AF909F908F900895AF
:10181000E95CE1CF0C94B90BCF93DF930E94B90B35
:10182000EC018DE692E00E94B90B8C0F9D1FDF91B9
:10183000CF9108950F931F93CF93DF938C01D0E046
:10184000C0E0F801EC0FFD1F6491662341F089E2CE
:1018500095E00E94E804892B11F02196F2CF8DE6E5
:1018600092E00E94B90B8C0F9D1FDF91CF911F91C9
:101870000F9108954F925F926F927F928F929F92F5
:10188000AF92BF92CF92DF92EF92FF921F93CF93CE
:10189000DF936B017C01142FAC019B010E94A31A02
:1018A000882399F080E792E0DF91CF911F91FF901C
:1018B000EF90DF90CF90BF90AF909F908F907F90F0
:1018C0006F905F904F900C94B90B46015701E894CC
:1018D000B7F82FEF3FEF4FE75FE7C501B4010E9474
:1018E000A31A81110DC02FEF3FEF4FE75FE7C5014E
:1018F000B4010E94D91818161CF484E792E0D4CFE2
:101900002FEF3FEF4FE75FE4C701B6010E94311AA6
:1019100018161CF488E792E0C7CF2FEF3FEF4FE790
:101920005FECC701B6010E94D91887FDF3CF20E014
:1019300030E0A901C701B6010E94D918D0E0C0E08B
:1019400087FF0AC06DE289E295E00E94E804EC019D
:10195000F7FAF094F7F8F09420E060E070E080E0AF
:101960009FE3211740F420E030E040E251E40E9480
:10197000DE1821E0F6CFA70196010E946D182B0119
:101980003C010E9450194B015C014AE00E94C60BC9
:10199000C80FD91F112309F16EE289E295E00E9478
:1019A000E8046C01C501B4010E947F199B01AC01E0
:1019B000C301B2010E946C1820E030E040E251E423
:1019C0000E94361A0E94501990E080E04AE00E947E
:1019D000C60B8C0D9D1DC80FD91FCE01DF91CF9175
:1019E0001F91FF90EF90DF90CF90BF90AF909F90AE
:1019F0008F907F906F905F904F9008950F931F93FB
:101A00008CE792E00E940A0C0E943B040091EE04D5
:101A10001091EF042091F0043091F104601B710BE0
:101A2000820B930B4AE00E94C60B8DE692E00E9467
:101A3000B90B0E943B046093EE047093EF04809313
:101A4000F0049093F1041F910F9108950F931F9349
:101A5000CF93DF931F921F92CDB7DEB78C010E9408
:101A600004188983C80101960E9404188A83898119
:101A70009A810F900F90DF91CF911F910F91089550
:101A8000CF92DF92EF92FF920F931F93CF93DF934A
:101A900000D01F92CDB7DEB76E0125E0C20ED11C7B
:101AA0008E010F5F1F4F7C01E01AF10AC016D106AC
:101AB00049F0C701800F911F0E940418F80181931B
:101AC0008F01F4CF69817A818B819C810F900F9077
:101AD0000F900F90DF91CF911F910F91FF90EF909A
:101AE000DF90CF900895FF920F931F93CF93DF93D2
:101AF000EC01F62E08811981C8010E940418F8161D
:101B000021F06F2DC8010E940C18CE01DF91CF91FA
:101B10001F910F91FF900895FF920F931F93CF9302
:101B2000DF931F921F92CDB7DEB78C01F72E9A83F9
:101B30008983CE0101960E94730D0F5F1F4F1A8398
:101B400009836F2DCE0101960E94730D0F900F90A7
:101B5000DF91CF911F910F91FF9008951F920F92E7
:101B60000FB60F9211242F933F938F939F93AF93B0
:101B7000BF938091210590912205A0912305B091FA
:101B800024053091200523E0230F2D3758F50196C9
:101B9000A11DB11D2093200580932105909322055E
:101BA000A0932305B09324058091250590912605E7
:101BB000A0912705B09128050196A11DB11D809324
:101BC000250590932605A0932705B0932805BF917E
:101BD000AF919F918F913F912F910F900FBE0F90DA
:101BE0001F90189526E8230F0296A11DB11DD2CF94
:101BF0001F920F920FB60F9211240BB60F922F93D4
:101C00003F934F935F936F937F938F939F93AF9384
:101C1000BF93EF93FF9389E295E00E94C604FF9182
:101C2000EF91BF91AF919F918F917F916F915F9154
:101C30004F913F912F910F900BBE0F900FBE0F90C1
:101C40001F9018951F920F920FB60F9211240BB68A
:101C50000F922F938F939F93EF93FF93E09139050A
:101C6000F0913A058081E0913F05F091400582FDB9
:101C70001DC09081809142058F5F8F732091430535
:101C8000821741F0E0914205F0E0E75DFA4F958F51
:101C900080934205FF91EF919F918F912F910F902B
:101CA0000BBE0F900FBE0F901F9018958081F2CF42
:101CB0001F920F920FB60F9211240BB60F92CF9274
:101CC000DF92EF92FF922F933F934F935F936F9327
:101CD0007F938F939F93AF93BF93EF93FF93C090A6
:101CE0000F06D0901006E0901106F0901206809139
:101CF0000406853009F04FC0C114D104E104F10499
:101D000009F467C080910306882309F45DC0E0915F
:101D10001706F0911806309741F0809119069091BE
:101D20001A06009709F44EC0199580910706909104
:101D30000806A0910906B0910A060097A140B105D6
:101D4000C4F0F8948091070690910806A0910906C6
:101D5000B0910A0680930B0690930C06A0930D0693
:101D6000B0930E0683E096E00E9458091092030695
:101D700078941C141D041E041F046CF481E0C81A1E
:101D8000D108E108F108C0920F06D0921006E09247
:101D90001106F0921206FF91EF91BF91AF919F91C2
:101DA0008F917F916F915F914F913F912F91FF9014
:101DB000EF90DF90CF900F900BBE0F900FBE0F9063
:101DC0001F9018951995B1CF83E096E00E945E0BA5
:101DD000E2CF83E096E00E94CF08DDCF1F920F9202
:101DE0000FB60F9211240BB60F92CF92DF92EF92A3
:101DF000FF922F933F934F935F936F937F938F93B4
:101E00009F93AF93BF93EF93FF93C0902706D0901B
:101E10002806E0902906F0902A0680911C0683305F
:101E200009F04FC0C114D104E104F10409F467C002
:101E300080911B06882309F45DC0E0912F06F09184
:101E40003006309741F0809131069091320600972C
:101E500009F44EC0199580911F0690912006A0911B
:101E60002106B09122060097A140B105C4F0F89474
:101E700080911F0690912006A0912106B091220624
:101E80008093230690932406A0932506B0932606FC
:101E90008BE196E00E94580910921B0678941C145E
:101EA0001D041E041F046CF481E0C81AD108E10867
:101EB000F108C0922706D0922806E0922906F092F7
:101EC0002A06FF91EF91BF91AF919F918F917F91E2
:101ED0006F915F914F913F912F91FF90EF90DF9025
:101EE000CF900F900BBE0F900FBE0F901F901895C4
:101EF0001995B1CF8BE196E00E945E0BE2CF8BE1AA
:101F000096E00E94CF08DDCFCF93DF93E9E2F5E0C2
:101F10001382128288EE93E0A0E0B0E08483958380
:101F2000A683B7838FE592E09183808385EC90E070
:101F30009587848784EC90E09787868780EC90E093
:101F4000918B808B81EC90E0938B828B82EC90E084
:101F5000958B848B86EC90E0978B868B118E128EFE
:101F6000138E148EEBE1F6E083E08183108A118AF0
:101F7000128A138A158A148A178A168A108221E017
:101F800030E03383228314821582168217821086F2
:101F90001186128613868FEF9FEFDC018487958769
:101FA000A687B787E3E0F6E045E04183108A118A0F
:101FB000128A138A158A148A178A168A1082338322
:101FC0002283148215821682178210861186128649
:101FD000138684879587A687B787CFEED5E081E201
:101FE0008A8B61E00E94E00261E08A890E940E0310
:101FF00086EC95E0998B888BEEEDF5E029E1208366
:10200000148282E390E094878387E1EDF5E02083FA
:10201000148294878387ECECF5E01182128288EEBB
:1020200093E094838383E7ECF5E01182128294833A
:102030008383DF91CF910895CF93DF93CDB7DEB740
:102040002E970FB6F894DEBF0FBECDBF789484B53F
:10205000826084BD84B5816084BD85B5826085BDA4
:1020600085B5816085BD80916E00816080936E0032
:102070001092810080918100826080938100809124
:1020800081008160809381008091800081608093D5
:1020900080008091B10084608093B1008091B00095
:1020A00081608093B0008091910082608093910064
:1020B0008091910081608093910080919000816077
:1020C000809390008091A10082608093A100809114
:1020D000A10081608093A1008091A0008160809325
:1020E000A0008091210182608093210180912101D3
:1020F0008160809321018091200181608093200183
:1021000080917A00846080937A0080917A00826066
:1021100080937A0080917A00816080937A00809128
:102120007A00806880937A001092C10061E08DE0AF
:102130000E940E0361E087E20E940E0361E089E2E3
:102140000E940E0361E080E20E940E0361E082E2E1
:102150000E940E0361E084E20E940E0361E086E2C9
:102160000E940E0361E088E20E940E0361E08AE2B1
:102170000E940E0360E083E00E940E0361E08CE2A7
:102180000E940E0361E08EE20E940E0361E088E08F
:102190000E940E0361E086E00E940E0361E085E28A
:1021A0000E940E0361E080E10E940E0361E080E185
:1021B0000E940E0361E081E10E940E0361E080E174
:1021C0000E94E00261E081E10E94E002E0913905B5
:1021D000F0913A0582E08083E0913505F091360573
:1021E0001082E0913705F091380580E180831092EC
:1021F0004105E0913D05F0913E0586E08083E09148
:102200003B05F0913C05808180618083E0913B0536
:10221000F0913C05808188608083E0913B05F091DE
:102220003C05808180688083E0913B05F0913C050E
:1022300080818F7D808360911C068BE196E00E94F7
:10224000FD086091040683E096E00E94FD081FB738
:10225000F8948091E004811127C0E9EAF2E08491CA
:10226000EFEEF2E09491E82FF0E0EE0FFF1FEA5D51
:10227000FD4FA591B491EC91E92321F461E085E350
:102280000E94E00261E085E30E940E038CB580614C
:102290008CBD8CB580648CBD61E084E30E940E032C
:1022A00061E083E30E940E038091E0048F5F8093DE
:1022B000E0041FBF80E591E00E944D0260E0809144
:1022C00001060E94E00280EC0E94870561E0809197
:1022D00001060E94E0020E9416046B017C0185E069
:1022E000882E912CA12CB12C0E9416046C197D090A
:1022F0008E099F09683E734081059105A8F321E08E
:10230000821A9108A108B10848EEC40E43E0D41E19
:10231000E11CF11C81149104A104B10429F780E4AB
:102320008093020680E80E94A406882309F454C121
:102330008FEF91E00E941A0C8AEB94E00E940C0C43
:102340001092020680E00E94A40604E610E00E94BB
:10235000DA06837069F0AE014F5F5F4FBE01635FC5
:102360007F4FCE0109960E94F7060150110979F7B7
:1023700083EA92E00E940C0C90E080E00E94400D05
:1023800060930E0270930F028093100290931102DB
:1023900088E090E00E94260D909313028093120231
:1023A0008CE090E00E94041880930D0284E090E09D
:1023B0000E94400D6093060270930702809308020A
:1023C000909309028AE090E00E94260D90930B0200
:1023D00080930A028DE090E00E9404188093050229
:1023E00081E08093CC0584E690E09093D0058093C3
:1023F000CF050E943B046093F5047093F60480932C
:10240000F7049093F80485EB92E00E940C0CBCE07A
:102410002B2E312C17E1412E15E0512E0AEF602EA4
:10242000712C80911C0590911D05A0911E05B09105
:102430001F050196A11DB11D80931C0590931D05DC
:10244000A0931E05B0931F050E943B040091180540
:102450001091190520911A0530911B05601B710B15
:10246000820B930B693E734081059105E0F08DE08E
:102470000E94B70261E0892B09F060E08DE00E94C4
:10248000E00210921C0510921D0510921E0510927C
:102490001F050E943B0460931805709319058093F3
:1024A0001A0590931B0583E00E94B7028C01892BCB
:1024B00009F0C9C344E252E067E175E08BEE95E0B4
:1024C0000E94F7068111BFC3C090EB05D090EC05C8
:1024D000E090ED05F090EE052FE1F22240E1C41608
:1024E00045E0D406E104F10409F445C086E2C816CB
:1024F00084E0D806E104F10409F409C58CED92E00A
:102500000E940A0C6091EB057091EC058091ED053D
:102510009091EE0540E10E94C60B86EE92E00E948B
:102520000A0C40E1C701B6010E94C60B87EF92E09A
:102530000E940A0C6091170570E090E080E04AE08C
:102540000E94C60B8DE692E00E94B90B91E0C9167D
:1025500094E0D906E104F10409F0ACC080E093E016
:102560000E940C0C2CE132E048E061E074E080E075
:1025700090E00E94D30745E0C41644E0D406E1048D
:10258000F10409F0B7C18091240290E026E095950E
:1025900087952A95E1F7182F823070F48093CD0546
:1025A00082EA93E00E940A0C88E992E0111102C0CD
:1025B0008EE992E00E940C0C8091CD05E0E48E9FA4
:1025C000C00111248D879E01235F3F4F48E065E2E3
:1025D00074E080E090E035C387ED91E00E941A0C32
:1025E00060E08AE20E94680761ED89E20E94680764
:1025F00061E888E20E9468078AEB91E00E941A0C69
:1026000061E080E20E94B70761E084E20E94B707C0
:1026100061E080E00E94B70760E084E00E94B707B5
:1026200061E088E00E94B70760E080E10E94B707A0
:1026300061E084E10E94B70760E088E10E94B7078B
:1026400010E360E0812F0E94680760E080E1810F65
:102650000E94680760E080E2810F0E9468071F5FA8
:102660001E3379F760E080E60E94680760E080E74B
:102670000E94680763E08BE20E9468076CE38CE0CD
:102680000E94680760E08DE00E94680744E664E607
:1026900080E60E948E0540E660E680E70E948E0597
:1026A000809102060E94A406882309F4A6C484E946
:1026B00091E040CEE2E0CE16E4E0DE06E104F10473
:1026C00009F0B9C183E193E00E940C0C80912402CF
:1026D000282F237030E030930E0520930D0590E0F5
:1026E0009C01359527953595279523703327309391
:1026F0000C0520930B059C0154E0359527955A95C0
:10270000E1F72370332730930A052093090566E02B
:10271000959587956A95E1F790930805809307054D
:1027200080912502282F237030E0309316052093E6
:10273000150590E09C0135952795359527952370D3
:10274000332730931405209313059C01E4E035955D
:102750002795EA95E1F723703327309312052093EC
:102760001105F6E095958795FA95E1F79093100598
:1027700080930F05A7E0AA2EA5E0BA2E0FE212E083
:10278000F501819191915F0160E0009719F0019747
:1027900029F461E0F80180810E94E0020E5F1F4F82
:1027A0004A145B0469F780912602282F30E02B3F02
:1027B00031050CF022C1FFEF8F9FC0011124B3013E
:1027C0000E941A189B0180912702482F50E04B3F2E
:1027D00051050CF01BC14FEF849FC0011124B301C0
:1027E0000E941A185B0180912802482F50E04B3F4D
:1027F00051050CF017C1EFEF8E9FC0011124B301FA
:102800000E941A188B0137FD08C0309306052093EB
:102810000505B9018CE20E943F03B7FC08C0B092E5
:102820000405A0920305B5018EE20E943F0317FD47
:1028300004C0109302050093010520910105309119
:10284000030540910505809107059091080556E024
:10285000880F991F5A95E1F76091090570910A0553
:10286000E4E0660F771FEA95E1F7862B90910D055E
:10287000892B60910B0570910C05660F771F660F11
:10288000771F862B8093140280910F05909110057D
:10289000A6E0880F991FAA95E1F760911105709144
:1028A0001205B4E0660F771FBA95E1F7862B909179
:1028B0001505892B6091130570911405660F771F1C
:1028C000660F771F862B8093150240931602309374
:1028D0001702209318021092190210921A021092F5
:1028E0001B0224E132E048E062E274E080E090E024
:1028F0000E94D307F0E1CF16F5E0DF06E104F10412
:1029000009F0A1C18EED95E00E94D70181ED95E01F
:102910000E94D7018090E1049090E204A090E3042B
:10292000B090E4046091E3057091E405072E000C7B
:10293000880B990B0E9481192DEC3CEC4CEC5DE36B
:102940000E94361A6B017C0126E636E646E65FE316
:10295000C501B4010E94361A9B01AC01C701B60142
:102960000E946D186093E1047093E2048093E30485
:102970009093E4046093FD047093FE048093FF043D
:10298000909300058090E5049090E604A090E70401
:10299000B090E8046091D8057091D905072E000C1D
:1029A000880B990B0E9481192DEC3CEC4CEC5DE3FB
:1029B0000E94361A6B017C0126E636E646E65FE3A6
:1029C000C501B4010E94361A9B01AC01C701B601D2
:1029D0000E946D186093E5047093E6048093E70409
:1029E0009093E8046093F9047093FA048093FB04D5
:1029F0009093FC040E943B0426C12F3F310519F43B
:102A00002EEF3FEFE0CE2FEF3FEFDDCE8EEFA82E83
:102A1000BB24BA944F3F510509F4E5CEAA24AA94E9
:102A2000BA2CE1CE0EEF1FEF4F3F510509F4EBCE6C
:102A30000FEF1FEFE8CEF3E0CF16F4E0DF06E1047E
:102A4000F10409F064C280911705882309F4A5C038
:102A500087E293E00E940C0C809125028370B82ECF
:102A600080930D026091260270E090E080E00E9469
:102A70007F196B017C01C0920E02D0920F02E0928E
:102A80001002F09211028091270290E090931302BD
:102A90008093120221E020930C028091290283701E
:102AA0008093050260912A0270E090E080E00E942D
:102AB0007F19609306027093070280930802909337
:102AC000090280912B0290E090930B0280930A02FE
:102AD00041E04093040282E0B81631F1C986DA86FB
:102AE000EB86FC867E0199E0E90EF11CF70161910D
:102AF0007F011E870D87CE010D960E94730D0F5F1B
:102B00001F4F0430110591F760911202709113026A
:102B100088E090E00E948C0D60910D023E862D862B
:102B2000CE010D960E94730D80910502823089F1CD
:102B30008091060290910702A0910802B0910902CB
:102B400089839A83AB83BC83CE0101967C0104E028
:102B500010E0F70161917F011E870D87CE010D9670
:102B60000E94730D0F5F1F4F0830110591F76091A0
:102B70000A0270910B028AE090E00E948C0D609135
:102B800005028DE090E09E878D87CE010D960E9414
:102B9000730D87E493E00E940C0C92E19093140271
:102BA00080910D02837080638093150260910E0204
:102BB00070910F0280911002909111020E945019A1
:102BC000609316028091120280931702E2E1E09373
:102BD00018028091050283708063809319026091CE
:102BE00006027091070280910802909109020E94EA
:102BF000501960931A0280910A0280931B0280E7A9
:102C000093E00E940A0C04E112E0F80161918F0147
:102C100070E090E080E040E10E94C60B81E694E025
:102C20000E940A0CF2E00C311F0779F78DE692E062
:102C30000E94B90B24E132E048E063E274E080E0F6
:102C400090E00E94D3070E943B040091F50410918C
:102C5000F6042091F7043091F804AB01BC01401B4D
:102C6000510B620B730B8091CF059091D005B0E0B2
:102C7000A0E0481759076A077B0708F44BC010917A
:102C8000CD05111105C08091CC05882309F442C0FF
:102C90000E943B046093F5047093F6048093F7045C
:102CA0009093F804113011F41092CD0530E020E03B
:102CB00040E060E175E080E090E40E94D3078BE89B
:102CC00091E00197F1F730E020E040E060E275E04C
:102CD00080E090E40E94D3078BE891E00197F1F740
:102CE00030E020E040E060E375E080E090E40E94A6
:102CF000D3078BE891E00197F1F71092F30410925B
:102D0000F40423EF34E048E066E274E080E090E011
:102D10000E94D3071091F20400910D02013009F0D6
:102D200052C12091FD043091FE044091FF04509166
:102D3000000560910E0270910F0280911002909137
:102D400011020E94D91818160CF42DC1111120C0BF
:102D500081EB93E00E940C0C61E087E20E94E002AC
:102D6000409112025091130270E060E02EEF3CE0BF
:102D700083E096E00E940D0A0E943B046093EE04FB
:102D80007093EF048093F0049093F1040093F204A5
:102D90001091ED0400910502013009F029C1209144
:102DA000F9043091FA044091FB045091FC046091C5
:102DB00006027091070280910802909109020E9418
:102DC000D91818160CF404C1111116C083E094E050
:102DD0000E940C0C61E089E20E94E00240910A022C
:102DE00050910B0270E060E027E434E08BE196E064
:102DF0000E940D0A0093ED0470E060E085E20E94FD
:102E00003F0370E060E080E10E943F0370E060E01B
:102E100088E00E943F0370E060E086E00E943F038C
:102E20000E943B040091E9041091EA042091EB0414
:102E30003091EC04601B710B820B930B643F71406B
:102E40008105910508F458C00E943B046093E90491
:102E50007093EA048093EB049093EC0485E594E08E
:102E60000E940A0C6091FD047091FE048091FF04A1
:102E70009091000541E050E00E943A0C83E694E016
:102E80000E940A0C60910E0270910F028091100254
:102E90009091110250E040E00E943A0C8BE694E0E1
:102EA0000E940A0C6091F9047091FA048091FB046D
:102EB0009091FC0441E050E00E943A0C83E694E0DB
:102EC0000E940A0C6091060270910702809108022C
:102ED0009091090250E040E00E943A0C84E794E0AF
:102EE0000E940A0C4AE060E070E0CB010E94C60B31
:102EF0008DE692E00E94B90B1092EB051092EC0562
:102F00001092ED051092EE050E9455058ACA24E044
:102F1000C216D206E104F10409F02DCB84E893E057
:102F20000E940C0C809124029091250298278927F9
:102F30009827209126022170309127023370309318
:102F4000C7051092C8052093C9059093CB058093BF
:102F5000CA0585E0E7ECF5E0ACECB5E001900D9238
:102F60008A95E1F78091CC059091CE052091CF050F
:102F70003091D005309314022093150290931602DD
:102F80008370809317021092180210921902109207
:102F90001A0210921B0224E132E048E064E274E07D
:102FA00080E090E04ECE112309F4F2CE81EE93E062
:102FB0000E940C0C60E087E20E94E00283E096E051
:102FC0000E94CF0802C01111F9CF1092F204E0CE96
:102FD000112309F411CF83E394E00E940C0C60E00C
:102FE00089E20E94E0028BE196E00E94CF0802C0D5
:102FF0001111F9CF1092ED04FFCE8EE794E00E94FC
:103000000C0C80EA94E09AC9F999FECF92BD81BD7B
:10301000F89A992780B50895262FF999FECF1FBAFF
:1030200092BD81BD20BD0FB6F894FA9AF99A0FBEF1
:103030000196089597FB072E16F4009407D077FDAC
:1030400009D00E94581807FC05D03EF49095819550
:103050009F4F0895709561957F4F0895A1E21A2EB4
:10306000AA1BBB1BFD010DC0AA1FBB1FEE1FFF1F2C
:10307000A217B307E407F50720F0A21BB30BE40B7C
:10308000F50B661F771F881F991F1A9469F76095C3
:103090007095809590959B01AC01BD01CF0108957D
:1030A000EE0FFF1F881F8BBF0790F691E02D19943C
:1030B000AA1BBB1B51E107C0AA1FBB1FA617B7075E
:1030C00010F0A61BB70B881F991F5A95A9F780957A
:1030D0009095BC01CD0108955058BB27AA270E94A6
:1030E00084180C94F7190E94E91938F00E94F0191D
:1030F00020F039F49F3F19F426F40C94E6190EF4ED
:10310000E095E7FB0C94E019E92F0E94081A58F3A8
:10311000BA17620773078407950720F079F4A6F5BC
:103120000C942A1A0EF4E0950B2EBA2FA02D0B0149
:10313000B90190010C01CA01A0011124FF27591BFC
:1031400099F0593F50F4503E68F11A16F040A22F02
:10315000232F342F4427585FF3CF46953795279573
:10316000A795F0405395C9F77EF41F16BA0B620B72
:10317000730B840BBAF09150A1F0FF0FBB1F661FB9
:10318000771F881FC2F70EC0BA0F621F731F841FFC
:1031900048F4879577956795B795F7959E3F08F022
:1031A000B0CF9395880F08F09927EE0F97958795E4
:1031B00008950E94BC1908F481E008950E94F21855
:1031C0000C94F7190E94F01958F00E94E91940F088
:1031D00029F45F3F29F00C94E01951110C942B1A3B
:1031E0000C94E6190E94081A68F39923B1F3552349
:1031F00091F3951B550BBB27AA276217730784070A
:1032000038F09F5F5F4F220F331F441FAA1FA9F39F
:1032100035D00E2E3AF0E0E832D091505040E6958D
:10322000001CCAF72BD0FE2F29D0660F771F881FEE
:10323000BB1F261737074807AB07B0E809F0BB0BE1
:10324000802DBF01FF2793585F4F3AF09E3F5105F5
:1032500078F00C94E0190C942B1A5F3FE4F3983E3D
:10326000D4F3869577956795B795F7959F5FC9F7DE
:10327000880F911D9695879597F90895E1E0660F5F
:10328000771F881FBB1F621773078407BA0720F0D8
:10329000621B730B840BBA0BEE1F88F7E095089541
:1032A0000E94101A88F09F5798F0B92F9927B751AC
:1032B000B0F0E1F0660F771F881F991F1AF0BA95DA
:1032C000C9F714C0B13091F00E942A1AB1E00895F4
:1032D0000C942A1A672F782F8827B85F39F0B93FE6
:1032E000CCF3869577956795B395D9F73EF490958D
:1032F0008095709561957F4F8F4F9F4F0895E8940B
:1033000009C097FB3EF490958095709561957F4F2D
:103310008F4F9F4F9923A9F0F92F96E9BB279395DB
:10332000F695879577956795B795F111F8CFFAF4EB
:10333000BB0F11F460FF1BC06F5F7F4F8F4F9F4F1C
:1033400016C0882311F096E911C0772321F09EE87A
:10335000872F762F05C0662371F096E8862F70E0E0
:1033600060E02AF09A95660F771F881FDAF7880FBA
:103370009695879597F90895990F0008550FAA0B10
:10338000E0E8FEEF16161706E807F907C0F0121678
:103390001306E407F50798F0621B730B840B950B7B
:1033A00039F40A2661F0232B242B252B21F40895D0
:1033B0000A2609F4A140A6958FEF811D811D08956D
:1033C00097F99F6780E870E060E008959FEF80ECD8
:1033D000089500240A94161617061806090608957B
:1033E00000240A9412161306140605060895092EE1
:1033F0000394000C11F4882352F0BB0F40F4BF2B50
:1034000011F460FF04C06F5F7F4F8F4F9F4F08958F
:1034100057FD9058440F551F59F05F3F71F0479585
:10342000880F97FB991F61F09F3F79F0879508956A
:10343000121613061406551FF2CF4695F1DF08C089
:10344000161617061806991FF1CF869571056105A6
:1034500008940895E894BB2766277727CB0197F94E
:1034600008950E94BC1908F48FEF08950E94491A2C
:103470000C94F7190E94E91938F00E94F01920F015
:10348000952311F00C94E0190C94E61911240C9476
:103490002B1A0E94081A70F3959FC1F3950F50E004
:1034A000551F629FF001729FBB27F00DB11D639FF6
:1034B000AA27F00DB11DAA1F649F6627B00DA11D9C
:1034C000661F829F2227B00DA11D621F739FB00D42
:1034D000A11D621F839FA00D611D221F749F3327B2
:1034E000A00D611D231F849F600D211D822F762F4B
:1034F0006A2F11249F5750409AF0F1F088234AF028
:10350000EE0FFF1FBB1F661F771F881F9150504093
:10351000A9F79E3F510580F00C94E0190C942B1AEA
:103520005F3FE4F3983ED4F3869577956795B7951A
:10353000F795E7959F5FC1F7FE2B880F911D969534
:10354000879597F908950E94BC19880B990B0895E7
:04355000F894FFCF1D
:1035540078007800000000002042E803000000002A
:103564002042E8032000000000000000555555FFEC
:10357400FFFFFFFF20000000000000003040502744
:10358400002900200022002400260028002A00012F
:103594000001000800200040008000000100040138
:1035A400000100080040000001000400000000E8E1
:1035B4000452047F043505B0048E04A2040D0A00ED
:1035C4006E616E00696E66006F7666004954696DBF
:1035D4006572312063616C6C65642C206D696C6C60
:1035E40069732829203D20005354415254005354F8
:1035F4004F50004275666665722043414E206C69E7
:103604006D706F21004D4F444F20434F4E54494E2F
:10361400554F20494E49434941444F204155544F49
:103624004D41544943414D454E544500525820495B
:10363400443A20307800202D3E204944204C696DC6
:10364400706F3A20307800207C20444C433A2000AC
:10365400636D643A203078343031202844656275D3
:10366400672900636D643A2030783430322028535F
:10367400616964617329000A2D2D2D20434F4D414A
:103684004E444F203078343033205245434542492C
:10369400444F202D2D2D00202D3E20436F6E666952
:1036A40067757261636F65732073616C76617320F3
:1036B4006E612052414D206520454550524F4D00CA
:1036C400203E20545820283078343233292048456D
:1036D400583A2000636D643A20307834303420281E
:1036E400436F6E6669672041717569736963616FC1
:1036F4002900636D643A203078343035202D3E2023
:103704000021212120414C455254413A205431207A
:103714004C494D495445204154494E4749444F2052
:103724004163696F6E616E646F20443120212121F1
:1037340000494E464F3A205431204E6F726D616CF1
:10374400697A61646F204431204465736C696761F0
:10375400646F0021212120414C455254413A2054A8
:1037640032204C494D495445204154494E4749441F
:103774004F204163696F6E616E646F204432202173
:10378400212100494E464F3A205432204E6F726D2B
:10379400616C697A61646F204432206465736C697A
:1037A4006761646F005B5354415455535D20543139
:1037B4003A20004320284D61783A0029207C205487
:1037C400323A200029207C2050574D3A20004D43A6
:1037D400503235313520496E697469616C697A6596
:1037E40064205375636365737366756C6C7921002B
:1037F4005445737465207365206573746120667520
:103804006E63696F6E616E646F004572726F7220D1
:10381400496E697469616C697A696E67204D4350B9
:08382400323531352E2E2E0045
:00000001FF
