:100000000C94A6010C94D7010C94D7010C94D70141
:100010000C94D7010C94D7010C94D7010C94D70100
:100020000C94D7010C94D7010C94D7010C94D701F0
:100030000C94D7010C948A0F0C94D7010C94D7011F
:100040000C94D7010C94D7010C94D7010C94D701D0
:100050000C94D7010C94D7010C94D7010C94E00DAB
:100060000C94D7010C94540E0C942A0E0C94D701C6
:100070000C94D7010C94D7010C94D7010C94D701A0
:100080000C940A0F0C94D7010C94D7010C94D7014F
:100090000C94D7010C94D7010C94D7010C94D70180
:1000A0000C94D7010C94D7010C94D7010C94D70170
:1000B0000C94D7010C94D7010C94D7010C948A0EA0
:1000C0000C94D7010C94D7010C94D7010C94D70150
:1000D0000C94D7010C94D7010C94D7010C94D70140
:1000E0000C94D7010C948F020C9485020C94AC03F1
:1000F0000C9490030C9482020C94EB030C9449042E
:100100000C94D2030C9454040C94B0020C947A0214
:100110000C949A030C94C8030C94B5020C94130429
:100120000C94B1040C9409040C9481030C94A70260
:100130000C9444050C94BE030C94A3020C94AB02E3
:100140000C94F5030C9461040C94A4030C948B029E
:100150000C94E1030C9470020C940C100C94B102FA
:100160000C949D040C9476020C94F7040C94860372
:100170000C9499020C94FF030C949D020C945F0460
:100180000C947E020C94B4030C94BF040C948E0463
:100190000C9495020C94790352657475726E696EB5
:1001A0006720746F2050726576696F7573204D6F8C
:1001B0006465204661696C7572652E2E2E0053654C
:1001C0007474696E6720426175647261746520534E
:1001D00075636365737366756C2100456E74657233
:1001E000696E6720436F6E66696775726174696FC7
:1001F0006E204D6F64652053756363657373667518
:100200006C2100456E746572696E6720436F6E667F
:10021000696775726174696F6E204D6F6465204601
:1002200061696C7572652E2E2E000000210024007D
:1002300027002A002D0030003300010100000401D6
:1002400007010A0100002200250028002B002E00D3
:100250003100340002010000050108010B0100001B
:1002600020002300260029002C002F00320000016E
:100270000000030106010901050505050705080839
:100280000808020202020A0A080804040404010120
:100290000101010101010303030303030303040735
:1002A00007070C0C0C0C0C0C0C0C020202020606CC
:1002B0000606060606060B0B0B0B0B0B0B0B0102BF
:1002C0001020200808102040102040800201020168
:1002D0000804020101020408102040808040201020
:1002E0000804020180040201804020100804020179
:1002F00008040201010204081020408001020408E1
:100300001020408000000A0B02090C0D0E080703A4
:1003100004010000000000000000000000000000D8
:1003200000000000000000000000000000000000CD
:10033000121110000000000000000000000000008A
:10034000000000000000000000000C1011241FBE7F
:10035000CFEFD1E2DEBFCDBF00E00CBF17E0A0E0E1
:10036000B2E0E6E0FAE300E00BBF02C007900D92B6
:10037000AA30B107D9F728E0AAE0B7E001C01D9282
:10038000AF38B207E1F711E0C6EAD1E000E006C0FD
:1003900021970109802FFE010E94A91AC53AD107B1
:1003A00080E00807A9F70E94C5100C94011D0C9469
:1003B0000000FC01AEE2B2E08C918058808311967F
:1003C0004C911197842F8370818312962C911297F0
:1003D00030E0C90156E0880F991F5A95E1F7807CFB
:1003E0009F7050E05595479555954795842B952BD3
:1003F00098509683858376E0359527957A95E1F731
:10040000228314964C91149750E0942F88278827C4
:100410009F7013962C911397822B98509087878307
:10042000CA0124E0959587952A95E1F78370838327
:1004300016962C91169730E015969C91159764E0CE
:10044000969FC001112466E0559547956A95E1F79E
:10045000842B952BA901542F4427550F550F442762
:100460005C70842B952B985092878187C901959554
:100470008795959587958370848317969C9140E125
:10048000949FC001112454E0359527955A95E1F7C2
:10049000822B932B985094878387CF0108958CBD2E
:1004A0009DBD08958150823108F05AC0E82FF0E0D8
:1004B0008827E25AFD4F8F4F0C94A91A7E028202C0
:1004C000700276027A02B00285028B028F029502D8
:1004D00099029D02A302A702B002AB02B102B502CB
:1004E000809180008F7780938000089580918000B4
:1004F0008F7DF9CF80918000877FF5CF84B58F778E
:1005000084BD089584B58F7DFBCF8091B0008F7737
:100510008093B00008958091B0008F7DF9CF8091D5
:1005200090008F77809390000895809190008F7D48
:10053000F9CF80919000877FF5CF8091A0008F77D1
:100540008093A00008958091A0008F7DF9CF8091C5
:10055000A000877FF5CF809120018F7780932001C5
:100560000895809120018F7DF9CF80912001877FB0
:10057000F5CFCF93DF93282F30E0F901EC5FFC4FEC
:100580008491F901E254FD4FD491F901E858FD4FEF
:10059000C491CC23A1F081110E945202EC2FF0E013
:1005A000EE0FFF1FE25AFD4FA591B491EC91ED23A0
:1005B00081E090E009F480E0DF91CF91089580E040
:1005C00090E0FACF1F93CF93DF93282F30E0F9010B
:1005D000EC5FFC4F8491F901E254FD4FD491F90195
:1005E000E858FD4FC491CC23A9F0162F81110E9429
:1005F0005202EC2FF0E0EE0FFF1FEC5BFD4FA591D8
:10060000B4918FB7F894EC91111108C0D095DE2306
:10061000DC938FBFDF91CF911F910895DE2BF8CF30
:10062000CF93DF9390E0FC01E254FD4F2491885872
:100630009D4FFC0184918823D1F090E0880F991F91
:10064000FC01E65DFD4FA591B491FC01EC5BFD4F13
:10065000C591D49161110EC09FB7F8948C91E22F8F
:10066000E0958E238C932881E223E8839FBFDF915E
:10067000CF9108958FB7F894EC91E22BEC938FBF54
:10068000F6CF1F93CF93DF93182FEB0161E00E9409
:100690001003209739F460E0812FDF91CF911F91F3
:1006A0000C94E202CF3FD10511F461E0F5CFE12FC8
:1006B000F0E0EC5FFC4FE491E150E23108F0B3C0B0
:1006C000F0E08827E959FC4F8F4F0C94A91A790361
:1006D0008103860390039A031304A403AC03B403B9
:1006E000BE03C803D203E103EB031304F503FF03C6
:1006F000090484B5806884BDC7BDDF91CF911F9187
:10070000089584B5806284BDC8BDF7CF8091800014
:10071000806880938000D0938900C0938800EDCFDB
:1007200080918000806280938000D0938B00C09382
:100730008A00E3CF80918000886080938000D0930E
:100740008D00C0938C00D9CF8091B00080688093D9
:10075000B000C093B300D1CF8091B000806280938D
:10076000B000C093B400C9CF80919000806880939E
:100770009000D0939900C0939800BFCF80919000D3
:10078000806280939000D0939B00C0939A00B5CF75
:1007900080919000886080939000D0939D00C093DA
:1007A0009C00ABCF8091A00080688093A0008091D6
:1007B000A0008F7B8093A000D093A900C093A800D5
:1007C0009CCF8091A00080628093A000D093AB006A
:1007D000C093AA0092CF8091A00088608093A0006F
:1007E000D093AD00C093AC0088CF80912001806889
:1007F00080932001D0932901C09328017ECF80915E
:100800002001806280932001D0932B01C0932A01A4
:1008100074CF80912001886080932001D0932D01B6
:10082000C0932C016ACFC038D1050CF03ECF33CF36
:100830003FB7F89480915C0790915D07A0915E07A7
:10084000B0915F0726B5A89B05C02F3F19F0019610
:10085000A11DB11D3FBFBA2FA92F982F8827BC011A
:10086000CD01620F711D811D911D42E0660F771F42
:10087000881F991F4A95D1F708952FB7F894609172
:1008800058077091590780915A0790915B072FBFC5
:1008900008950E943D0460930A0770930B078093AC
:1008A0000C0790930D0708950E943D046093210763
:1008B00070932207809323079093240708950C9444
:1008C0005404AF92BF92CF92DF92EF92FF920F93B8
:1008D0001F93CF93DF936C017B018B01040F151FD6
:1008E000EB015E01AE18BF08C017D10759F069913E
:1008F000D601ED91FC910190F081E02DC601199592
:10090000892B79F7C501DF91CF911F910F91FF904E
:10091000EF90DF90CF90BF90AF900895FC01538D82
:10092000448D252F30E0842F90E0821B930B5417C9
:1009300010F0CF96089501970895FC01918D828D56
:10094000981761F0A28DAE0FBF2FB11D5D968C91EF
:10095000928D9F5F9F73928F90E008958FEF9FEF2E
:100960000895FC01918D828D981731F0828DE80FEA
:10097000F11D858D90E008958FEF9FEF0895FC01A4
:10098000918D228D892F90E0805C9F4F821B910971
:100990008F739927089580E697E00E94BF0421E0B5
:1009A000892B09F420E0822F0895FC01A48DA80F63
:1009B000B92FB11DA35ABF4F2C91848D90E00196A1
:1009C0008F739927848FA689B7892C93A089B189C1
:1009D0008C91837080648C93938D848D981306C062
:1009E0000288F389E02D80818F7D80830895EF92C6
:1009F000FF920F931F93CF93DF93EC0181E0888FD9
:100A00009B8D8C8D98131AC0E889F989808185FFA8
:100A100015C09FB7F894EE89FF896083E889F9894A
:100A200080818370806480839FBF81E090E0DF914C
:100A3000CF911F910F91FF90EF900895F62E0B8D9F
:100A400010E00F5F1F4F0F731127E02E8C8D8E115A
:100A50000CC00FB607FCFACFE889F989808185FFC1
:100A6000F5CFCE010E94D504F1CFEB8DEC0FFD2F19
:100A7000F11DE35AFF4FF0829FB7F8940B8FEA897C
:100A8000FB8980818062CFCFCF93DF93EC01888D8B
:100A90008823B9F0AA89BB89E889F9898C9185FDF9
:100AA00003C0808186FD0DC00FB607FCF7CF8C9187
:100AB00085FFF2CF808185FFEDCFCE010E94D50466
:100AC000E9CFDF91CF91089580E090E0892B29F064
:100AD0000E94CB0481110E94000080E090E0892BED
:100AE00049F080E090E0892B29F00E9400008111FC
:100AF0000E94000080E090E0892B49F080E090E0C7
:100B0000892B29F00E94000081110E94000080E0E2
:100B100090E0892B49F080E090E0892B29F00E9439
:100B2000000081110C940000089508958EBD00000E
:100B30000DB407FEFDCF8EB50895FF920F931F935E
:100B4000CF93DF93F82E062F142F80E591E00E94BB
:100B50004F02C3E3D8E060E08A890E94E20285E0A8
:100B60000E9496058F2D0E949605802F0E94960563
:100B7000812F0E94960561E08A89DF91CF911F91B4
:100B80000F91FF900C94E202FF920F931F93CF936B
:100B9000DF93C82FF62E172F042F80E591E00E94D7
:100BA0004F0260E0809145080E94E20283E00E94CB
:100BB00096058C2F0E949605CF2DD12F0C0F1D2F3F
:100BC000111DC017D10729F080E00E949605899376
:100BD000F8CF61E080914508DF91CF911F910F918F
:100BE000FF900C94E2021F93CF93DF93182F80E5C0
:100BF00091E00E944F02C3E3D8E060E08A890E943E
:100C0000E20283E00E949605812F0E94960580E013
:100C10000E949605182F61E08A890E94E202812FC6
:100C2000DF91CF911F9108950F931F93CF93DF937F
:100C300000D01F92CDB7DEB7182F10923308109254
:100C4000340810923508109236081092370844E0A4
:100C5000BE016F5F7F4F0E94C4052A81898138E001
:100C6000839FC0011124422F50E065E055954795C0
:100C70006A95E1F7840F951F092E000CAA0BBB0B98
:100C80008093340890933508A0933608B0933708C2
:100C900023FF29C032E0880F991FAA1FBB1F3A9576
:100CA000D1F72370820F911DA11DB11DBA2FA92F5D
:100CB000982F88272B81820F911DA11DB11DBA2F5E
:100CC000A92F982F88272C81820F911DA11DB11D5E
:100CD0008093340890933508A0933608B093370872
:100CE00081E0809333088FEF810F0E94F305082F76
:100CF00084E0810F0E94F30503FF16C091E09093FA
:100D00004108482F4F704093380869E378E085E048
:100D1000810F0E94C4050F900F900F900F90DF91EC
:100D2000CF911F910F91089510924108EACFCF9370
:100D3000DF93C82F0E943D04D62F4C2F60EE8FE02A
:100D40000E949D058EE00E94F305807EC81749F041
:100D50000E943D046D1B693C80F381E0DF91CF91DF
:100D6000089580E0FBCFCF93DF93C82F8EE00E94E1
:100D7000F305807E8032F9F4C032E9F08BE20E9404
:100D8000F305D82FD07486FD05C040E460E48BE203
:100D90000E949D0540E460E48CE20E949D0580E68F
:100DA0000E949706811111C0D11105C040E060E496
:100DB0008BE20E949D0540E060E48CE20E949D056C
:100DC0008C2FDF91CF910C94970681E0DF91CF912A
:100DD00008951F93CF93DF9380E591E00E944F0227
:100DE000C3E3D8E060E08A890E94E20280EA0E94C0
:100DF000960580E00E949605182F61E08A890E947E
:100E0000E202812FDF91CF911F910895EF92FF921F
:100E10000F931F93CF93DF937C018B01EA010E9414
:100E2000E90680FF52C081E60E94140640E061E0BE
:100E30008CE20E949D0580913308882389F080917F
:100E4000340890913508A0913608B0913708B06801
:100E50008093340890933508A0933608B0933708F0
:100E600080914108882389F0809134089091350859
:100E7000A0913608B0913708B064809334089093FD
:100E80003508A0933608B0933708809134089091C4
:100E90003508A0913608B0913708F7018083918317
:100EA000A283B38380913808F8018083A9E3B8E076
:100EB000FE0120913808CF018C1B9D0B28171906C5
:100EC000A1F09CF08D918193F4CF81FF06C081E762
:100ED0000E94140640E062E0ABCF84E0DF91CF9146
:100EE0001F910F91FF90EF90089580E0F7CF0F933F
:100EF0001F93CF93DF93082F162F80E591E00E9478
:100F00004F02C3E3D8E060E08A890E94E20282E0F7
:100F10000E949605802F0E949605812F0E949605BB
:100F200061E08A89DF91CF911F910F910C94E202C9
:100F3000FF920F931F93CF93DF93C82FF62E172F97
:100F4000042F80E591E00E944F0260E08091450807
:100F50000E94E20282E00E9496058C2F0E94960574
:100F6000CF2DD12F0C0F1D2F111DC017D10721F030
:100F700089910E949605F9CF61E080914508DF9143
:100F8000CF911F910F91FF900C94E202CF93DF93CA
:100F900000D01F92CDB7DEB71C821B82613081F476
:100FA00098E09A83198244E0BE016F5F7F4F0E94F0
:100FB00098070F900F900F900F90DF91CF910895A9
:100FC0001A82F0CF2F923F924F925F926F927F9250
:100FD0008F929F92AF92CF92DF92EF92FF920F93F8
:100FE0001F93CF93DF9300D01F92CDB7DEB76093EE
:100FF000340870933508809336089093370896FB31
:10100000552750F950934108662797FD6395772738
:10101000882799276093330840933808F901A9E39A
:10102000B8E0C901089621912D93E817F907D9F77F
:101030000E9418042B013C018090360290903702E8
:10104000A09038021E0124E0220E311C89829A826F
:10105000AB82CE0101966C01F82E0D2DF601119197
:101060006F01812F0E94F30583FD14C01F5FE12CE7
:101070000E941804DC01CB0184199509A609B7095F
:10108000F2E0EF120EC0843C9940A105B105F0F2E8
:1010900006E07DC02C143D0409F710E072E0E72E55
:1010A000E7CF843C9940A105B10590F740913808FD
:1010B00069E378E085E0810F0E94980780914108FC
:1010C000813029F4809138088064809338086091D9
:1010D000380884E0810F0E947707409134085091CE
:1010E0003508609136087091370880913308813057
:1010F000D9F54C835B83AB0166277727842F8370F8
:101100008860942F990F990F990F907E892B8A836D
:1011100065E0569547956A95E1F7498344E06F2D60
:10112000702F812F0E949807115048E068E0812FAE
:101130000E949D050E9418046B017C01812F0E9472
:10114000F305082F08700E941804DC01CB018C19EC
:101150009D09AE09BF090023A9F0843C9940A1056F
:10116000B10560F307E013C0CA0123E096958795A7
:101170002A95E1F789834295440F407E4A831C8279
:101180001B82CCCF843C9940A105B10558F7802F34
:101190000F900F900F900F90DF91CF911F910F91B3
:1011A000FF90EF90DF90CF90AF909F908F907F90C7
:1011B0006F905F904F903F902F900895F894FC01AE
:1011C00081818330E9F034F4813071F0823091F024
:1011D000789408958430D1F08530D1F780917300F0
:1011E0008D7F80937300F4CF80916F008D7F80930B
:1011F0006F00EECF809170008D7F80937000E8CFFC
:10120000809171008D7F80937100E2CF8091720098
:101210008D7F80937200DCCFFC01F8946330C9F1BC
:101220003CF46130C1F0623029F161837894089513
:101230006430F1F16530C9F710922001109221015C
:1012400090912101986090932101909121019160EA
:1012500090932101EACF109280001092810080913A
:1012600081008860809381008091810081608093FB
:101270008100DBCF1092B0001092B1008091B000DD
:1012800082608093B0008091B10081608093B10052
:10129000CCCF1092900010929100909191009860A4
:1012A0009093910090919100916090939100BDCFA7
:1012B0001092A0001092A1009091A10098609093CC
:1012C000A1009091A10091609093A100AECFFC018C
:1012D00040855185628573858181833009F470C0B2
:1012E00084F4813089F1823009F44CC08085918585
:1012F000A285B385892B8A2B8B2B11F481E0808307
:101300000895843009F47AC0853081F7DB01CA0181
:101310004115510521E06207710520F08FEF9FEF25
:10132000A0E0B0E09093290180932801481B590B5D
:101330006A0B7B0B408751876287738780917300AC
:10134000826080937300D2CFDB01CA014115510541
:1013500021E06207710520F08FEF9FEFA0E0B0E081
:101360009093890080938800481B590B6A0B7B0B74
:10137000408751876287738780916F008260809376
:101380006F00B4CF4F3F51056105710529F020F082
:101390004FEF50E060E070E04093B30080859185AE
:1013A000A285B385841B950BA60BB70B808791870D
:1013B000A287B3878091700082608093700096CF7F
:1013C000DB01CA014115510521E06207710520F0DA
:1013D0008FEF9FEFA0E0B0E090939900809398008A
:1013E000481B590B6A0B7B0B4087518762877387B9
:1013F0008091710082608093710078CFDB01CA0117
:101400004115510521E06207710520F08FEF9FEF34
:10141000A0E0B0E09093A9008093A800481B590B6E
:101420006A0B7B0B408751876287738780917200BC
:101430008260809372005ACF4F925F926F927F9238
:101440008F929F92AF92BF92CF92DF92EF92FF92D4
:101450000F931F93CF93DF93EC01198111160CF0BA
:101460003AC14901CB01BA010E94D81B9B01AC01D2
:1014700060E070E08AE794E40E94371B6B017C0116
:101480002EEA37E346E856E40E948F1C2B013C010C
:1014900020E030E040E85FE30E94321B87FD1BC183
:1014A0008FEF9FEFDC018C879D87AE87BF8720E0A1
:1014B00030E040E852E4C301B201123009F487C0C1
:1014C0000E948A1C01E010E0181674F020E030E061
:1014D00040E051E4C301B2010E948A1C03E010E025
:1014E000181614F402E010E0C801880F991F9C013F
:1014F000275A3D4F5901F501619171915F0190E0CB
:1015000080E00E94D81BA70196010E948F1C9B01BE
:10151000AC0160E074E284E79BE40E94371B20E0AA
:1015200030E040E85FE30E94C51A0E94A91B6115E4
:10153000F0EC7F07FFEF8F07FFE39F07A8F56C83B1
:101540007D838E839F83688779878A879B871B83A8
:101550000A83F894C88AD98AEA8AFB8A9D8A8C8A87
:101560001F8A1E8A18828981823009F08BC080917F
:10157000B100887F9A81892B8093B100CE010E94AF
:101580006709789481E0DF91CF911F910F91FF90CF
:10159000EF90DF90CF90BF90AF909F908F907F9013
:1015A0006F905F904F9008950F5F1F4F06301105A9
:1015B00009F0A1CF6C837D838E839F8368877987B1
:1015C0008A879B8785E090E09B838A83C2CF0E94B5
:1015D0008A1C01E010E01816D4F020E030E040E072
:1015E00051E4C301B2010E948A1C02E010E0181607
:1015F00074F020E030E040E050E4C301B2010E940A
:101600008A1C04E010E0181614F403E010E0C8018E
:10161000880F991F9C01275B3D4F5901F50161918E
:1016200071915F0190E080E00E94D81BA7019601B4
:101630000E948F1C9B01AC0160E074E284E79BE494
:101640000E94371B20E030E040E85FE30E94C51AAB
:101650000E94A91B6115F0EC7F07FFE38F0791053E
:1016600008F46DCF0F5F1F4F08301105B9F66C837A
:101670007D838E839F83688779878A879B8787E0AE
:1016800090E0A2CF813041F480918100887F9A81DF
:10169000892B8093810072CF833041F48091910037
:1016A000887F9A81892B8093910068CF843041F4A0
:1016B0008091A100887F9A81892B8093A1005ECFC1
:1016C000853009F05BCF80912101887F9A81892B39
:1016D0008093210153CF80E056CFCF93DF93EC016D
:1016E000F8948C819D81AE81BF8188879987AA8774
:1016F000BB87CE010E94670918827894DF91CF9151
:101700000895CF93DF93EC01F8942981888599851A
:10171000AA85BB852230A9F18F3F9F4FA105B10556
:1017200018F4CE010E94670988859985AA85BB8532
:10173000AC01BD01009721E0A207B10520F04FEFF9
:101740005FEF60E070E0841B950BA60BB70B8887FA
:101750009987AA87BB8788859985AA85BB85892BA8
:101760008A2B8B2B39F58C819D81AE81BF81888737
:101770009987AA87BB8781E088837894DF91CF918E
:1017800008958F3F9105A105B10518F4CE010E947F
:10179000670988859985AA85BB85AC01BD018F3F06
:1017A0009105A105B10579F270F24FEF50E060E0CC
:1017B00070E0C9CF1882E1CFFC0101900020E9F769
:1017C0003197AF01481B590BBC0180E697E00C94A0
:1017D00061048F929F92AF92BF920F931F93CF930A
:1017E000DF93CDB7DEB7A1970FB6F894DEBF0FBE7B
:1017F000CDBF19A2423008F44AE08E010F5D1F4FA1
:10180000842E912CB12CA12CA50194010E94871A41
:10181000E62FB901CA01EA30F4F4E05DD801EE9395
:101820008D01232B242B252B79F790E080E0109756
:1018300019F0CD010E94DC0BA1960FB6F894DEBF23
:101840000FBECDBFDF91CF911F910F91BF90AF9091
:101850009F908F900895E95CE1CF0C94DC0BCF93BF
:10186000DF930E94DC0BEC0187E792E00E94DC0B27
:101870008C0F9D1FDF91CF9108950F931F93CF93EE
:10188000DF938C01D0E0C0E0F801EC0FFD1F649104
:10189000662341F080E697E00E94F704892B11F05F
:1018A0002196F2CF87E792E00E94DC0B8C0F9D1F00
:1018B000DF91CF911F910F9108954F925F926F9298
:1018C0007F928F929F92AF92BF92CF92DF92EF92D0
:1018D000FF921F93CF93DF936B017C01142FAC0118
:1018E0009B010E94FC1C882399F08AE792E0DF911B
:1018F000CF911F91FF90EF90DF90CF90BF90AF906E
:101900009F908F907F906F905F904F900C94DC0B26
:1019100046015701E894B7F82FEF3FEF4FE75FE735
:10192000C501B4010E94FC1C81110DC02FEF3FEFD7
:101930004FE75FE7C501B4010E94321B18161CF483
:101940008EE792E0D4CF2FEF3FEF4FE75FE4C70180
:10195000B6010E948A1C18161CF482E892E0C7CFD8
:101960002FEF3FEF4FE75FECC701B6010E94321B3C
:1019700087FDF3CF20E030E0A901C701B6010E9446
:10198000321BD0E0C0E087FF0AC06DE280E697E03E
:101990000E94F704EC01F7FAF094F7F8F09420E0D5
:1019A00060E070E080E09FE3211740F420E030E049
:1019B00040E251E40E94371B21E0F6CFA7019601D7
:1019C0000E94C61A2B013C010E94A91B4B015C011D
:1019D0004AE00E94E90BC80FD91F112309F16EE2FA
:1019E00080E697E00E94F7046C01C501B4010E94F3
:1019F000D81B9B01AC01C301B2010E94C51A20E0B3
:101A000030E040E251E40E948F1C0E94A91B90E04C
:101A100080E04AE00E94E90B8C0D9D1DC80FD91F84
:101A2000CE01DF91CF911F91FF90EF90DF90CF908B
:101A3000BF90AF909F908F907F906F905F904F90EE
:101A400008950F931F93CF93DF931F921F92CDB7EB
:101A5000DEB78C010E945D1A8983C80101960E943D
:101A60005D1A8A8389819A810F900F90DF91CF91BF
:101A70001F910F910895CF92DF92EF92FF920F93F3
:101A80001F93CF93DF9300D01F92CDB7DEB76E01C7
:101A900025E0C20ED11C8E010F5F1F4F7C01E01AA2
:101AA000F10AC016D10649F0C701800F911F0E94AC
:101AB0005D1AF80181938F01F4CF69817A818B815E
:101AC0009C810F900F900F900F90DF91CF911F91FD
:101AD0000F91FF90EF90DF90CF900895FF920F93BA
:101AE0001F93CF93DF93EC01F62E08811981C80173
:101AF0000E945D1AF81621F06F2DC8010E94651A28
:101B0000CE01DF91CF911F910F91FF900895FF9229
:101B10000F931F93CF93DF931F921F92CDB7DEB722
:101B20008C01F72E9A838983CE0101960E946E0D57
:101B30000F5F1F4F1A8309836F2DCE0101960E94FC
:101B40006E0D0F900F90DF91CF911F910F91FF902D
:101B50000895CF92DF92EF92FF920F931F93CF934E
:101B6000DF9300D000D0CDB7DEB76C014B835C8330
:101B70006D837E837E0183E0E80EF11C10E000E0BF
:101B8000F70161917F01C8018C0D9D1D9A838983A6
:101B9000CE0101960E946E0D0F5F1F4F043011059C
:101BA00079F726960FB6F894DEBF0FBECDBFDF9152
:101BB000CF911F910F91FF90EF90DF90CF900895FC
:101BC0001F920F920FB60F9211242F933F938F9372
:101BD0009F93AF93BF938091580790915907A0911D
:101BE0005A07B0915B073091570723E0230F2D3739
:101BF00058F50196A11DB11D2093570780935807F2
:101C000090935907A0935A07B0935B0780915C07A4
:101C100090915D07A0915E07B0915F070196A11DAD
:101C2000B11D80935C0790935D07A0935E07B0930E
:101C30005F07BF91AF919F918F913F912F910F902F
:101C40000FBE0F901F90189526E8230F0296A11D36
:101C5000B11DD2CF1F920F920FB60F9211240BB667
:101C60000F922F933F934F935F936F937F938F9335
:101C70009F93AF93BF93EF93FF9380E697E00E940B
:101C8000D504FF91EF91BF91AF919F918F917F917B
:101C90006F915F914F913F912F910F900BBE0F90DD
:101CA0000FBE0F901F9018951F920F920FB60F92B4
:101CB00011240BB60F922F938F939F93EF93FF9363
:101CC000E0917007F09171078081E0917607F091C3
:101CD000770782FD1DC09081809179078F5F8F7398
:101CE00020917A07821741F0E0917907F0E0E05AFD
:101CF000F84F958F80937907FF91EF919F918F9186
:101D00002F910F900BBE0F900FBE0F901F90189544
:101D10008081F2CF1F920F920FB60F9211240BB653
:101D20000F92CF92DF92EF92FF922F933F934F93B8
:101D30005F936F937F938F939F93AF93BF93EF9333
:101D4000FF93C0905308D0905408E0905508F0904D
:101D50005608809148088530D1F5C114D104E104BA
:101D6000F10409F452C080914708882309F448C05F
:101D7000E0915B08F0915C08309739F080915D0844
:101D800090915E080097D1F1199580914B08909140
:101D90004C08A0914D08B0914E080097A140B105A4
:101DA00024F087E498E00E946D0B1C141D041E04AF
:101DB0001F046CF481E0C81AD108E108F108C09250
:101DC0005308D0925408E0925508F0925608FF91BB
:101DD000EF91BF91AF919F918F917F916F915F91A3
:101DE0004F913F912F91FF90EF90DF90CF900F9008
:101DF0000BBE0F900FBE0F901F9018951995C5CF71
:101E000087E498E00E94810BE2CF87E498E00E948B
:101E1000DE08DDCF1F920F920FB60F9211240BB682
:101E20000F92CF92DF92EF92FF922F933F934F93B7
:101E30005F936F937F938F939F93AF93BF93EF9332
:101E4000FF93C0906B08D0906C08E0906D08F09004
:101E50006E08809160088330D1F5C114D104E1048B
:101E6000F10409F452C080915F08882309F448C046
:101E7000E0917308F0917408309739F080917508FB
:101E8000909176080097D1F119958091630890910F
:101E90006408A0916508B09166080097A140B1055B
:101EA00024F08FE598E00E946D0B1C141D041E04A5
:101EB0001F046CF481E0C81AD108E108F108C0924F
:101EC0006B08D0926C08E0926D08F0926E08FF915A
:101ED000EF91BF91AF919F918F917F916F915F91A2
:101EE0004F913F912F91FF90EF90DF90CF900F9007
:101EF0000BBE0F900FBE0F901F9018951995C5CF70
:101F00008FE598E00E94810BE2CF8FE598E00E9478
:101F1000DE08DDCF1F920F920FB60F9211240BB681
:101F20000F92CF92DF92EF92FF922F933F934F93B6
:101F30005F936F937F938F939F93AF93BF93EF9331
:101F4000FF93C0908308D0908408E0908508F090BB
:101F50008608809178088230E1F5C114D104E1044B
:101F6000F10409F454C080917708882309F44AC029
:101F7000E0918B08F0918C08309739F080918D08B2
:101F800090918E080097E1F1199580917B089091CE
:101F90007C08A0917D08B0917E088F3F9105A10536
:101FA000B10529F024F087E798E00E946D0B1C141E
:101FB0001D041E041F046CF481E0C81AD108E10856
:101FC000F108C0928308D0928408E0928508F092CC
:101FD0008608FF91EF91BF91AF919F918F917F9173
:101FE0006F915F914F913F912F91FF90EF90DF9014
:101FF000CF900F900BBE0F900FBE0F901F901895B3
:102000001995C3CF87E798E00E94810BE2CF87E75D
:1020100098E00E94DE08DDCFCF93DF93E0E6F7E0A3
:102020001382128288EE93E0A0E0B0E0848395836F
:10203000A683B78389E692E09183808385EC90E064
:102040009587848784EC90E09787868780EC90E082
:10205000918B808B81EC90E0938B828B82EC90E073
:10206000958B848B86EC90E0978B868B118E128EED
:10207000138E148EE7E7F8E082E08183108A118ADC
:10208000128A138A158A148A178A168A108221E006
:1020900030E03383228314821582168217821086E1
:1020A0001186128613868FEF9FEFDC018487958758
:1020B000A687B787EFE5F8E043E04183108A118AED
:1020C000128A138A158A148A178A168A1082338311
:1020D0002283148215821682178210861186128638
:1020E000138684879587A687B787E7E4F8E045E0FD
:1020F0004183108A118A128A138A158A148A178AD0
:10210000168A1082338322831482158216821782E4
:10211000108611861286138684879587A687B787CF
:10212000C3E3D8E081E28A8B61E00E94E20261E0D1
:102130008A890E9410038DEF97E0998B888BE2E2E9
:10214000F8E029E12083148282E390E0948783877A
:10215000E5E1F8E02083148294878387E8E0F8E0E3
:102160002083148294878387E3E0F8E0118212824F
:1021700088EE93E094838383EEEFF7E0118212827E
:1021800094838383DF91CF910895CF93DF93CDB76D
:10219000DEB72D970FB6F894DEBF0FBECDBF789493
:1021A00084B5826084BD84B5816084BD85B582605C
:1021B00085BD85B5816085BD80916E00816080930D
:1021C0006E00109281008091810082608093810076
:1021D0008091810081608093810080918000816086
:1021E000809380008091B10084608093B1008091E1
:1021F000B00081608093B0008091910082608093F4
:102200009100809191008160809391008091900075
:102210008160809390008091A10082608093A100F2
:102220008091A10081608093A1008091A0008160D5
:102230008093A00080912101826080932101809190
:102240002101816080932101809120018160809330
:10225000200180917A00846080937A0080917A00D6
:10226000826080937A0080917A00816080937A0006
:1022700080917A00806880937A001092C10061E0BA
:102280008DE00E94100361E087E20E94100361E08C
:1022900089E20E94100361E080E20E94100361E085
:1022A00082E20E94100361E084E20E94100361E078
:1022B00086E20E94100361E088E20E94100361E060
:1022C0008AE20E94100360E083E00E94100361E054
:1022D0008CE20E94100361E08EE20E94100361E034
:1022E00088E00E94100361E086E00E94100361E034
:1022F00085E20E94100361E080E10E94100361E02A
:1023000080E10E94100361E081E10E94100361E01E
:1023100080E10E94E20261E081E10E94E202E0913C
:102320007007F091710782E08083E0916C07F09173
:102330006D071082E0916E07F0916F0780E1808356
:1023400010927807E0917407F091750786E080831A
:10235000E0917207F0917307808180618083E09142
:102360007207F0917307808188608083E091720723
:10237000F0917307808180688083E0917207F0910B
:10238000730780818F7D80836091780887E798E06C
:102390000E940C09609160088FE598E00E940C098A
:1023A0006091480887E498E00E940C091FB7F894F0
:1023B00080910E07811127C0EDEAF2E08491E3EFEE
:1023C000F2E09491E82FF0E0EE0FFF1FE65DFD4F85
:1023D000A591B491EC91E92321F461E085E30E9499
:1023E000E20261E085E30E9410038CB580618CBD40
:1023F0008CB580648CBD61E084E30E94100361E0D1
:1024000083E30E94100380910E078F5F80930E0775
:102410001FBF80E591E00E944F0260E08091450877
:102420000E94E20280EC0E94960561E080914508DE
:102430000E94E2020E9418046B017C0105E0802EDC
:10244000912CA12CB12C0E9418046C197D098E09C5
:102450009F09683E734081059105A8F321E0821A27
:102460009108A108B10848EEC40E43E0D41EE11C57
:10247000F11C81149104A104B10429F780E4809334
:10248000460880E80E94B306882309F484C183E0EB
:1024900092E00E943D0C8CEE96E00E942F0C109270
:1024A000460880E00E94B30604E610E00E94E906B8
:1024B000837069F0AE014F5F5F4FBE01635F7F4F76
:1024C000CE0109960E9406070150110979F78DE89F
:1024D00092E00E942F0C90E080E00E943B0D609300
:1024E00018027093190280931A0290931B0288E0DD
:1024F00090E00E94210D90931D0280931C028CE0BD
:1025000090E00E945D1A8093170284E090E00E94A0
:102510003B0D60931002709311028093120290930E
:1025200013028AE090E00E94210D9093150280939F
:1025300014028DE090E00E945D1A80930F028EE0FD
:1025400090E00E943B0D6093080270930902809313
:102550000A0290930B0282E190E00E94210D909379
:102560000D0280930C0284E190E00E945D1A80933A
:10257000070281E08093030884E690E090930708C7
:10258000809306080E943D046093280770932907F2
:1025900080932A0790932B078FE992E00E942F0CDB
:1025A000BAEF6B2E712C1BE8812E992493948091A5
:1025B000530790915407A0915507B0915607019683
:1025C000A11DB11D8093530790935407A093550705
:1025D000B09356070E943D0400914F071091500799
:1025E0002091510730915207601B710B820B930BA6
:1025F000693E734081059105E0F08DE00E94B902CB
:1026000061E0892B09F060E08DE00E94E202109207
:1026100053071092540710925507109256070E94C4
:102620003D0460934F077093500780935107909338
:10263000520783E00E94B902892B09F035C54EE2AA
:1026400052E06EE477E08FE298E00E940607811185
:102650002BC5C0902F08D0903008E0903108F09042
:1026600032082FE1F22241E0C41644E0D406E1042E
:10267000F10409F0FEC086EC92E00E942F0C26E2E5
:1026800032E048E061E074E080E090E00E94E20720
:10269000F0E1CF16F5E0DF06E104F10409F00CC328
:1026A00082E298E00E94D90185E198E00E94D90178
:1026B00020900F073090100740901107509012079C
:1026C0006091270870912808072E000C880B990B41
:1026D0000E94DA1B2DEC3CEC4CEC5DE30E948F1C5D
:1026E0006B017C0126E636E646E65FE3C201B101F6
:1026F0000E948F1C9B01AC01C701B6010E94C61A43
:1027000060930F077093100780931107909312073F
:10271000609334077093350780933607909337079B
:10272000209013073090140740901507509016071B
:1027300060911C0870911D08072E000C880B990BE6
:102740000E94DA1B2DEC3CEC4CEC5DE30E948F1CEC
:102750006B017C0126E636E646E65FE3C201B10185
:102760000E948F1C9B01AC01C701B6010E94C61AD2
:1027700060931307709314078093150790931607BF
:10278000609330077093310780933207909333073B
:102790000E943D0489C48BED91E00E943D0C60E0F5
:1027A0008AE20E94770761ED89E20E94770761E87B
:1027B00088E20E9477078EEB91E00E943D0C61E079
:1027C00080E20E94C60761E084E20E94C60761E0E1
:1027D00080E00E94C60760E084E00E94C60761E0D6
:1027E00088E00E94C60760E080E10E94C60761E0C1
:1027F00084E10E94C60760E088E10E94C60710E3FA
:1028000060E0812F0E94770760E080E1810F0E94E5
:10281000770760E080E2810F0E9477071F5F1E3319
:1028200079F760E080E60E94770760E080E70E9429
:10283000770763E08BE20E9477076CE38CE00E94ED
:10284000770760E08DE00E94770744E664E680E663
:102850000E949D0540E660E680E70E949D0580910C
:1028600046080E94B306882309F41FC688E991E050
:1028700010CE82E0C81684E0D806E104F10409F025
:1028800037C189ED92E00E942F0C80912E02282FF3
:10289000237030E0309345072093440790E09C017B
:1028A0003595279535952795237033273093430722
:1028B000209342079C0154E0359527955A95E1F7FE
:1028C00023703327309341072093400766E09595A6
:1028D00087956A95E1F790933F0780933E07809133
:1028E0002F02282F237030E030934D0720934C07A0
:1028F00090E09C01359527953595279523703327D2
:1029000030934B0720934A079C01E4E035952795C7
:10291000EA95E1F72370332730934907209348075E
:10292000F6E095958795FA95E1F7909347078093A0
:102930004607AEE3AA2EA7E0BA2E09E312E0F5019E
:10294000819191915F0160E0009719F0019729F45E
:1029500061E0F80180810E94E2020E5F1F4F8EE469
:1029600097E08A159B0559F780913002282F30E0B7
:102970002B3F31050CF09EC0EFEF8E9FC00111245C
:10298000B3010E94731A9B0180913102482F50E0DD
:102990004B3F51050CF097C0FFEF8F9FC0011124F2
:1029A000B3010E94731A5B0180913202482F50E0FC
:1029B0004B3F51050CF093C04FEF849FC001112491
:1029C000B3010E94731A8B0137FD08C030933D0795
:1029D00020933C07B9018CE20E944103B7FC08C078
:1029E000B0923B07A0923A07B5018EE20E944103E4
:1029F00017FD04C01093390700933807209138075A
:102A000030913A0740913C0780913E0790913F07F3
:102A100056E0880F991F5A95E1F760914007709131
:102A20004107E4E0660F771FEA95E1F7862B909166
:102A30004407892B6091420770914307660F771F07
:102A4000660F771F862B80931E0280914607909118
:102A50004707A6E0880F991FAA95E1F760914807FC
:102A600070914907B4E0660F771FBA95E1F7862B9E
:102A700090914C07892B60914A0770914B07660F24
:102A8000771F660F771F862B80931F0240932002CB
:102A900030932102209322021092230210922402EA
:102AA000109225022EE132E048E062E274E080E01C
:102AB00090E0ECCD2F3F310519F42EEF3FEF64CFBE
:102AC0002FEF3FEF61CF8EEFA82EBB24BA944F3F7C
:102AD000510509F469CFAA24AA94BA2C65CF0EEF48
:102AE0001FEF4F3F510509F46FCF0FEF1FEF6CCF72
:102AF00083E0C81684E0D806E104F10409F021C19E
:102B000080914E07882309F481C08DEE92E00E94E7
:102B10002F0C10912F021370109317026091300246
:102B200070E090E080E00E94D81B1B012C012092F5
:102B300018023092190240921A0250921B028091A0
:102B4000310290E090931D0280931C0201E00093FB
:102B5000160280913302837080930F0260913402D9
:102B600070E090E080E00E94D81B609310027093A8
:102B7000110280931202909313028091350290E02B
:102B8000909315028093140200930E021230C1F04C
:102B9000B201A10190E080E00E94A90D60911C02A9
:102BA00070911D0288E090E00E94870D60911702ED
:102BB000ECE0F0E0FA83E983CE0101960E946E0D0D
:102BC00080910F028230F1F0409110025091110279
:102BD000609112027091130284E090E00E94A90DAE
:102BE00060911402709115028AE090E00E94870DB6
:102BF00060910F028DE090E09A838983CE01019667
:102C00000E946E0D8DE093E00E942F0C12E1109354
:102C10001E02809117028370806380931F0260916F
:102C200018027091190280911A0290911B020E9461
:102C3000A91B6093200280911C02809321021093B3
:102C4000220280910F02837080638093230260913F
:102C500010027091110280911202909113020E9451
:102C6000A91B60932402809114028093250286E3BD
:102C700093E00E942D0C0EE112E0F80161918F01AA
:102C800070E090E080E040E10E94E90B8CEC94E081
:102C90000E942D0C86E292E08017910771F787E77A
:102CA00092E00E94DC0B2EE132E048E063E274E047
:102CB00080E090E00E94E20720E2C21625E0D20602
:102CC000E104F10409F000C188E098E00E94D90114
:102CD00020901707309018074090190750901A0756
:102CE00060910D0870910E08072E000C880B990B4F
:102CF0000E94DA1B2DEC3CEC4CEC5DE30E948F1C37
:102D00006B017C0126E636E646E65FE3C201B101CF
:102D10000E948F1C9B01AC01C701B6010E94C61A1C
:102D200060931707709318078093190790931A07F9
:102D300060932C0770932D0780932E0790932F0795
:102D400027CD94E0C916D906E104F10409F043C186
:102D500080914E07882309F43BC18AE493E00E94E6
:102D60002F0C81E793E00E942F0C0EE212E0F80195
:102D700061918F0170E090E080E040E10E94E90BFA
:102D80008CEC94E00E942D0CF2E006331F0779F7DB
:102D900080912E0290912F029827892798272091C1
:102DA000300221703091310233703093FE0710925F
:102DB000FF0720930008909302088093010880EA9F
:102DC00093E00E942D0C609106087091070890E036
:102DD00080E04AE00E94E90B84EB93E00E942F0C14
:102DE000809101089091020890930708809306084B
:102DF00080910008809305088091FE078093030866
:102E000088EB93E00E942D0C6091060870910708F2
:102E100090E080E04AE00E94E90B84EB93E00E949E
:102E20002F0C8CEC93E00E942F0C8091060890915F
:102E3000070890931E0280931F02809105088093DB
:102E400020028091030880932102109222021092A6
:102E5000230210922402109225022EE132E048E073
:102E600064E274E080E090E00E94E2078DE094E08C
:102E70000E942F0C0EE112E0212C312C210187E25F
:102E800094E00E942D0C4AE0C201B1010E94E90BBE
:102E900080E394E00E942D0CF80161918F0170E0B5
:102EA00090E080E040E10E94E90B87E792E00E9419
:102EB000DC0BFFEF2F1A3F0A4F0A5F0A24E02216AD
:102EC000310441045104D9F646E0C41644E0D40666
:102ED000E104F10409F0E8C080914E078823C9F1AC
:102EE00082E695E00E942F0C10912F021370109330
:102EF00007026091300270E090E080E00E94D81BF1
:102F0000AB01BC01409308025093090260930A028E
:102F100070930B028091310290E090930D028093A8
:102F20000C021230B1F08EE090E00E94A90D609189
:102F30000C0270910D0282E190E00E94870D609179
:102F4000070284E190E09A838983CE0101960E9472
:102F50006E0D82E180931E02809107028370806370
:102F600080931F02609108027091090280910A0209
:102F700090910B020E94A91B6093200280910C0289
:102F8000809321028BE795E00E942D0C0EE112E068
:102F9000F80161918F0170E090E080E040E10E94D3
:102FA000E90B8CEC94E00E942D0C82E292E08017F9
:102FB000910771F787E792E00E94DC0B2EE132E087
:102FC00048E066E274E080E090E00E94E2076CC0B6
:102FD0008FEE93E028CF45E0C41644E0D406E10428
:102FE000F10409F055CB80914E07882309F410C2F3
:102FF00085E394E00E942F0C89E594E00E942D0C5B
:1030000080910408813009F0FAC18EE694E00E94B4
:103010002F0CF0902E020F2D10E086E015950795ED
:103020008A95E1F78CE894E00E942D0C6F2D70E0FA
:1030300090E080E040E10E94E90B83EA94E00E9486
:103040002D0CB801110F880B990B4AE00E94E90B77
:103050008CEE94E00E942F0C81E0801708F4D5C11B
:103060000093040889EB94E00E942D0C80910408E1
:10307000813009F0C7C18EEC94E00E942F0C809142
:103080000408E0E48E9FC001112489839E012F5F14
:103090003F4F48E065E274E080E090E00E94E20784
:1030A00088E495E00E942F0C0E943D0400912807BF
:1030B0001091290720912A0730912B07AB01BC0101
:1030C000401B510B620B730B80910608909107080F
:1030D000B0E0A0E0481759076A077B0708F448C02A
:1030E00010910408111105C080910308882309F488
:1030F0003FC00E943D046093280770932907809386
:103100002A0790932B07113011F41092040830E035
:1031100020E040E060E175E080E090E40E94E2079A
:10312000C4010197F1F730E020E040E060E275E093
:1031300080E090E40E94E207C4010197F1F730E0DB
:1031400020E040E060E375E080E090E40E94E20768
:10315000C4010197F1F7109226071092270726E283
:1031600037E048E066E274E080E090E00E94E20729
:103170001091250700911702013009F067C12091D5
:1031800034073091350740913607509137076091E9
:1031900018027091190280911A0290911B020E94EC
:1031A000321B18160CF442C1111120C08FE895E0B3
:1031B0000E942F0C61E087E20E94E20240911C0213
:1031C00050911D0270E060E02FE534E087E498E064
:1031D0000E941C0A0E943D046093210770932207FD
:1031E00080932307909324070093250710912007CD
:1031F00000910F02013009F03EC12091300730915B
:10320000310740913207509133076091100270915D
:10321000110280911202909113020E94321B181623
:103220000CF419C1111116C081EE95E00E942F0C0B
:1032300061E089E20E94E20240911402509115027D
:1032400070E060E029E434E08FE598E00E941C0A19
:103250000093200710911F0700910702013009F029
:103260001FC120912C0730912D0740912E075091BE
:103270002F07609108027091090280910A029091D3
:103280000B020E94321B18160CF4FAC0111116C062
:1032900083E396E00E942F0C61E089E20E94E20243
:1032A00040910C0250910D0270E060E024E534E0A2
:1032B00087E798E00E941C0A00931F0770E060E017
:1032C00085E20E94410370E060E080E10E944103DA
:1032D00070E060E088E00E94410370E060E086E01A
:1032E0000E9441030E943D0400911B0710911C079E
:1032F00020911D0730911E07601B710B820B930BF1
:10330000643F71408105910508F46EC00E943D0440
:1033100060931B0770931C0780931D0790931E07F3
:1033200085E896E00E942D0C609134077091350776
:10333000809136079091370741E050E00E945D0C84
:1033400083E996E00E942D0C609118027091190299
:1033500080911A0290911B0250E040E00E945D0CA7
:103360008BE996E00E942D0C609130077091310737
:10337000809132079091330741E050E00E945D0C4C
:1033800083E996E00E942D0C609110027091110269
:10339000809112029091130250E040E00E945D0C77
:1033A00084EA96E00E942D0C60912C0770912D0705
:1033B00080912E0790912F0741E050E00E945D0C14
:1033C00083E996E00E942D0C609108027091090239
:1033D00080910A0290910B0250E040E00E945D0C47
:1033E0008DEA96E00E942D0C10922F081092300862
:1033F00010923108109232080E946405D8C88BE7F9
:1034000094E005CE8DED94E038CE8EEE94E035CE8E
:103410008AE195E00E942D0C80910408882319F020
:1034200086E892E02ACE89E892E027CE112309F4BB
:10343000DDCE8FEB95E00E942F0C60E087E20E94CA
:10344000E20287E498E00E94DE0802C01111F9CF81
:1034500010922507CBCE112309F4FCCE81E196E032
:103460000E942F0C60E089E20E94E2028FE598E062
:103470000E94DE0802C01111F9CF10922007EACE97
:10348000112309F41BCF83E696E00E942F0C60E025
:1034900089E20E94E20287E798E00E94DE0802C00B
:1034A0001111F9CF10921F0709CF80EB96E00E940F
:1034B0002F0C82ED96E00C944D12F999FECF92BD3F
:1034C00081BDF89A992780B50895262FF999FECFE6
:1034D0001FBA92BD81BD20BD0FB6F894FA9AF99A31
:1034E0000FBE0196089597FB072E16F4009407D09F
:1034F00077FD09D00E94B11A07FC05D03EF49095E3
:1035000081959F4F0895709561957F4F0895A1E231
:103510001A2EAA1BBB1BFD010DC0AA1FBB1FEE1F4D
:10352000FF1FA217B307E407F50720F0A21BB30B98
:10353000E40BF50B661F771F881F991F1A9469F714
:1035400060957095809590959B01AC01BD01CF0170
:103550000895EE0FFF1F881F8BBF0790F691E02D97
:103560001994AA1BBB1B51E107C0AA1FBB1FA617BA
:10357000B70710F0A61BB70B881F991F5A95A9F71C
:1035800080959095BC01CD0108955058BB27AA277E
:103590000E94DD1A0C94501C0E94421C38F00E94BC
:1035A000491C20F039F49F3F19F426F40C943F1C79
:1035B0000EF4E095E7FB0C94391CE92F0E94611C86
:1035C00058F3BA17620773078407950720F079F458
:1035D000A6F50C94831C0EF4E0950B2EBA2FA02DAB
:1035E0000B01B90190010C01CA01A0011124FF27B0
:1035F000591B99F0593F50F4503E68F11A16F040AB
:10360000A22F232F342F4427585FF3CF46953795A9
:103610002795A795F0405395C9F77EF41F16BA0B6E
:10362000620B730B840BBAF09150A1F0FF0FBB1F1C
:10363000661F771F881FC2F70EC0BA0F621F731F65
:10364000841F48F4879577956795B795F7959E3FC2
:1036500008F0B0CF9395880F08F09927EE0F979553
:10366000879508950E94151C08F481E008950E9432
:103670004B1B0C94501C0E94491C58F00E94421C89
:1036800040F029F45F3F29F00C94391C51110C943F
:10369000841C0C943F1C0E94611C68F39923B1F3B5
:1036A000552391F3951B550BBB27AA276217730768
:1036B000840738F09F5F5F4F220F331F441FAA1FFC
:1036C000A9F335D00E2E3AF0E0E832D091505040B8
:1036D000E695001CCAF72BD0FE2F29D0660F771F66
:1036E000881FBB1F261737074807AB07B0E809F04C
:1036F000BB0B802DBF01FF2793585F4F3AF09E3FD1
:10370000510578F00C94391C0C94841C5F3FE4F351
:10371000983ED4F3869577956795B795F7959F5F13
:10372000C9F7880F911D9695879597F90895E1E05F
:10373000660F771F881FBB1F621773078407BA07BE
:1037400020F0621B730B840BBA0BEE1F88F7E09519
:1037500008950E94691C88F09F5798F0B92F992707
:10376000B751B0F0E1F0660F771F881F991F1AF06C
:10377000BA95C9F714C0B13091F00E94831CB1E032
:1037800008950C94831C672F782F8827B85F39F031
:10379000B93FCCF3869577956795B395D9F73EF405
:1037A00090958095709561957F4F8F4F9F4F0895AD
:1037B000E89409C097FB3EF49095809570956195CB
:1037C0007F4F8F4F9F4F9923A9F0F92F96E9BB2781
:1037D0009395F695879577956795B795F111F8CFFD
:1037E000FAF4BB0F11F460FF1BC06F5F7F4F8F4F68
:1037F0009F4F16C0882311F096E911C0772321F05E
:103800009EE8872F762F05C0662371F096E8862FF5
:1038100070E060E02AF09A95660F771F881FDAF74C
:10382000880F9695879597F90895990F0008550F79
:10383000AA0BE0E8FEEF16161706E807F907C0F036
:1038400012161306E407F50798F0621B730B840B3E
:10385000950B39F40A2661F0232B242B252B21F418
:1038600008950A2609F4A140A6958FEF811D811DB8
:10387000089597F99F6780E870E060E008959FEFF2
:1038800080EC089500240A941616170618060906F7
:10389000089500240A9412161306140605060895C6
:1038A000092E0394000C11F4882352F0BB0F40F44E
:1038B000BF2B11F460FF04C06F5F7F4F8F4F9F4F8E
:1038C000089557FD9058440F551F59F05F3F71F010
:1038D0004795880F97FB991F61F09F3F79F0879577
:1038E0000895121613061406551FF2CF4695F1DF00
:1038F00008C0161617061806991FF1CF8695710590
:10390000610508940895E894BB2766277727CB01C3
:1039100097F908950E94151C08F48FEF08950E94EE
:10392000A21C0C94501C0E94421C38F00E94491C9E
:1039300020F0952311F00C94391C0C943F1C112499
:103940000C94841C0E94611C70F3959FC1F3950F29
:1039500050E0551F629FF001729FBB27F00DB11D13
:10396000639FAA27F00DB11DAA1F649F6627B00DA3
:10397000A11D661F829F2227B00DA11D621F739F8C
:10398000B00DA11D621F839FA00D611D221F749F9A
:103990003327A00D611D231F849F600D211D822FE1
:1039A000762F6A2F11249F5750409AF0F1F0882308
:1039B0004AF0EE0FFF1FBB1F661F771F881F915035
:1039C0005040A9F79E3F510580F00C94391C0C948F
:1039D000841C5F3FE4F3983ED4F386957795679512
:1039E000B795F795E7959F5FC1F7FE2B880F911D5F
:1039F0009695879597F908950E94151C880B990B49
:063A00000895F894FFCFC9
:103A0600780078007800000000002042E8030000FB
:103A160000002042E803000000002042E8032000E6
:103A2600000000000000555555FFFFFFFFFF200076
:103A3600000000000000304050270029002000222E
:103A4600002400260028002A0001000100080020AA
:103A56000040008000000100040100010008004051
:103A6600000001000400000000F70461048E044415
:103A760005BF049D04B1040D0A006E616E00696EF7
:103A860066006F7666004F4E004F464600427566EA
:103A96006665722043414E206C696D706F21004D42
:103AA6004F444F20434F4E54494E554F20494E499F
:103AB600434941444F204155544F4D415449434198
:103AC6004D454E544500636D643A203078343031AC
:103AD600202844656275672900636D643A20307852
:103AE600343032202853616964617329000A2D2D10
:103AF6002D20434F4D414E444F20307834303320F3
:103B0600524543454249444F202D2D2D00202D3E40
:103B160020436F6E666967757261636F65732073A4
:103B2600616C766173206E612052414D206520459F
:103B36004550524F4D00203E2054582028307834AE
:103B4600323329204845583A20000A2D2D2D20438E
:103B56004F4D414E444F2030783430342028475260
:103B66004156415220434F4E46494729202D2D2D7F
:103B76000050617273696E6720617175697369744B
:103B8600696F6E436F6E6669675374727563747599
:103B960072652066726F6D206275666665723A00A0
:103BA600203E2054696D657220414E544552494F5E
:103BB600523A2000206D7300203E2054696D6572D4
:103BC600204E4F564F3A202020202000202D3E2008
:103BD600436F6E66696720417475616C697A6164CA
:103BE6006120636F6D207375636573736F21006366
:103BF6006D643A20307834303420284C6572205376
:103C06007461747573202D205254522900203E2071
:103C1600526573706F737461203078343234206566
:103C26006E76696164610020202042797465200007
:103C36003A203078000A2D2D2D20434F4D414E4419
:103C46004F203078343035202853544152542F5366
:103C5600544F5029202D2D2D00203E204573746190
:103C6600646F20414E544552494F523A20004C4908
:103C76004741444F202852756E29004445534C490C
:103C86004741444F202853746F702900203E20423C
:103C960079746520526563656269646F3A202020F5
:103CA6003078002028496E7465727072657461649C
:103CB6006F20636F6D6F3A2000203E20457374615C
:103CC600646F204E4F564F3A2020202020004C494A
:103CD6004741444F202853544152542900444553E8
:103CE6004C494741444F202853544F502900203E09
:103CF600204552524F3A2056616C6F7220696E769B
:103D0600616C69646F20726563656269646F2028FF
:103D160049676E6F7261646F2900636D643A203083
:103D26007834303520284C6572205374617475736D
:103D3600202D2052545229202D3E20417475616C4D
:103D46006D656E74653A2000203E20526573706F73
:103D560073746120307834323520656E766961641B
:103D66006100636D643A2030783430362028496E1D
:103D7600746572636F6F6C65722900203E2054581B
:103D86002028307834323629204845583A200021F8
:103D9600212120414C455254413A205431204C496E
:103DA6004D495445204154494E4749444F204163AB
:103DB600696F6E616E646F204431202121210049B4
:103DC6004E464F3A205431204E6F726D616C697ABF
:103DD60061646F204431204465736C696761646F68
:103DE6000021212120414C455254413A2054322091
:103DF6004C494D495445204154494E4749444F206A
:103E06004163696F6E616E646F2044322021212107
:103E160000494E464F3A205432204E6F726D616C07
:103E2600697A61646F204432206465736C696761E6
:103E3600646F0021212120414C455254413A2054BF
:103E460033204C494D495445204154494E47494435
:103E56004F204163696F6E616E646F204433202189
:103E6600212100494E464F3A205433204E6F726D41
:103E7600616C697A61646F204433204465736C69B0
:103E86006761646F005B5354415455535D20543150
:103E96003A20004320284D61783A0029207C20549E
:103EA600323A200029207C2054333A2000290A0087
:103EB6004D43503235313520496E697469616C69FC
:103EC6007A6564205375636365737366756C6C7984
:103ED60021005445737465207365206573746120F1
:103EE60066756E63696F6E616E646F004572726FA0
:103EF6007220496E697469616C697A696E67204DD2
:0A3F06004350323531352E2E2E00C7
:00000001FF
