:100000000C94A4010C94D5010C94D5010C94D50149
:100010000C94D5010C94D5010C94D5010C94D50108
:100020000C94D5010C94D5010C94D5010C94D501F8
:100030000C94D5010C94D5010C94D5010C94D501E8
:100040000C94D5010C94D5010C94D5010C94D501D8
:100050000C94D5010C94D5010C94D5010C942D0D64
:100060000C94D5010C94A10D0C94770D0C94D50132
:100070000C94D5010C94D5010C94D5010C94D501A8
:100080000C946D0E0C94D5010C94D5010C94D501F3
:100090000C94D5010C94D5010C94D5010C94D50188
:1000A0000C94D5010C94D5010C94D5010C94D50178
:1000B0000C94D5010C94D5010C94D5010C94D70D5A
:1000C0000C94D5010C94D5010C94D5010C94D50158
:1000D0000C94D5010C94D5010C94D5010C94D50148
:1000E0000C94D5010C94F8010C946C040C9422032C
:1000F0000C9450030C9438020C9421020C940D02C1
:100100000C94FE010C9473030C9433020C940E04B3
:100110000C941D020C9425020C945A030C949B031E
:100120000C94030F0C9491030C9403040C9406029A
:100130000C944A040C9402020C943B040C94690342
:100140000C9418030C942F020C9417020C941302B5
:100150000C9434030C942C030C9439020C94090372
:100160000C943C030C94F1040C947D0C0C940A0246
:100170000C947D030C945E040C9401030C943D02DA
:100180000C94A4040C9487030C942B020C940E037F
:100190000C94460352657475726E696E6720746FB5
:1001A0002050726576696F7573204D6F64652046C7
:1001B00061696C7572652E2E2E0053657474696EBC
:1001C000672042617564726174652053756363656D
:1001D000737366756C2100456E746572696E672075
:1001E000436F6E66696775726174696F6E204D6FDB
:1001F0006465205375636365737366756C21004590
:100200006E746572696E6720436F6E66696775729A
:100210006174696F6E204D6F6465204661696C750D
:1002200072652E2E2E0000002100240027002A00D7
:100230002D003000330001010000040107010A0114
:1002400000002200250028002B002E003100340081
:1002500002010000050108010B010000200023003D
:10026000260029002C002F003200000100000301AD
:100270000601090105050505070508080808020229
:1002800002020A0A08080404040401010101010130
:1002900001010303030303030303040707070C0C13
:1002A0000C0C0C0C0C0C02020202060606060606DA
:1002B00006060B0B0B0B0B0B0B0B0102102020087F
:1002C00008102040102040800201020108040201B1
:1002D0000102040810204080804020100804020120
:1002E0008004020180402010080402010804020179
:1002F0000102040810204080010204081020408000
:1003000000000A0B02090C0D0E080703040100008F
:1003100000000000000000000000000000000000DD
:10032000000000000000000000000000121110009A
:1003300000000000000000000000000000000000BD
:10034000000000000000030F11241FBECFEFD1E218
:10035000DEBFCDBF00E00CBF14E0A0E0B2E0E4E9F6
:10036000F5E300E00BBF02C007900D92AE36B10777
:10037000D9F725E0AEE6B4E001C01D92A53BB20777
:10038000E1F711E0C4EAD1E000E006C021970109DD
:10039000802FFE010E947018C33AD10780E0080741
:1003A000A9F70E94950F0C94C81A0C9400008CBDFC
:1003B0009DBD08958150823108F05AC0E82FF0E0C9
:1003C0008827EA51FE4F8F4F0C94701806020A02DC
:1003D000F801FE01020238020D02130217021D028B
:1003E000210225022B022F023802330239023D027C
:1003F000809180008F7780938000089580918000A5
:100400008F7DF9CF80918000877FF5CF84B58F777E
:1004100084BD089584B58F7DFBCF8091B0008F7728
:100420008093B00008958091B0008F7DF9CF8091C6
:1004300090008F77809390000895809190008F7D39
:10044000F9CF80919000877FF5CF8091A0008F77C2
:100450008093A00008958091A0008F7DF9CF8091B6
:10046000A000877FF5CF809120018F7780932001B6
:100470000895809120018F7DF9CF80912001877FA1
:10048000F5CFCF93DF93282F30E0F901E050FD4FF7
:100490008491F901E654FD4FD491F901EC58FD4FD8
:1004A000C491CC23A1F081110E94DA01EC2FF0E07D
:1004B000EE0FFF1FE65AFD4FA591B491EC91ED238D
:1004C00081E090E009F480E0DF91CF91089580E031
:1004D00090E0FACF1F93CF93DF93282F30E0F901FC
:1004E000E050FD4F8491F901E654FD4FD491F9019C
:1004F000EC58FD4FC491CC23A9F0162F81110E9416
:10050000DA01EC2FF0E0EE0FFF1FE05CFD4FA5914C
:10051000B4918FB7F894EC91111108C0D095DE23F7
:10052000DC938FBFDF91CF911F910895DE2BF8CF21
:10053000CF93DF9390E0FC01E654FD4F24918C585B
:100540009D4FFC0184918823D1F090E0880F991F82
:10055000FC01EA5DFD4FA591B491FC01E05CFD4F0B
:10056000C591D49161110EC09FB7F8948C91E22F80
:10057000E0958E238C932881E223E8839FBFDF914F
:10058000CF9108958FB7F894EC91E22BEC938FBF45
:10059000F6CF1F93CF93DF93182FEB0161E00E94FA
:1005A0009802209739F460E0812FDF91CF911F915D
:1005B0000C946A02CF3FD10511F461E0F5CFE12F31
:1005C000F0E0E050FD4FE491E150E23108F0B3C0BB
:1005D000F0E08827E151FD4F8F4F0C947018010314
:1005E00009030E03180322039B032C0334033C036B
:1005F000460350035A03690373039B037D03870378
:10060000910384B5806884BDC7BDDF91CF911F91F0
:10061000089584B5806284BDC8BDF7CF8091800005
:10062000806880938000D0938900C0938800EDCFCC
:1006300080918000806280938000D0938B00C09373
:100640008A00E3CF80918000886080938000D093FF
:100650008D00C0938C00D9CF8091B00080688093CA
:10066000B000C093B300D1CF8091B000806280937E
:10067000B000C093B400C9CF80919000806880938F
:100680009000D0939900C0939800BFCF80919000C4
:10069000806280939000D0939B00C0939A00B5CF66
:1006A00080919000886080939000D0939D00C093CB
:1006B0009C00ABCF8091A00080688093A0008091C7
:1006C000A0008F7B8093A000D093A900C093A800C6
:1006D0009CCF8091A00080628093A000D093AB005B
:1006E000C093AA0092CF8091A00088608093A00060
:1006F000D093AD00C093AC0088CF8091200180687A
:1007000080932001D0932901C09328017ECF80914E
:100710002001806280932001D0932B01C0932A0195
:1007200074CF80912001886080932001D0932D01A7
:10073000C0932C016ACFC038D1050CF03ECF33CF27
:100740003FB7F8948091B8049091B904A091BA048D
:10075000B091BB0426B5A89B05C02F3F19F00196A8
:10076000A11DB11D3FBFBA2FA92F982F8827BC010B
:10077000CD01620F711D811D911D42E0660F771F33
:10078000881F991F4A95D1F708958F929F92AF9233
:10079000BF92CF92DF92EF92FF924B015C010E94D9
:1007A000A0036B017C010E94A0036C197D098E09D6
:1007B0009F09683E734081059105A8F321E0821AE4
:1007C0009108A108B10888EEC80E83E0D81EE11C8C
:1007D000F11C81149104A104B10429F7FF90EF905A
:1007E000DF90CF90BF90AF909F908F9008952FB7DC
:1007F000F8946091B4047091B5048091B60490911E
:10080000B7042FBF08950E94F70360937604709396
:10081000770480937804909379040895AF92BF92FF
:10082000CF92DF92EF92FF920F931F93CF93DF93BC
:100830006C017B018B01040F151FEB015E01AE18EB
:10084000BF08C017D10759F06991D601ED91FC910D
:100850000190F081E02DC6011995892B79F7C5012A
:10086000DF91CF911F910F91FF90EF90DF90CF908C
:10087000BF90AF900895FC01538D448D252F30E03B
:10088000842F90E0821B930B541710F0CF9608959D
:1008900001970895FC01918D828D981761F0A28DCA
:1008A000AE0FBF2FB11D5D968C91928D9F5F9F7390
:1008B000928F90E008958FEF9FEF0895FC01918D46
:1008C000828D981731F0828DE80FF11D858D90E0B3
:1008D00008958FEF9FEF0895FC01918D228D892F50
:1008E00090E0805C9F4F821B91098F739927089538
:1008F0008CEB94E00E946C0421E0892B09F420E049
:10090000822F0895FC01A48DA80FB92FB11DA35A01
:10091000BF4F2C91848D90E001968F739927848F1F
:10092000A689B7892C93A089B1898C918370806442
:100930008C93938D848D981306C00288F389E02DE3
:1009400080818F7D80830895EF92FF920F931F9394
:10095000CF93DF93EC0181E0888F9B8D8C8D981372
:100960001AC0E889F989808185FF15C09FB7F8947E
:10097000EE89FF896083E889F989808183708064CA
:1009800080839FBF81E090E0DF91CF911F910F9115
:10099000FF90EF900895F62E0B8D10E00F5F1F4F24
:1009A0000F731127E02E8C8D8E110CC00FB607FC33
:1009B000FACFE889F989808185FFF5CFCE010E94C1
:1009C0008204F1CFEB8DEC0FFD2FF11DE35AFF4FA9
:1009D000F0829FB7F8940B8FEA89FB89808180624F
:1009E000CFCFCF93DF93EC01888D8823B9F0AA890C
:1009F000BB89E889F9898C9185FD03C0808186FDDA
:100A00000DC00FB607FCF7CF8C9185FFF2CF808128
:100A100085FFEDCFCE010E948204E9CFDF91CF9117
:100A2000089580E090E0892B29F00E9478048111DC
:100A30000E94000080E090E0892B49F080E090E087
:100A4000892B29F00E94000081110E94000080E0A3
:100A500090E0892B49F080E090E0892B29F00E94FA
:100A6000000081110E94000080E090E0892B49F095
:100A700080E090E0892B29F00E94000081110C9405
:100A80000000089508958EBD00000DB407FEFDCF4F
:100A90008EB50895FF920F931F93CF93DF93F82E97
:100AA000062F142F80E591E00E94D701C1E7D5E021
:100AB00060E08A890E946A0285E00E9443058F2DCA
:100AC0000E944305802F0E944305812F0E94430509
:100AD00061E08A89DF91CF911F910F91FF900C9473
:100AE0006A02FF920F931F93CF93DF93C82FF62EC6
:100AF000172F042F80E591E00E94D70160E08091DC
:100B000083050E946A0283E00E9443058C2F0E94A5
:100B10004305CF2DD12F0C0F1D2F111DC017D1074D
:100B200029F080E00E9443058993F8CF61E080912D
:100B30008305DF91CF911F910F91FF900C946A0272
:100B40001F93CF93DF93182F80E591E00E94D70188
:100B5000C1E7D5E060E08A890E946A0283E00E94D2
:100B60004305812F0E94430580E00E944305182F12
:100B700061E08A890E946A02812FDF91CF911F91E3
:100B800008950F931F93CF93DF9300D01F92CDB79B
:100B9000DEB7182F1092710510927205109273052E
:100BA000109274051092750544E0BE016F5F7F4F8F
:100BB0000E9471052A81898138E0839FC001112438
:100BC000422F50E065E0559547956A95E1F7840F0F
:100BD000951F092E000CAA0BBB0B809372059093F6
:100BE0007305A0937405B093750523FF29C032E007
:100BF000880F991FAA1FBB1F3A95D1F72370820F48
:100C0000911DA11DB11DBA2FA92F982F88272B81C7
:100C1000820F911DA11DB11DBA2FA92F982F8827D2
:100C20002C81820F911DA11DB11D8093720590939F
:100C30007305A0937405B093750581E080937105E9
:100C40008FEF810F0E94A005082F84E0810F0E9482
:100C5000A00503FF16C091E090937F05482F4F70C9
:100C60004093760567E775E085E0810F0E94710586
:100C70000F900F900F900F90DF91CF911F910F91D8
:100C8000089510927F05EACFCF93DF93C82F0E947B
:100C9000F703D62F4C2F60EE8FE00E944A058EE0BE
:100CA0000E94A005807EC81749F00E94F7036D1BC3
:100CB000693C80F381E0DF91CF91089580E0FBCF24
:100CC000CF93DF93C82F8EE00E94A005807E8032F4
:100CD000F9F4C032E9F08BE20E94A005D82FD0745D
:100CE00086FD05C040E460E48BE20E944A0540E4D2
:100CF00060E48CE20E944A0580E60E94440681116D
:100D000011C0D11105C040E060E48BE20E944A05A9
:100D100040E060E48CE20E944A058C2FDF91CF9185
:100D20000C94440681E0DF91CF9108951F93CF93F7
:100D3000DF9380E591E00E94D701C1E7D5E060E054
:100D40008A890E946A0280EA0E94430580E00E942C
:100D50004305182F61E08A890E946A02812FDF9182
:100D6000CF911F910895EF92FF920F931F93CF930E
:100D7000DF937C018B01EA010E94960680FF52C03E
:100D800081E60E94C10540E061E08CE20E944A05D4
:100D900080917105882389F0809172059091730587
:100DA000A0917405B0917505B06880937205909319
:100DB0007305A0937405B093750580917F05882312
:100DC00089F08091720590917305A0917405B0919E
:100DD0007505B0648093720590937305A0937405B4
:100DE000B09375058091720590917305A09174057B
:100DF000B0917505F70180839183A283B3838091BD
:100E00007605F8018083A7E7B5E0FE01209176051D
:100E1000CF018C1B9D0B28171906A1F09CF08D911A
:100E20008193F4CF81FF06C081E70E94C10540E0B5
:100E300062E0ABCF84E0DF91CF911F910F91FF90E3
:100E4000EF90089580E0F7CF0F931F93CF93DF9338
:100E5000082F162F80E591E00E94D701C1E7D5E069
:100E600060E08A890E946A0282E00E944305802F26
:100E70000E944305812F0E94430561E08A89DF912A
:100E8000CF911F910F910C946A02FF920F931F93C1
:100E9000CF93DF93C82FF62E172F042F80E591E014
:100EA0000E94D70160E0809183050E946A0282E07F
:100EB0000E9443058C2F0E944305CF2DD12F0C0F8C
:100EC0001D2F111DC017D10721F089910E944305E4
:100ED000F9CF61E080918305DF91CF911F910F9150
:100EE000FF900C946A02CF93DF9300D01F92CDB78E
:100EF000DEB71C821B82613081F498E09A831982EC
:100F000044E0BE016F5F7F4F0E9445070F900F9036
:100F10000F900F90DF91CF9108951A82F0CF2F920A
:100F20003F924F925F926F927F928F929F92AF9279
:100F3000CF92DF92EF92FF920F931F93CF93DF93A5
:100F400000D01F92CDB7DEB7609372057093730522
:100F5000809374059093750596FB552750F950932F
:100F60007F05662797FD63957727882799276093E4
:100F7000710540937605F901A7E7B5E0C901089628
:100F800021912D93E817F907D9F70E94A0032B01AF
:100F90003C018090350290903602A09037021E01ED
:100FA00024E0220E311C89829A82AB82CE01019606
:100FB0006C01F82E0D2DF60111916F01812F0E9409
:100FC000A00583FD14C01F5FE12C0E94A003DC017B
:100FD000CB0184199509A609B709F2E0EF120EC0FA
:100FE000843C9940A105B105F0F206E07DC02C14C7
:100FF0003D0409F710E072E0E72EE7CF843C99400A
:10100000A105B10590F74091760567E775E085E0A9
:10101000810F0E94450780917F05813029F48091DE
:1010200076058064809376056091760584E0810F73
:101030000E942407409172055091730560917405D8
:1010400070917505809171058130D9F54C835B8372
:10105000AB0166277727842F83708860942F990FC0
:10106000990F990F907E892B8A8365E05695479555
:101070006A95E1F7498344E06F2D702F812F0E941C
:101080004507115048E068E0812F0E944A050E9400
:10109000A0036B017C01812F0E94A005082F08701E
:1010A0000E94A003DC01CB018C199D09AE09BF0988
:1010B0000023A9F0843C9940A105B10560F307E045
:1010C00013C0CA0123E0969587952A95E1F7898395
:1010D0004295440F407E4A831C821B82CCCF843CC5
:1010E0009940A105B10558F7802F0F900F900F90F0
:1010F0000F90DF91CF911F910F91FF90EF90DF90B4
:10110000CF90AF909F908F907F906F905F904F9017
:101110003F902F900895F894FC0181818330E9F08D
:1011200034F4813071F0823091F0789408958430F5
:10113000D1F08530D1F7809173008D7F809373005B
:10114000F4CF80916F008D7F80936F00EECF809100
:1011500070008D7F80937000E8CF809171008D7F4B
:1011600080937100E2CF809172008D7F8093720036
:10117000DCCFFC01F8946330C9F13CF46130C1F07C
:10118000623029F16183789408956430F1F165301B
:10119000C9F71092200110922101909121019860CD
:1011A0009093210190912101916090932101EACFC8
:1011B000109280001092810080918100886080935D
:1011C000810080918100816080938100DBCF10924B
:1011D000B0001092B1008091B00082608093B000A6
:1011E0008091B10081608093B100CCCF10929000CB
:1011F000109291009091910098609093910090913D
:101200009100916090939100BDCF1092A000109238
:10121000A1009091A10098609093A1009091A100ED
:1012200091609093A100AECFFC014085518562850D
:1012300073858181833009F470C084F4813089F131
:10124000823009F44CC080859185A285B385892BB5
:101250008A2B8B2B11F481E080830895843009F46C
:101260007AC0853081F7DB01CA014115510521E0C3
:101270006207710520F08FEF9FEFA0E0B0E0909340
:10128000290180932801481B590B6A0B7B0B40876F
:1012900051876287738780917300826080937300A7
:1012A000D2CFDB01CA014115510521E0620771056A
:1012B00020F08FEF9FEFA0E0B0E090938900809343
:1012C0008800481B590B6A0B7B0B4087518762874C
:1012D000738780916F00826080936F00B4CF4F3F1F
:1012E00051056105710529F020F04FEF50E060E0F5
:1012F00070E04093B30080859185A285B385841BFF
:10130000950BA60BB70B80879187A287B387809137
:10131000700082608093700096CFDB01CA01411596
:10132000510521E06207710520F08FEF9FEFA0E0EB
:10133000B0E09093990080939800481B590B6A0B7A
:101340007B0B408751876287738780917100826031
:101350008093710078CFDB01CA014115510521E06E
:101360006207710520F08FEF9FEFA0E0B0E090934F
:10137000A9008093A800481B590B6A0B7B0B408780
:1013800051876287738780917200826080937200B8
:101390005ACF4F925F926F927F928F929F92AF92AD
:1013A000BF92CF92DF92EF92FF920F931F93CF9352
:1013B000DF93EC01198111160CF03AC14901CB0100
:1013C000BA010E949F199B01AC0160E070E08AE7BE
:1013D00094E40E94FE186B017C012EEA37E346E894
:1013E00056E40E94561A2B013C0120E030E040E810
:1013F0005FE30E94F91887FD1BC18FEF9FEFDC01AF
:101400008C879D87AE87BF8720E030E040E852E4BC
:10141000C301B201123009F487C00E94511A01E0E1
:1014200010E0181674F020E030E040E051E4C30111
:10143000B2010E94511A03E010E0181614F402E001
:1014400010E0C801880F991F9C0128583D4F590191
:10145000F501619171915F0190E080E00E949F1918
:10146000A70196010E94561A9B01AC0160E074E24C
:1014700084E79BE40E94FE1820E030E040E85FE350
:101480000E948C180E9470196115F0EC7F07FFEF25
:101490008F07FFE39F07A8F56C837D838E839F836F
:1014A000688779878A879B871B830A83F894C88A11
:1014B000D98AEA8AFB8A9D8A8C8A1F8A1E8A1882A8
:1014C0008981823009F08BC08091B100887F9A8138
:1014D000892B8093B100CE010E941409789481E099
:1014E000DF91CF911F910F91FF90EF90DF90CF9000
:1014F000BF90AF909F908F907F906F905F904F9034
:1015000008950F5F1F4F0630110509F0A1CF6C83BE
:101510007D838E839F83688779878A879B8785E011
:1015200090E09B838A83C2CF0E94511A01E010E0B1
:101530001816D4F020E030E040E051E4C301B201DD
:101540000E94511A02E010E0181674F020E030E01A
:1015500040E050E4C301B2010E94511A04E010E0DF
:10156000181614F403E010E0C801880F991F9C01BD
:1015700028593D4F5901F501619171915F0190E04A
:1015800080E00E949F19A70196010E94561A9B01B4
:10159000AC0160E074E284E79BE40E94FE1820E066
:1015A00030E040E85FE30E948C180E9470196115DA
:1015B000F0EC7F07FFE38F07910508F46DCF0F5F15
:1015C0001F4F08301105B9F66C837D838E839F838E
:1015D000688779878A879B8787E090E0A2CF8130F0
:1015E00041F480918100887F9A81892B80938100CA
:1015F00072CF833041F480919100887F9A81892B4A
:101600008093910068CF843041F48091A100887F5D
:101610009A81892B8093A1005ECF853009F05BCF42
:1016200080912101887F9A81892B8093210153CF5A
:1016300080E056CFCF93DF93EC01F8942981888521
:101640009985AA85BB852230A9F18F3F9F4FA105BF
:10165000B10518F4CE010E94140988859985AA85E0
:10166000BB85AC01BD01009721E0A207B10520F0C8
:101670004FEF5FEF60E070E0841B950BA60BB70B9C
:1016800088879987AA87BB8788859985AA85BB851E
:10169000892B8A2B8B2B39F58C819D81AE81BF8163
:1016A00088879987AA87BB8781E088837894DF91B0
:1016B000CF9108958F3F9105A105B10518F4CE0192
:1016C0000E94140988859985AA85BB85AC01BD0156
:1016D0008F3F9105A105B10579F270F24FEF50E00F
:1016E00060E070E0C9CF1882E1CF8F929F92AF92F5
:1016F000BF92EF92FF920F931F93CF93DF9300D08F
:1017000000D01F921F92CDB7DEB7FC01F18020817F
:10171000F0E12F9F900111244F2D50E064E055958A
:1017200047956A95E1F7242B352B233241E03407A6
:1017300061F12032314009F45CC0198282E08A8371
:1017400080E090E0A0E2B2E48B839C83AD83BE8313
:1017500088EE93E098878F8329813A814B815C8161
:101760006D817E818F81988528960FB6F894DEBFB3
:101770000FBECDBFDF91CF911F910F91FF90EF90E2
:10178000BF90AF909F908F900895E12C8C01FC0149
:101790008281F8E78F9FC00111246FEF70E00E94F3
:1017A0003A18072E000C880B990B0E94A1194B01C7
:1017B0005C01F801638170E090E080E00E949F1975
:1017C00020E030E44CE156E40E94561A20E030E07C
:1017D0004FE753E40E94FE180E947019E9822F2DF2
:1017E00023702A838B829C82AD82BE8278876F832E
:1017F000B3CFEE24E394CACFFC0101900020E9F7B7
:101800003197AF01481B590BBC018CEB94E00C9451
:101810000E048F929F92AF92BF920F931F93CF931C
:10182000DF93CDB7DEB7A1970FB6F894DEBF0FBE3A
:10183000CDBF19A2423008F44AE08E010F5D1F4F60
:10184000842E912CB12CA12CA50194010E944E183C
:10185000E62FB901CA01EA30F4F4E05DD801EE9355
:101860008D01232B242B252B79F790E080E0109716
:1018700019F0CD010E94FC0BA1960FB6F894DEBFC3
:101880000FBECDBFDF91CF911F910F91BF90AF9051
:101890009F908F900895E95CE1CF0C94FC0BCF935F
:1018A000DF930E94FC0BEC0186E992E00E94FC0BA6
:1018B0008C0F9D1FDF91CF9108950F931F93CF93AE
:1018C000DF938C01D0E0C0E0F801EC0FFD1F6491C4
:1018D000662341F08CEB94E00E94A404892B11F064
:1018E0002196F2CF86E992E00E94FC0B8C0F9D1F9F
:1018F000DF91CF911F910F9108950F931F9389E965
:1019000092E00E944D0C0E94F70300918404109114
:1019100085042091860430918704601B710B820B33
:10192000930B4AE00E94090C86E992E00E94FC0BAE
:101930000E94F70360938404709385048093860467
:10194000909387041F910F9108950F931F93CF9346
:10195000DF931F921F92CDB7DEB78C010E9424182F
:101960008983C80101960E9424188A8389819A81FB
:101970000F900F90DF91CF911F910F910895CF920B
:10198000DF92EF92FF920F931F93CF93DF9300D0DC
:101990001F92CDB7DEB76E0125E0C20ED11C8E01BD
:1019A0000F5F1F4F7C01E01AF10AC016D10649F003
:1019B000C701800F911F0E942418F80181938F01A5
:1019C000F4CF69817A818B819C810F900F900F9069
:1019D0000F90DF91CF911F910F91FF90EF90DF90CB
:1019E000CF900895FF920F931F93CF93DF93EC0155
:1019F000F62E08811981C8010E942418F81621F0DA
:101A00006F2DC8010E942C18CE01DF91CF911F913C
:101A10000F91FF900895FF920F931F93CF93DF9341
:101A20001F921F92CDB7DEB78C01F72E9A83898360
:101A3000CE0101960E94F20C0F5F1F4F1A8309839B
:101A40006F2DCE0101960E94F20C0F900F90DF9146
:101A5000CF911F910F91FF9008951F920F920FB693
:101A60000F9211242F933F938F939F93AF93BF9324
:101A70008091B4049091B504A091B604B091B704DC
:101A80003091B30423E0230F2D3758F50196A11DA3
:101A9000B11D2093B3048093B4049093B504A09334
:101AA000B604B093B7048091B8049091B904A091A2
:101AB000BA04B091BB040196A11DB11D8093B80476
:101AC0009093B904A093BA04B093BB04BF91AF91B3
:101AD0009F918F913F912F910F900FBE0F901F906C
:101AE000189526E8230F0296A11DB11DD2CF1F9293
:101AF0000F920FB60F9211240BB60F922F933F93B4
:101B00004F935F936F937F938F939F93AF93BF9305
:101B1000EF93FF938CEB94E00E948204FF91EF918E
:101B2000BF91AF919F918F917F916F915F914F91F5
:101B30003F912F910F900BBE0F900FBE0F901F90F3
:101B400018951F920F920FB60F9211240BB60F9299
:101B50002F938F939F93EF93FF93E091CC04F09199
:101B6000CD048081E091D204F091D30482FD1DC0A8
:101B700090818091D5048F5F8F732091D604821756
:101B800041F0E091D504F0E0E454FB4F958F809351
:101B9000D504FF91EF919F918F912F910F900BBEE4
:101BA0000F900FBE0F901F9018958081F2CF1F925B
:101BB0000F920FB60F9211240BB60F92CF92DF92B5
:101BC000EF92FF922F933F934F935F936F937F9387
:101BD0008F939F93AF93BF93EF93FF93C090910523
:101BE000D0909205E0909305F09094058091860541
:101BF000853009F04FC0C114D104E104F10409F4A7
:101C000067C080918505882309F45DC0E09199053E
:101C1000F0919A05309741F080919B0590919C0539
:101C2000009709F44EC019958091890590918A0515
:101C3000A0918B05B0918C050097A140B105C4F02F
:101C4000F8948091890590918A05A0918B05B091B7
:101C50008C0580938D0590938E05A0938F05B0938E
:101C6000900585E895E00E94140910928505789406
:101C70001C141D041E041F046CF481E0C81AD10852
:101C8000E108F108C0929105D0929205E092930587
:101C9000F0929405FF91EF91BF91AF919F918F9139
:101CA0007F916F915F914F913F912F91FF90EF90B6
:101CB000DF90CF900F900BBE0F900FBE0F901F9034
:101CC00018951995B1CF85E895E00E941A0BE2CFDF
:101CD00085E895E00E948B08DDCF1F920F920FB62A
:101CE0000F9211240BB60F92CF92DF92EF92FF92D8
:101CF0002F933F934F935F936F937F938F939F9314
:101D0000AF93BF93EF93FF93C090A905D090AA051E
:101D1000E090AB05F090AC0580919E05833009F012
:101D20004FC0C114D104E104F10409F467C08091EB
:101D30009D05882309F45DC0E091B105F091B205DD
:101D4000309741F08091B3059091B405009709F464
:101D50004EC019958091A1059091A205A091A3056F
:101D6000B091A4050097A140B105C4F0F89480910A
:101D7000A1059091A205A091A305B091A40580931F
:101D8000A5059093A605A093A705B093A8058DE996
:101D900095E00E94140910929D0578941C141D046E
:101DA0001E041F046CF481E0C81AD108E108F10890
:101DB000C092A905D092AA05E092AB05F092AC05BD
:101DC000FF91EF91BF91AF919F918F917F916F9113
:101DD0005F914F913F912F91FF90EF90DF90CF90C7
:101DE0000F900BBE0F900FBE0F901F901895199576
:101DF000B1CF8DE995E00E941A0BE2CF8DE995E015
:101E00000E948B08DDCFCF93DF93ECEBF4E01382DD
:101E1000128288EE93E0A0E0B0E084839583A683ED
:101E2000B78388E892E09183808385EC90E0958782
:101E3000848784EC90E09787868780EC90E0918B94
:101E4000808B81EC90E0938B828B82EC90E0958B81
:101E5000848B86EC90E0978B868B118E128E138E7E
:101E6000148EEDE9F5E083E08183108A118A128AED
:101E7000138A158A148A178A168A108221E030E0A4
:101E8000338322831482158216821782108611866C
:101E9000128613868FEF9FEFDC0184879587A687D4
:101EA000B787E5E8F5E045E04183108A118A128A98
:101EB000138A158A148A178A168A1082338322831A
:101EC0001482158216821782108611861286138656
:101ED00084879587A687B787C1E7D5E081E28A8B9B
:101EE00061E00E946A0261E08A890E94980289E5A5
:101EF00095E0998B888BE4E6F5E089E18083148294
:101F000082E390E094878387EFE5F5E01182128207
:101F100088EE93E094838383EAE5F5E011821282F0
:101F200094838383DF91CF910895CF93DF93CDB7CF
:101F3000DEB72E970FB6F894DEBF0FBECDBF7894F4
:101F400084B5826084BD84B5816084BD85B58260BE
:101F500085BD85B5816085BD80916E00816080936F
:101F60006E001092810080918100826080938100D8
:101F700080918100816080938100809180008160E8
:101F8000809380008091B10084608093B100809143
:101F9000B00081608093B000809191008260809356
:101FA00091008091910081608093910080919000D8
:101FB0008160809390008091A10082608093A10055
:101FC0008091A10081608093A1008091A000816038
:101FD0008093A000809121018260809321018091F3
:101FE0002101816080932101809120018160809393
:101FF000200180917A00846080937A0080917A0039
:10200000826080937A0080917A00816080937A0068
:1020100080917A00806880937A001092C10061E01C
:102020008DE00E94980261E087E20E94980261E0E0
:1020300089E20E94980261E080E20E94980261E0D9
:1020400082E20E94980261E084E20E94980261E0CC
:1020500086E20E94980261E088E20E94980261E0B4
:102060008AE20E94980260E083E00E94980261E0A8
:102070008CE20E94980261E08EE20E94980261E088
:1020800088E00E94980261E086E00E94980261E088
:1020900085E20E94980261E080E10E94980261E07E
:1020A00080E10E94980261E081E10E94980261E073
:1020B00080E10E946A0261E081E10E946A02E0918F
:1020C000CC04F091CD0482E08083E091C804F091CB
:1020D000C9041082E091CA04F091CB0480E18083AE
:1020E0001092D404E091D004F091D10486E0808372
:1020F000E091CE04F091CF04808180618083E091F3
:10210000CE04F091CF04808188608083E091CE047A
:10211000F091CF04808180688083E091CE04F091BB
:10212000CF0480818F7D808360919E058DE995E04D
:102130000E94B9086091860585E895E00E94B9087B
:102140001FB7F89480917A04811127C0E9EAF2E080
:102150008491EFEEF2E09491E82FF0E0EE0FFF1F94
:10216000EA5DFD4FA591B491EC91E92321F461E082
:1021700085E30E946A0261E085E30E9498028CB5C3
:1021800080618CBD8CB580648CBD61E084E30E946D
:10219000980261E083E30E94980280917A048F5F45
:1021A00080937A041FBF80E591E00E94D70160E030
:1021B000809183050E946A0280EC0E94430561E0E1
:1021C000809183050E946A0265E070E080E090E003
:1021D0000E94C50380E48093840580E80E94600625
:1021E000882309F4B6C58FEF91E00E945D0C8FE45F
:1021F00094E00E944F0C1092840580E00E946006DB
:1022000004E610E00E949606837069F0AE014F5F0D
:102210005F4FBE01635F7F4FCE0109960E94B306F8
:102220000150110979F78EEB92E00E944F0C90E07B
:1022300080E00E94BF0C60930E0270930F028093A7
:1022400010029093110288E090E00E94A50C9093F8
:102250001302809312028CE090E00E942418809375
:102260000D0284E090E00E94BF0C60930602709320
:10227000070280930802909309028AE090E00E948E
:10228000A50C90930B0280930A028DE090E00E94CF
:102290002418809305020AEF10E08DE0282E312CDF
:1022A0009CE0892E912C28E5A22E22E0B22E0E94DD
:1022B000F7034090AF045090B0046090B104709068
:1022C000B2046419750986099709693E734081054E
:1022D0009105C0F08DE00E94410261E0892B09F078
:1022E00060E08DE00E946A0280ED92E00E944F0C57
:1022F0000E94F7036093AF047093B0048093B1041D
:102300009093B20483E00E9441026C01772473949D
:10231000892B09F4712C80913402781671F080EECB
:1023200092E00E944D0C8AEB92E0CD2811F085EBF3
:1023300092E00E944F0C7092340283E00E944102AE
:10234000892B09F07EC081EF92E00E944F0C4CE295
:1023500052E06AEA74E08BEA94E00E94B3068111CD
:1023600076C58EE093E00E944D0C6091AB047091B5
:10237000AC048091AD049091AE0440E10E94090C40
:1023800085E193E00E944D0C6091AA0470E090E01A
:1023900080E04AE00E94090C88E193E00E944F0C23
:1023A0008091AB049091AC04A091AD04B091AE04C7
:1023B00081309440A105B10559F58AE193E00E946E
:1023C0004F0C24E232E048E061E074E080E090E00D
:1023D0000E948F07D82E81112AC589E393E00E94BD
:1023E0004F0CB6E0CB2ED12C8DE00E94410261E073
:1023F000892B09F060E08DE00E946A0264E670E0DB
:1024000080E090E00E94C503F1E0CF1AD10861F7A7
:102410008091AB049091AC04A091AD04B091AE0456
:1024200083349240A105B10561F482E793E00E94F4
:102430004F0C64E670E080E090E00E94C5030C94CD
:1024400000008091AB049091AC04A091AD04B091D8
:10245000AE0482309440A105B10509F016C1809107
:102460002C02282F237030E03093A1042093A00485
:1024700090E09C0135952795359527952370332756
:1024800030939F0420939E049C0144E0359527954A
:102490004A95E1F72370332730939D0420939C04E1
:1024A00056E0959587955A95E1F790939B04809314
:1024B0009A0480912D02282F237030E03093A904D4
:1024C0002093A80490E09C01359527953595279594
:1024D000237033273093A7042093A6049C0174E053
:1024E000359527957A95E1F7237033273093A50426
:1024F0002093A404E6E095958795EA95E1F79093FB
:10250000A3048093A204FAE96F2EF4E07F2EA8E5DD
:10251000CA2EA2E0DA2EF301819191913F01813020
:10252000910509F499C48230910509F49BC460E0D7
:10253000892B09F492C4F2E0CF0ED11C8AEA94E010
:102540008615970541F780912E02282F30E02B3F0A
:1025500031050CF08CC4EFEF8E9FC0011124B8013F
:102560000E943A18709399046093980480912F0206
:10257000282F30E02B3F31050CF082C4FFEF8F9FF6
:10258000C0011124B8010E943A1870939704609317
:10259000960480913002282F30E02B3F31050CF05B
:1025A00078C42FEF829FC0011124B8010E943A180D
:1025B0007093950460939404C0909804709199046A
:1025C0006C2D8CE20E94C902D09096047091970401
:1025D0006D2D8EE20E94C9022091940480919A048C
:1025E00090919B0436E0880F991F3A95E1F740914E
:1025F0009C0450919D0464E0440F551F6A95E1F7D7
:10260000842B9091A004892B40919E0450919F04AB
:10261000440F551F440F551F842B80931C0280913B
:10262000A2049091A304E6E0880F991FEA95E1F7D0
:102630004091A4045091A504F4E0440F551FFA956D
:10264000E1F7842B9091A804892B4091A604509126
:10265000A704440F551F440F551F842B80931D0260
:10266000C0921E02D0921F022093200210922102DB
:1026700010922202109223022CE132E048E062E242
:1026800074E080E090E00E948F078091AB0490910D
:10269000AC04A091AD04B091AE0483309440A10588
:1026A000B10509F01BC18CE292E00E94750B2093EA
:1026B0001402309315024093160250931702609350
:1026C00018027093190280931A0290931B02323001
:1026D00008F4E8C3323009F4EFC380910C02813072
:1026E00091F580910E0290910F02A0911002B0918D
:1026F000110289879A87AB87BC873E01F9E06F0E8C
:10270000711CD12CC12CF30161913F01DE86CD8675
:10271000CE010D960E94F20CFFEFCF1ADF0A24E0E3
:10272000C216D10481F7609112027091130288E001
:1027300090E00E940B0D60910D029E868D86CE0169
:102740000D960E94F20C80E392E00E94750B20939C
:1027500014023093150240931602509317026093AF
:1027600018027093190280931A0290931B02323060
:1027700008F4A7C3323009F4AEC38091040281305B
:1027800091F58091060290910702A0910802B09104
:10279000090289839A83AB83BC83CE0101963C01F5
:1027A000B4E0CB2ED12CF30161913F01DE86CD86C2
:1027B000CE010D960E94F20CFFEFCF1ADF0A28E03F
:1027C000C216D10481F760910A0270910B028AE06F
:1027D00090E00E940B0D609105023E862D86CE0191
:1027E0000D960E94F20C20910D0260910E027091E4
:1027F0000F028091100290911102C0901202D090AD
:102800001302A2E17A2E70921C02206320931D0213
:1028100020E030E04FE753E40E94561A20E030E019
:1028200040EF52E40E94FE180E94701960931E024D
:10283000B60190E080E00E949F1920E030E04FE771
:1028400053E40E94561A20E030E44CE156E40E9422
:10285000FE180E94701960931F022091050260917A
:102860000602709107028091080290910902C090BF
:102870000A02D0900B027092200220632093210262
:1028800020E030E04FE753E40E94561A20E030E0A9
:1028900040EF52E40E94FE180E94701960932202D9
:1028A000B60190E080E00E949F1920E030E04FE701
:1028B00053E40E94561A20E030E44CE156E40E94B2
:1028C000FE180E947019609323022CE132E048E068
:1028D00063E274E080E090E00E948F078091AB0497
:1028E0009091AC04A091AD04B091AE0484309440BA
:1028F000A105B10509F042C080912C0290912D02F2
:1029000098278927982720912E02217030912F0235
:10291000337030935A0510925B0520935C059093B9
:102920005E0580935D0585E0EAE5F5E0AFE5B5E09D
:1029300001900D928A95E1F780915F059091610574
:10294000209162053091630530931C0220931D0293
:1029500090931E02837080931F02109220021092A7
:10296000210210922202109223022CE132E048E070
:1029700064E274E080E090E00E948F078091AB04F5
:102980009091AC04A091AD04B091AE048530944018
:10299000A105B10509F580912C0290E0F6E095952E
:1029A0008795FA95E1F7813009F49DC208F498C241
:1029B000823009F49DC28091600520E4829FC001AD
:1029C00011248093930423E934E048E065E274E045
:1029D00080E090E00E948F078091AB049091AC045E
:1029E000A091AD04B091AE0480319540A105B10530
:1029F00009F0D2C070902D0280912E0290E040919B
:102A0000300250E0B42FAA27AA27BF7020912F02CE
:102A1000A22BB8502091320230E060913102F4E0F4
:102A20006F9FB0011124FA01689415F8F595E795A8
:102A30001694E1F76E2B7F2BF901FE2FEE27FF0F87
:102A4000FF0FEE27FC706E2B7F2B7850F091330236
:102A5000E0E1FE9F700111246901E4E0D594C79480
:102A6000EA95E1F7EC28FD282701F8E05F1AD090FD
:102A70002C02F0E8FF2EDF0CD0926405E72DE37006
:102A8000E09365056C01E6E0D594C794EA95E1F71B
:102A9000C0926605F4E055954795FA95E1F74370C5
:102AA0004093670535952795359527952370209395
:102AB000680556E0880F991F5A95E1F7807C9F7052
:102AC000272D30E03595279535952795822B932B2B
:102AD000985090936A0580936905B0936C05A09314
:102AE0006B0570936E0560936D0550927005409272
:102AF0006F0540907B0450907C0460907D04709042
:102B00007E04072E000C880B990B0E94A1192DEC56
:102B10003CEC4CEC5DE30E94561A6B017C0126E60E
:102B200036E646E65FE3C301B2010E94561A9B01F6
:102B3000AC01C701B6010E948D1860937B047093AD
:102B40007C0480937D0490937E0460938F04709343
:102B5000900480939104909392048EEE93E00E94EF
:102B60004D0C40908F0450909004609091047090B0
:102B70009204A3019201C301B2010E94C31A8823E7
:102B800009F4BBC187E094E00E94FC0B86E992E067
:102B90000E94FC0B0E94F7030E94F70340908B04F5
:102BA00050908C0460908D0470908E04AB01BC0139
:102BB000441955096609770980916205909163056A
:102BC000B0E0A0E0481759076A077B0708F43FC048
:102BD00080916005811104C080915F058823B9F15F
:102BE0001092600588E3C82E82E0D82EF60161912C
:102BF0007191819191916F0130E020E040E00E945D
:102C00008F0787E090E00197F1F74CE252E06AEA23
:102C100074E08BEA94E00E94B306AC14BD0431F773
:102C20001092890410928A0429E834E048E066E2B0
:102C300074E080E090E00E948F070E94F7036093A9
:102C40008B0470938C0480938D0490938E04D090A9
:102C50000D02F1E0DF12E3C120918F043091900466
:102C6000409191045091920460910E0270910F0274
:102C700080911002909111020E94F91818160CF41C
:102C8000CEC180918804811118C0409112025091E8
:102C9000130270E060E02DE73CE085E895E00E94DB
:102CA000C9090E94F703609384047093850480939C
:102CB000860490938704D0928804D0900502FF2464
:102CC000F394DF10B3C120918004309181044091CE
:102CD00082045091830460910602709107028091F2
:102CE0000802909109020E94F91818160CF49EC16E
:102CF00080917F0481110EC040910A0250910B0215
:102D000070E060E023E034E08DE995E00E94C909BD
:102D1000D0927F0470E060E085E20E94C90270E01A
:102D200060E080E10E94C90270E060E088E00E94FB
:102D3000C90270E060E086E00E94C9021092AB0414
:102D40001092AC041092AD041092AE040E941105D2
:102D5000AECA87ED91E00E945D0C60E08AE20E94BD
:102D6000240761ED89E20E94240761E888E20E945D
:102D700024078AEB91E00E945D0C61E080E20E94F2
:102D8000730761E084E20E94730761E080E00E94C3
:102D9000730760E084E00E94730761E088E00E94AE
:102DA000730760E080E10E94730761E084E10E94A4
:102DB000730760E088E10E94730710E360E0812FF1
:102DC0000E94240760E080E1810F0E94240760E0F8
:102DD00080E2810F0E9424071F5F1E3379F760E0B5
:102DE00080E60E94240760E080E70E94240763E0F9
:102DF0008BE20E9424076CE38CE00E94240760E0D1
:102E00008DE00E94240744E664E680E60E944A05BD
:102E100040E660E680E70E944A05809184050E94B2
:102E20006006882309F409C184E991E0DEC983E5DD
:102E300093E00E944D0C6D2D70E090E080E04AE040
:102E40000E94090C86E992E00E94FC0BCACA8EE738
:102E500093E00E944F0CF5CA61E0F60180810E9468
:102E60006A0269CB86E993E00E944F0C64CB2F3F46
:102E7000310509F47BCB81EA93E00E944D0C76CBBF
:102E80002F3F310509F485CB8DEA93E00E944D0C6C
:102E900080CB2F3F310509F48FCB89EB93E00E9463
:102EA0004D0C8ACB88E0E4E1F2E0ACE0B2E00190C6
:102EB0000D928A95E1F711CC87EC93E00E944D0CBE
:102EC0000CCC88E0E4E1F2E0A4E0B2E001900D92E5
:102ED0008A95E1F752CC83ED93E00E944D0C4DCCE6
:102EE0001092600568CDFF24F394F092600563CDE5
:102EF00082EE93E00E944D0C5ECD73016201E89476
:102F0000F7F82FEF3FEF4FE75FE7C701B6010E94E9
:102F1000C31A81110DC02FEF3FEF4FE75FE7C701E5
:102F2000B6010E94F91818161CF48BE094E02CCE20
:102F30002FEF3FEF4FE75FE4C301B2010E94511A48
:102F400018161CF48FE094E01FCE2FEF3FEF4FE7F1
:102F50005FECC301B2010E94F91887FDF3CF20E0B6
:102F600030E0A901C301B2010E94F91887FF09C02E
:102F70006DE28CEB94E00E94A40477FA709477F8E9
:102F800070942AE037ED43EA5BE3C301B2010E948B
:102F90008D186B017C010E9470192B013C010E946D
:102FA0009F199B01AC01C701B6010E948C186B01EF
:102FB0007C014AE0C301B2010E94090C6EE28CEB75
:102FC00094E00E94A40420E030E040E251E4C70114
:102FD000B6010E94561A6B017C010E9470192B01E8
:102FE000712C612C4AE0C301B2010E94090CC3019B
:102FF000B2010E949F199B01AC01C701B6010E945A
:103000008C1820E030E040E251E40E94561A0E9401
:10301000701990E080E04AE00E94090CB7CD85E885
:1030200095E00E948B081092880447CE8DE995E0C8
:103030000E948B0810927F046DCE83E194E00E9481
:103040004F0C85E394E0D5C8F999FECF92BD81BDC0
:10305000F89A992780B50895262FF999FECF1FBABF
:1030600092BD81BD20BD0FB6F894FA9AF99A0FBEB1
:103070000196089597FB072E16F4009407D077FD6C
:1030800009D00E94781807FC05D03EF490958195F0
:103090009F4F0895709561957F4F0895A1E21A2E74
:1030A000AA1BBB1BFD010DC0AA1FBB1FEE1FFF1FEC
:1030B000A217B307E407F50720F0A21BB30BE40B3C
:1030C000F50B661F771F881F991F1A9469F7609583
:1030D0007095809590959B01AC01BD01CF0108953D
:1030E000EE0FFF1F881F8BBF0790F691E02D1994FC
:1030F000AA1BBB1B51E107C0AA1FBB1FA617B7071E
:1031000010F0A61BB70B881F991F5A95A9F7809539
:103110009095BC01CD0108955058BB27AA270E9465
:10312000A4180C94171A0E94091A38F00E94101A59
:1031300020F039F49F3F19F426F40C94061A0EF48B
:10314000E095E7FB0C94001AE92F0E94281A58F327
:10315000BA17620773078407950720F079F4A6F57C
:103160000C944A1A0EF4E0950B2EBA2FA02D0B01E9
:10317000B90190010C01CA01A0011124FF27591BBC
:1031800099F0593F50F4503E68F11A16F040A22FC2
:10319000232F342F4427585FF3CF46953795279533
:1031A000A795F0405395C9F77EF41F16BA0B620B32
:1031B000730B840BBAF09150A1F0FF0FBB1F661F79
:1031C000771F881FC2F70EC0BA0F621F731F841FBC
:1031D00048F4879577956795B795F7959E3F08F0E2
:1031E000B0CF9395880F08F09927EE0F97958795A4
:1031F00008950E94DC1908F481E008950E941219D4
:103200000C94171A0E94101A58F00E94091A40F0E4
:1032100029F45F3F29F00C94001A51110C944B1AB9
:103220000C94061A0E94281A68F39923B1F35523C7
:1032300091F3951B550BBB27AA27621773078407C9
:1032400038F09F5F5F4F220F331F441FAA1FA9F35F
:1032500035D00E2E3AF0E0E832D091505040E6954D
:10326000001CCAF72BD0FE2F29D0660F771F881FAE
:10327000BB1F261737074807AB07B0E809F0BB0BA1
:10328000802DBF01FF2793585F4F3AF09E3F5105B5
:1032900078F00C94001A0C944B1A5F3FE4F3983EBC
:1032A000D4F3869577956795B795F7959F5FC9F79E
:1032B000880F911D9695879597F90895E1E0660F1F
:1032C000771F881FBB1F621773078407BA0720F098
:1032D000621B730B840BBA0BEE1F88F7E095089501
:1032E0000E94301A88F09F5798F0B92F9927B7514C
:1032F000B0F0E1F0660F771F881F991F1AF0BA959A
:10330000C9F714C0B13091F00E944A1AB1E0089593
:103310000C944A1A672F782F8827B85F39F0B93F85
:10332000CCF3869577956795B395D9F73EF490954C
:103330008095709561957F4F8F4F9F4F0895E894CA
:1033400009C097FB3EF490958095709561957F4FED
:103350008F4F9F4F9923A9F0F92F96E9BB2793959B
:10336000F695879577956795B795F111F8CFFAF4AB
:10337000BB0F11F460FF1BC06F5F7F4F8F4F9F4FDC
:1033800016C0882311F096E911C0772321F09EE83A
:10339000872F762F05C0662371F096E8862F70E0A0
:1033A00060E02AF09A95660F771F881FDAF7880F7A
:1033B0009695879597F90895990F0008550FAA0BD0
:1033C000E0E8FEEF16161706E807F907C0F0121638
:1033D0001306E407F50798F0621B730B840B950B3B
:1033E00039F40A2661F0232B242B252B21F4089590
:1033F0000A2609F4A140A6958FEF811D811D08952D
:1034000097F99F6780E870E060E008959FEF80EC97
:10341000089500240A94161617061806090608953A
:1034200000240A9412161306140605060895092EA0
:103430000394000C11F4882352F0BB0F40F4BF2B0F
:1034400011F460FF04C06F5F7F4F8F4F9F4F08954F
:1034500057FD9058440F551F59F05F3F71F0479545
:10346000880F97FB991F61F09F3F79F0879508952A
:10347000121613061406551FF2CF4695F1DF08C049
:10348000161617061806991FF1CF86957105610566
:1034900008940895E894BB2766277727CB0197F90E
:1034A00008950E94DC1908F48FEF08950E94691AAC
:1034B0000C94171A0E94091A38F00E94101A20F072
:1034C000952311F00C94001A0C94061A11240C94F4
:1034D0004B1A0E94281A70F3959FC1F3950F50E084
:1034E000551F629FF001729FBB27F00DB11D639FB6
:1034F000AA27F00DB11DAA1F649F6627B00DA11D5C
:10350000661F829F2227B00DA11D621F739FB00D01
:10351000A11D621F839FA00D611D221F749F332771
:10352000A00D611D231F849F600D211D822F762F0A
:103530006A2F11249F5750409AF0F1F088234AF0E7
:10354000EE0FFF1FBB1F661F771F881F9150504053
:10355000A9F79E3F510580F00C94001A0C944B1A69
:103560005F3FE4F3983ED4F3869577956795B795DA
:10357000F795E7959F5FC1F7FE2B880F911D9695F4
:10358000879597F908950E94DC19880B990B089587
:04359000F894FFCFDD
:1035940078007800000000002042E80300000000EA
:1035A4002042E803000000002042E803200000005D
:1035B40000000000555555FFFFFFFFFF20000000ED
:1035C400000000000130405010050040200500407C
:1035D400300500401006004011060040200600405F
:1035E4002106004022060040270029002000220076
:1035F4002400260028002A00010001000800200001
:1036040040008000000100040100010008004000A7
:103614000001000400000000A4040E043B04F104B3
:103624006C044A045E040D0A004954696D657231E4
:103634002063616C6C65642C206D696C6C69732803
:1036440029203D200048494748004C4F5700427507
:10365400666665722043414E206C696D706F21006F
:103664004C6F6F7020726F64616E646F2E2E2E002B
:10367400494E54206D75646F7520706172613A20F3
:1036840000494E54203D204C4F572C206C656E64ED
:103694006F206D656E736167656D2E2E2E00525816
:1036A4003A20307800205B005D0020202D3E204829
:1036B40045415254424541542120526573706F6E06
:1036C40064656E646F2E2E2E0020202D3E205265E0
:1036D40073706F73746120656E7669616461204FE5
:1036E4004B210020202D3E204552524F20616F2057
:1036F400656E76696172212043C3B36469676F3A6A
:10370400200020202D3E205245534554210045528F
:10371400524F20616F206C65722062756666657217
:103724002043414E21004572726F72204C45447310
:10373400004572726F722050574D203100457272ED
:103744006F722050574D2032004572726F722045BF
:103754006E636F646572004572726F7220307834E4
:103764003033004572726F72203078343033202B3E
:1037740034004572726F72203078343035005465ED
:103784006D706572617475726120312046696C7464
:10379400726164613A20006E616E00696E66006F4A
:1037A4007666004D43503235313520496E6974696F
:1037B400616C697A656420537563636573736675B8
:1037C4006C6C7921005445737465207365206573AE
:1037D40074612066756E63696F6E616E646F004517
:1037E40072726F7220496E697469616C697A696E6C
:0E37F40067204D4350323531352E2E2E000009
:00000001FF
