:100000000C94A4010C94D5010C94D5010C94D50149
:100010000C94D5010C94D5010C94D5010C94D50108
:100020000C94D5010C94D5010C94D5010C94D501F8
:100030000C94D5010C94D5010C94D5010C94D501E8
:100040000C94D5010C94D5010C94D5010C94D501D8
:100050000C94D5010C94D5010C94D5010C94350E5B
:100060000C94D5010C94A90E0C947F0E0C94D50120
:100070000C94D5010C94D5010C94D5010C94D501A8
:100080000C94750F0C94D5010C94D5010C94D501EA
:100090000C94D5010C94D5010C94D5010C94D50188
:1000A0000C94D5010C94D5010C94D5010C94D50178
:1000B0000C94D5010C94D5010C94D5010C94DF0E51
:1000C0000C94D5010C94D5010C94D5010C94D50158
:1000D0000C94D5010C94D5010C94D5010C94D50148
:1000E0000C94D5010C9483020C94B0040C948E04EF
:1000F0000C94A1020C94E9030C9474020C94470430
:100100000C9407040C94BC030C9497020C94B20357
:100110000C94AE020C94A9020C947F040C948002FF
:100120000C9484030C94E8040C9478020C94AF02B1
:100130000C949B020C9498030C94D0030C94850DA2
:100140000C94A2030C9452040C9435050C94A20454
:100150000C948E030C940B100C94B3020C941104A9
:100160000C94AA030C9493020C94F3030C9477035D
:100170000C9489020C94C6030C94DF030C948D023A
:100180000C94FD030C94A5020C946E020C947C025A
:100190000C947F0352657475726E696E6720746F7C
:1001A0002050726576696F7573204D6F64652046C7
:1001B00061696C7572652E2E2E0053657474696EBC
:1001C000672042617564726174652053756363656D
:1001D000737366756C2100456E746572696E672075
:1001E000436F6E66696775726174696F6E204D6FDB
:1001F0006465205375636365737366756C21004590
:100200006E746572696E6720436F6E66696775729A
:100210006174696F6E204D6F6465204661696C750D
:1002200072652E2E2E0000002100240027002A00D7
:100230002D003000330001010000040107010A0114
:1002400000002200250028002B002E003100340081
:1002500002010000050108010B010000200023003D
:10026000260029002C002F003200000100000301AD
:100270000601090105050505070508080808020229
:1002800002020A0A08080404040401010101010130
:1002900001010303030303030303040707070C0C13
:1002A0000C0C0C0C0C0C02020202060606060606DA
:1002B00006060B0B0B0B0B0B0B0B0102102020087F
:1002C00008102040102040800201020108040201B1
:1002D0000102040810204080804020100804020120
:1002E0008004020180402010080402010804020179
:1002F0000102040810204080010204081020408000
:1003000000000A0B02090C0D0E080703040100008F
:1003100000000000000000000000000000000000DD
:10032000000000000000000000000000121110009A
:1003300000000000000000000000000000000000BD
:100340000000000000000B1011241FBECFEFD1E20F
:10035000DEBFCDBF00E00CBF14E0A0E0B2E0EEE2F3
:10036000F7E300E00BBF02C007900D92A63EB10775
:10037000D9F726E0A6EEB4E001C01D92A134B20781
:10038000E1F711E0C4EAD1E000E006C021970109DD
:10039000802FFE010E943D19C33AD10780E0080773
:1003A000A9F70E94A3100C94951B0C940000FC016B
:1003B000ADE2B2E08C918058808311964C911197F8
:1003C000842F8370818312962C91129730E0C9019B
:1003D00056E0880F991F5A95E1F7807C9F7050E096
:1003E0005595479555954795842B952B9850968311
:1003F000858376E0359527957A95E1F722831496E3
:100400004C91149750E0942F882788279F7013965B
:100410002C911397822B985090878783CA0124E0F0
:10042000959587952A95E1F78370838316962C918D
:10043000169730E015969C91159764E0969FC00141
:10044000112466E0559547956A95E1F7842B952B25
:10045000A901542F4427550F550F44275C70842B56
:10046000952B985092878187C90195958795959589
:1004700087958370848317969C9140E1949FC00177
:10048000112454E0359527955A95E1F7822B932B4B
:10049000985094878387CF0108958CBD9DBD0895A2
:1004A0008150823108F05AC0E82FF0E08827E45AE2
:1004B000FD4F8F4F0C943D197C0280026E02740236
:1004C0007802AE02830289028D02930297029B0298
:1004D000A102A502AE02A902AF02B3028091800080
:1004E0008F77809380000895809180008F7DF9CF71
:1004F00080918000877FF5CF84B58F7784BD089584
:1005000084B58F7DFBCF8091B0008F778093B00052
:1005100008958091B0008F7DF9CF809190008F7702
:10052000809390000895809190008F7DF9CF809105
:100530009000877FF5CF8091A0008F778093A000F7
:1005400008958091A0008F7DF9CF8091A000877FD2
:10055000F5CF809120018F778093200108958091BD
:1005600020018F7DF9CF80912001877FF5CFCF9338
:10057000DF93282F30E0F901E050FD4F8491F9011D
:10058000E654FD4FD491F901EC58FD4FC491CC23B2
:10059000A1F081110E945002EC2FF0E0EE0FFF1F3E
:1005A000E65AFD4FA591B491EC91ED2381E090E0E6
:1005B00009F480E0DF91CF91089580E090E0FACFD8
:1005C0001F93CF93DF93282F30E0F901E050FD4FC8
:1005D0008491F901E654FD4FD491F901EC58FD4F97
:1005E000C491CC23A9F0162F81110E945002EC2F48
:1005F000F0E0EE0FFF1FE05CFD4FA591B4918FB7C7
:10060000F894EC91111108C0D095DE23DC938FBFD4
:10061000DF91CF911F910895DE2BF8CFCF93DF9319
:1006200090E0FC01E654FD4F24918C589D4FFC0155
:1006300084918823D1F090E0880F991FFC01EA5D36
:10064000FD4FA591B491FC01E05CFD4FC591D491A3
:1006500061110EC09FB7F8948C91E22FE0958E2324
:100660008C932881E223E8839FBFDF91CF91089587
:100670008FB7F894EC91E22BEC938FBFF6CF1F93DA
:10068000CF93DF93182FEB0161E00E940E032097B8
:1006900039F460E0812FDF91CF911F910C94E0023B
:1006A000CF3FD10511F461E0F5CFE12FF0E0E0504C
:1006B000FD4FE491E150E23108F0B3C0F0E088274B
:1006C000EB59FC4F8F4F0C943D1977037F03840344
:1006D0008E0398031104A203AA03B203BC03C6034A
:1006E000D003DF03E9031104F303FD03070484B51A
:1006F000806884BDC7BDDF91CF911F91089584B5F7
:10070000806284BDC8BDF7CF8091800080688093EF
:100710008000D0938900C0938800EDCF8091800045
:10072000806280938000D0938B00C0938A00E3CFD7
:1007300080918000886080938000D0938D00C0936A
:100740008C00D9CF8091B00080688093B000C093B6
:10075000B300D1CF8091B00080628093B000C0938D
:10076000B400C9CF80919000806880939000D093AE
:100770009900C0939800BFCF8091900080628093D1
:100780009000D0939B00C0939A00B5CF80919000C9
:10079000886080939000D0939D00C0939C00ABCF65
:1007A0008091A00080688093A0008091A0008F7B42
:1007B0008093A000D093A900C093A8009CCF809103
:1007C000A00080628093A000D093AB00C093AA00E9
:1007D00092CF8091A00088608093A000D093AD005C
:1007E000C093AC0088CF8091200180688093200165
:1007F000D0932901C09328017ECF8091200180628F
:1008000080932001D0932B01C0932A0174CF809153
:100810002001886080932001D0932D01C0932C018A
:100820006ACFC038D1050CF03ECF33CF3FB7F89434
:100830008091370590913805A0913905B0913A051E
:1008400026B5A89B05C02F3F19F00196A11DB11D2B
:100850003FBFBA2FA92F982F8827BC01CD01620F67
:10086000711D811D911D42E0660F771F881F991F22
:100870004A95D1F708952FB7F89460913305709198
:10088000340580913505909136052FBF08950E945B
:100890003B046093EA047093EB048093EC04909320
:1008A000ED040895AF92BF92CF92DF92EF92FF9244
:1008B0000F931F93CF93DF936C017B018B01040F88
:1008C000151FEB015E01AE18BF08C017D10759F024
:1008D0006991D601ED91FC910190F081E02DC60166
:1008E0001995892B79F7C501DF91CF911F910F9150
:1008F000FF90EF90DF90CF90BF90AF900895FC01F4
:10090000538D448D252F30E0842F90E0821B930B74
:10091000541710F0CF96089501970895FC01918D1A
:10092000828D981761F0A28DAE0FBF2FB11D5D961D
:100930008C91928D9F5F9F73928F90E008958FEFBF
:100940009FEF0895FC01918D828D981731F0828D73
:10095000E80FF11D858D90E008958FEF9FEF0895CA
:10096000FC01918D228D892F90E0805C9F4F821B2E
:1009700091098F73992708958BE395E00E94B00445
:1009800021E0892B09F420E0822F0895FC01A48D39
:10099000A80FB92FB11DA35ABF4F2C91848D90E0A1
:1009A00001968F739927848FA689B7892C93A08984
:1009B000B1898C91837080648C93938D848D98130E
:1009C00006C00288F389E02D80818F7D80830895A1
:1009D000EF92FF920F931F93CF93DF93EC0181E08F
:1009E000888F9B8D8C8D98131AC0E889F989808136
:1009F00085FF15C09FB7F894EE89FF896083E88969
:100A0000F98980818370806480839FBF81E090E05A
:100A1000DF91CF911F910F91FF90EF900895F62EE7
:100A20000B8D10E00F5F1F4F0F731127E02E8C8D81
:100A30008E110CC00FB607FCFACFE889F9898081C6
:100A400085FFF5CFCE010E94C604F1CFEB8DEC0FF0
:100A5000FD2FF11DE35AFF4FF0829FB7F8940B8FE3
:100A6000EA89FB8980818062CFCFCF93DF93EC014D
:100A7000888D8823B9F0AA89BB89E889F9898C9186
:100A800085FD03C0808186FD0DC00FB607FCF7CF42
:100A90008C9185FFF2CF808185FFEDCFCE010E9442
:100AA000C604E9CFDF91CF91089580E090E0892BD3
:100AB00029F00E94BC0481110E94000080E090E0B7
:100AC000892B49F080E090E0892B29F00E940000FA
:100AD00081110E94000080E090E0892B49F080E0C5
:100AE00090E0892B29F00E94000081110E940000F3
:100AF00080E090E0892B49F080E090E0892B29F09C
:100B00000E94000081110C940000089508958EBD8C
:100B100000000DB407FEFDCF8EB50895FF920F9330
:100B20001F93CF93DF93F82E062F142F80E591E0CB
:100B30000E944D02CDEFD5E060E08A890E94E0027C
:100B400085E00E9487058F2D0E948705802F0E94D7
:100B50008705812F0E94870561E08A89DF91CF9107
:100B60001F910F91FF900C94E002FF920F931F933F
:100B7000CF93DF93C82FF62E172F042F80E591E037
:100B80000E944D0260E080910F060E94E00283E027
:100B90000E9487058C2F0E948705CF2DD12F0C0F27
:100BA0001D2F111DC017D10729F080E00E94870575
:100BB0008993F8CF61E080910F06DF91CF911F916B
:100BC0000F91FF900C94E0021F93CF93DF93182FA7
:100BD00080E591E00E944D02CDEFD5E060E08A898A
:100BE0000E94E00283E00E948705812F0E94870512
:100BF00080E00E948705182F61E08A890E94E00248
:100C0000812FDF91CF911F9108950F931F93CF9361
:100C1000DF9300D01F92CDB7DEB7182F1092FD05DD
:100C20001092FE051092FF05109200061092010628
:100C300044E0BE016F5F7F4F0E94B5052A81898124
:100C400038E0839FC0011124422F50E065E05595A4
:100C500047956A95E1F7840F951F092E000CAA0BA2
:100C6000BB0B8093FE059093FF05A0930006B09305
:100C7000010623FF29C032E0880F991FAA1FBB1F5E
:100C80003A95D1F72370820F911DA11DB11DBA2F86
:100C9000A92F982F88272B81820F911DA11DB11D8F
:100CA000BA2FA92F982F88272C81820F911DA11D63
:100CB000B11D8093FE059093FF05A0930006B093AD
:100CC000010681E08093FD058FEF810F0E94E4050E
:100CD000082F84E0810F0E94E40503FF16C091E015
:100CE00090930B06482F4F704093020663E076E026
:100CF00085E0810F0E94B5050F900F900F900F9027
:100D0000DF91CF911F910F91089510920B06EACFBA
:100D1000CF93DF93C82F0E943B04D62F4C2F60EE59
:100D20008FE00E948E058EE00E94E405807EC81749
:100D300049F00E943B046D1B693C80F381E0DF9128
:100D4000CF91089580E0FBCFCF93DF93C82F8EE043
:100D50000E94E405807E8032F9F4C032E9F08BE233
:100D60000E94E405D82FD07486FD05C040E460E4FD
:100D70008BE20E948E0540E460E48CE20E948E05C6
:100D800080E60E948806811111C0D11105C040E0A3
:100D900060E48BE20E948E0540E060E48CE20E94F9
:100DA0008E058C2FDF91CF910C94880681E0DF9126
:100DB000CF9108951F93CF93DF9380E591E00E9438
:100DC0004D02CDEFD5E060E08A890E94E00280EA22
:100DD0000E94870580E00E948705182F61E08A89BC
:100DE0000E94E002812FDF91CF911F910895EF9231
:100DF000FF920F931F93CF93DF937C018B01EA0146
:100E00000E94DA0680FF52C081E60E94050640E09B
:100E100061E08CE20E948E058091FD05882389F0B7
:100E20008091FE059091FF05A0910006B09101060A
:100E3000B0688093FE059093FF05A0930006B093E1
:100E4000010680910B06882389F08091FE05909120
:100E5000FF05A0910006B0910106B0648093FE05E5
:100E60009093FF05A0930006B09301068091FE05C4
:100E70009091FF05A0910006B0910106F7018083D3
:100E80009183A283B38380910206F8018083A3E05B
:100E9000B6E0FE0120910206CF018C1B9D0B2817A6
:100EA0001906A1F09CF08D918193F4CF81FF06C0CB
:100EB00081E70E94050640E062E0ABCF84E0DF916D
:100EC000CF911F910F91FF90EF90089580E0F7CFA1
:100ED0000F931F93CF93DF93082F162F80E591E098
:100EE0000E944D02CDEFD5E060E08A890E94E002C9
:100EF00082E00E948705802F0E948705812F0E9433
:100F0000870561E08A89DF91CF911F910F910C9441
:100F1000E002FF920F931F93CF93DF93C82FF62E1B
:100F2000172F042F80E591E00E944D0260E0809130
:100F30000F060E94E00282E00E9487058C2F0E942B
:100F40008705CF2DD12F0C0F1D2F111DC017D107D5
:100F500021F089910E948705F9CF61E080910F0609
:100F6000DF91CF911F910F91FF900C94E002CF93EE
:100F7000DF9300D01F92CDB7DEB71C821B82613099
:100F800081F498E09A83198244E0BE016F5F7F4F3D
:100F90000E9489070F900F900F900F90DF91CF91D3
:100FA00008951A82F0CF2F923F924F925F926F92E4
:100FB0007F928F929F92AF92CF92DF92EF92FF92A9
:100FC0000F931F93CF93DF9300D01F92CDB7DEB75F
:100FD0006093FE057093FF058093000690930106D1
:100FE00096FB552750F950930B06662797FD63959E
:100FF0007727882799276093FD0540930206F9011A
:10100000A3E0B6E0C901089621912D93E817F907EE
:10101000D9F70E9416042B013C0180903502909074
:101020003602A09037021E0124E0220E311C898274
:101030009A82AB82CE0101966C01F82E0D2DF6013D
:1010400011916F01812F0E94E40583FD14C01F5F81
:10105000E12C0E941604DC01CB0184199509A60934
:10106000B709F2E0EF120EC0843C9940A105B1052A
:10107000F0F206E07DC02C143D0409F710E072E0A8
:10108000E72EE7CF843C9940A105B10590F7409148
:10109000020663E076E085E0810F0E948907809177
:1010A0000B06813029F48091020680648093020649
:1010B0006091020684E0810F0E9468074091FE055E
:1010C0005091FF0560910006709101068091FD0529
:1010D0008130D9F54C835B83AB0166277727842F5A
:1010E00083708860942F990F990F990F907E892BA8
:1010F0008A8365E0569547956A95E1F7498344E010
:101100006F2D702F812F0E948907115048E068E0F1
:10111000812F0E948E050E9416046B017C01812F95
:101120000E94E405082F08700E941604DC01CB0120
:101130008C199D09AE09BF090023A9F0843C994090
:10114000A105B10560F307E013C0CA0123E096953D
:1011500087952A95E1F789834295440F407E4A831B
:101160001C821B82CCCF843C9940A105B10558F765
:10117000802F0F900F900F900F90DF91CF911F91C4
:101180000F91FF90EF90DF90CF90AF909F908F9056
:101190007F906F905F904F903F902F900895F894BC
:1011A000FC0181818330E9F034F4813071F08230C8
:1011B00091F0789408958430D1F08530D1F7809102
:1011C00073008D7F80937300F4CF80916F008D7FCB
:1011D00080936F00EECF809170008D7F80937000C0
:1011E000E8CF809171008D7F80937100E2CF809174
:1011F00072008D7F80937200DCCFFC01F894633025
:10120000C9F13CF46130C1F0623029F16183789416
:1012100008956430F1F16530C9F710922001109201
:1012200021019091210198609093210190912101D9
:10123000916090932101EACF10928000109281007A
:10124000809181008860809381008091810081601D
:1012500080938100DBCF1092B0001092B10080919A
:10126000B00082608093B0008091B1008160809373
:10127000B100CCCF1092900010929100909191000B
:10128000986090939100909191009160909391005B
:10129000BDCF1092A0001092A1009091A100986083
:1012A0009093A1009091A10091609093A100AECF86
:1012B000FC0140855185628573858181833009F405
:1012C00070C084F4813089F1823009F44CC080858B
:1012D0009185A285B385892B8A2B8B2B11F481E014
:1012E00080830895843009F47AC0853081F7DB016A
:1012F000CA014115510521E06207710520F08FEF09
:101300009FEFA0E0B0E09093290180932801481B53
:10131000590B6A0B7B0B40875187628773878091DB
:101320007300826080937300D2CFDB01CA01411544
:10133000510521E06207710520F08FEF9FEFA0E0DB
:10134000B0E09093890080938800481B590B6A0B8A
:101350007B0B408751876287738780916F00826023
:1013600080936F00B4CF4F3F51056105710529F09F
:1013700020F04FEF50E060E070E04093B3008085D4
:101380009185A285B385841B950BA60BB70B80872F
:101390009187A287B38780917000826080937000EC
:1013A00096CFDB01CA014115510521E062077105A5
:1013B00020F08FEF9FEFA0E0B0E090939900809332
:1013C0009800481B590B6A0B7B0B4087518762873B
:1013D00073878091710082608093710078CFDB0108
:1013E000CA014115510521E06207710520F08FEF18
:1013F0009FEFA0E0B0E09093A9008093A800481B65
:10140000590B6A0B7B0B40875187628773878091EA
:1014100072008260809372005ACF4F925F926F92F7
:101420007F928F929F92AF92BF92CF92DF92EF9274
:10143000FF920F931F93CF93DF93EC011981111645
:101440000CF03AC14901CB01BA010E946C1A9B0110
:10145000AC0160E070E08AE794E40E94CB196B0174
:101460007C012EEA37E346E856E40E94231B2B0159
:101470003C0120E030E040E85FE30E94C61987FDB0
:101480001BC18FEF9FEFDC018C879D87AE87BF87E5
:1014900020E030E040E852E4C301B201123009F428
:1014A00087C00E941E1B01E010E0181674F020E0B7
:1014B00030E040E051E4C301B2010E941E1B03E092
:1014C00010E0181614F402E010E0C801880F991F0C
:1014D0009C01285A3D4F5901F501619171915F01BD
:1014E00090E080E00E946C1AA70196010E94231BE5
:1014F0009B01AC0160E074E284E79BE40E94CB199D
:1015000020E030E040E85FE30E9459190E943D1A54
:101510006115F0EC7F07FFEF8F07FFE39F07A8F54A
:101520006C837D838E839F83688779878A879B8777
:101530001B830A83F894C88AD98AEA8AFB8A9D8A1F
:101540008C8A1F8A1E8A18828981823009F08BC09A
:101550008091B100887F9A81892B8093B100CE0160
:101560000E945809789481E0DF91CF911F910F91EB
:10157000FF90EF90DF90CF90BF90AF909F908F90B3
:101580007F906F905F904F9008950F5F1F4F0630D0
:10159000110509F0A1CF6C837D838E839F836887BB
:1015A00079878A879B8785E090E09B838A83C2CF77
:1015B0000E941E1B01E010E01816D4F020E030E07D
:1015C00040E051E4C301B2010E941E1B02E010E0A2
:1015D000181674F020E030E040E050E4C301B2019E
:1015E0000E941E1B04E010E0181614F403E010E043
:1015F000C801880F991F9C01285B3D4F5901F501D7
:10160000619171915F0190E080E00E946C1AA701E6
:1016100096010E94231B9B01AC0160E074E284E709
:101620009BE40E94CB1920E030E040E85FE30E9499
:1016300059190E943D1A6115F0EC7F07FFE38F07EF
:10164000910508F46DCF0F5F1F4F08301105B9F6F3
:101650006C837D838E839F83688779878A879B8746
:1016600087E090E0A2CF813041F480918100887FB3
:101670009A81892B8093810072CF833041F48091CD
:101680009100887F9A81892B8093910068CF843064
:1016900041F48091A100887F9A81892B8093A100D9
:1016A0005ECF853009F05BCF80912101887F9A81E0
:1016B000892B8093210153CF80E056CFCF93DF93C6
:1016C000EC01F894298188859985AA85BB8522300B
:1016D000A9F18F3F9F4FA105B10518F4CE010E94DB
:1016E000580988859985AA85BB85AC01BD010097FD
:1016F00021E0A207B10520F04FEF5FEF60E070E05E
:10170000841B950BA60BB70B88879987AA87BB8785
:1017100088859985AA85BB85892B8A2B8B2B39F5E2
:101720008C819D81AE81BF8188879987AA87BB877D
:1017300081E088837894DF91CF9108958F3F910560
:10174000A105B10518F4CE010E9458098885998534
:10175000AA85BB85AC01BD018F3F9105A105B105EF
:1017600079F270F24FEF50E060E070E0C9CF18827C
:10177000E1CF8F929F92AF92BF92EF92FF920F9321
:101780001F93CF93DF9300D000D01F921F92CDB74D
:10179000DEB7FC01F1802081F0E12F9F9001112440
:1017A0004F2D50E064E0559547956A95E1F7242B5D
:1017B000352B233241E0340761F12032314009F406
:1017C0005CC0198282E08A8380E090E0A0E2B2E40B
:1017D0008B839C83AD83BE8388EE93E098878F8351
:1017E00029813A814B815C816D817E818F819885D1
:1017F00028960FB6F894DEBF0FBECDBFDF91CF9114
:101800001F910F91FF90EF90BF90AF909F908F909E
:101810000895E12C8C01FC018281F8E78F9FC001C3
:1018200011246FEF70E00E940719072E000C880B3F
:10183000990B0E946E1A4B015C01F801638170E004
:1018400090E080E00E946C1A20E030E44CE156E425
:101850000E94231B20E030E04FE753E40E94CB19A5
:101860000E943D1AE9822F2D23702A838B829C824D
:10187000AD82BE8278876F83B3CFEE24E394CACF64
:10188000FC0101900020E9F73197AF01481B590B8B
:10189000BC018BE395E00C9452048F929F92AF921F
:1018A000BF920F931F93CF93DF93CDB7DEB7A1976E
:1018B0000FB6F894DEBF0FBECDBF19A2423008F4B8
:1018C0004AE08E010F5D1F4F842E912CB12CA12C6C
:1018D000A50194010E941B19E62FB901CA01EA3043
:1018E000F4F4E05DD801EE938D01232B242B252BFE
:1018F00079F790E080E0109719F0CD010E94400C3C
:10190000A1960FB6F894DEBF0FBECDBFDF91CF9189
:101910001F910F91BF90AF909F908F900895E95CB9
:10192000E1CF0C94400CCF93DF930E94400CEC016C
:1019300086E792E00E94400C8C0F9D1FDF91CF91B3
:1019400008950F931F93CF93DF938C01D0E0C0E0F5
:10195000F801EC0FFD1F6491662341F08BE395E0E5
:101960000E94E804892B11F02196F2CF86E792E0DD
:101970000E94400C8C0F9D1FDF91CF911F910F9102
:1019800008954F925F926F927F928F929F92AF9243
:10199000BF92CF92DF92EF92FF921F93CF93DF938C
:1019A0006B017C01142FAC019B010E94901B8823CA
:1019B00099F089E792E0DF91CF911F91FF90EF902E
:1019C000DF90CF90BF90AF909F908F907F906F905F
:1019D0005F904F900C94400C46015701E894B7F883
:1019E0002FEF3FEF4FE75FE7C501B4010E94901B67
:1019F00081110DC02FEF3FEF4FE75FE7C501B40145
:101A00000E94C61918161CF48DE792E0D4CF2FEF70
:101A10003FEF4FE75FE4C701B6010E941E1B181697
:101A20001CF481E892E0C7CF2FEF3FEF4FE75FEC68
:101A3000C701B6010E94C61987FDF3CF20E030E050
:101A4000A901C701B6010E94C619D0E0C0E087FF16
:101A50000AC06DE28BE395E00E94E804EC01F7FA1E
:101A6000F094F7F8F09420E060E070E080E09FE30D
:101A7000211740F420E030E040E251E40E94CB190D
:101A800021E0F6CFA70196010E945A192B013C01D3
:101A90000E943D1A4B015C014AE00E944D0CC80FA8
:101AA000D91F112309F16EE28BE395E00E94E8044F
:101AB0006C01C501B4010E946C1A9B01AC01C30109
:101AC000B2010E94591920E030E040E251E40E9446
:101AD000231B0E943D1A90E080E04AE00E944D0CDA
:101AE0008C0D9D1DC80FD91FCE01DF91CF911F9185
:101AF000FF90EF90DF90CF90BF90AF909F908F902E
:101B00007F906F905F904F9008950F931F9385E89B
:101B100092E00E94910C0E943B040091FC04109101
:101B2000FD042091FE043091FF04601B710B820BB9
:101B3000930B4AE00E944D0C86E792E00E94400C15
:101B40000E943B046093FC047093FD048093FE04A8
:101B50009093FF041F910F9108950F931F93CF93BC
:101B6000DF931F921F92CDB7DEB78C010E94F11850
:101B70008983C80101960E94F1188A8389819A811C
:101B80000F900F90DF91CF911F910F910895CF92F9
:101B9000DF92EF92FF920F931F93CF93DF9300D0CA
:101BA0001F92CDB7DEB76E0125E0C20ED11C8E01AB
:101BB0000F5F1F4F7C01E01AF10AC016D10649F0F1
:101BC000C701800F911F0E94F118F80181938F01C6
:101BD000F4CF69817A818B819C810F900F900F9057
:101BE0000F90DF91CF911F910F91FF90EF90DF90B9
:101BF000CF900895FF920F931F93CF93DF93EC0143
:101C0000F62E08811981C8010E94F118F81621F0FA
:101C10006F2DC8010E94F918CE01DF91CF911F915D
:101C20000F91FF900895FF920F931F93CF93DF932F
:101C30001F921F92CDB7DEB78C01F72E9A8389834E
:101C4000CE0101960E94FA0D0F5F1F4F1A83098380
:101C50006F2DCE0101960E94FA0D0F900F90DF912B
:101C6000CF911F910F91FF9008951F920F920FB681
:101C70000F9211242F933F938F939F93AF93BF9312
:101C80008091330590913405A0913505B0913605CA
:101C90003091320523E0230F2D3758F50196A11D11
:101CA000B11D209332058093330590933405A093A2
:101CB0003505B09336058091370590913805A09190
:101CC0003905B0913A050196A11DB11D80933705E4
:101CD00090933805A0933905B0933A05BF91AF9121
:101CE0009F918F913F912F910F900FBE0F901F905A
:101CF000189526E8230F0296A11DB11DD2CF1F9281
:101D00000F920FB60F9211240BB60F922F933F93A1
:101D10004F935F936F937F938F939F93AF93BF93F3
:101D2000EF93FF938BE395E00E94C604FF91EF9140
:101D3000BF91AF919F918F917F916F915F914F91E3
:101D40003F912F910F900BBE0F900FBE0F901F90E1
:101D500018951F920F920FB60F9211240BB60F9287
:101D60002F938F939F93EF93FF93E0914B05F09107
:101D70004C058081E0915105F091520582FD1DC016
:101D80009081809154058F5F8F7320915505821744
:101D900041F0E0915405F0E0E55CFA4F958F8093B7
:101DA0005405FF91EF919F918F912F910F900BBE52
:101DB0000F900FBE0F901F9018958081F2CF1F9249
:101DC0000F920FB60F9211240BB60F92CF92DF92A3
:101DD000EF92FF922F933F934F935F936F937F9375
:101DE0008F939F93AF93BF93EF93FF93C0901D0684
:101DF000D0901E06E0901F06F090200680911206FB
:101E0000853009F04FC0C114D104E104F10409F494
:101E100067C080911106882309F45DC0E091250612
:101E2000F0912606309741F0809127069091280680
:101E3000009709F44EC019958091150690911606E9
:101E4000A0911706B09118060097A140B105C4F003
:101E5000F8948091150690911606A0911706B091FE
:101E600018068093190690931A06A0931B06B09348
:101E70001C0681E196E00E945809109211067894A0
:101E80001C141D041E041F046CF481E0C81AD10840
:101E9000E108F108C0921D06D0921E06E0921F06CE
:101EA000F0922006FF91EF91BF91AF919F918F919A
:101EB0007F916F915F914F913F912F91FF90EF90A4
:101EC000DF90CF900F900BBE0F900FBE0F901F9022
:101ED00018951995B1CF81E196E00E945E0BE2CF93
:101EE00081E196E00E94CF08DDCF1F920F920FB6DE
:101EF0000F9211240BB60F92CF92DF92EF92FF92C6
:101F00002F933F934F935F936F937F938F939F9301
:101F1000AF93BF93EF93FF93C0903506D0903606F2
:101F2000E0903706F090380680912A06833009F059
:101F30004FC0C114D104E104F10409F467C08091D9
:101F40002906882309F45DC0E0913D06F0913E0624
:101F5000309741F080913F0690914006009709F438
:101F60004EC0199580912D0690912E06A0912F06B6
:101F7000B09130060097A140B105C4F0F89480916B
:101F80002D0690912E06A0912F06B09130068093D9
:101F9000310690933206A0933306B093340689E25B
:101FA00096E00E9458091092290678941C141D048A
:101FB0001E041F046CF481E0C81AD108E108F1087E
:101FC000C0923506D0923606E0923706F092380677
:101FD000FF91EF91BF91AF919F918F917F916F9101
:101FE0005F914F913F912F91FF90EF90DF90CF90B5
:101FF0000F900BBE0F900FBE0F901F901895199564
:10200000B1CF89E296E00E945E0BE2CF89E296E0D2
:102010000E94CF08DDCFCF93DF93EBE3F5E013828F
:10202000128288EE93E0A0E0B0E084839583A683DB
:10203000B78388E692E09183808385EC90E0958772
:10204000848784EC90E09787868780EC90E0918B82
:10205000808B81EC90E0938B828B82EC90E0958B6F
:10206000848B86EC90E0978B868B118E128E138E6C
:10207000148EE9E2F6E083E08183108A118A128AE5
:10208000138A158A148A178A168A108221E030E092
:10209000338322831482158216821782108611865A
:1020A000128613868FEF9FEFDC0184879587A687C2
:1020B000B787E1E1F6E045E04183108A118A128A90
:1020C000138A158A148A178A168A10823383228308
:1020D0001482158216821782108611861286138644
:1020E00084879587A687B787CDEFD5E081E28A8B75
:1020F00061E00E94E00261E08A890E940E0388ED9F
:1021000095E0998B888BE0EFF5E029E1208314823C
:1021100082E390E094878387E3EEF5E020831482E6
:1021200094878387EEEDF5E01182128288EE93E0CA
:1021300094838383E9EDF5E0118212829483838393
:10214000DF91CF910895CF93DF93CDB7DEB72E9770
:102150000FB6F894DEBF0FBECDBF789484B5826011
:1021600084BD84B5816084BD85B5826085BD85B53B
:10217000816085BD80916E00816080936E001092B9
:102180008100809181008260809381008091810034
:1021900081608093810080918000816080938000C5
:1021A0008091B10084608093B1008091B000816023
:1021B0008093B00080919100826080939100809123
:1021C0009100816080939100809190008160809364
:1021D00090008091A10082608093A1008091A10075
:1021E00081608093A1008091A00081608093A00015
:1021F0008091210182608093210180912101816081
:102200008093210180912001816080932001809141
:102210007A00846080937A0080917A008260809353
:102220007A0080917A00816080937A0080917A00B0
:10223000806880937A001092C10061E08DE00E9476
:102240000E0361E087E20E940E0361E089E20E94D2
:102250000E0361E080E20E940E0361E082E20E94D0
:102260000E0361E084E20E940E0361E086E20E94B8
:102270000E0361E088E20E940E0361E08AE20E94A0
:102280000E0360E083E00E940E0361E08CE20E9496
:102290000E0361E08EE20E940E0361E088E00E947E
:1022A0000E0361E086E00E940E0361E085E20E9479
:1022B0000E0361E080E10E940E0361E080E10E9474
:1022C0000E0361E081E10E940E0361E080E10E9463
:1022D000E00261E081E10E94E002E0914B05F091B3
:1022E0004C0582E08083E0914705F091480510821B
:1022F000E0914905F0914A0580E1808310925305F1
:10230000E0914F05F091500586E08083E0914D0506
:10231000F0914E05808180618083E0914D05F091C0
:102320004E05808188608083E0914D05F0914E05D7
:10233000808180688083E0914D05F0914E05808119
:102340008F7D808360912A0689E296E00E94FD08D5
:102350006091120681E196E00E94FD081FB7F89493
:102360008091EE04811127C0E9EAF2E08491EFEE5A
:10237000F2E09491E82FF0E0EE0FFF1FEA5DFD4FD1
:10238000A591B491EC91E92321F461E085E30E94E9
:10239000E00261E085E30E940E038CB580618CBD94
:1023A0008CB580648CBD61E084E30E940E0361E023
:1023B00083E30E940E038091EE048F5F8093EE040E
:1023C0001FBF80E591E00E944D0260E080910F0602
:1023D0000E94E00280EC0E94870561E080910F0678
:1023E0000E94E0020E9416044B015C0185E0C82EA9
:1023F000D12CE12CF12C0E941604681979098A0964
:102400009B09683E734081059105A8F321E0C21A3B
:10241000D108E108F10848EE840E43E0941EA11CA7
:10242000B11CC114D104E104F10429F780E48093C4
:10243000100680E80E94A406882309F41DC18FEFCE
:1024400091E00E94A10C87EC94E00E94930C109202
:10245000100680E00E94A40604E610E00E94DA065E
:10246000837069F0AE014F5F5F4FBE01635F7F4FC6
:10247000CE0109960E94F7060150110979F78CEAFE
:1024800092E00E94930C90E080E00E94C70D609360
:102490000E0270930F02809310029093110288E055
:1024A00090E00E94AD0D90931302809312028CE095
:1024B00090E00E94F11880930D0284E090E00E9469
:1024C000C70D6093060270930702809308029093F1
:1024D00009028AE090E00E94AD0D90930B02809378
:1024E0000A028DE090E00E94F1188093050281E0DD
:1024F0008093DE0584E690E09093E2058093E10509
:102500000E943B04609303057093040580930505C6
:10251000909306058EEB92E00E94930CBAEFEB2E9F
:10252000F12C1DE0212E312C0BE8C02EDD24D3949C
:1025300080912E0590912F05A0913005B091310525
:102540000196A11DB11D80932E0590932F05A09398
:102550003005B09331050E943B0400912A0510918B
:102560002B0520912C0530912D05601B710B820BE2
:10257000930B693E734081059105E0F08DE00E9468
:10258000B70261E0892B09F060E08DE00E94E00273
:1025900010922E0510922F051092300510923105E1
:1025A0000E943B0460932A0570932B0580932C05B1
:1025B00090932D0583E00E94B70221E0892B09F456
:1025C00020E080912C02281320932C0283E00E94AB
:1025D000B702892B09F0C2C04DE252E065E275E016
:1025E00086E295E00E94F7068111B8C08091260529
:1025F00090912705A0912805B0912905803125E00B
:102600009207A105B10509F4C3C086329440A10523
:10261000B10509F4BDC085EE92E00E94910C609175
:10262000260570912705809128059091290540E1A4
:102630000E944D0C8FEE92E00E94910C0DE212E090
:1026400020912505C8018D5292402817190609F0DE
:102650000CF480C08CEE92E00E94910CF801619124
:102660008F0170E090E080E040E10E944D0C8EE62A
:1026700094E00E94910CE4CF87ED91E00E94A10CC0
:1026800060E08AE20E94680761ED89E20E946807C3
:1026900061E888E20E9468078AEB91E00E94A10C41
:1026A00061E080E20E94B70761E084E20E94B70720
:1026B00061E080E00E94B70760E084E00E94B70715
:1026C00061E088E00E94B70760E080E10E94B70700
:1026D00061E084E10E94B70760E088E10E94B707EB
:1026E00010E360E0812F0E94680760E080E1810FC5
:1026F0000E94680760E080E2810F0E9468071F5F08
:102700001E3379F760E080E60E94680760E080E7AA
:102710000E94680763E08BE20E9468076CE38CE02C
:102720000E94680760E08DE00E94680744E664E666
:1027300080E60E948E0540E660E680E70E948E05F6
:10274000809110060E94A406882309F443C584E9F9
:1027500091E077CE86E792E00E94400C80912605BA
:1027600090912705A0912805B091290581309440CA
:10277000A105B04469F489EF92E00E94930C24E231
:1027800032E048E061E074E080E090E00E94D3072E
:102790008091260590912705A0912805B0912905E3
:1027A00082309440A105B10509F01AC18CE093E094
:1027B0000E94930C80912D02282F237030E03093DB
:1027C0001C0520931B0590E09C01359527953595B8
:1027D00027952370332730931A05209319059C0100
:1027E00054E0359527955A95E1F7237033273093B8
:1027F00018052093170566E0959587956A95E1F78A
:10280000909316058093150580912E02282F237032
:1028100030E0309324052093230590E09C0135950A
:1028200027953595279523703327309322052093DC
:1028300021059C01E4E035952795EA95E1F72370A1
:1028400033273093200520931F05F6E09595879553
:10285000FA95E1F790931E0580931D05A5E18A2E58
:10286000A5E09A2E08E312E0F401819191914F01C5
:1028700060E0009719F0019729F461E0F801808188
:102880000E94E0020E5F1F4F85E295E088159905D2
:1028900059F780912F02282F30E02B3F31050CF0A3
:1028A00054C4EFEF8E9FC0011124B7010E94071995
:1028B0009B0180913002482F50E04B3F51050CF0B6
:1028C0004DC4FFEF8F9FC0011124B7010E9407196B
:1028D0008B0180913102482F50E04B3F51050CF0A5
:1028E00046C44FEF849FC0011124B7010E9407190D
:1028F0004B0137FD08C03093140520931305B9012F
:102900008CE20E943F0317FD08C01093120500934C
:102910001105B8018EE20E943F0397FC04C090921B
:10292000100580920F0520910F05309111054091FF
:102930001305809115059091160556E0880F991F93
:102940005A95E1F76091170570911805E4E0660F5C
:10295000771FEA95E1F7862B90911B05892B6091F3
:10296000190570911A05660F771F660F771F862B62
:1029700080931C0280911D0590911E05A6E0880F92
:10298000991FAA95E1F760911F0570912005B4E0A9
:10299000660F771FBA95E1F7862B90912305892B57
:1029A0006091210570912205660F771F660F771FD2
:1029B000862B80931D0240931E0230931F022093AA
:1029C00020021092210210922202109223022CE186
:1029D00032E048E062E274E080E090E00E94D307D9
:1029E0008091260590912705A0912805B091290591
:1029F00083309440A105B04409F03BC180E293E0EC
:102A00000E94930C80912505882309F4BCC389E3B7
:102A100093E00E94930C8DE292E00E94B90B209308
:102A200014023093150240931602509317026093DC
:102A300018027093190280931A0290931B0232308D
:102A400049F088E0E4E1F2E0ACE0B2E001900D9200
:102A50008A95E1F780910C028130B1F585E593E02C
:102A60000E94930C80910E0290910F02A09110028F
:102A7000B091110289879A87AB87BC874E01F9E034
:102A80008F0E911C10E000E0F40161914F011E8750
:102A90000D87CE010D960E94FA0D0F5F1F4F043077
:102AA000110591F7609112027091130288E090E095
:102AB0000E94130E60910D028CE090E09E878D873E
:102AC000CE010D960E94FA0D81E392E00E94B90BAF
:102AD000209314023093150240931602509317026C
:102AE000609318027093190280931A0290931B024C
:102AF000323049F088E0E4E1F2E0A4E0B2E0019095
:102B00000D928A95E1F780910402813099F583E76F
:102B100093E00E94930C8091060290910702A0918D
:102B20000802B091090289839A83AB83BC83FE01BA
:102B300031964F0104E010E0F40161914F011E87CE
:102B40000D87CE010D960E94FA0D0F5F1F4F0830C2
:102B5000110591F760910A0270910B028AE090E0F2
:102B60000E94130E609105023E862D86CE010D96C1
:102B70000E94FA0D20910D0260910E0270910F02D9
:102B80008091100290911102009112021091130293
:102B900032E1932E90921C02206320931D0220E0CC
:102BA00030E04FE753E40E94231B20E030E040EF89
:102BB00052E40E94CB190E943D1A60931E02B80194
:102BC00090E080E00E946C1A20E030E04FE753E490
:102BD0000E94231B20E030E44CE156E40E94CB1914
:102BE0000E943D1A60931F02209105026091060227
:102BF00070910702809108029091090200910A02E7
:102C000010910B029092200220632093210220E079
:102C100030E04FE753E40E94231B20E030E040EF18
:102C200052E40E94CB190E943D1A60932202B8011F
:102C300090E080E00E946C1A20E030E04FE753E41F
:102C40000E94231B20E030E44CE156E40E94CB19A3
:102C50000E943D1A609323022CE132E048E063E2D7
:102C600074E080E090E00E94D3078BEA93E00E943A
:102C7000930C8091260590912705A0912805B0918D
:102C8000290584309440A105B10509F046C085ECC2
:102C900093E00E94930C80912D0290912E02982730
:102CA0008927982720912F022170309130023370AC
:102CB0003093D9051092DA052093DB059093DD055A
:102CC0008093DC0585E0E9EDF5E0AEEDB5E001903F
:102CD0000D928A95E1F78091DE059091E0052091B3
:102CE000E1053091E20530931C0220931D02909380
:102CF0001E02837080931F02109220021092210204
:102D000010922202109223022CE132E048E064E2A9
:102D100074E080E090E00E94D307809126059091B6
:102D20002705A0912805B091290585309440A1057B
:102D3000B10551F580912D0290E026E0959587959B
:102D40002A95E1F7182F823070F48093DF0583EE27
:102D500093E00E94910C81EA92E0111102C087EA8F
:102D600092E00E94930C8091DF0540E4849FC001B3
:102D700011248D879E01235F3F4F48E065E274E098
:102D800080E090E00E94D30780912605909127056E
:102D9000A0912805B091290580319540A105B10584
:102DA00009F07AC080EF95E00E94D70183EE95E0AC
:102DB0000E94D7018090EF049090F004A090F1045D
:102DC000B090F2046091F5057091F605072E000CA5
:102DD000880B990B0E946E1A2DEC3CEC4CEC5DE3D9
:102DE0000E94231B2B013C0126E636E646E65FE304
:102DF000C501B4010E94231B9B01AC01C301B201B8
:102E00000E945A196093EF047093F0048093F104C8
:102E10009093F20460930B0570930C0580930D055D
:102E200090930E058090F3049090F404A090F50424
:102E3000B090F6046091EA057091EB05072E000C46
:102E4000880B990B0E946E1A2DEC3CEC4CEC5DE368
:102E50000E94231B2B013C0126E636E646E65FE393
:102E6000C501B4010E94231B9B01AC01C301B20147
:102E70000E945A196093F3047093F4048093F5044C
:102E80009093F604609307057093080580930905F5
:102E900090930A050E943B040E943B0400910305A5
:102EA000109104052091050530910605AB01BC0188
:102EB000401B510B620B730B8091E1059091E20571
:102EC000B0E0A0E0481759076A077B0708F448C03C
:102ED0001091DF05111105C08091DE05882309F4EA
:102EE0003FC00E943B0460930305709304058093E8
:102EF000050590930605113011F41092DF0530E0BE
:102F000020E040E060E175E080E090E40E94D307BB
:102F1000C6010197F1F730E020E040E060E275E0A3
:102F200080E090E40E94D307C6010197F1F730E0FA
:102F300020E040E060E375E080E090E40E94D30789
:102F4000C6010197F1F7109201051092020521E0E8
:102F500035E048E066E274E080E090E00E94D3074C
:102F60001091000500910D02013009F01DC1209162
:102F70000B0530910C0540910D0550910E056091A7
:102F80000E0270910F0280911002909111020E9426
:102F9000C61918160CF4FCC011111CC082EF93E086
:102FA0000E94930C409112025091130270E060E075
:102FB00025E83DE081E196E00E940D0A0E943B0475
:102FC0006093FC047093FD048093FE049093FF04CF
:102FD000009300051091FB0400910502013009F0F7
:102FE000F4C02091070530910805409109055091E2
:102FF0000A05609106027091070280910802909183
:1030000009020E94C61918160CF4D3C0111112C07F
:103010008AE294E00E94930C40910A0250910B02C4
:1030200070E060E027E434E089E296E00E940D0A57
:103030000093FB0470E060E085E20E943F0370E0D3
:1030400060E080E10E943F0370E060E088E00E9461
:103050003F0370E060E086E00E943F030E943B0473
:103060000091F7041091F8042091F9043091FA04CA
:10307000601B710B820B930B643F714081059105BE
:1030800008F458C00E943B046093F7047093F8045E
:103090008093F9049093FA0482E694E00E94910CE4
:1030A00060910B0570910C0580910D0590910E05B6
:1030B00041E050E00E94C10C80E794E00E94910C36
:1030C00060910E0270910F02809110029091110296
:1030D00050E040E00E94C10C88E794E00E94910C0F
:1030E00060910705709108058091090590910A0586
:1030F00041E050E00E94C10C80E794E00E94910CF6
:103100006091060270910702809108029091090275
:1031100050E040E00E94C10C81E894E00E94910CD4
:103120004AE060E070E0CB010E944D0C86E792E03F
:103130000E94400C10922605109227051092280537
:10314000109229050E945505F3C92F3F310519F446
:103150002EEF3FEFAECB2FEF3FEFABCB0EEF1FEFDE
:103160004F3F510509F4B5CB0FEF1FEFB2CB9EEFE8
:10317000892E99249A944F3F510509F4BACB88249B
:103180008A94982CB6CB81E993E00E94930CF2CC00
:10319000112309F41FCF85E194E00E94930C81E193
:1031A00096E00E94CF0802C01111F9CF10920005DD
:1031B00011CF112309F43ECF8DE494E00E94930CCB
:1031C00089E296E00E94CF0802C01111F9CF109257
:1031D000FB0430CF8BE894E00E94930C8DEA94E0DE
:1031E00034C9F999FECF92BD81BDF89A992780B56F
:1031F0000895262FF999FECF1FBA92BD81BD20BD3B
:103200000FB6F894FA9AF99A0FBE0196089597FBB3
:10321000072E16F4009407D077FD09D00E944519B7
:1032200007FC05D03EF4909581959F4F08957095C9
:1032300061957F4F0895A1E21A2EAA1BBB1BFD01C9
:103240000DC0AA1FBB1FEE1FFF1FA217B307E40785
:10325000F50720F0A21BB30BE40BF50B661F771FDD
:10326000881F991F1A9469F76095709580959095BD
:103270009B01AC01BD01CF010895EE0FFF1F881F18
:103280008BBF0790F691E02D1994AA1BBB1B51E14F
:1032900007C0AA1FBB1FA617B70710F0A61BB70BC6
:1032A000881F991F5A95A9F780959095BC01CD016B
:1032B00008955058BB27AA270E9471190C94E41A4C
:1032C0000E94D61A38F00E94DD1A20F039F49F3F90
:1032D00019F426F40C94D31A0EF4E095E7FB0C9441
:1032E000CD1AE92F0E94F51A58F3BA17620773072F
:1032F0008407950720F079F4A6F50C94171B0EF4BB
:10330000E0950B2EBA2FA02D0B01B90190010C01F5
:10331000CA01A0011124FF27591B99F0593F50F40D
:10332000503E68F11A16F040A22F232F342F442765
:10333000585FF3CF469537952795A795F04053955D
:10334000C9F77EF41F16BA0B620B730B840BBAF02D
:103350009150A1F0FF0FBB1F661F771F881FC2F798
:103360000EC0BA0F621F731F841F48F487957795AC
:103370006795B795F7959E3F08F0B0CF9395880F66
:1033800008F09927EE0F9795879508950E94A91A3E
:1033900008F481E008950E94DF190C94E41A0E9459
:1033A000DD1A58F00E94D61A40F029F45F3F29F048
:1033B0000C94CD1A51110C94181B0C94D31A0E9422
:1033C000F51A68F39923B1F3552391F3951B550B27
:1033D000BB27AA2762177307840738F09F5F5F4FE8
:1033E000220F331F441FAA1FA9F335D00E2E3AF027
:1033F000E0E832D091505040E695001CCAF72BD03F
:10340000FE2F29D0660F771F881FBB1F261737078F
:103410004807AB07B0E809F0BB0B802DBF01FF27C1
:1034200093585F4F3AF09E3F510578F00C94CD1AB7
:103430000C94181B5F3FE4F3983ED4F38695779580
:103440006795B795F7959F5FC9F7880F911D96957A
:10345000879597F90895E1E0660F771F881FBB1FD6
:10346000621773078407BA0720F0621B730B840B83
:10347000BA0BEE1F88F7E09508950E94FD1A88F0B8
:103480009F5798F0B92F9927B751B0F0E1F0660F28
:10349000771F881F991F1AF0BA95C9F714C0B13069
:1034A00091F00E94171BB1E008950C94171B672F31
:1034B000782F8827B85F39F0B93FCCF38695779598
:1034C0006795B395D9F73EF4909580957095619581
:1034D0007F4F8F4F9F4F0895E89409C097FB3EF4AC
:1034E00090958095709561957F4F8F4F9F4F992351
:1034F000A9F0F92F96E9BB279395F69587957795CF
:103500006795B795F111F8CFFAF4BB0F11F460FF8E
:103510001BC06F5F7F4F8F4F9F4F16C0882311F0E6
:1035200096E911C0772321F09EE8872F762F05C0FA
:10353000662371F096E8862F70E060E02AF09A9595
:10354000660F771F881FDAF7880F9695879597F98A
:103550000895990F0008550FAA0BE0E8FEEF161624
:103560001706E807F907C0F012161306E407F50777
:1035700098F0621B730B840B950B39F40A2661F0EB
:10358000232B242B252B21F408950A2609F4A1408E
:10359000A6958FEF811D811D089597F99F6780E89B
:1035A00070E060E008959FEF80EC089500240A9495
:1035B0001616170618060906089500240A9412160E
:1035C0001306140605060895092E0394000C11F441
:1035D000882352F0BB0F40F4BF2B11F460FF04C0EE
:1035E0006F5F7F4F8F4F9F4F089557FD9058440F47
:1035F000551F59F05F3F71F04795880F97FB991F52
:1036000061F09F3F79F0879508951216130614060E
:10361000551FF2CF4695F1DF08C01616170618069B
:10362000991FF1CF86957105610508940895E89476
:10363000BB2766277727CB0197F908950E94A91A1F
:1036400008F48FEF08950E94361B0C94E41A0E9430
:10365000D61A38F00E94DD1A20F0952311F00C9450
:10366000CD1A0C94D31A11240C94181B0E94F51A2D
:1036700070F3959FC1F3950F50E0551F629FF001C5
:10368000729FBB27F00DB11D639FAA27F00DB11DDE
:10369000AA1F649F6627B00DA11D661F829F222767
:1036A000B00DA11D621F739FB00DA11D621F839FEE
:1036B000A00D611D221F749F3327A00D611D231FC4
:1036C000849F600D211D822F762F6A2F11249F5712
:1036D00050409AF0F1F088234AF0EE0FFF1FBB1F15
:1036E000661F771F881F91505040A9F79E3F5105D4
:1036F00080F00C94CD1A0C94181B5F3FE4F3983EB5
:10370000D4F3869577956795B795F795E7959F5F7D
:10371000C1F7FE2B880F911D9695879597F908950F
:0E3720000E94A91A880B990B0895F894FFCF08
:10372E0078007800000000002042E803000000004E
:10373E002042E803000000002042E80320000000C1
:10374E0000000000555555FFFFFFFFFF0120000050
:10375E000000000000304050270029002000220009
:10376E002400260028002A00010001000800200085
:10377E00400080000001000401000100080040002C
:10378E000001000400000000E80452047F04350527
:10379E00B0048E04A2040D0A006E616E00696E669E
:1037AE00006F7666004954696D6572312063616CF5
:1037BE006C65642C206D696C6C69732829203D2022
:1037CE000053544152540053544F50004275666694
:1037DE0065722043414E206C696D706F21004D4F14
:1037EE00444F20434F4E54494E554F20494E494366
:1037FE004941444F204155544F4D41544943414D49
:10380E00454E54450052582049443A203078002005
:10381E007C20444154413A2000636D643A20307854
:10382E00343031202844656275672900636D643A2F
:10383E002030783430322028536169646173290056
:10384E00636D643A2030783430332028436F6E66CF
:10385E0069672054656D702900203E204163616FB9
:10386E003A20475241564152206E6F766120636F67
:10387E006E666967002020203E2053616C76616E73
:10388E00646F205431206E6120454550524F4D2EAD
:10389E002E2E002020203E2053616C76616E646FC8
:1038AE00205432206E6120454550524F4D2E2E2E03
:1038BE0000203E204163616F3A204C455220636FD9
:1038CE006E66696720617475616C00203E205265DA
:1038DE0073706F73746120307834323320656E7676
:1038EE006961646100636D643A203078343034204D
:1038FE0028436F6E666967204171756973696361EC
:10390E006F2900636D643A203078343035202D3EB7
:10391E00200021212120414C455254413A2054315E
:10392E00204C494D495445204154494E4749444F36
:10393E002021212100494E464F3A205431204E6F0E
:10394E00726D616C697A61646F0021212120414C96
:10395E00455254413A205432204C494D4954452049
:10396E004154494E4749444F2021212100494E469A
:10397E004F3A205432204E6F726D616C697A6164D9
:10398E006F005B5354415455535D2054313A20001F
:10399E004320284D61783A0029207C2054323A2069
:1039AE000029207C2050574D3A20004D435032358F
:1039BE00313520496E697469616C697A656420538A
:1039CE0075636365737366756C6C7921005445730A
:1039DE00746520736520657374612066756E636906
:1039EE006F6E616E646F004572726F7220496E6900
:1039FE007469616C697A696E67204D435032353156
:063A0E00352E2E2E0000F3
:00000001FF
