:100000000C94A8010C94D9010C94D9010C94D90139
:100010000C94D9010C94D9010C94D9010C94D901F8
:100020000C94D9010C94D9010C94D9010C94D901E8
:100030000C94D9010C94FF0F0C94D9010C94D901A4
:100040000C94D9010C94D9010C94D9010C94D901C8
:100050000C94D9010C94D9010C94D9010C94D50DB0
:100060000C94D9010C94490E0C941F0E0C94D901D8
:100070000C94D9010C94D9010C94D9010C94D90198
:100080000C947F0F0C94D9010C94D9010C94D901D4
:100090000C94D9010C94D9010C94D9010C94D90178
:1000A0000C94D9010C94D9010C94FF0E0C94D90135
:1000B0000C94D9010C94D9010C94D9010C947F0EA5
:1000C0000C94D9010C94D9010C94D9010C94D90148
:1000D0000C94D9010C94D9010C94D9010C94D90138
:1000E0000C94D9010C94ED030C942D050C949F02F3
:1000F0000C940B040C9401040C9483030C94E704FB
:100100000C94AE030C9480020C94B2020C94D304B1
:100110000C9484020C9478020C94B7020C9488041A
:100120000C94A5020C947A050C9492030C947C0216
:100130000C949C030C94A9020C948D020C948702DD
:100140000C94B6030C94F3100C947B030C949B0258
:100150000C94A6030C94F5040C94C4040C9497021C
:100160000C9497040C9472020C9493040C94AD02BA
:100170000C947D040C9415040C9495040C94D403F5
:100180000C9491020C94C0030C9488030C94B30259
:100190000C94F7030C94E3030C94CA035265747532
:1001A000726E696E6720746F2050726576696F7524
:1001B00073204D6F6465204661696C7572652E2EE3
:1001C0002E0053657474696E6720426175647261B4
:1001D0007465205375636365737366756C210045A0
:1001E0006E746572696E6720436F6E6669677572BB
:1001F0006174696F6E204D6F64652053756363652C
:10020000737366756C2100456E746572696E672044
:10021000436F6E66696775726174696F6E204D6FAA
:100220006465204661696C7572652E2E2E00000093
:100230002100240027002A002D0030003300010196
:100240000000040107010A01000022002500280027
:100250002B002E00310034000201000005010801CE
:100260000B01000020002300260029002C002F0095
:100270003200000100000301060109010505050522
:10028000070508080808020202020A0A080804040E
:10029000040401010101010101010303030303033C
:1002A0000303040707070C0C0C0C0C0C0C0C0202CB
:1002B000020206060606060606060B0B0B0B0B0BC8
:1002C0000B0B010210202008081020401020408055
:1002D000020102010804020101020408102040800A
:1002E0008040201008040201800402018040201098
:1002F00008040201080402010102040810204080E1
:10030000010204081020408000000A0B02090C0DB5
:100310000E080703040100000000000000000000B8
:1003200000000000000000000000000000000000CD
:10033000000000001211100000000000000000008A
:100340000000000000000000000000000000F310AA
:1003500011241FBECFEFD1E2DEBFCDBF00E00CBF46
:1003600017E0A0E0B2E0EAE1F4E400E00BBF02C075
:1003700007900D92AE38B107D9F729E0AEE8B7E0A3
:1003800001C01D92A234B207E1F711E0C8EAD1E042
:1003900000E006C021970109802FFE010E94F91C90
:1003A000C73AD10780E00807A9F70E94C5110C944D
:1003B0000B220C940000FC01A8E3B2E08C91805861
:1003C000808311964C911197842F837081831296AC
:1003D0002C91129730E0C90156E0880F991F5A9569
:1003E000E1F7807C9F7050E055954795559547956E
:1003F000842B952B98509683858376E035952795A9
:100400007A95E1F7228314964C91149750E0942F3B
:10041000882788279F7013962C911397822B9850CA
:1004200090878783CA0124E0959587952A95E1F7FF
:100430008370838316962C91169730E015969C91C5
:10044000159764E0969FC001112466E05595479585
:100450006A95E1F7842B952BA901542F4427550F5A
:10046000550F44275C70842B952B98509287818779
:10047000C90195958795959587958370848317967F
:100480009C9140E1949FC001112454E0359527953B
:100490005A95E1F7822B932B985094878387CF014D
:1004A00008958CBD9DBD08958150823108F05AC0D9
:1004B000E82FF0E08827E05AFD4F8F4F0C94F91C8D
:1004C00080028402720278027C02B20287028D02EC
:1004D000910297029B029F02A502A902B202AD02FD
:1004E000B302B702809180008F77809380000895D7
:1004F000809180008F7DF9CF80918000877FF5CF3C
:1005000084B58F7784BD089584B58F7DFBCF8091AE
:10051000B0008F778093B00008958091B0008F7DF8
:10052000F9CF809190008F7780939000089580910B
:1005300090008F7DF9CF80919000877FF5CF8091DB
:10054000A0008F778093A00008958091A0008F7DF8
:10055000F9CF8091A000877FF5CF809120018F7720
:10056000809320010895809120018F7DF9CF8091A3
:100570002001877FF5CFCF93DF93282F30E0F9015B
:10058000E85FFC4F8491F901EE53FD4FD491F901DE
:10059000E458FD4FC491CC23A1F081110E94540274
:1005A000EC2FF0E0EE0FFF1FEE59FD4FA591B49137
:1005B000EC91ED2381E090E009F480E0DF91CF91B0
:1005C000089580E090E0FACF1F93CF93DF93282F18
:1005D00030E0F901E85FFC4F8491F901EE53FD4FE3
:1005E000D491F901E458FD4FC491CC23A9F0162F02
:1005F00081110E945402EC2FF0E0EE0FFF1FE85B28
:10060000FD4FA591B4918FB7F894EC91111108C0EA
:10061000D095DE23DC938FBFDF91CF911F9108959A
:10062000DE2BF8CFCF93DF9390E0FC01EE53FD4F2C
:10063000249184589D4FFC0184918823D1F090E04F
:10064000880F991FFC01E25DFD4FA591B491FC015B
:10065000E85BFD4FC591D49161110EC09FB7F8942E
:100660008C91E22FE0958E238C932881E223E883FE
:100670009FBFDF91CF9108958FB7F894EC91E22B53
:10068000EC938FBFF6CF1F93CF93DF93182FEB011F
:1006900061E00E941203209739F460E0812FDF911E
:1006A000CF911F910C94E402CF3FD10511F461E08A
:1006B000F5CFE12FF0E0E85FFC4FE491E150E2314B
:1006C00008F0B3C0F0E08827E759FC4F8F4F0C9437
:1006D000F91C7B038303880392039C031504A60380
:1006E000AE03B603C003CA03D403E303ED0315044A
:1006F000F70301040B0484B5806884BDC7BDDF9196
:10070000CF911F91089584B5806284BDC8BDF7CF95
:1007100080918000806880938000D0938900C0938E
:100720008800EDCF80918000806280938000D0931C
:100730008B00C0938A00E3CF809180008860809313
:100740008000D0938D00C0938C00D9CF8091B000F1
:1007500080688093B000C093B300D1CF8091B00087
:1007600080628093B000C093B400C9CF80919000A4
:10077000806880939000D0939900C0939800BFCF79
:1007800080919000806280939000D0939B00C093F2
:100790009A00B5CF80919000886080939000D093AC
:1007A0009D00C0939C00ABCF8091A0008068809397
:1007B000A0008091A0008F7B8093A000D093A9001F
:1007C000C093A8009CCF8091A00080628093A0007D
:1007D000D093AB00C093AA0092CF8091A000886014
:1007E0008093A000D093AD00C093AC0088CF8091DF
:1007F0002001806880932001D0932901C0932801B3
:100800007ECF80912001806280932001D0932B01C4
:10081000C0932A0174CF80912001886080932001C9
:10082000D0932D01C0932C016ACFC038D1050CF0B4
:100830003ECF33CF3FB7F8948091E9079091EA0714
:10084000A091EB07B091EC0726B5A89B05C02F3F00
:1008500019F00196A11DB11D3FBFBA2FA92F982FE6
:100860008827BC01CD01620F711D811D911D42E0E1
:10087000660F771F881F991F4A95D1F708958F92A9
:100880009F92AF92BF92CF92DF92EF92FF924B0175
:100890005C010E941A046B017C010E941A046C190D
:1008A0007D098E099F09683E734081059105A8F373
:1008B00021E0821A9108A108B10888EEC80E83E0F1
:1008C000D81EE11CF11C81149104A104B10429F784
:1008D000FF90EF90DF90CF90BF90AF909F908F9060
:1008E00008952FB7F8946091E5077091E60780911D
:1008F000E7079091E8072FBF08950E947104609365
:100900008E0770938F0780939007909391070895B7
:100910000E9471046093AA077093AB078093AC07A1
:100920009093AD0708950C9488040C948804AF92BA
:10093000BF92CF92DF92EF92FF920F931F93CF93CC
:10094000DF936C017B018B01040F151FEB015E012E
:10095000AE18BF08C017D10759F06991D601ED91C3
:10096000FC910190F081E02DC6011995892B79F752
:10097000C501DF91CF911F910F91FF90EF90DF9014
:10098000CF90BF90AF900895FC01538D448D252FDB
:1009900030E0842F90E0821B930B541710F0CF9619
:1009A000089501970895FC01918D828D981761F04B
:1009B000A28DAE0FBF2FB11D5D968C91928D9F5F62
:1009C0009F73928F90E008958FEF9FEF0895FC0141
:1009D000918D828D981731F0828DE80FF11D858DF4
:1009E00090E008958FEF9FEF0895FC01918D228D87
:1009F000892F90E0805C9F4F821B91098F7399270C
:100A000008958DEE97E00E94F50421E0892B09F40A
:100A100020E0822F0895FC01A48DA80FB92FB11DED
:100A2000A35ABF4F2C91848D90E001968F73992724
:100A3000848FA689B7892C93A089B1898C91837002
:100A400080648C93938D848D981306C00288F389FB
:100A5000E02D80818F7D80830895EF92FF920F9328
:100A60001F93CF93DF93EC0181E0888F9B8D8C8D5A
:100A700098131AC0E889F989808185FF15C09FB74E
:100A8000F894EE89FF896083E889F9898081837011
:100A9000806480839FBF81E090E0DF91CF911F91C0
:100AA0000F91FF90EF900895F62E0B8D10E00F5FE1
:100AB0001F4F0F731127E02E8C8D8E110CC00FB6B7
:100AC00007FCFACFE889F989808185FFF5CFCE014F
:100AD0000E940B05F1CFEB8DEC0FFD2FF11DE35ABA
:100AE000FF4FF0829FB7F8940B8FEA89FB898081D2
:100AF0008062CFCFCF93DF93EC01888D8823B9F04C
:100B0000AA89BB89E889F9898C9185FD03C0808118
:100B100086FD0DC00FB607FCF7CF8C9185FFF2CF95
:100B2000808185FFEDCFCE010E940B05E9CFDF91DB
:100B3000CF91089580E090E0892B29F00E94010573
:100B400081110E94000080E090E0892B49F080E054
:100B500090E0892B29F00E94000081110E94000082
:100B600080E090E0892B49F080E090E0892B29F02B
:100B70000E94000081110E94000080E090E0892B1B
:100B800049F080E090E0892B29F00E94000081115B
:100B90000C940000089508958EBD00000DB407FE6A
:100BA000FDCF8EB50895FF920F931F93CF93DF93E0
:100BB000F82E062F142F80E591E00E945102C8EC18
:100BC000D8E060E08A890E94E40285E00E94CC05BA
:100BD0008F2D0E94CC05802F0E94CC05812F0E9472
:100BE000CC0561E08A89DF91CF911F910F91FF9031
:100BF0000C94E402FF920F931F93CF93DF93C82FBF
:100C0000F62E172F042F80E591E00E94510260E03C
:100C10008091DA080E94E40283E00E94CC058C2FC8
:100C20000E94CC05CF2DD12F0C0F1D2F111DC017E9
:100C3000D10729F080E00E94CC058993F8CF61E0CC
:100C40008091DA08DF91CF911F910F91FF900C9462
:100C5000E4021F93CF93DF93182F80E591E00E9469
:100C60005102C8ECD8E060E08A890E94E40283E087
:100C70000E94CC05812F0E94CC0580E00E94CC050B
:100C8000182F61E08A890E94E402812FDF91CF91C1
:100C90001F9108950F931F93CF93DF9300D01F925E
:100CA000CDB7DEB7182F1092C8081092C90810925D
:100CB000CA081092CB081092CC0844E0BE016F5FC6
:100CC0007F4F0E94FA052A81898138E0839FC00105
:100CD0001124422F50E065E0559547956A95E1F75C
:100CE000840F951F092E000CAA0BBB0B8093C9081B
:100CF0009093CA08A093CB08B093CC0823FF29C0D7
:100D000032E0880F991FAA1FBB1F3A95D1F72370B5
:100D1000820F911DA11DB11DBA2FA92F982F8827D1
:100D20002B81820F911DA11DB11DBA2FA92F982FC4
:100D300088272C81820F911DA11DB11D8093C908A8
:100D40009093CA08A093CB08B093CC0881E080931D
:100D5000C8088FEF810F0E942906082F84E0810FB9
:100D60000E94290603FF16C091E09093D608482FF1
:100D70004F704093CD086EEC78E085E0810F0E94C3
:100D8000FA050F900F900F900F90DF91CF911F9168
:100D90000F9108951092D608EACFCF93DF93C82F12
:100DA0000E947104D62F4C2F60EE8FE00E94D30575
:100DB0008EE00E942906807EC81749F00E947104C7
:100DC0006D1B693C80F381E0DF91CF91089580E055
:100DD000FBCFCF93DF93C82F8EE00E942906807E41
:100DE0008032F9F4C032E9F08BE20E942906D82F54
:100DF000D07486FD05C040E460E48BE20E94D30518
:100E000040E460E48CE20E94D30580E60E94CD06B7
:100E1000811111C0D11105C040E060E48BE20E9455
:100E2000D30540E060E48CE20E94D3058C2FDF9173
:100E3000CF910C94CD0681E0DF91CF9108951F935F
:100E4000CF93DF9380E591E00E945102C8ECD8E097
:100E500060E08A890E94E40280EA0E94CC0580E07A
:100E60000E94CC05182F61E08A890E94E402812F3C
:100E7000DF91CF911F910895EF92FF920F931F93EF
:100E8000CF93DF937C018B01EA010E941F0780FF53
:100E900052C081E60E944A0640E061E08CE20E9476
:100EA000D3058091C808882389F08091C908909162
:100EB000CA08A091CB08B091CC08B0688093C9084B
:100EC0009093CA08A093CB08B093CC088091D60821
:100ED000882389F08091C9089091CA08A091CB0815
:100EE000B091CC08B0648093C9089093CA08A093CD
:100EF000CB08B093CC088091C9089091CA08A09102
:100F0000CB08B091CC08F70180839183A283B3838F
:100F10008091CD08F8018083AEECB8E0FE0120910D
:100F2000CD08CF018C1B9D0B28171906A1F09CF052
:100F30008D918193F4CF81FF06C081E70E944A061C
:100F400040E062E0ABCF84E0DF91CF911F910F9141
:100F5000FF90EF90089580E0F7CF0F931F93CF930A
:100F6000DF93082F162F80E591E00E945102C8EC14
:100F7000D8E060E08A890E94E40282E00E94CC0509
:100F8000802F0E94CC05812F0E94CC0561E08A89C8
:100F9000DF91CF911F910F910C94E402FF920F9378
:100FA0001F93CF93DF93C82FF62E172F042F80E5C2
:100FB00091E00E94510260E08091DA080E94E40210
:100FC00082E00E94CC058C2F0E94CC05CF2DD12F22
:100FD0000C0F1D2F111DC017D10721F089910E9400
:100FE000CC05F9CF61E08091DA08DF91CF911F91B4
:100FF0000F91FF900C94E402CF93DF9300D01F92E7
:10100000CDB7DEB71C821B82613081F498E09A83F1
:10101000198244E0BE016F5F7F4F0E94CE070F90A0
:101020000F900F900F90DF91CF9108951A82F0CF1B
:101030002F923F924F925F926F927F928F929F92E8
:10104000AF92CF92DF92EF92FF920F931F93CF93C5
:10105000DF9300D01F92CDB7DEB76093C9087093BD
:10106000CA088093CB089093CC0896FB552750F97B
:101070005093D608662797FD639577278827992789
:101080006093C8084093CD08F901AEECB8E0C901FF
:10109000089621912D93E817F907D9F70E941A04B1
:1010A0002B013C018090400290904102A0904202AE
:1010B0001E0124E0220E311C89829A82AB82CE016D
:1010C00001966C01F82E0D2DF60111916F01812F03
:1010D0000E94290683FD14C01F5FE12C0E941A04A0
:1010E000DC01CB0184199509A609B709F2E0EF12DA
:1010F0000EC0843C9940A105B105F0F206E07DC028
:101100002C143D0409F710E072E0E72EE7CF843C91
:101110009940A105B10590F74091CD086EEC78E0BB
:1011200085E0810F0E94CE078091D608813029F496
:101130008091CD0880648093CD086091CD0884E0D3
:10114000810F0E94AD074091C9085091CA08609173
:10115000CB087091CC088091C8088130D9F54C83B8
:101160005B83AB0166277727842F83708860942F79
:10117000990F990F990F907E892B8A8365E0569578
:1011800047956A95E1F7498344E06F2D702F812FD1
:101190000E94CE07115048E068E0812F0E94D305DD
:1011A0000E941A046B017C01812F0E942906082FDE
:1011B00008700E941A04DC01CB018C199D09AE094C
:1011C000BF090023A9F0843C9940A105B10560F353
:1011D00007E013C0CA0123E0969587952A95E1F7A9
:1011E00089834295440F407E4A831C821B82CCCF68
:1011F000843C9940A105B10558F7802F0F900F90BE
:101200000F900F90DF91CF911F910F91FF90EF9072
:10121000DF90CF90AF909F908F907F906F905F9076
:101220004F903F902F900895F894FC018181833076
:10123000E9F034F4813071F0823091F078940895BF
:101240008430D1F08530D1F7809173008D7F809309
:101250007300F4CF80916F008D7F80936F00EECF8D
:10126000809170008D7F80937000E8CF8091710035
:101270008D7F80937100E2CF809172008D7F80938B
:101280007200DCCFFC019181F8949330C9F13CF4F9
:101290009130C1F0923029F191837894089594307F
:1012A000F1F19530C9F7109220011092210120919F
:1012B00021012860209321012091210121602093A8
:1012C0002101EACF1092800010928100809181006C
:1012D000886080938100809181008160809381008B
:1012E000DBCF1092B0001092B1008091B00082600C
:1012F0008093B0002091B10021602093B100CCCF49
:1013000010929000109291002091910028602093FB
:10131000910020919100216020939100BDCF109207
:10132000A0001092A1002091A10028602093A100AC
:101330002091A10021602093A100AECFFC01408547
:101340005185628573858181833009F470C084F48E
:10135000813089F1823009F44CC080859185A28565
:10136000B385892B8A2B8B2B11F481E08083089520
:10137000843009F47AC0853081F7DB01CA01411558
:10138000510521E06207710520F08FEF9FEFA0E08B
:10139000B0E09093290180932801481B590B6A0BF8
:1013A0007B0B4087518762877387809173008260CF
:1013B00080937300D2CFDB01CA014115510521E0B2
:1013C0006207710520F08FEF9FEFA0E0B0E09093EF
:1013D000890080938800481B590B6A0B7B0B408760
:1013E00051876287738780916F00826080936F005E
:1013F000B4CF4F3F51056105710529F020F04FEF43
:1014000050E060E070E04093B30080859185A28554
:10141000B385841B950BA60BB70B80879187A2879A
:10142000B3878091700082608093700096CFDB015B
:10143000CA014115510521E06207710520F08FEFC7
:101440009FEFA0E0B0E09093990080939800481B34
:10145000590B6A0B7B0B408751876287738780919A
:10146000710082608093710078CFDB01CA01411561
:10147000510521E06207710520F08FEF9FEFA0E09A
:10148000B0E09093A9008093A800481B590B6A0B09
:101490007B0B4087518762877387809172008260DF
:1014A000809372005ACF4F925F926F927F928F9289
:1014B0009F92AF92BF92CF92DF92EF92FF920F93E3
:1014C0001F93CF93DF93EC01198111160CF03AC1F1
:1014D0004901CB01BA010E94281E9B01AC0160E0CA
:1014E00070E08AE794E40E94871D6B017C012EEA7C
:1014F00037E346E856E40E94DF1E2B013C0120E062
:1015000030E040E85FE30E94821D87FD1BC18FEF42
:101510009FEFDC018C879D87AE87BF8720E030E09E
:1015200040E852E4C301B201123009F487C00E94BE
:10153000DA1E01E010E0181674F020E030E040E020
:1015400051E4C301B2010E94DA1E03E010E0181654
:1015500014F402E010E0C801880F991F9C012D5976
:101560003D4F5901F501619171915F0190E080E07B
:101570000E94281EA70196010E94DF1E9B01AC015C
:1015800060E074E284E79BE40E94871D20E030E085
:1015900040E85FE30E94151D0E94F91D6115F0EC03
:1015A0007F07FFEF8F07FFE39F07A8F56C837D831D
:1015B0008E839F83688779878A879B871B830A83AB
:1015C000F894C88AD98AEA8AFB8A9D8A8C8A1F8AFB
:1015D0001E8A18828981823009F08BC08091B10007
:1015E000887F9A81892B8093B100CE010E949E0949
:1015F000789481E0DF91CF911F910F91FF90EF9050
:10160000DF90CF90BF90AF909F908F907F906F9022
:101610005F904F9008950F5F1F4F0630110509F03E
:10162000A1CF6C837D838E839F83688779878A8728
:101630009B8785E090E09B838A83C2CF0E94DA1E5D
:1016400001E010E01816D4F020E030E040E051E472
:10165000C301B2010E94DA1E02E010E0181674F015
:1016600020E030E040E050E4C301B2010E94DA1E05
:1016700004E010E0181614F403E010E0C801880F2D
:10168000991F9C012D5A3D4F5901F50161917191AE
:101690005F0190E080E00E94281EA70196010E9451
:1016A000DF1E9B01AC0160E074E284E79BE40E94D2
:1016B000871D20E030E040E85FE30E94151D0E9496
:1016C000F91D6115F0EC7F07FFE38F07910508F422
:1016D0006DCF0F5F1F4F08301105B9F66C837D8306
:1016E0008E839F83688779878A879B8787E090E0CE
:1016F000A2CF813041F480918100887F9A81892B2B
:101700008093810072CF833041F480919100887F73
:101710009A81892B8093910068CF843041F4809125
:10172000A100887F9A81892B8093A1005ECF8530AC
:1017300009F05BCF80912101887F9A81892B80936A
:10174000210153CF80E056CFCF93DF93EC01F89483
:101750008C819D81AE81BF8188879987AA87BB874D
:10176000CE010E949E0918827894DF91CF9108954E
:10177000CF93DF93EC01F894298188859985AA8518
:10178000BB852230A9F18F3F9F4FA105B10518F409
:10179000CE010E949E0988859985AA85BB85AC01EA
:1017A000BD01009721E0A207B10520F04FEF5FEFE8
:1017B00060E070E0841B950BA60BB70B88879987B8
:1017C000AA87BB8788859985AA85BB85892B8A2BA3
:1017D0008B2B39F58C819D81AE81BF81888799875C
:1017E000AA87BB8781E088837894DF91CF910895A1
:1017F0008F3F9105A105B10518F4CE010E949E0905
:1018000088859985AA85BB85AC01BD018F3F91056F
:10181000A105B10579F270F24FEF50E060E070E0A1
:10182000C9CF1882E1CFFC0101900020E9F7319780
:10183000AF01481B590BBC018DEE97E00C94970447
:101840008F929F92AF92BF920F931F93CF93DF938C
:10185000CDB7DEB7A1970FB6F894DEBF0FBECDBFF0
:1018600019A2423008F44AE08E010F5D1F4F842E0A
:10187000912CB12CA12CA50194010E94D71CE62F1C
:10188000B901CA01EA30F4F4E05DD801EE938D01AC
:10189000232B242B252B79F790E080E0109719F06B
:1018A000CD010E94130CA1960FB6F894DEBF0FBEB7
:1018B000CDBFDF91CF911F910F91BF90AF909F90BF
:1018C0008F900895E95CE1CFCF93DF930E94130CD2
:1018D000EC0181E892E00E94130C8C0F9D1FDF91B8
:1018E000CF9108950F931F93CF93DF938C01D0E096
:1018F000C0E0F801EC0FFD1F6491662341F08DEE0E
:1019000097E00E942D05892B11F02196F2CF81E8F6
:1019100092E00E94130C8C0F9D1FDF91CF911F91BD
:101920000F9108950C94130C4F925F926F927F92D7
:101930008F929F92AF92BF92CF92DF92EF92FF92DF
:101940001F93CF93DF936B017C01142FAC019B019C
:101950000E944C1F882399F084E892E0DF91CF9198
:101960001F91FF90EF90DF90CF90BF90AF909F902E
:101970008F907F906F905F904F900C94130C460166
:101980005701E894B7F82FEF3FEF4FE75FE7C50146
:10199000B4010E944C1F81110DC02FEF3FEF4FE7A4
:1019A0005FE7C501B4010E94821D18161CF488E887
:1019B00092E0D4CF2FEF3FEF4FE75FE4C701B601CE
:1019C0000E94DA1E18161CF48CE892E0C7CF2FEFA5
:1019D0003FEF4FE75FECC701B6010E94821D87FD14
:1019E000F3CF20E030E0A901C701B6010E94821DBB
:1019F000D0E0C0E087FF0AC06DE28DEE97E00E9464
:101A00002D05EC01F7FAF094F7F8F09420E060E08F
:101A100070E080E09FE3211740F420E030E040E2F6
:101A200051E40E94871D21E0F6CFA70196010E9494
:101A3000161D2B013C010E94F91D4B015C014AE07F
:101A40000E94200CC80FD91F112309F16EE28DEE00
:101A500097E00E942D056C01C501B4010E94281E6B
:101A60009B01AC01C301B2010E94151D20E030E0D2
:101A700040E251E40E94DF1E0E94F91D90E080E0E8
:101A80004AE00E94200C8C0D9D1DC80FD91FCE016D
:101A9000DF91CF911F91FF90EF90DF90CF90BF909B
:101AA000AF909F908F907F906F905F904F90089530
:101AB000CF92DF92EF92FF92CF93DF936C01990F59
:101AC000EE08FF08F7FE19C06DE28DEE97E00E9468
:101AD0002D05EC0166277727CB016C197D098E094E
:101AE0009F094AE00E94200C8C0F9D1FDF91CF912F
:101AF000FF90EF90DF90CF9008954AE0C701B601C4
:101B0000DF91CF91FF90EF90DF90CF900C94200C5D
:101B10000F931F93CF93DF931F921F92CDB7DEB722
:101B20008C010E94AD1C8983C80101960E94AD1CE6
:101B30008A8389819A810F900F90DF91CF911F91B5
:101B40000F910895CF92DF92EF92FF920F931F9320
:101B5000CF93DF9300D01F92CDB7DEB76E0125E0A3
:101B6000C20ED11C8E010F5F1F4F7C01E01AF10ADB
:101B7000C016D10649F0C701800F911F0E94AD1C0D
:101B8000F80181938F01F4CF69817A818B819C81E7
:101B90000F900F900F900F90DF91CF911F910F91A9
:101BA000FF90EF90DF90CF9008951F920F920FB6A5
:101BB0000F9211242F933F938F939F93AF93BF93D3
:101BC0008091E5079091E607A091E707B091E807BB
:101BD0003091E40723E0230F2D3758F50196A11D1E
:101BE000B11D2093E4078093E5079093E607A09347
:101BF000E707B093E8078091E9079091EA07A09181
:101C0000EB07B091EC070196A11DB11D8093E90788
:101C10009093EA07A093EB07B093EC07BF91AF91C5
:101C20009F918F913F912F910F900FBE0F901F901A
:101C3000189526E8230F0296A11DB11DD2CF1F9241
:101C40000F920FB60F9211240BB60F922F933F9362
:101C50004F935F936F937F938F939F93AF93BF93B4
:101C6000EF93FF938DEE97E00E940B05FF91EF91AC
:101C7000BF91AF919F918F917F916F915F914F91A4
:101C80003F912F910F900BBE0F900FBE0F901F90A2
:101C900018951F920F920FB60F9211240BB60F9248
:101CA0002F938F939F93EF93FF93E091FD07F09114
:101CB000FE078081E0910308F091040882FD1DC0B9
:101CC0009081809106088F5F8F732091070882179B
:101CD00041F0E0910608F0E0E351F84F958F8093D2
:101CE0000608FF91EF919F918F912F910F900BBE5E
:101CF0000F900FBE0F901F9018958081F2CF1F920A
:101D00000F920FB60F9211240BB60F92CF92DF9263
:101D1000EF92FF922F933F934F935F936F937F9335
:101D20008F939F93AF93BF93EF93FF93C090E80877
:101D3000D090E908E090EA08F090EB088091DD0887
:101D40008530D1F5C114D104E104F10409F452C085
:101D50008091DC08882309F448C0E091F008F091F4
:101D6000F108309739F08091F2089091F3080097CC
:101D7000D1F119958091E0089091E108A091E208D5
:101D8000B091E3080097A140B10524F08CED98E0F4
:101D90000E94A40B1C141D041E041F046CF481E09B
:101DA000C81AD108E108F108C092E808D092E90801
:101DB000E092EA08F092EB08FF91EF91BF91AF91AA
:101DC0009F918F917F916F915F914F913F912F9153
:101DD000FF90EF90DF90CF900F900BBE0F900FBE53
:101DE0000F901F9018951995C5CF8CED98E00E9423
:101DF000B80BE2CF8CED98E00E941409DDCF1F9262
:101E00000F920FB60F9211240BB60F92CF92DF9262
:101E1000EF92FF922F933F934F935F936F937F9334
:101E20008F939F93AF93BF93EF93FF93C09000095D
:101E3000D0900109E0900209F09003098091F50823
:101E40008430D1F5C114D104E104F10409F452C085
:101E50008091F408882309F448C0E0910809F091C2
:101E60000909309739F080910A0990910B09009780
:101E7000D1F119958091F8089091F908A091FA088C
:101E8000B091FB080097A140B10524F084EF98E0E1
:101E90000E94A40B1C141D041E041F046CF481E09A
:101EA000C81AD108E108F108C0920009D0920109CE
:101EB000E0920209F0920309FF91EF91BF91AF9177
:101EC0009F918F917F916F915F914F913F912F9152
:101ED000FF90EF90DF90CF900F900BBE0F900FBE52
:101EE0000F901F9018951995C5CF84EF98E00E9428
:101EF000B80BE2CF84EF98E00E941409DDCF1F9267
:101F00000F920FB60F9211240BB60F92CF92DF9261
:101F1000EF92FF922F933F934F935F936F937F9333
:101F20008F939F93AF93BF93EF93FF93C090180944
:101F3000D0901909E0901A09F0901B0980910D09C1
:101F40008330D1F5C114D104E104F10409F452C085
:101F500080910C09882309F448C0E0912009F09190
:101F60002109309739F08091220990912309009737
:101F7000D1F119958091100990911109A091120940
:101F8000B09113090097A140B10524F08CE099E0CD
:101F90000E94A40B1C141D041E041F046CF481E099
:101FA000C81AD108E108F108C0921809D09219099D
:101FB000E0921A09F0921B09FF91EF91BF91AF9146
:101FC0009F918F917F916F915F914F913F912F9151
:101FD000FF90EF90DF90CF900F900BBE0F900FBE51
:101FE0000F901F9018951995C5CF8CE099E00E942D
:101FF000B80BE2CF8CE099E00E941409DDCF1F926C
:102000000F920FB60F9211240BB60F92CF92DF9260
:10201000EF92FF922F933F934F935F936F937F9332
:102020008F939F93AF93BF93EF93FF93C09030092B
:10203000D0903109E0903209F09033098091250960
:102040008230E1F5C114D104E104F10409F454C073
:1020500080912409882309F44AC0E0913809F0915D
:102060003909309739F080913A0990913B090097EE
:10207000E1F119958091280990912909A0912A09E7
:10208000B0912B098F3F9105A105B10529F024F0EE
:1020900084E299E00E94A40B1C141D041E041F047A
:1020A0006CF481E0C81AD108E108F108C092300947
:1020B000D0923109E0923209F0923309FF91EF9109
:1020C000BF91AF919F918F917F916F915F914F9150
:1020D0003F912F91FF90EF90DF90CF900F900BBE2C
:1020E0000F900FBE0F901F9018951995C3CF84E2E3
:1020F00099E00E94B80BE2CF84E299E00E941409B3
:10210000DDCFFF920F931F93CF93DF93EC01F62E59
:1021100008811981C8010E94AD1CF81621F06F2DAD
:10212000C8010E94B51CCE01DF91CF911F910F9184
:10213000FF900895FF920F931F93CF93DF931F9209
:102140001F92CDB7DEB78C01F72E9A838983CE011B
:1021500001960E9481100F5F1F4F1A8309836F2D14
:10216000CE0101960E9481100F900F90DF91CF91C8
:102170001F910F91FF900895CF92DF92EF92FF92FF
:102180000F931F93CF93DF9300D000D0CDB7DEB76E
:102190006C014B835C836D837E837E0183E0E80E5C
:1021A000F11C10E000E0F70161917F01C8018C0D86
:1021B0009D1D9A838983CE0101960E9481100F5F35
:1021C0001F4F0430110579F726960FB6F894DEBF3D
:1021D0000FBECDBFDF91CF911F910F91FF90EF9078
:1021E000DF90CF900895CF93DF93EDEEF7E0138269
:1021F000128288EE93E0A0E0B0E084839583A6830A
:10220000B78383E792E09183808385EC90E09587A4
:10221000848784EC90E09787868780EC90E0918BB0
:10222000808B81EC90E0938B828B82EC90E0958B9D
:10223000848B86EC90E0978B868B118E128E138E9A
:10224000148EE4E2F9E082E08183108A118A128A16
:10225000138A158A148A178A168A108221E030E0C0
:102260003383228314821582168217821086118688
:10227000128613868FEF9FEFDC0184879587A687F0
:10228000B787ECE0F9E043E04183108A118A128AB3
:10229000138A158A148A178A168A10823383228336
:1022A0001482158216821782108611861286138672
:1022B00084879587A687B787E4EFF8E044E04183F9
:1022C000108A118A128A138A158A148A178A168A22
:1022D000108233832283148215821682178210861D
:1022E00011861286138684879587A687B787ECEDBB
:1022F000F8E045E04183108A118A128A138A158A10
:10230000148A178A168A10823383228314821582D4
:102310001682178210861186128613868487958707
:10232000A687B787C8ECD8E081E28A8B61E00E947B
:10233000E40261E08A890E9412038AE898E0998B9E
:10234000888BE7EBF8E089E180831482148613869A
:10235000EAEAF8E08083148214861386EDE9F8E057
:102360008083148214861386E0E9F8E08083148267
:1023700014861386EBE8F8E01182128288EE93E06F
:1023800094838383DF91CF910895CF93DF93CDB76B
:10239000DEB72D970FB6F894DEBF0FBECDBF789491
:1023A00084B5826084BD84B5816084BD85B582605A
:1023B00085BD85B5816085BD80916E00816080930B
:1023C0006E00109281008091810082608093810074
:1023D0008091810081608093810080918000816084
:1023E000809380008091B10084608093B1008091DF
:1023F000B00081608093B0008091910082608093F2
:102400009100809191008160809391008091900073
:102410008160809390008091A10082608093A100F0
:102420008091A10081608093A1008091A0008160D3
:102430008093A0008091210182608093210180918E
:10244000210181608093210180912001816080932E
:10245000200180917A00846080937A0080917A00D4
:10246000826080937A0080917A00816080937A0004
:1024700080917A00806880937A001092C10061E0B8
:102480008DE00E94120361E087E20E94120361E086
:1024900089E20E94120361E080E20E94120361E07F
:1024A00082E20E94120361E084E20E94120361E072
:1024B00086E20E94120361E088E20E94120361E05A
:1024C0008AE20E94120361E087E20E94E40261E076
:1024D00089E20E94E40261E080E20E94E40261E09D
:1024E00082E20E94E40261E084E20E94E40261E090
:1024F00086E20E94E40261E088E20E94E40261E078
:102500008AE20E94E40260E083E00E94120361E03C
:102510008CE20E94120361E08EE20E94120361E0ED
:1025200088E00E94120361E086E00E94120361E0ED
:1025300085E20E94120361E080E10E94120361E0E3
:1025400080E10E94120361E081E10E94120361E0D8
:1025500080E10E94E40261E081E10E94E402E091F6
:10256000FD07F091FE0782E08083E091F907F0918A
:10257000FA071082E091FB07F091FC0780E180836D
:1025800010920508E0910108F091020886E080832E
:10259000E091FF07F0910008808180618083E091E5
:1025A000FF07F0910008808188608083E091FF0739
:1025B000F0910008808180688083E091FF07F091AE
:1025C000000880818F7D80830FB6F894A895809154
:1025D0006000886180936000109260000FBE84E20A
:1025E00099E00E9442098CE099E00E9442098CED3A
:1025F00098E00E94420984EF98E00E9442091FB7C8
:10260000F89480919207811127C0E1EBF2E0849168
:10261000E7EFF2E09491E82FF0E0EE0FFF1FE25DAC
:10262000FD4FA591B491EC91E92321F461E085E39C
:102630000E94E40261E085E30E9412038CB5806190
:102640008CBD8CB580648CBD61E084E30E94120374
:1026500061E083E30E941203809192078F5F809371
:1026600092071FBF80E591E00E94510260E08091D7
:10267000DA080E94E40280EC0E94CC0561E08091BF
:10268000DA080E94E40265E070E080E090E00E94D9
:102690003F0480E48093DB0880E80E94E9068823F9
:1026A00009F432C187E092E00E94720C80E797E063
:1026B0000E94640C1092DB0880E00E94E90604E6A8
:1026C00010E00E941F07837069F0AE014F5F5F4FFB
:1026D000BE01635F7F4FCE0109960E943C07015007
:1026E000110979F781EA92E00E94640C90E080E0A1
:1026F0000E94A20D60932202709323028093240211
:102700009093250288E090E00E94880D9093270224
:10271000809326028CE090E00E94AD1C8093210201
:1027200084E090E00E94A20D60931A0270931B0255
:1027300080931C0290931D028AE090E00E94880D15
:1027400090931F0280931E028DE090E00E94AD1CCA
:10275000809319028EE090E00E94A20D6093120215
:1027600070931302809314029093150282E190E01B
:102770000E94880D909317028093160284E190E0E6
:102780000E94AD1C8093110285E190E00E94A20D91
:1027900060930A0270930B0280930C0290930D02D7
:1027A00089E190E00E94880D90930F0280930E02C1
:1027B0008BE190E00E94AD1C8093090281E0809340
:1027C0008B0884E690E090938F0880938E080E9497
:1027D00071046093B1077093B2078093B30790932D
:1027E000B40783EB92E00E94640C61E08AE20E94ED
:1027F000E402B8E3CB2EB2E0DB2E1DE0212E312C1B
:102800008091E0079091E107A091E207B091E30782
:102810000196A11DB11D8093E0079093E107A0935D
:10282000E207B093E3070E9471040091DC07109166
:10283000DD072091DE073091DF07601B710B820BF3
:10284000930B693E734081059105E0F08DE00E9495
:10285000BB0261E0892B09F060E08DE00E94E40298
:102860001092E0071092E1071092E2071092E3073E
:102870000E9471046093DC077093DD078093DE078C
:102880009093DF0783E00E94BB02892B09F06FC59C
:1028900048E352E06BED77E084EC98E00E943C075F
:1028A000811165C54090C4085090C5086090C60865
:1028B0007090C7084FE1742282E448165104610405
:1028C000710409F08FC08AED92E00E94640C8AEADC
:1028D0008093300220E332E041E062E470E080E087
:1028E00090E00E94180864E670E080E090E00E94AA
:1028F0003F0488E198E00FB6F894A89580936000B3
:102900000FBE90936000FFCF8FED91E00E94720C9C
:1029100060E08AE20E94AD0761ED89E20E94AD07A6
:1029200061E888E20E94AD0782EC91E00E94720C9F
:1029300061E080E20E94FC0761E084E20E94FC0703
:1029400061E080E00E94FC0760E084E00E94FC07F8
:1029500061E088E00E94FC0760E080E10E94FC07E3
:1029600061E084E10E94FC0760E088E10E94FC07CE
:1029700010E360E0812F0E94AD0760E080E1810FED
:102980000E94AD0760E080E2810F0E94AD071F5FEB
:102990001E3379F760E080E60E94AD0760E080E7D3
:1029A0000E94AD0763E08BE20E94AD076CE38CE010
:1029B0000E94AD0760E08DE00E94AD0744E664E64A
:1029C00080E60E94D30540E660E680E70E94D305DA
:1029D0008091DB080E94E906882309F4B6C78CE9D8
:1029E00091E062CE91E0491694E0590661047104C9
:1029F00009F008C189E093E00E94640C28E232E00B
:102A000048E061E074E080E090E00E941808F0E1A6
:102A10004F16F5E05F066104710409F06EC387EBA1
:102A200098E00E94DB018AEA98E00E94DB018DE9D0
:102A300098E00E94DB0180E998E00E94DB01809031
:102A4000930790909407A0909507B0909607609197
:102A5000BC087091BD08072E000C880B990B0E94D2
:102A60002A1E2DEC3CEC4CEC5DE30E94DF1E2B019A
:102A70003C0126E636E646E65FE3C501B4010E9466
:102A8000DF1E9B01AC01C301B2010E94161D6093C1
:102A9000930770939407809395079093960760939C
:102AA000C1077093C2078093C3079093C4078090B7
:102AB000970790909807A0909907B0909A07609117
:102AC000B1087091B208072E000C880B990B0E9478
:102AD0002A1E2DEC3CEC4CEC5DE30E94DF1E2B012A
:102AE0003C0126E636E646E65FE3C501B4010E94F6
:102AF000DF1E9B01AC01C301B2010E94161D609351
:102B00009707709398078093990790939A0760931B
:102B1000BD077093BE078093BF079093C007809056
:102B20009B0790909C07A0909D07B0909E07609196
:102B3000A6087091A708072E000C880B990B0E941D
:102B40002A1E2DEC3CEC4CEC5DE30E94DF1E2B01B9
:102B50003C0126E636E646E65FE3C501B4010E9485
:102B6000DF1E9B01AC01C301B2010E94161D6093E0
:102B70009B0770939C0780939D0790939E0760939B
:102B8000B9077093BA078093BB079093BC078090F6
:102B90009F079090A007A090A107B090A207609116
:102BA0009B0870919C08072E000C880B990B0E94C3
:102BB0002A1E2DEC3CEC4CEC5DE30E94DF1E2B0149
:102BC0003C0126E636E646E65FE3C501B4010E9415
:102BD000DF1E9B01AC01C301B2010E94161D609370
:102BE0009F077093A0078093A1079093A20760931B
:102BF000B5077093B6078093B7079093B8070E9404
:102C00007104B5C3E2E04E16E4E05E0661047104AF
:102C100009F078C18CE193E00E94640C8091380245
:102C2000282F237030E03093D2072093D10790E013
:102C30009C0135952795359527952370332730933B
:102C4000D0072093CF079C0154E0359527955A95DE
:102C5000E1F7237033273093CE072093CD0766E04A
:102C6000959587956A95E1F79093CC078093CB076C
:102C700080913902282F237030E03093DA072093B7
:102C8000D90790E09C0135952795359527952370B8
:102C900033273093D8072093D7079C01E4E035957C
:102CA0002795EA95E1F7237033273093D6072093D1
:102CB000D507F6E095958795FA95E1F79093D407B7
:102CC0008093D30780E393E00E94640C89E493E04F
:102CD0000E94920CABECEA2EA7E0FA2E570110E00E
:102CE00000E0F501819191915F010E94580D07303C
:102CF000110521F08CE493E00E94920C0F5F1F4FAE
:102D00000830110571F703E412E0F7018191919108
:102D10007F01009709F0C3C0F801B080A18060E096
:102D20008B2D0E94E4028FE493E00E94920C8B2D85
:102D30009A2D0E94580D84E593E00E94640C0E5F6A
:102D40001F4FFBEDEF16F7E0FF06F9F680913A0210
:102D5000282F30E02B3F31050CF0B6C02FEF829FBB
:102D6000C00111246AEF70E00E94C31C9B01809196
:102D70003B02482F50E04B3F51050CF0AEC04FEFE7
:102D8000849FC00111246AEF70E00E94C31C7B0184
:102D900080913C02482F50E04B3F51050CF0A9C0F8
:102DA000EFEF8E9FC00111246AEF70E00E94C31CF8
:102DB0008B0137FD08C03093CA072093C907B901BA
:102DC0008CE20E944303F7FC08C0F092C807E0922F
:102DD000C707B7018EE20E94430317FD04C010939A
:102DE000C6070093C5072091C5073091C7074091DA
:102DF000C9078091CB079091CC0756E0880F991FA7
:102E00005A95E1F76091CD077091CE07E4E0660F27
:102E1000771FEA95E1F7862B9091D107892B609176
:102E2000CF077091D007660F771F660F771F862B2D
:102E3000809330028091D3079091D407A6E0880F49
:102E4000991FAA95E1F76091D5077091D607B4E074
:102E5000660F771FBA95E1F7862B9091D907892BDA
:102E60006091D7077091D807660F771F660F771F9D
:102E7000862B8093310240933202309333022093A9
:102E8000340210923502109236021092370220E37B
:102E900032E048E062E274E080E090E0B6CD019775
:102EA00009F04DCFF801B080A18061E08B2D0E9428
:102EB000E4028FE493E00E94920C8B2D9A2D0E94E5
:102EC000580D8DE593E039CF2F3F310519F42EEFE2
:102ED0003FEF4DCF2FEF3FEF4ACF8EEFE82EFF248D
:102EE000FA944F3F510509F453CFEE24EA94FE2C97
:102EF0004FCF0EEF1FEF4F3F510509F45ACF0FEFA1
:102F00001FEF57CFF3E04F16F4E05F066104710442
:102F100009F0C7C18091DB07882309F49AC089E6CC
:102F200093E00E94640C80913902837080932102A7
:102F30001F928F9389E893E09F938F930E94511F74
:102F400060913A0270E090E080E00E94281E609359
:102F50002202709323028093240290932502809191
:102F60003B0290E0909327028093260211E0109399
:102F7000200280913D028370809319021F928F93EB
:102F800086E993E09F938F930E94511F60913E02C8
:102F900070E090E080E00E94281E60931A02709317
:102FA0001B0280931C0290931D0280913F0290E0CF
:102FB00090931F0280931E02109318020FB6F8948C
:102FC000DEBF0FBECDBF809121028230F1F0409173
:102FD000220250912302609124027091250290E018
:102FE00080E00E94BC10609126027091270288E068
:102FF00090E00E949A1060912102ECE0F0E0FA83E8
:10300000E983CE0101960E948110809119028230DD
:10301000E1F040911A0250911B0260911C027091E4
:103020001D0284E090E00E94BC1060911E0270912D
:103030001F028AE090E00E949A10609119023A8281
:103040002982CE0101960E94811083EA93E00E94BA
:10305000640C12E11093300280912102837080632E
:1030600080933102609122027091230280912402A8
:10307000909125020E94F91D6093320280912602F0
:10308000809333021093340280911902837080631D
:103090008093350260911A0270911B0280911C028C
:1030A00090911D020E94F91D6093360280911E02CC
:1030B000809337028CEC93E00E94920C00E312E0C4
:1030C000F80161918F0170E090E080E040E10E94A2
:1030D000200C80EF94E00E94920CC016D10681F77C
:1030E00081E892E00E94130C20E332E048E063E2C2
:1030F00074E080E090E00E94180826E0421624E088
:1031000052066104710409F032C18091DB07882303
:1031100009F472C086E895E00E94640C10913902AF
:1031200013701093110260913A0270E090E080E019
:103130000E94281EAB01BC0140931202509313025F
:10314000609314027093150280913B0290E090937B
:103150001702809316021230B1F08EE090E00E94C8
:10316000BC10609116027091170282E190E00E94FB
:103170009A106091110284E190E09A838983CE01D4
:1031800001960E94811010913D0213701093090264
:1031900060913E0270E090E080E00E94281EAB014A
:1031A000BC0140930A0250930B0260930C0270938F
:1031B0000D0280913F0290E090930F0280930E02E7
:1031C0001130B1F485E190E00E94BC1060910E02D4
:1031D00070910F0289E190E00E949A1060910902BB
:1031E000EBE1F0E0FA83E983CE0101960E948110C1
:1031F00083EA93E00E94640C12E110933002809104
:103200001102837080638093310260911202709189
:10321000130280911402909115020E94F91D60938F
:10322000320280911602809333021093340280910F
:103230000902837080638093350260910A02709165
:103240000B0280910C0290910D020E94F91D609377
:10325000360280910E02809337028FE995E00E943A
:10326000920C00E312E0F80161918F0170E090E0B0
:1032700080E040E10E94200C80EF94E00E94920CDC
:10328000C016D10681F781E892E00E94130C20E37A
:1032900032E048E066E274E080E090E00E941808C6
:1032A00066C0F4E04F165F066104710409F072C253
:1032B0008091DB07882309F46AC280EE93E00E94C4
:1032C000640C2091380230913902322723273227AB
:1032D0002A30310510F424E630E040913A02809122
:1032E0003B0282FB882780F930938F0820938E0859
:1032F00091E0411101C090E090938D0880938B087C
:1033000080E094E00E94920C80918B08882309F45D
:103310003BC283E992E00E94640C80918E089091F8
:103320008F08909330028093310280918D088093B2
:10333000320280918B0824E0829FC00111248470A6
:1033400080933302109234021092350210923602AA
:103350001092370220E332E048E064E274E080E05B
:1033600090E00E9418088FE394E00E94640C0E9491
:1033700071040091B1071091B2072091B307309109
:10338000B407AB01BC01401B510B620B730B809166
:103390008E0890918F08B0E0A0E0481759076A079F
:1033A0007B0708F44AC010918C08111105C0809168
:1033B0008B08882309F441C00E9471046093B1070F
:1033C0007093B2078093B3079093B407113011F450
:1033D00010928C0830E020E040E060E175E080E091
:1033E00090E40E9418080BE811E0C8010197F1F77A
:1033F00030E020E040E060E275E080E090E40E9490
:103400001808C8010197F1F730E020E040E060E3E0
:1034100075E080E090E40E941808C8010197F1F778
:103420001092AF071092B0072FEA37E048E066E24B
:1034300074E080E090E00E9418081091AE070091BF
:103440002102013009F033C22091C1073091C20737
:103450004091C3075091C4076091220270912302EA
:1034600080912402909125020E94821D18160CF46E
:103470000EC2111120C083EB95E00E94640C60E045
:1034800087E20E94E402409126025091270270E0F8
:1034900060E023E934E08CED98E00E94530A0E943A
:1034A00071046093AA077093AB078093AC07909365
:1034B000AD070093AE071091A907009119020130E2
:1034C00009F00AC22091BD073091BE074091BF07A5
:1034D0005091C00760911A0270911B0280911C02EA
:1034E00090911D020E94821D18160CF4E5C1111165
:1034F00016C085E096E00E94640C60E089E20E94BC
:10350000E40240911E0250911F0270E060E02DE73E
:1035100034E08CE099E00E94530A0093A9071091CF
:10352000A80700911102013009F0EDC12091B907FF
:103530003091BA074091BB075091BC0760911202CD
:103540007091130280911402909115020E94821DC5
:1035500018160CF4C6C1111116C087E596E00E943A
:10356000640C60E089E20E94E402409116025091EE
:10357000170270E060E025E934E084E299E00E94FF
:10358000530A0093A8071091A70700910902013080
:1035900009F0D6C12091B5073091B6074091B70721
:1035A0005091B80760910A0270910B0280910C0251
:1035B00090910D020E94821D18160CF4A9C11111E0
:1035C0001EC089EA96E00E94640C60E08AE20E94D4
:1035D000E40260E084E20E94E40260E086E20E948D
:1035E000E40240910E0250910F0270E060E028E882
:1035F00034E084EF98E00E94530A0093A70770E03C
:1036000060E085E20E94430370E060E080E10E9498
:10361000430370E060E088E00E94430370E060E0F4
:1036200086E00E9443030E9471040091A307109159
:10363000A4072091A5073091A607601B710B820B90
:10364000930B643F71408105910508F492C00E947C
:1036500071046093A3077093A4078093A5079093C8
:10366000A6078BEF96E00E94920C6091C1077091C3
:10367000C2078091C3079091C40741E050E00E94C7
:10368000940C89E097E00E94920C60912202709164
:103690002302809124029091250250E040E00E9494
:1036A000940C81E197E00E94920C6091BD077091AB
:1036B000BE078091BF079091C00741E050E00E9493
:1036C000940C89E097E00E94920C60911A0270912C
:1036D0001B0280911C0290911D0250E040E00E946C
:1036E000940C8AE197E00E94920C6091B907709166
:1036F000BA078091BB079091BC0741E050E00E945F
:10370000940C89E097E00E94920C609112027091F3
:103710001302809114029091150250E040E00E9443
:10372000940C83E297E00E94920C86E297E00E945C
:10373000920C6091B5077091B6078091B707909190
:10374000B80741E050E00E94940C89E097E00E94A5
:10375000920C60910A0270910B0280910C02909180
:103760000D0250E040E00E94940C80E195E00E9440
:10377000640C1092C4081092C5081092C6081092EA
:10378000C7080E949A053CC880E992E0C4CD81E256
:1037900094E0C1CD45E0441644E054066104710450
:1037A00009F035C98091DB07882309F462C089E5F7
:1037B00094E00E94640C8DE794E00E94920C80914A
:1037C0008C08813009F04CC082E994E00E94640CBE
:1037D000F09038020F2D10E086E0159507958A9538
:1037E000E1F780EB94E00E94920C6F2D70E090E086
:1037F00080E040E10E94200C87EC94E00E94920C53
:10380000B801110F880B990B4AE00E94200C80E14F
:1038100095E00E94640C81E0801740F100938C08D1
:103820008DED94E00E94920C80918C088130D9F447
:1038300082EF94E00E94640C80918C08E0E48E9FFB
:10384000C001112489839E012F5F3F4F48E065E24C
:1038500074E080E090E00E9418088CE695E085CD49
:103860008FE994E0B3CF81E095E0E4CF82E195E089
:10387000E1CF8EE395E00E94920C80918C08882322
:1038800019F08AE992E0D6CF8DE992E0D3CF1123E7
:1038900009F411CE83EE95E00E94640C61E087E2AA
:1038A0000E94E4028CED98E00E94140902C01111FC
:1038B000F9CF1092AE07FFCD112309F430CE85E386
:1038C00096E00E94640C61E089E20E94E4028CE0D0
:1038D00099E00E94140902C01111F9CF1092A907B2
:1038E0001ECE112309F44FCE87E896E00E94640CA7
:1038F00061E089E20E94E40284E299E00E941409F6
:103900001092A80740CE1123D9F38CE099E0F6CFAE
:10391000112309F474CE89ED96E00E94640C61E0F5
:103920008AE20E94E40261E084E20E94E40261E033
:1039300086E20E94E40284EF98E00E94140902C02B
:103940001111F9CF1092A7075ACE84E397E00E9495
:10395000640C86E597E00C945813F999FECF92BD5C
:1039600081BDF89A992780B50895262FF999FECF41
:103970001FBA92BD81BD20BD0FB6F894FA9AF99A8C
:103980000FBE0196089597FB072E16F4009407D0FA
:1039900077FD09D00E94011D07FC05D03EF49095EB
:1039A00081959F4F0895709561957F4F0895A1E28D
:1039B0001A2EAA1BBB1BFD010DC0AA1FBB1FEE1FA9
:1039C000FF1FA217B307E407F50720F0A21BB30BF4
:1039D000E40BF50B661F771F881F991F1A9469F770
:1039E00060957095809590959B01AC01BD01CF01CC
:1039F0000895EE0FFF1F881F8BBF0790F691E02DF3
:103A00001994AA1BBB1B51E107C0AA1FBB1FA61715
:103A1000B70710F0A61BB70B881F991F5A95A9F777
:103A200080959095BC01CD0108955058BB27AA27D9
:103A30000E942D1D0C94A01E0E94921E38F00E9420
:103A4000991E20F039F49F3F19F426F40C948F1E30
:103A50000EF4E095E7FB0C94891EE92F0E94B11E3D
:103A600058F3BA17620773078407950720F079F4B3
:103A7000A6F50C94D31E0EF4E0950B2EBA2FA02DB4
:103A80000B01B90190010C01CA01A0011124FF270B
:103A9000591B99F0593F50F4503E68F11A16F04006
:103AA000A22F232F342F4427585FF3CF4695379505
:103AB0002795A795F0405395C9F77EF41F16BA0BCA
:103AC000620B730B840BBAF09150A1F0FF0FBB1F78
:103AD000661F771F881FC2F70EC0BA0F621F731FC1
:103AE000841F48F4879577956795B795F7959E3F1E
:103AF00008F0B0CF9395880F08F09927EE0F9795AF
:103B0000879508950E94651E08F481E008950E943B
:103B10009B1D0C94A01E0E94991E58F00E94921E9C
:103B200040F029F45F3F29F00C94891E51110C9448
:103B3000D41E0C948F1E0E94B11E68F39923B1F31A
:103B4000552391F3951B550BBB27AA2762177307C3
:103B5000840738F09F5F5F4F220F331F441FAA1F57
:103B6000A9F335D00E2E3AF0E0E832D09150504013
:103B7000E695001CCAF72BD0FE2F29D0660F771FC1
:103B8000881FBB1F261737074807AB07B0E809F0A7
:103B9000BB0B802DBF01FF2793585F4F3AF09E3F2C
:103BA000510578F00C94891E0C94D41E5F3FE4F309
:103BB000983ED4F3869577956795B795F7959F5F6F
:103BC000C9F7880F911D9695879597F90895E1E0BB
:103BD000660F771F881FBB1F621773078407BA071A
:103BE00020F0621B730B840BBA0BEE1F88F7E09575
:103BF00008950E94B91E88F09F5798F0B92F992711
:103C0000B751B0F0E1F0660F771F881F991F1AF0C7
:103C1000BA95C9F714C0B13091F00E94D31EB1E03B
:103C200008950C94D31E672F782F8827B85F39F03A
:103C3000B93FCCF3869577956795B395D9F73EF460
:103C400090958095709561957F4F8F4F9F4F089508
:103C5000E89409C097FB3EF4909580957095619526
:103C60007F4F8F4F9F4F9923A9F0F92F96E9BB27DC
:103C70009395F695879577956795B795F111F8CF58
:103C8000FAF4BB0F11F460FF1BC06F5F7F4F8F4FC3
:103C90009F4F16C0882311F096E911C0772321F0B9
:103CA0009EE8872F762F05C0662371F096E8862F51
:103CB00070E060E02AF09A95660F771F881FDAF7A8
:103CC000880F9695879597F90895990F0008550FD5
:103CD000AA0BE0E8FEEF16161706E807F907C0F092
:103CE00012161306E407F50798F0621B730B840B9A
:103CF000950B39F40A2661F0232B242B252B21F474
:103D000008950A2609F4A140A6958FEF811D811D13
:103D1000089597F99F6780E870E060E008959FEF4D
:103D200080EC089500240A94161617061806090652
:103D3000089500240A941216130614060506089521
:103D4000092E0394000C11F4882352F0BB0F40F4A9
:103D5000BF2B11F460FF04C06F5F7F4F8F4F9F4FE9
:103D6000089557FD9058440F551F59F05F3F71F06B
:103D70004795880F97FB991F61F09F3F79F08795D2
:103D80000895121613061406551FF2CF4695F1DF5B
:103D900008C0161617061806991FF1CF86957105EB
:103DA000610508940895E894BB2766277727CB011F
:103DB00097F908950E94651E08F48FEF08950E94F8
:103DC000F21E0C94A01E0E94921E38F00E94991EB2
:103DD00020F0952311F00C94891E0C948F1E112451
:103DE0000C94D41E0E94B11E70F3959FC1F3950FE1
:103DF00050E0551F629FF001729FBB27F00DB11D6F
:103E0000639FAA27F00DB11DAA1F649F6627B00DFE
:103E1000A11D661F829F2227B00DA11D621F739FE7
:103E2000B00DA11D621F839FA00D611D221F749FF5
:103E30003327A00D611D231F849F600D211D822F3C
:103E4000762F6A2F11249F5750409AF0F1F0882363
:103E50004AF0EE0FFF1FBB1F661F771F881F915090
:103E60005040A9F79E3F510580F00C94891E0C9498
:103E7000D41E5F3FE4F3983ED4F38695779567951B
:103E8000B795F795E7959F5FC1F7FE2B880F911DBA
:103E90009695879597F908950E94651E880B990B52
:103EA0000895CF93DF93CDB7DEB7AE014A5F5F4F82
:103EB000FA0161917191AF0180913E0990913F09A2
:103EC0000E94651FDF91CF9108952F923F924F92EC
:103ED0005F926F927F928F929F92AF92BF92CF929A
:103EE000DF92EF92FF920F931F93CF93DF9300D057
:103EF00000D000D01F921F92CDB7DEB77C013B01EE
:103F00008A01FC0117821682838181FFDDC1CE0107
:103F100001965C01F7019381F30193FD859193FF75
:103F200081913F01882309F453C1853239F493FD0F
:103F3000859193FF81913F01853229F4B70190E08B
:103F40000E947D21E7CF912C212C312CFFE1F3152C
:103F500038F08B3211F190F4803209F1833229F17B
:103F600037FC3CC020ED280F2A3050F536FE20C02B
:103F70008AE0989E200D1124922E06C08D3291F079
:103F8000803371F7689430F8F30193FD859193FFC6
:103F900081913F018111DACF21C0689431F8689492
:103FA00032F8F2CF689433F8EFCF689434F8ECCF5E
:103FB000EAE02E9E200D1124222E689435F8E4CFDD
:103FC0008E3229F436FC04C1689436F8DDCF8C3685
:103FD00019F4689437F8D8CF8836B1F2982F9F7DBE
:103FE00095549330E0F08336A1F18337C1F18335E6
:103FF00009F063C02801F2E04F0E511CF801C080A7
:10400000D180692D70E036FC02C06FEF7FEFC601F2
:104010000E9467214C01689437F882010AC00C5F46
:104020001F4FFFE3F98388248394912C6501E89462
:1040300037F833FE2DC0522C8114910471F55520B0
:1040400009F468CFB70180E290E00E947D215A9484
:10405000F6CFF801808189830E5F1F4FE4CF2801DE
:10406000F2E04F0E511CF801C080D180692D70E044
:1040700036FC02C06FEF7FEFC6010E9472214C0137
:104080008201D5CFB70180E290E00E947D212A9481
:104090002814190409F0B0F7CECFF60137FC85914A
:1040A00037FE81916F01B70190E00E947D21511090
:1040B0005A94F1E08F1A9108BFCF843619F08936EF
:1040C00009F077C0F80137FE6BC060817181828191
:1040D00093810C5F1F4FF32DFF763F2E97FF09C092
:1040E00090958095709561957F4F8F4F9F4F689405
:1040F00037F82AE030E0A5010E94AD21C82ECA1889
:104100008C2C432C36FE0CC0E89440F8C91440F4C3
:1041100034FE05C032FC03C0F32DFE7E4F2E892CE9
:1041200044FEAAC0FE01EC0DF11D8081803309F030
:104130009CC0242D297E422E842D8870582E43FC4D
:10414000AAC040FEA4C09C2C821418F42C0C922C03
:10415000981844FEA6C0B70180E390E00E947D213C
:1041600042FE09C088E790E041FE02C088E590E089
:10417000B7010E947D21C91408F49FC0CA94D12CB4
:104180009FEFC91AD90ACA0CDB1CF60182916F0194
:10419000B70190E00E947D21AC14BD04B1F74FCF70
:1041A00060817181072E000C880B990B0E5F1F4FE9
:1041B00092CFD32CE894D4F82AE030E08537E1F1AF
:1041C000232D297FD22E8F36A9F1F0F4883551F1B5
:1041D000F701868197812B960FB6F894DEBF0FBE4C
:1041E000CDBFDF91CF911F910F91FF90EF90DF90A6
:1041F000CF90BF90AF909F908F907F906F905F9087
:104200004F903F902F900895803749F0883701F7FD
:10421000D4FE02C06894D2F820E130E00DC068946A
:10422000D4F8F6CF34FE03C0822F8660D82E20E16A
:1042300032E002C028E030E0F801D7FE0FC0608114
:104240007181828193810C5F1F4FA5010E94AD2176
:10425000C82ECA183D2CE89437F852CF608171817E
:1042600090E080E00E5F1F4FF0CF42FC02C08394CD
:1042700063CF8394839460CF842D867809F45CCFD8
:10428000F6CFB70180E290E00E947D2183948214F2
:10429000C0F3512C5ECF522C5818821408F459CF19
:1042A000F8CF842D867809F466CF8BE241FE80E258
:1042B00047FC8DE2B70190E05CCFB70180E390E06E
:1042C0000E947D219A9457CF8FEF9FEF84CFFC01FE
:1042D0000590615070400110D8F7809590958E0F31
:1042E0009F1F0895FC016150704001900110D8F7A4
:1042F000809590958E0F9F1F08950F931F93CF93D6
:10430000DF93182F092FEB018B8181FD09C01FEF6F
:104310000FEF812F902FDF91CF911F910F91089573
:1043200082FF14C02E813F818C819D81281739071F
:104330003CF4E881F981CF01019699838883108349
:104340008E819F8101969F838E83E3CFE885F985D7
:10435000812F1995892BA1F3DACFFA01AA272830EA
:1043600051F1203181F1E8946F936E7F6E5F7F4F42
:104370008F4F9F4FAF4FB1E03ED0B4E03CD0670FBE
:10438000781F891F9A1FA11D680F791F8A1F911D11
:10439000A11D6A0F711D811D911DA11D20D009F461
:1043A00068943F912AE0269F11243019305D3193A3
:1043B000DEF6CF010895462F4770405D4193B3E08C
:1043C0000FD0C9F7F6CF462F4F70405D4A3318F033
:1043D000495D31FD4052419302D0A9F7EACFB4E0E4
:1043E000A6959795879577956795BA95C9F700979C
:1043F0006105710508959B01AC010A2E069457953D
:10440000479537952795BA95C9F7620F731F841F93
:0A441000951FA01D0895F894FFCF3A
:10441A007800780078007800000000000000E803C7
:10442A00000000000000E803000000000000E803AC
:10443A00000000000000E803555555FFFFFFFFFF8D
:10444A002000000000000000200000000000000022
:10445A00304050270029002000220024002600288E
:10446A00002A00010001000800200040008000002E
:10447A0001000401000100080040000001000400DE
:10448A000000002D059704C4047A05F504D304E757
:10449A00040D0A006E616E00696E66006F76660032
:1044AA004445534C494741444F004F4E004F4646FE
:1044BA00004275666665722043414E206C696D70D4
:1044CA006F21004D4F444F20434F4E54494E554F94
:1044DA0020494E49434941444F204155544F4D418B
:1044EA00544943414D454E54450021212120434F13
:1044FA004D414E444F204445205550444154452097
:10450A00524543454249444F202D20524553455474
:10451A00414E444F2021212100636D643A203078B6
:10452A00343031202844656275672900636D643A26
:10453A00203078343032202853616964617329004D
:10454A0045737461646F7320646F20726573756C50
:10455A007420616E7465733A005B20002C20004C55
:10456A0065642000204174697661646F00204465A7
:10457A00736174697661646F000A2D2D2D20434F93
:10458A004D414E444F203078343033205245434514
:10459A004249444F202D2D2D00656E61626C6531B4
:1045AA003A2025640A00656E61626C65323A2025FC
:1045BA00640A00202D3E20436F6E6669677572613A
:1045CA00636F65732073616C766173206E6120522C
:1045DA00414D206520454550524F4D00203E205404
:1045EA00582028307834323329204845583A200058
:1045FA000A2D2D2D20434F4D414E444F2030783403
:10460A00303420524543454249444F202D2D2D0038
:10461A00203E204D6F646F20436F6E74696E756F14
:10462A0020616C74657261646F20706172613A20F6
:10463A0000636D643A20307834303420284C657237
:10464A0020537461747573202D205254522900200E
:10465A003E20526573706F7374612030783432343F
:10466A0020656E7669616461000A2D2D2D20434F05
:10467A004D414E444F203078343035202853544130
:10468A0052542F53544F5029202D2D2D00203E20B7
:10469A0045737461646F20414E544552494F523AF2
:1046AA0020004C494741444F202852756E29004446
:1046BA0045534C494741444F202853746F70290091
:1046CA00203E204279746520526563656269646F91
:1046DA003A2020203078002028496E746572707262
:1046EA00657461646F20636F6D6F3A2000203E200D
:1046FA0045737461646F204E4F564F3A2020202034
:10470A0020004C494741444F2028535441525429D0
:10471A00004445534C494741444F202853544F5075
:10472A002900203E204552524F3A2056616C6F7242
:10473A0020696E76616C69646F207265636562696F
:10474A00646F202849676E6F7261646F2900636D18
:10475A00643A20307834303520284C6572205374FE
:10476A0061747573202D2052545229202D3E204108
:10477A007475616C6D656E74653A2000203E205236
:10478A006573706F73746120307834323520656ECA
:10479A00766961646100636D643A2030783430363A
:1047AA002028496E746572636F6F6C6572290020E8
:1047BA003E2054582028307834323629204845582B
:1047CA003A200021212120414C455254413A20549B
:1047DA0031204C494D495445204154494E4749449A
:1047EA004F204163696F6E616E646F2044312021EE
:1047FA00212100494E464F3A205431204E6F726DA6
:10480A00616C697A61646F204431204465736C6914
:10481A006761646F0021212120414C455254413A7D
:10482A00205432204C494D495445204154494E4761
:10483A0049444F204163696F6E616E646F20443250
:10484A002021212100494E464F3A205432204E6FF2
:10485A00726D616C697A61646F2044322064657399
:10486A006C696761646F0021212120414C455254D3
:10487A00413A205433204C494D495445204154492A
:10488A004E4749444F204163696F6E616E646F20E1
:10489A0044332021212100494E464F3A20543320E7
:1048AA004E6F726D616C697A61646F204433204483
:1048BA0065736C696761646F0021212120414C4551
:1048CA005254413A205434204C494D4954452041D0
:1048DA0054494E4749444F204163696F6E616E6483
:1048EA006F2044342021212100494E464F3A20545A
:1048FA0034204E6F726D616C697A61646F20443442
:10490A00204465736C696761646F005B535441545A
:10491A0055535D2054313A20004320284D61783A9E
:10492A000029207C2054323A200029207C2054334C
:10493A003A2000290A00202020202020202020546C
:10494A00343A20004D43503235313520496E69746E
:10495A0069616C697A65642053756363657373660C
:10496A00756C6C79210054457374652073652065F4
:10497A007374612066756E63696F6E616E646F0031
:10498A004572726F7220496E697469616C697A69DD
:0E499A006E67204D4350323531352E2E2E00E3
:00000001FF
