:100000000C94A6010C94D7010C94D7010C94D70141
:100010000C94D7010C94D7010C94D7010C94D70100
:100020000C94D7010C94D7010C94D7010C94D701F0
:100030000C94D7010C94BA0F0C94D7010C94D701EF
:100040000C94D7010C94D7010C94D7010C94D701D0
:100050000C94D7010C94D7010C94D7010C94100E7A
:100060000C94D7010C94840E0C945A0E0C94D70166
:100070000C94D7010C94D7010C94D7010C94D701A0
:100080000C943A0F0C94D7010C94D7010C94D7011F
:100090000C94D7010C94D7010C94D7010C94D70180
:1000A0000C94D7010C94D7010C94D7010C94D70170
:1000B0000C94D7010C94D7010C94D7010C94BA0E70
:1000C0000C94D7010C94D7010C94D7010C94D70150
:1000D0000C94D7010C94D7010C94D7010C94D70140
:1000E0000C94D7010C948F020C9485020C94AC03F1
:1000F0000C9490030C9482020C94EB030C9449042E
:100100000C94D2030C9454040C94B0020C947A0214
:100110000C949A030C94C8030C94B5020C94130429
:100120000C94B1040C9409040C9481030C94A70260
:100130000C9444050C94BE030C94A3020C94AB02E3
:100140000C94F5030C9461040C94A4030C948B029E
:100150000C94E1030C9470020C943C100C94B102CA
:100160000C949D040C9476020C94F7040C94860372
:100170000C9499020C94FF030C949D020C945F0460
:100180000C947E020C94B4030C94BF040C948E0463
:100190000C9495020C94790352657475726E696EB5
:1001A0006720746F2050726576696F7573204D6F8C
:1001B0006465204661696C7572652E2E2E0053654C
:1001C0007474696E6720426175647261746520534E
:1001D00075636365737366756C2100456E74657233
:1001E000696E6720436F6E66696775726174696FC7
:1001F0006E204D6F64652053756363657373667518
:100200006C2100456E746572696E6720436F6E667F
:10021000696775726174696F6E204D6F6465204601
:1002200061696C7572652E2E2E000000210024007D
:1002300027002A002D0030003300010100000401D6
:1002400007010A0100002200250028002B002E00D3
:100250003100340002010000050108010B0100001B
:1002600020002300260029002C002F00320000016E
:100270000000030106010901050505050705080839
:100280000808020202020A0A080804040404010120
:100290000101010101010303030303030303040735
:1002A00007070C0C0C0C0C0C0C0C020202020606CC
:1002B0000606060606060B0B0B0B0B0B0B0B0102BF
:1002C0001020200808102040102040800201020168
:1002D0000804020101020408102040808040201020
:1002E0000804020180040201804020100804020179
:1002F00008040201010204081020408001020408E1
:100300001020408000000A0B02090C0D0E080703A4
:1003100004010000000000000000000000000000D8
:1003200000000000000000000000000000000000CD
:10033000121110000000000000000000000000008A
:10034000000000000000000000003C1011241FBE4F
:10035000CFEFD1E2DEBFCDBF00E00CBF16E0A0E0E2
:10036000B2E0EEE6FAE300E00BBF02C007900D92A8
:10037000AC3DB107D9F728E0ACEDB6E001C01D9265
:10038000AC35B207E1F711E0C6EAD1E000E006C003
:1003900021970109802FFE010E94DD1AC53AD1077D
:1003A00080E00807A9F70E94EF100C94351D0C940B
:1003B0000000FC01AEE2B2E08C918058808311967F
:1003C0004C911197842F8370818312962C911297F0
:1003D00030E0C90156E0880F991F5A95E1F7807CFB
:1003E0009F7050E05595479555954795842B952BD3
:1003F00098509683858376E0359527957A95E1F731
:10040000228314964C91149750E0942F88278827C4
:100410009F7013962C911397822B98509087878307
:10042000CA0124E0959587952A95E1F78370838327
:1004300016962C91169730E015969C91159764E0CE
:10044000969FC001112466E0559547956A95E1F79E
:10045000842B952BA901542F4427550F550F442762
:100460005C70842B952B985092878187C901959554
:100470008795959587958370848317969C9140E125
:10048000949FC001112454E0359527955A95E1F7C2
:10049000822B932B985094878387CF0108958CBD2E
:1004A0009DBD08958150823108F05AC0E82FF0E0D8
:1004B0008827E25AFD4F8F4F0C94DD1A7E0282028C
:1004C000700276027A02B00285028B028F029502D8
:1004D00099029D02A302A702B002AB02B102B502CB
:1004E000809180008F7780938000089580918000B4
:1004F0008F7DF9CF80918000877FF5CF84B58F778E
:1005000084BD089584B58F7DFBCF8091B0008F7737
:100510008093B00008958091B0008F7DF9CF8091D5
:1005200090008F77809390000895809190008F7D48
:10053000F9CF80919000877FF5CF8091A0008F77D1
:100540008093A00008958091A0008F7DF9CF8091C5
:10055000A000877FF5CF809120018F7780932001C5
:100560000895809120018F7DF9CF80912001877FB0
:10057000F5CFCF93DF93282F30E0F901EC5FFC4FEC
:100580008491F901E254FD4FD491F901E858FD4FEF
:10059000C491CC23A1F081110E945202EC2FF0E013
:1005A000EE0FFF1FE25AFD4FA591B491EC91ED23A0
:1005B00081E090E009F480E0DF91CF91089580E040
:1005C00090E0FACF1F93CF93DF93282F30E0F9010B
:1005D000EC5FFC4F8491F901E254FD4FD491F90195
:1005E000E858FD4FC491CC23A9F0162F81110E9429
:1005F0005202EC2FF0E0EE0FFF1FEC5BFD4FA591D8
:10060000B4918FB7F894EC91111108C0D095DE2306
:10061000DC938FBFDF91CF911F910895DE2BF8CF30
:10062000CF93DF9390E0FC01E254FD4F2491885872
:100630009D4FFC0184918823D1F090E0880F991F91
:10064000FC01E65DFD4FA591B491FC01EC5BFD4F13
:10065000C591D49161110EC09FB7F8948C91E22F8F
:10066000E0958E238C932881E223E8839FBFDF915E
:10067000CF9108958FB7F894EC91E22BEC938FBF54
:10068000F6CF1F93CF93DF93182FEB0161E00E9409
:100690001003209739F460E0812FDF91CF911F91F3
:1006A0000C94E202CF3FD10511F461E0F5CFE12FC8
:1006B000F0E0EC5FFC4FE491E150E23108F0B3C0B0
:1006C000F0E08827E959FC4F8F4F0C94DD1A79032D
:1006D0008103860390039A031304A403AC03B403B9
:1006E000BE03C803D203E103EB031304F503FF03C6
:1006F000090484B5806884BDC7BDDF91CF911F9187
:10070000089584B5806284BDC8BDF7CF8091800014
:10071000806880938000D0938900C0938800EDCFDB
:1007200080918000806280938000D0938B00C09382
:100730008A00E3CF80918000886080938000D0930E
:100740008D00C0938C00D9CF8091B00080688093D9
:10075000B000C093B300D1CF8091B000806280938D
:10076000B000C093B400C9CF80919000806880939E
:100770009000D0939900C0939800BFCF80919000D3
:10078000806280939000D0939B00C0939A00B5CF75
:1007900080919000886080939000D0939D00C093DA
:1007A0009C00ABCF8091A00080688093A0008091D6
:1007B000A0008F7B8093A000D093A900C093A800D5
:1007C0009CCF8091A00080628093A000D093AB006A
:1007D000C093AA0092CF8091A00088608093A0006F
:1007E000D093AD00C093AC0088CF80912001806889
:1007F00080932001D0932901C09328017ECF80915E
:100800002001806280932001D0932B01C0932A01A4
:1008100074CF80912001886080932001D0932D01B6
:10082000C0932C016ACFC038D1050CF03ECF33CF36
:100830003FB7F89480912E0790912F07A091300731
:10084000B091310726B5A89B05C02F3F19F001963E
:10085000A11DB11D3FBFBA2FA92F982F8827BC011A
:10086000CD01620F711D811D911D42E0660F771F42
:10087000881F991F4A95D1F708952FB7F894609172
:100880002A0770912B0780912C0790912D072FBF7D
:1008900008950E943D046093DC067093DD0680930A
:1008A000DE069093DF0608950E943D046093F306F0
:1008B0007093F4068093F5069093F60608950C94D1
:1008C0005404AF92BF92CF92DF92EF92FF920F93B8
:1008D0001F93CF93DF936C017B018B01040F151FD6
:1008E000EB015E01AE18BF08C017D10759F069913E
:1008F000D601ED91FC910190F081E02DC601199592
:10090000892B79F7C501DF91CF911F910F91FF904E
:10091000EF90DF90CF90BF90AF900895FC01538D82
:10092000448D252F30E0842F90E0821B930B5417C9
:1009300010F0CF96089501970895FC01918D828D56
:10094000981761F0A28DAE0FBF2FB11D5D968C91EF
:10095000928D9F5F9F73928F90E008958FEF9FEF2E
:100960000895FC01918D828D981731F0828DE80FEA
:10097000F11D858D90E008958FEF9FEF0895FC01A4
:10098000918D228D892F90E0805C9F4F821B910971
:100990008F739927089582E397E00E94BF0421E0B6
:1009A000892B09F420E0822F0895FC01A48DA80F63
:1009B000B92FB11DA35ABF4F2C91848D90E00196A1
:1009C0008F739927848FA689B7892C93A089B189C1
:1009D0008C91837080648C93938D848D981306C062
:1009E0000288F389E02D80818F7D80830895EF92C6
:1009F000FF920F931F93CF93DF93EC0181E0888FD9
:100A00009B8D8C8D98131AC0E889F989808185FFA8
:100A100015C09FB7F894EE89FF896083E889F9894A
:100A200080818370806480839FBF81E090E0DF914C
:100A3000CF911F910F91FF90EF900895F62E0B8D9F
:100A400010E00F5F1F4F0F731127E02E8C8D8E115A
:100A50000CC00FB607FCFACFE889F989808185FFC1
:100A6000F5CFCE010E94D504F1CFEB8DEC0FFD2F19
:100A7000F11DE35AFF4FF0829FB7F8940B8FEA897C
:100A8000FB8980818062CFCFCF93DF93EC01888D8B
:100A90008823B9F0AA89BB89E889F9898C9185FDF9
:100AA00003C0808186FD0DC00FB607FCF7CF8C9187
:100AB00085FFF2CF808185FFEDCFCE010E94D50466
:100AC000E9CFDF91CF91089580E090E0892B29F064
:100AD0000E94CB0481110E94000080E090E0892BED
:100AE00049F080E090E0892B29F00E9400008111FC
:100AF0000E94000080E090E0892B49F080E090E0C7
:100B0000892B29F00E94000081110E94000080E0E2
:100B100090E0892B49F080E090E0892B29F00E9439
:100B2000000081110C940000089508958EBD00000E
:100B30000DB407FEFDCF8EB50895FF920F931F935E
:100B4000CF93DF93F82E062F142F80E591E00E94BB
:100B50004F02C0E0D8E060E08A890E94E20285E0AE
:100B60000E9496058F2D0E949605802F0E94960563
:100B7000812F0E94960561E08A89DF91CF911F91B4
:100B80000F91FF900C94E202FF920F931F93CF936B
:100B9000DF93C82FF62E172F042F80E591E00E94D7
:100BA0004F0260E0809112080E94E20283E00E94FE
:100BB00096058C2F0E949605CF2DD12F0C0F1D2F3F
:100BC000111DC017D10729F080E00E949605899376
:100BD000F8CF61E080911208DF91CF911F910F91C2
:100BE000FF900C94E2021F93CF93DF93182F80E5C0
:100BF00091E00E944F02C0E0D8E060E08A890E9444
:100C0000E20283E00E949605812F0E94960580E013
:100C10000E949605182F61E08A890E94E202812FC6
:100C2000DF91CF911F9108950F931F93CF93DF937F
:100C300000D01F92CDB7DEB7182F10920008109287
:100C4000010810920208109203081092040844E070
:100C5000BE016F5F7F4F0E94C4052A81898138E001
:100C6000839FC0011124422F50E065E055954795C0
:100C70006A95E1F7840F951F092E000CAA0BBB0B98
:100C80008093010890930208A0930308B09304088E
:100C900023FF29C032E0880F991FAA1FBB1F3A9576
:100CA000D1F72370820F911DA11DB11DBA2FA92F5D
:100CB000982F88272B81820F911DA11DB11DBA2F5E
:100CC000A92F982F88272C81820F911DA11DB11D5E
:100CD0008093010890930208A0930308B09304083E
:100CE00081E0809300088FEF810F0E94F305082FA9
:100CF00084E0810F0E94F30503FF16C091E09093FA
:100D00000E08482F4F704093050866E078E085E0B4
:100D1000810F0E94C4050F900F900F900F90DF91EC
:100D2000CF911F910F91089510920E08EACFCF93A3
:100D3000DF93C82F0E943D04D62F4C2F60EE8FE02A
:100D40000E949D058EE00E94F305807EC81749F041
:100D50000E943D046D1B693C80F381E0DF91CF91DF
:100D6000089580E0FBCFCF93DF93C82F8EE00E94E1
:100D7000F305807E8032F9F4C032E9F08BE20E9404
:100D8000F305D82FD07486FD05C040E460E48BE203
:100D90000E949D0540E460E48CE20E949D0580E68F
:100DA0000E949706811111C0D11105C040E060E496
:100DB0008BE20E949D0540E060E48CE20E949D056C
:100DC0008C2FDF91CF910C94970681E0DF91CF912A
:100DD00008951F93CF93DF9380E591E00E944F0227
:100DE000C0E0D8E060E08A890E94E20280EA0E94C6
:100DF000960580E00E949605182F61E08A890E947E
:100E0000E202812FDF91CF911F910895EF92FF921F
:100E10000F931F93CF93DF937C018B01EA010E9414
:100E2000E90680FF52C081E60E94140640E061E0BE
:100E30008CE20E949D0580910008882389F08091B2
:100E4000010890910208A0910308B0910408B068CD
:100E50008093010890930208A0930308B0930408BC
:100E600080910E08882389F08091010890910208F2
:100E7000A0910308B0910408B06480930108909396
:100E80000208A0930308B093040880910108909190
:100E90000208A0910308B0910408F70180839183B0
:100EA000A283B38380910508F8018083A6E0B8E0AF
:100EB000FE0120910508CF018C1B9D0B28171906F8
:100EC000A1F09CF08D918193F4CF81FF06C081E762
:100ED0000E94140640E062E0ABCF84E0DF91CF9146
:100EE0001F910F91FF90EF90089580E0F7CF0F933F
:100EF0001F93CF93DF93082F162F80E591E00E9478
:100F00004F02C0E0D8E060E08A890E94E20282E0FD
:100F10000E949605802F0E949605812F0E949605BB
:100F200061E08A89DF91CF911F910F910C94E202C9
:100F3000FF920F931F93CF93DF93C82FF62E172F97
:100F4000042F80E591E00E944F0260E0809112083A
:100F50000E94E20282E00E9496058C2F0E94960574
:100F6000CF2DD12F0C0F1D2F111DC017D10721F030
:100F700089910E949605F9CF61E080911208DF9176
:100F8000CF911F910F91FF900C94E202CF93DF93CA
:100F900000D01F92CDB7DEB71C821B82613081F476
:100FA00098E09A83198244E0BE016F5F7F4F0E94F0
:100FB00098070F900F900F900F90DF91CF910895A9
:100FC0001A82F0CF2F923F924F925F926F927F9250
:100FD0008F929F92AF92CF92DF92EF92FF920F93F8
:100FE0001F93CF93DF9300D01F92CDB7DEB76093EE
:100FF000010870930208809303089093040896FBFD
:10100000552750F950930E08662797FD639577276B
:10101000882799276093000840930508F901A6E006
:10102000B8E0C901089621912D93E817F907D9F77F
:101030000E9418042B013C018090360290903702E8
:10104000A09038021E0124E0220E311C89829A826F
:10105000AB82CE0101966C01F82E0D2DF601119197
:101060006F01812F0E94F30583FD14C01F5FE12CE7
:101070000E941804DC01CB0184199509A609B7095F
:10108000F2E0EF120EC0843C9940A105B105F0F2E8
:1010900006E07DC02C143D0409F710E072E0E72E55
:1010A000E7CF843C9940A105B10590F74091050830
:1010B00066E078E085E0810F0E94980780910E0835
:1010C000813029F48091050880648093050860913F
:1010D000050884E0810F0E94770740910108509134
:1010E0000208609103087091040880910008813023
:1010F000D9F54C835B83AB0166277727842F8370F8
:101100008860942F990F990F990F907E892B8A836D
:1011100065E0569547956A95E1F7498344E06F2D60
:10112000702F812F0E949807115048E068E0812FAE
:101130000E949D050E9418046B017C01812F0E9472
:10114000F305082F08700E941804DC01CB018C19EC
:101150009D09AE09BF090023A9F0843C9940A1056F
:10116000B10560F307E013C0CA0123E096958795A7
:101170002A95E1F789834295440F407E4A831C8279
:101180001B82CCCF843C9940A105B10558F7802F34
:101190000F900F900F900F90DF91CF911F910F91B3
:1011A000FF90EF90DF90CF90AF909F908F907F90C7
:1011B0006F905F904F903F902F900895F894FC01AE
:1011C00081818330E9F034F4813071F0823091F024
:1011D000789408958430D1F08530D1F780917300F0
:1011E0008D7F80937300F4CF80916F008D7F80930B
:1011F0006F00EECF809170008D7F80937000E8CFFC
:10120000809171008D7F80937100E2CF8091720098
:101210008D7F80937200DCCFFC01F8946330C9F1BC
:101220003CF46130C1F0623029F161837894089513
:101230006430F1F16530C9F710922001109221015C
:1012400090912101986090932101909121019160EA
:1012500090932101EACF109280001092810080913A
:1012600081008860809381008091810081608093FB
:101270008100DBCF1092B0001092B1008091B000DD
:1012800082608093B0008091B10081608093B10052
:10129000CCCF1092900010929100909191009860A4
:1012A0009093910090919100916090939100BDCFA7
:1012B0001092A0001092A1009091A10098609093CC
:1012C000A1009091A10091609093A100AECFFC018C
:1012D00040855185628573858181833009F470C0B2
:1012E00084F4813089F1823009F44CC08085918585
:1012F000A285B385892B8A2B8B2B11F481E0808307
:101300000895843009F47AC0853081F7DB01CA0181
:101310004115510521E06207710520F08FEF9FEF25
:10132000A0E0B0E09093290180932801481B590B5D
:101330006A0B7B0B408751876287738780917300AC
:10134000826080937300D2CFDB01CA014115510541
:1013500021E06207710520F08FEF9FEFA0E0B0E081
:101360009093890080938800481B590B6A0B7B0B74
:10137000408751876287738780916F008260809376
:101380006F00B4CF4F3F51056105710529F020F082
:101390004FEF50E060E070E04093B30080859185AE
:1013A000A285B385841B950BA60BB70B808791870D
:1013B000A287B3878091700082608093700096CF7F
:1013C000DB01CA014115510521E06207710520F0DA
:1013D0008FEF9FEFA0E0B0E090939900809398008A
:1013E000481B590B6A0B7B0B4087518762877387B9
:1013F0008091710082608093710078CFDB01CA0117
:101400004115510521E06207710520F08FEF9FEF34
:10141000A0E0B0E09093A9008093A800481B590B6E
:101420006A0B7B0B408751876287738780917200BC
:101430008260809372005ACF4F925F926F927F9238
:101440008F929F92AF92BF92CF92DF92EF92FF92D4
:101450000F931F93CF93DF93EC01198111160CF0BA
:101460003AC14901CB01BA010E940C1C9B01AC019D
:1014700060E070E08AE794E40E946B1B6B017C01E2
:101480002EEA37E346E856E40E94C31C2B013C01D8
:1014900020E030E040E85FE30E94661B87FD1BC14F
:1014A0008FEF9FEFDC018C879D87AE87BF8720E0A1
:1014B00030E040E852E4C301B201123009F487C0C1
:1014C0000E94BE1C01E010E0181674F020E030E02D
:1014D00040E051E4C301B2010E94BE1C03E010E0F1
:1014E000181614F402E010E0C801880F991F9C013F
:1014F000275A3D4F5901F501619171915F0190E0CB
:1015000080E00E940C1CA70196010E94C31C9B0155
:10151000AC0160E074E284E79BE40E946B1B20E076
:1015200030E040E85FE30E94F91A0E94DD1B61157C
:10153000F0EC7F07FFEF8F07FFE39F07A8F56C83B1
:101540007D838E839F83688779878A879B871B83A8
:101550000A83F894C88AD98AEA8AFB8A9D8A8C8A87
:101560001F8A1E8A18828981823009F08BC080917F
:10157000B100887F9A81892B8093B100CE010E94AF
:101580006709789481E0DF91CF911F910F91FF90CF
:10159000EF90DF90CF90BF90AF909F908F907F9013
:1015A0006F905F904F9008950F5F1F4F06301105A9
:1015B00009F0A1CF6C837D838E839F8368877987B1
:1015C0008A879B8785E090E09B838A83C2CF0E94B5
:1015D000BE1C01E010E01816D4F020E030E040E03E
:1015E00051E4C301B2010E94BE1C02E010E01816D3
:1015F00074F020E030E040E050E4C301B2010E940A
:10160000BE1C04E010E0181614F403E010E0C8015A
:10161000880F991F9C01275B3D4F5901F50161918E
:1016200071915F0190E080E00E940C1CA70196017F
:101630000E94C31C9B01AC0160E074E284E79BE460
:101640000E946B1B20E030E040E85FE30E94F91A43
:101650000E94DD1B6115F0EC7F07FFE38F0791050A
:1016600008F46DCF0F5F1F4F08301105B9F66C837A
:101670007D838E839F83688779878A879B8787E0AE
:1016800090E0A2CF813041F480918100887F9A81DF
:10169000892B8093810072CF833041F48091910037
:1016A000887F9A81892B8093910068CF843041F4A0
:1016B0008091A100887F9A81892B8093A1005ECFC1
:1016C000853009F05BCF80912101887F9A81892B39
:1016D0008093210153CF80E056CFCF93DF93EC016D
:1016E000F8948C819D81AE81BF8188879987AA8774
:1016F000BB87CE010E94670918827894DF91CF9151
:101700000895CF93DF93EC01F8942981888599851A
:10171000AA85BB852230A9F18F3F9F4FA105B10556
:1017200018F4CE010E94670988859985AA85BB8532
:10173000AC01BD01009721E0A207B10520F04FEFF9
:101740005FEF60E070E0841B950BA60BB70B8887FA
:101750009987AA87BB8788859985AA85BB85892BA8
:101760008A2B8B2B39F58C819D81AE81BF81888737
:101770009987AA87BB8781E088837894DF91CF918E
:1017800008958F3F9105A105B10518F4CE010E947F
:10179000670988859985AA85BB85AC01BD018F3F06
:1017A0009105A105B10579F270F24FEF50E060E0CC
:1017B00070E0C9CF1882E1CFFC0101900020E9F769
:1017C0003197AF01481B590BBC0182E397E00C94A1
:1017D00061048F929F92AF92BF920F931F93CF930A
:1017E000DF93CDB7DEB7A1970FB6F894DEBF0FBE7B
:1017F000CDBF19A2423008F44AE08E010F5D1F4FA1
:10180000842E912CB12CA12CA50194010E94BB1A0D
:10181000E62FB901CA01EA30F4F4E05DD801EE9395
:101820008D01232B242B252B79F790E080E0109756
:1018300019F0CD010E94DC0BA1960FB6F894DEBF23
:101840000FBECDBFDF91CF911F910F91BF90AF9091
:101850009F908F900895E95CE1CFCF93DF930E9432
:10186000DC0BEC0187E792E00E94DC0B8C0F9D1FE4
:10187000DF91CF9108950F931F93CF93DF938C0146
:10188000D0E0C0E0F801EC0FFD1F6491662341F049
:1018900082E397E00E94F704892B11F02196F2CFA2
:1018A00087E792E00E94DC0B8C0F9D1FDF91CF91A8
:1018B0001F910F9108950C94DC0B4F925F926F92E1
:1018C0007F928F929F92AF92BF92CF92DF92EF92D0
:1018D000FF921F93CF93DF936B017C01142FAC0118
:1018E0009B010E94301D882399F08AE792E0DF91E6
:1018F000CF911F91FF90EF90DF90CF90BF90AF906E
:101900009F908F907F906F905F904F900C94DC0B26
:1019100046015701E894B7F82FEF3FEF4FE75FE735
:10192000C501B4010E94301D81110DC02FEF3FEFA2
:101930004FE75FE7C501B4010E94661B18161CF44F
:101940008EE792E0D4CF2FEF3FEF4FE75FE4C70180
:10195000B6010E94BE1C18161CF482E892E0C7CFA4
:101960002FEF3FEF4FE75FECC701B6010E94661B08
:1019700087FDF3CF20E030E0A901C701B6010E9446
:10198000661BD0E0C0E087FF0AC06DE282E397E00B
:101990000E94F704EC01F7FAF094F7F8F09420E0D5
:1019A00060E070E080E09FE3211740F420E030E049
:1019B00040E251E40E946B1B21E0F6CFA7019601A3
:1019C0000E94FA1A2B013C010E94DD1B4B015C01B5
:1019D0004AE00E94E90BC80FD91F112309F16EE2FA
:1019E00082E397E00E94F7046C01C501B4010E94F4
:1019F0000C1C9B01AC01C301B2010E94F91A20E04A
:101A000030E040E251E40E94C31C0E94DD1B90E0E4
:101A100080E04AE00E94E90B8C0D9D1DC80FD91F84
:101A2000CE01DF91CF911F91FF90EF90DF90CF908B
:101A3000BF90AF909F908F907F906F905F904F90EE
:101A40000895CF92DF92EF92FF92CF93DF936C01D4
:101A5000990FEE08FF08F7FE19C06DE282E397E0E8
:101A60000E94F704EC0166277727CB016C197D09EA
:101A70008E099F094AE00E94E90B8C0F9D1FDF91A0
:101A8000CF91FF90EF90DF90CF9008954AE0C7018B
:101A9000B601DF91CF91FF90EF90DF90CF900C9443
:101AA000E90B0F931F93CF93DF931F921F92CDB734
:101AB000DEB78C010E94911A8983C80101960E94A9
:101AC000911A8A8389819A810F900F90DF91CF912B
:101AD0001F910F910895CF92DF92EF92FF920F9393
:101AE0001F93CF93DF9300D01F92CDB7DEB76E0167
:101AF00025E0C20ED11C8E010F5F1F4F7C01E01A42
:101B0000F10AC016D10649F0C701800F911F0E944B
:101B1000911AF80181938F01F4CF69817A818B81C9
:101B20009C810F900F900F900F90DF91CF911F919C
:101B30000F91FF90EF90DF90CF900895FF920F9359
:101B40001F93CF93DF93EC01F62E08811981C80112
:101B50000E94911AF81621F06F2DC8010E94991A5F
:101B6000CE01DF91CF911F910F91FF900895FF92C9
:101B70000F931F93CF93DF931F921F92CDB7DEB7C2
:101B80008C01F72E9A838983CE0101960E949E0DC7
:101B90000F5F1F4F1A8309836F2DCE0101960E949C
:101BA0009E0D0F900F90DF91CF911F910F91FF909D
:101BB0000895CF92DF92EF92FF920F931F93CF93EE
:101BC000DF9300D000D0CDB7DEB76C014B835C83D0
:101BD0006D837E837E0183E0E80EF11C10E000E05F
:101BE000F70161917F01C8018C0D9D1D9A83898346
:101BF000CE0101960E949E0D0F5F1F4F043011050C
:101C000079F726960FB6F894DEBF0FBECDBFDF91F1
:101C1000CF911F910F91FF90EF90DF90CF9008959B
:101C20001F920F920FB60F9211242F933F938F9311
:101C30009F93AF93BF9380912A0790912B07A09118
:101C40002C07B0912D073091290723E0230F2D3762
:101C500058F50196A11DB11D2093290780932A07ED
:101C600090932B07A0932C07B0932D0780912E07FC
:101C700090912F07A0913007B09131070196A11DD7
:101C8000B11D80932E0790932F07A0933007B09338
:101C90003107BF91AF919F918F913F912F910F90FD
:101CA0000FBE0F901F90189526E8230F0296A11DD6
:101CB000B11DD2CF1F920F920FB60F9211240BB607
:101CC0000F922F933F934F935F936F937F938F93D5
:101CD0009F93AF93BF93EF93FF9382E397E00E94AC
:101CE000D504FF91EF91BF91AF919F918F917F911B
:101CF0006F915F914F913F912F910F900BBE0F907D
:101D00000FBE0F901F9018951F920F920FB60F9253
:101D100011240BB60F922F938F939F93EF93FF9302
:101D2000E0914207F09143078081E0914807F091EC
:101D3000490782FD1DC0908180914B078F5F8F7393
:101D400020914C07821741F0E0914B07F0E0EE5CE8
:101D5000F84F958F80934B07FF91EF919F918F9153
:101D60002F910F900BBE0F900FBE0F901F901895E4
:101D70008081F2CF1F920F920FB60F9211240BB6F3
:101D80000F92CF92DF92EF92FF922F933F934F9358
:101D90005F936F937F938F939F93AF93BF93EF93D3
:101DA000FF93C0902008D0902108E0902208F09086
:101DB0002308809115088530D1F5C114D104E104C0
:101DC000F10409F452C080911408882309F448C032
:101DD000E0912808F0912908309739F080912A087D
:101DE00090912B080097D1F1199580911808909146
:101DF0001908A0911A08B0911B080097A140B105DD
:101E000024F084E198E00E946D0B1C141D041E0454
:101E10001F046CF481E0C81AD108E108F108C092EF
:101E20002008D0922108E0922208F0922308FF9126
:101E3000EF91BF91AF919F918F917F916F915F9142
:101E40004F913F912F91FF90EF90DF90CF900F90A7
:101E50000BBE0F900FBE0F901F9018951995C5CF10
:101E600084E198E00E94810BE2CF84E198E00E9437
:101E7000DE08DDCF1F920F920FB60F9211240BB622
:101E80000F92CF92DF92EF92FF922F933F934F9357
:101E90005F936F937F938F939F93AF93BF93EF93D2
:101EA000FF93C0903808D0903908E0903A08F0903D
:101EB0003B0880912D088330D1F5C114D104E10491
:101EC000F10409F452C080912C08882309F448C019
:101ED000E0914008F0914108309739F08091420834
:101EE000909143080097D1F1199580913008909115
:101EF0003108A0913208B09133080097A140B10594
:101F000024F08CE298E00E946D0B1C141D041E044A
:101F10001F046CF481E0C81AD108E108F108C092EE
:101F20003808D0923908E0923A08F0923B08FF91C5
:101F3000EF91BF91AF919F918F917F916F915F9141
:101F40004F913F912F91FF90EF90DF90CF900F90A6
:101F50000BBE0F900FBE0F901F9018951995C5CF0F
:101F60008CE298E00E94810BE2CF8CE298E00E9424
:101F7000DE08DDCF1F920F920FB60F9211240BB621
:101F80000F92CF92DF92EF92FF922F933F934F9356
:101F90005F936F937F938F939F93AF93BF93EF93D1
:101FA000FF93C0905008D0905108E0905208F090F4
:101FB0005308809145088230E1F5C114D104E10451
:101FC000F10409F454C080914408882309F44AC0FC
:101FD000E0915808F0915908309739F080915A08EB
:101FE00090915B080097E1F11995809148089091D4
:101FF0004908A0914A08B0914B088F3F9105A1056F
:10200000B10529F024F084E498E00E946D0B1C14C3
:102010001D041E041F046CF481E0C81AD108E108F5
:10202000F108C0925008D0925108E0925208F09204
:102030005308FF91EF91BF91AF919F918F917F9145
:102040006F915F914F913F912F91FF90EF90DF90B3
:10205000CF900F900BBE0F900FBE0F901F90189552
:102060001995C3CF84E498E00E94810BE2CF84E409
:1020700098E00E94DE08DDCFCF93DF93E2E3F7E044
:102080001382128288EE93E0A0E0B0E0848395830F
:10209000A683B78389E692E09183808385EC90E004
:1020A0009587848784EC90E09787868780EC90E022
:1020B000918B808B81EC90E0938B828B82EC90E013
:1020C000958B848B86EC90E0978B868B118E128E8D
:1020D000138E148EE4E4F8E082E08183108A118A82
:1020E000128A138A158A148A178A168A108221E0A6
:1020F00030E0338322831482158216821782108681
:102100001186128613868FEF9FEFDC0184879587F7
:10211000A687B787ECE2F8E043E04183108A118A92
:10212000128A138A158A148A178A168A10823383B0
:1021300022831482158216821782108611861286D7
:10214000138684879587A687B787E4E1F8E045E0A2
:102150004183108A118A128A138A158A148A178A6F
:10216000168A108233832283148215821682178284
:10217000108611861286138684879587A687B7876F
:10218000C0E0D8E081E28A8B61E00E94E20261E077
:102190008A890E9410038FEC97E0998B888BEFEE71
:1021A000F7E029E12083148282E390E0948783871B
:1021B000E2EEF7E02083148294878387E5EDF7E071
:1021C0002083148294878387E0EDF7E011821282E6
:1021D00088EE93E094838383DF91CF910895CF932A
:1021E000DF93CDB7DEB72D970FB6F894DEBF0FBEE5
:1021F000CDBF789484B5826084BD84B5816084BD90
:1022000085B5826085BD85B5816085BD80916E0094
:10221000816080936E0010928100809181008260C5
:102220008093810080918100816080938100809102
:1022300080008160809380008091B10084608093F1
:10224000B1008091B00081608093B00080919100D6
:1022500082608093910080919100816080939100D1
:10226000809190008160809390008091A1008260B5
:102270008093A1008091A10081608093A100809152
:10228000A00081608093A0008091210182608093F2
:1022900021018091210181608093210180912001A1
:1022A00081608093200180917A00846080937A001D
:1022B00080917A00826080937A0080917A008160B8
:1022C00080937A0080917A00806880937A001092DF
:1022D000C10061E08DE00E94100361E087E20E948E
:1022E000100361E089E20E94100361E080E20E9435
:1022F000100361E082E20E94100361E084E20E9428
:10230000100361E086E20E94100361E088E20E940F
:10231000100361E08AE20E94100361E087E20E94FC
:10232000E20261E089E20E94E20261E080E20E9452
:10233000E20261E082E20E94E20261E084E20E9445
:10234000E20261E086E20E94E20261E088E20E942D
:10235000E20261E08AE20E94E20260E083E00E9421
:10236000100361E08CE20E94100361E08EE20E94A3
:10237000100361E088E00E94100361E086E00E94A3
:10238000100361E085E20E94100361E080E10E9499
:10239000100361E080E10E94100361E081E10E948E
:1023A000100361E080E10E94E20261E081E10E94AD
:1023B000E202E0914207F091430782E08083E091DE
:1023C0003E07F0913F071082E0914007F0914107EE
:1023D00080E1808310924A07E0914607F091470719
:1023E00086E08083E0914407F09145078081806119
:1023F0008083E0914407F091450780818860808365
:10240000E0914407F0914507808180688083E091E6
:102410004407F091450780818F7D80836091450856
:1024200084E498E00E940C0960912D088CE298E009
:102430000E940C096091150884E198E00E940C0943
:102440001FB7F8948091E006811127C0EDEAF2E011
:102450008491E3EFF2E09491E82FF0E0EE0FFF1F9C
:10246000E65DFD4FA591B491EC91E92321F461E083
:1024700085E30E94E20261E085E30E9410038CB5CF
:1024800080618CBD8CB580648CBD61E084E30E946A
:10249000100361E083E30E9410038091E0068F5FE8
:1024A0008093E0061FBF80E591E00E944F0260E04C
:1024B000809112080E94E20280EC0E94960561E081
:1024C000809112080E94E2020E9418044B015C01F4
:1024D00085E0C82ED12CE12CF12C0E94180468193B
:1024E00079098A099B09683E734081059105A8F323
:1024F00021E0C21AD108E108F10848EE840E43E059
:10250000941EA11CB11CC114D104E104F10429F7EB
:1025100080E48093130880E80E94B306882309F4BE
:102520008BC183E092E00E943B0C8DEB96E00E9411
:102530002D0C1092130880E00E94B30604E610E010
:102540000E94E906837069F0AE014F5F5F4FBE01E4
:10255000635F7F4FCE0109960E9406070150110963
:1025600079F787E992E00E942D0C90E080E00E94CC
:102570006B0D609318027093190280931A02909366
:102580001B0288E090E00E94510D90931D02809301
:102590001C028CE090E00E94911A8093170284E064
:1025A00090E00E946B0D6093100270931102809373
:1025B0001202909313028AE090E00E94510D9093D2
:1025C0001502809314028DE090E00E94911A80938E
:1025D0000F028EE090E00E946B0D609308027093F2
:1025E000090280930A0290930B0282E190E00E941C
:1025F000510D90930D0280930C0284E190E00E94B3
:10260000911A8093070281E08093D00784E690E0DE
:102610009093D4078093D3070E943D046093FA06F9
:102620007093FB068093FC069093FD0689EA92E086
:102630000E942D0C61E08AE20E94E202B6E22B2E9B
:10264000B2E03B2E1DE0812E912C0CE0A02EB12C8F
:102650008091250790912607A0912707B091280720
:102660000196A11DB11D8093250790932607A09385
:102670002707B09328070E943D040091210710917D
:1026800022072091230730912407601B710B820BD6
:10269000930B693E734081059105E0F08DE00E9447
:1026A000B90261E0892B09F060E08DE00E94E2024E
:1026B00010922507109226071092270710922807DC
:1026C0000E943D04609321077093220780932307A3
:1026D0009093240783E00E94B902892B09F016C564
:1026E0004EE252E060E277E08CEF97E00E9406074E
:1026F00081110CC54090FC075090FD076090FE07CB
:102700007090FF072FE1722241E0441644E0540626
:102710006104710409F0FEC080ED92E00E942D0C6E
:1027200026E232E048E061E074E080E090E00E9460
:10273000E207F0E14F16F5E05F066104710409F06D
:1027400047C38FEE97E00E94D90182EE97E00E9486
:10275000D9014090E1065090E2066090E306709047
:10276000E4066091F4077091F507072E000C880BC2
:10277000990B0E940E1C2DEC3CEC4CEC5DE30E948E
:10278000C31C6B017C0126E636E646E65FE3C30127
:10279000B2010E94C31C9B01AC01C701B6010E949B
:1027A000FA1A6093E1067093E2068093E306909331
:1027B000E4066093060770930707809308079093D9
:1027C00009074090E5065090E6066090E706709095
:1027D000E8066091E9077091EA07072E000C880B64
:1027E000990B0E940E1C2DEC3CEC4CEC5DE30E941E
:1027F000C31C6B017C0126E636E646E65FE3C301B7
:10280000B2010E94C31C9B01AC01C701B6010E942A
:10281000FA1A6093E5067093E6068093E7069093B4
:10282000E806609302077093030780930407909370
:1028300005070E943D046AC48BED91E00E943B0CA9
:1028400060E08AE20E94770761ED89E20E947707E3
:1028500061E888E20E9477078EEB91E00E943B0CD2
:1028600061E080E20E94C60761E084E20E94C60740
:1028700061E080E00E94C60760E084E00E94C60735
:1028800061E088E00E94C60760E080E10E94C60720
:1028900061E084E10E94C60760E088E10E94C6070B
:1028A00010E360E0812F0E94770760E080E1810FF4
:1028B0000E94770760E080E2810F0E9477071F5F28
:1028C0001E3379F760E080E60E94770760E080E7DA
:1028D0000E94770763E08BE20E9477076CE38CE04D
:1028E0000E94770760E08DE00E94770744E664E687
:1028F00080E60E949D0540E660E680E70E949D0517
:10290000809113080E94B306882309F402C688E95F
:1029100091E009CE82E0481684E058066104710413
:1029200009F078C183EE92E00E942D0C80912E0276
:10293000282F237030E0309317072093160790E07C
:102940009C0135952795359527952370332730932E
:102950001507209314079C0154E0359527955A9547
:10296000E1F723703327309313072093120766E0B3
:10297000959587956A95E1F79093110780931007D5
:1029800080912F02282F237030E030931F0720936F
:102990001E0790E09C013595279535952795237066
:1029A000332730931D0720931C079C01E4E03595E5
:1029B0002795EA95E1F72370332730931B0720937F
:1029C0001A07F6E095958795FA95E1F79093190720
:1029D0008093180787EF92E00E942D0C80E193E02E
:1029E0000E945B0CA0E1EA2EA7E0FA2E670110E03E
:1029F00000E0F601819191916F010E94210D073055
:102A0000110521F083E193E00E945B0C0F5F1F4FE3
:102A10000830110571F709E312E0F70181919191F6
:102A20007F01009709F0C3C0F801D080C18060E049
:102A30008D2D0E94E20286E193E00E945B0C8D2DB9
:102A40009C2D0E94210D8BE193E00E942D0C0E5FC6
:102A50001F4FF0E2EF16F7E0FF06F9F68091300223
:102A6000282F30E02B3F31050CF0B6C02FEF829FAE
:102A7000C00111246AEF70E00E94A71A9B018091A7
:102A80003102482F50E04B3F51050CF0AEC04FEFE4
:102A9000849FC00111246AEF70E00E94A71A7B0195
:102AA00080913202482F50E04B3F51050CF0A9C0F5
:102AB000EFEF8E9FC00111246AEF70E00E94A71A09
:102AC0008B0137FD08C030930F0720930E07B90123
:102AD0008CE20E944103F7FC08C0F0920D07E092DF
:102AE0000C07B7018EE20E94410317FD04C010934A
:102AF0000B0700930A0720910A0730910C074091B9
:102B00000E07809110079091110756E0880F991FCA
:102B10005A95E1F76091120770911307E4E0660F90
:102B2000771FEA95E1F7862B90911607892B609124
:102B3000140770911507660F771F660F771F862B96
:102B400080931E028091180790911907A6E0880FC4
:102B5000991FAA95E1F760911A0770911B07B4E0DD
:102B6000660F771FBA95E1F7862B90911E07892B88
:102B700060911C0770911D07660F771F660F771F06
:102B8000862B80931F0240932002309321022093D2
:102B900022021092230210922402109225022EE1AA
:102BA00032E048E062E274E080E090E0C0CD01975E
:102BB00009F04DCFF801D080C18061E08D2D0E94D9
:102BC000E20286E193E00E945B0C8D2D9C2D0E9419
:102BD000210D84E293E039CF2F3F310519F42EEF18
:102BE0003FEF4DCF2FEF3FEF4ACF8EEFE82EFF2480
:102BF000FA944F3F510509F453CFEE24EA94FE2C8A
:102C00004FCF0EEF1FEF4F3F510509F45ACF0FEF93
:102C10001FEF57CFF3E04F16F4E05F066104710435
:102C200009F01BC180912007882309F47DC080E34F
:102C300093E00E942D0C00912F0203700093170265
:102C40006091300270E090E080E00E940C1C6B010B
:102C50007C01C0921802D0921902E0921A02F092FE
:102C60001B028091310290E090931D0280931C0220
:102C700011E01093160280913302837080930F024B
:102C80006091340270E090E080E00E940C1C609340
:102C9000100270931102809312029093130280919C
:102CA000350290E0909315028093140210930E0267
:102CB0000230B1F0B701A60190E080E00E94D90D8A
:102CC00060911C0270911D0288E090E00E94B70D97
:102CD00060911702BA82A982CE0101960E949E0DD0
:102CE00080910F028230E1F0409110025091110268
:102CF000609112027091130284E090E00E94D90D5D
:102D000060911402709115028AE090E00E94B70D64
:102D100060910F029A828982CE0101960E949E0DD7
:102D200080E593E00E942D0C12E110931E02809129
:102D300017028370806380931F0260911802709164
:102D4000190280911A0290911B020E94DD1B609370
:102D5000200280911C028093210210932202809114
:102D60000F02837080638093230260911002709140
:102D7000110280911202909113020E94DD1B609358
:102D80002402809114028093250289E793E00E9437
:102D90005B0C0EE112E0F80161918F0170E090E0B0
:102DA00080E040E10E94E90B8DE994E00E945B0C19
:102DB0002016310681F787E792E00E94DC0B2EE1B6
:102DC00032E048E063E274E080E090E00E94E207D5
:102DD00020E2421625E052066104710409F0A3C006
:102DE00085ED97E00E94D9014090E9065090EA06EF
:102DF0006090EB067090EC066091DA077091DB074B
:102E0000072E000C880B990B0E940E1C2DEC3CEC3D
:102E10004CEC5DE30E94C31C6B017C0126E636E6A8
:102E200046E65FE3C301B2010E94C31C9B01AC01F3
:102E3000C701B6010E94FA1A6093E9067093EA0688
:102E40008093EB069093EC066093FE067093FF066A
:102E50008093000790930107ECCCF4E04F165F06D7
:102E60006104710409F0E9C080912007882309F406
:102E7000E1C08DE893E00E942D0C20912E0230914C
:102E80002F023227232732272A30310510F424E677
:102E900030E0409130028091310282FB882780F936
:102EA0003093D4072093D30791E0411101C090E003
:102EB0009093D2078093D0078DEA93E00E945B0C39
:102EC0008091D007882309F4B2C089E892E00E947B
:102ED0002D0C8091D3079091D40790931E0280937C
:102EE0001F028091D207809320028091D00724E0B6
:102EF000829FC001112484708093210210922202CB
:102F00001092230210922402109225022EE132E048
:102F100048E064E274E080E090E00E94E2078CEE1A
:102F200093E00E942D0C46E0441644E054066104F0
:102F3000710409F0EBC0809120078823C9F183E375
:102F400095E00E942D0C10912F0213701093070230
:102F50006091300270E090E080E00E940C1CAB01B8
:102F6000BC01409308025093090260930A027093D7
:102F70000B028091310290E090930D0280930C023D
:102F80001230B1F08EE090E00E94D90D60910C02F9
:102F900070910D0282E190E00E94B70D60910702EE
:102FA00084E190E09A838983CE0101960E949E0D70
:102FB00082E180931E028091070283708063809378
:102FC0001F02609108027091090280910A0290919B
:102FD0000B020E94DD1B6093200280910C02809303
:102FE00021028CE495E00E945B0C0EE112E0F801F6
:102FF00061918F0170E090E080E040E10E94E90B78
:103000008DE994E00E945B0C82E292E080179107C8
:1030100071F787E792E00E94DC0B2EE132E048E096
:1030200066E274E080E090E00E94E2076FC086E80C
:1030300092E04DCF8EEC93E04ACF45E0441644E059
:1030400054066104710409F074CB80912007882331
:1030500009F412C286E094E00E942D0C8AE294E00A
:103060000E945B0C8091D107813009F0FCC18FE395
:1030700094E00E942D0CE0902E020E2D10E086E0D0
:10308000159507958A95E1F78DE594E00E945B0C14
:103090006E2D70E090E080E040E10E94E90B84E753
:1030A00094E00E945B0CB801110F880B990B4AE069
:1030B0000E94E90B8DEB94E00E942D0C81E08017BB
:1030C00008F4D7C10093D1078AE894E00E945B0C12
:1030D0008091D107813009F0C9C18FE994E00E9445
:1030E0002D0C8091D107E0E48E9FC00111248983CB
:1030F0009E012F5F3F4F48E065E274E080E090E082
:103100000E94E20789E195E00E942D0C0E943D0497
:103110000091FA061091FB062091FC063091FD0605
:10312000AB01BC01401B510B620B730B8091D307A9
:103130009091D407B0E0A0E0481759076A077B07D1
:1031400008F44AC01091D107111105C08091D00731
:10315000882309F441C00E943D046093FA067093ED
:10316000FB068093FC069093FD06113011F410923B
:10317000D10730E020E040E060E175E080E090E4DD
:103180000E94E2070BE811E0C8010197F1F730E077
:1031900020E040E060E275E080E090E40E94E20719
:1031A000C8010197F1F730E020E040E060E375E00E
:1031B00080E090E40E94E207C8010197F1F71092C5
:1031C000F8061092F90628EF36E048E066E274E06F
:1031D00080E090E00E94E2071091F706009117024C
:1031E000013009F067C1209106073091070740912F
:1031F0000807509109076091180270911902809197
:103200001A0290911B020E94661B18160CF442C110
:10321000111120C080E695E00E942D0C61E087E24C
:103220000E94E20240911C0250911D0270E060E099
:103230002FE534E084E198E00E941C0A0E943D04DE
:103240006093F3067093F4068093F5069093F60668
:103250000093F7061091F20600910F02013009F079
:103260003EC120910207309103074091040750911D
:1032700005076091100270911102809112029091E5
:1032800013020E94661B18160CF419C1111116C006
:1032900082EB95E00E942D0C61E089E20E94E2023F
:1032A000409114025091150270E060E029E434E08E
:1032B0008CE298E00E941C0A0093F2061091F1063D
:1032C00000910702013009F01FC12091FE063091E4
:1032D000FF0640910007509101076091080270912C
:1032E000090280910A0290910B020E94661B181637
:1032F0000CF4FAC0111116C084E096E00E942D0C67
:1033000061E089E20E94E20240910C0250910D02BC
:1033100070E060E024E534E084E498E00E941C0A58
:103320000093F10670E060E085E20E94410370E0E6
:1033300060E080E10E94410370E060E088E00E946C
:10334000410370E060E086E00E9441030E943D047A
:103350000091ED061091EE062091EF063091F006F7
:10336000601B710B820B930B643F714081059105CB
:1033700008F46EC00E943D046093ED067093EE0663
:103380008093EF069093F00686E596E00E945B0C32
:1033900060910607709107078091080790910907CF
:1033A00041E050E00E945D0C84E696E00E945B0CD8
:1033B000609118027091190280911A0290911B027B
:1033C00050E040E00E945D0C8CE696E00E945B0CB1
:1033D000609102077091030780910407909105079F
:1033E00041E050E00E945D0C84E696E00E945B0C98
:1033F000609110027091110280911202909113025B
:1034000050E040E00E945D0C85E796E00E945B0C76
:103410006091FE067091FF06809100079091010770
:1034200041E050E00E945D0C84E696E00E945B0C57
:10343000609108027091090280910A0290910B023A
:1034400050E040E00E945D0C8EE796E00E945B0C2D
:103450001092FC071092FD071092FE071092FF07D2
:103460000E946405F5C88CE494E003CE8EEA94E0F3
:1034700036CE8FEB94E033CE8BEE94E00E945B0C63
:103480008091D107882319F080E992E028CE83E962
:1034900092E025CE112309F4DDCE80E995E00E946B
:1034A0002D0C60E087E20E94E20284E198E00E9435
:1034B000DE0802C01111F9CF1092F706CBCE11230E
:1034C00009F4FCCE82EE95E00E942D0C60E089E2CA
:1034D0000E94E2028CE298E00E94DE0802C0111114
:1034E000F9CF1092F206EACE112309F41BCF84E340
:1034F00096E00E942D0C60E089E20E94E20284E4E2
:1035000098E00E94DE0802C01111F9CF1092F10676
:1035100009CF81E896E00E942D0C83EA96E00C9496
:103520009712F999FECF92BD81BDF89A992780B57F
:103530000895262FF999FECF1FBA92BD81BD20BDF7
:103540000FB6F894FA9AF99A0FBE0196089597FB70
:10355000072E16F4009407D077FD09D00E94E51AD3
:1035600007FC05D03EF4909581959F4F0895709586
:1035700061957F4F0895A1E21A2EAA1BBB1BFD0186
:103580000DC0AA1FBB1FEE1FFF1FA217B307E40742
:10359000F50720F0A21BB30BE40BF50B661F771F9A
:1035A000881F991F1A9469F760957095809590957A
:1035B0009B01AC01BD01CF010895EE0FFF1F881FD5
:1035C0008BBF0790F691E02D1994AA1BBB1B51E10C
:1035D00007C0AA1FBB1FA617B70710F0A61BB70B83
:1035E000881F991F5A95A9F780959095BC01CD0128
:1035F00008955058BB27AA270E94111B0C94841CC5
:103600000E94761C38F00E947D1C20F039F49F3F08
:1036100019F426F40C94731C0EF4E095E7FB0C945B
:103620006D1CE92F0E94951C58F3BA1762077307A7
:103630008407950720F079F4A6F50C94B71C0EF4D6
:10364000E0950B2EBA2FA02D0B01B90190010C01B2
:10365000CA01A0011124FF27591B99F0593F50F4CA
:10366000503E68F11A16F040A22F232F342F442722
:10367000585FF3CF469537952795A795F04053951A
:10368000C9F77EF41F16BA0B620B730B840BBAF0EA
:103690009150A1F0FF0FBB1F661F771F881FC2F755
:1036A0000EC0BA0F621F731F841F48F48795779569
:1036B0006795B795F7959E3F08F0B0CF9395880F23
:1036C00008F09927EE0F9795879508950E94491C59
:1036D00008F481E008950E947F1B0C94841C0E94D2
:1036E0007D1C58F00E94761C40F029F45F3F29F0C1
:1036F0000C946D1C51110C94B81C0C94731C0E94FA
:10370000951C68F39923B1F3552391F3951B550B41
:10371000BB27AA2762177307840738F09F5F5F4FA4
:10372000220F331F441FAA1FA9F335D00E2E3AF0E3
:10373000E0E832D091505040E695001CCAF72BD0FB
:10374000FE2F29D0660F771F881FBB1F261737074C
:103750004807AB07B0E809F0BB0B802DBF01FF277E
:1037600093585F4F3AF09E3F510578F00C946D1CD2
:103770000C94B81C5F3FE4F3983ED4F3869577959C
:103780006795B795F7959F5FC9F7880F911D969537
:10379000879597F90895E1E0660F771F881FBB1F93
:1037A000621773078407BA0720F0621B730B840B40
:1037B000BA0BEE1F88F7E09508950E949D1C88F0D3
:1037C0009F5798F0B92F9927B751B0F0E1F0660FE5
:1037D000771F881F991F1AF0BA95C9F714C0B13026
:1037E00091F00E94B71CB1E008950C94B71C672FAC
:1037F000782F8827B85F39F0B93FCCF38695779555
:103800006795B395D9F73EF490958095709561953D
:103810007F4F8F4F9F4F0895E89409C097FB3EF468
:1038200090958095709561957F4F8F4F9F4F99230D
:10383000A9F0F92F96E9BB279395F695879577958B
:103840006795B795F111F8CFFAF4BB0F11F460FF4B
:103850001BC06F5F7F4F8F4F9F4F16C0882311F0A3
:1038600096E911C0772321F09EE8872F762F05C0B7
:10387000662371F096E8862F70E060E02AF09A9552
:10388000660F771F881FDAF7880F9695879597F947
:103890000895990F0008550FAA0BE0E8FEEF1616E1
:1038A0001706E807F907C0F012161306E407F50734
:1038B00098F0621B730B840B950B39F40A2661F0A8
:1038C000232B242B252B21F408950A2609F4A1404B
:1038D000A6958FEF811D811D089597F99F6780E858
:1038E00070E060E008959FEF80EC089500240A9452
:1038F0001616170618060906089500240A941216CB
:103900001306140605060895092E0394000C11F4FD
:10391000882352F0BB0F40F4BF2B11F460FF04C0AA
:103920006F5F7F4F8F4F9F4F089557FD9058440F03
:10393000551F59F05F3F71F04795880F97FB991F0E
:1039400061F09F3F79F087950895121613061406CB
:10395000551FF2CF4695F1DF08C016161706180658
:10396000991FF1CF86957105610508940895E89433
:10397000BB2766277727CB0197F908950E94491C3A
:1039800008F48FEF08950E94D61C0C94841C0E94AA
:10399000761C38F00E947D1C20F0952311F00C94C9
:1039A0006D1C0C94731C11240C94B81C0E94951C63
:1039B00070F3959FC1F3950F50E0551F629FF00182
:1039C000729FBB27F00DB11D639FAA27F00DB11D9B
:1039D000AA1F649F6627B00DA11D661F829F222724
:1039E000B00DA11D621F739FB00DA11D621F839FAB
:1039F000A00D611D221F749F3327A00D611D231F81
:103A0000849F600D211D822F762F6A2F11249F57CE
:103A100050409AF0F1F088234AF0EE0FFF1FBB1FD1
:103A2000661F771F881F91505040A9F79E3F510590
:103A300080F00C946D1C0C94B81C5F3FE4F3983E2E
:103A4000D4F3869577956795B795F795E7959F5F3A
:103A5000C1F7FE2B880F911D9695879597F90895CC
:0E3A60000E94491C880B990B0895F894FFCF23
:103A6E00780078007800000000002042E803000093
:103A7E0000002042E803000000002042E80320007E
:103A8E00000000000000555555FFFFFFFFFF20000E
:103A9E0000000000000030405027002900200022C6
:103AAE00002400260028002A000100010008002042
:103ABE0000400080000001000401000100080040E9
:103ACE00000001000400000000F70461048E0444AD
:103ADE0005BF049D04B1040D0A006E616E00696E8F
:103AEE0066006F7666004445534C494741444F008B
:103AFE004F4E004F46460042756666657220434142
:103B0E004E206C696D706F21004D4F444F20434F16
:103B1E004E54494E554F20494E49434941444F203A
:103B2E004155544F4D41544943414D454E54450026
:103B3E00636D643A203078343031202844656275E4
:103B4E00672900636D643A20307834303220285370
:103B5E006169646173290045737461646F732064D5
:103B6E006F20726573756C7420616E7465733A00A4
:103B7E005B20002C20004C65642000204174697687
:103B8E0061646F00204465736174697661646F00CF
:103B9E000A2D2D2D20434F4D414E444F2030783469
:103BAE00303320524543454249444F202D2D2D00A0
:103BBE00202D3E20436F6E666967757261636F6577
:103BCE00732073616C766173206E612052414D20BB
:103BDE006520454550524F4D00203E205458202818
:103BEE00307834323329204845583A20000A2D2D9A
:103BFE002D20434F4D414E444F20307834303420E9
:103C0E00524543454249444F202D2D2D00203E2044
:103C1E004D6F646F20436F6E74696E756F20616CAB
:103C2E0074657261646F20706172613A2000636D19
:103C3E00643A20307834303420284C657220537426
:103C4E0061747573202D205254522900203E20524B
:103C5E006573706F73746120307834323420656E02
:103C6E007669616461000A2D2D2D20434F4D414E22
:103C7E00444F203078343035202853544152542F3D
:103C8E0053544F5029202D2D2D00203E2045737466
:103C9E0061646F20414E544552494F523A20004CB8
:103CAE00494741444F202852756E29004445534CD4
:103CBE00494741444F202853746F702900203E20FD
:103CCE004279746520526563656269646F3A20209B
:103CDE00203078002028496E7465727072657461A8
:103CEE00646F20636F6D6F3A2000203E2045737421
:103CFE0061646F204E4F564F3A2020202020004CFA
:103D0E00494741444F2028535441525429004445B9
:103D1E00534C494741444F202853544F50290020BB
:103D2E003E204552524F3A2056616C6F7220696E9A
:103D3E0076616C69646F20726563656269646F2079
:103D4E002849676E6F7261646F2900636D643A2053
:103D5E00307834303520284C657220537461747578
:103D6E0073202D2052545229202D3E20417475610E
:103D7E006C6D656E74653A2000203E20526573703E
:103D8E006F73746120307834323520656E766961D8
:103D9E00646100636D643A203078343036202849EF
:103DAE006E746572636F6F6C65722900203E2054CD
:103DBE00582028307834323629204845583A200089
:103DCE0021212120414C455254413A205431204C5E
:103DDE00494D495445204154494E4749444F20418D
:103DEE0063696F6E616E646F204431202121210062
:103DFE00494E464F3A205431204E6F726D616C69B8
:103E0E007A61646F204431204465736C6967616424
:103E1E006F0021212120414C455254413A20543209
:103E2E00204C494D495445204154494E4749444F31
:103E3E00204163696F6E616E646F204432202121D0
:103E4E002100494E464F3A205432204E6F726D611A
:103E5E006C697A61646F204432206465736C6967A3
:103E6E0061646F0021212120414C455254413A207A
:103E7E005433204C494D495445204154494E4749ED
:103E8E00444F204163696F6E616E646F204433202E
:103E9E0021212100494E464F3A205433204E6F7255
:103EAE006D616C697A61646F204433204465736C74
:103EBE00696761646F005B5354415455535D2054E0
:103ECE00313A20004320284D61783A0029207C2089
:103EDE0054323A200029207C2054333A2000290AFB
:103EEE00004D43503235313520496E697469616C2D
:103EFE00697A6564205375636365737366756C6C5C
:103F0E00792100544573746520736520657374615F
:103F1E002066756E63696F6E616E646F00457272B6
:103F2E006F7220496E697469616C697A696E672077
:0C3F3E004D4350323531352E2E2E000040
:00000001FF
