:100000000C9436020C9467020C9467020C946702FD
:100010000C9467020C9467020C9467020C946702BC
:100020000C9467020C9467020C9467020C946702AC
:100030000C9467020C9467020C9467020C9467029C
:100040000C9467020C9467020C9467020C9467028C
:100050000C9467020C9467020C9467020C94670C72
:100060000C9467020C94DB0C0C94B10C0C9467029A
:100070000C9467020C9467020C9467020C9467025C
:100080000C94A70D0C9467020C9467020C94670201
:100090000C9467020C9467020C9467020C9467023C
:1000A0000C9467020C9467020C9467020C9467022C
:1000B0000C9467020C9467020C9467020C94110D67
:1000C0000C9467020C9467020C9467020C9467020C
:1000D0000C9467020C9467020C9467020C946702FC
:1000E0000C9467020C949B040C948A020C94B40345
:1000F0000C94E2030C94CA020C94B3020C949F0279
:100100000C9490020C9405040C9404050C94C50204
:100110000C94AF020C94B7020C94EC030C942D04D5
:100120000C946E040C9423040C9498020C94F20B1F
:100130000C9494020C9463040C94FB030C94AA0397
:100140000C94C1020C94A9020C94CC040C94BE042F
:100150000C94A5020C94AA040C94C6030C94BE0340
:100160000C94CB020C949B030C94CE030C949C0235
:100170000C940F040C9493030C94CF020C94C90FAD
:100180000C9419040C94BD020C9451050C94A0031A
:100190000C94D80352657475726E696E6720746F23
:1001A0002050726576696F7573204D6F64652046C7
:1001B00061696C7572652E2E2E0053657474696EBC
:1001C000672042617564726174652053756363656D
:1001D000737366756C2100456E746572696E672075
:1001E000436F6E66696775726174696F6E204D6FDB
:1001F0006465205375636365737366756C21004590
:100200006E746572696E6720436F6E66696775729A
:100210006174696F6E204D6F6465204661696C750D
:1002200072652E2E2E0000002100240027002A00D7
:100230002D003000330001010000040107010A0114
:1002400000002200250028002B002E003100340081
:1002500002010000050108010B010000200023003D
:10026000260029002C002F003200000100000301AD
:100270000601090105050505070508080808020229
:1002800002020A0A08080404040401010101010130
:1002900001010303030303030303040707070C0C13
:1002A0000C0C0C0C0C0C02020202060606060606DA
:1002B00006060B0B0B0B0B0B0B0B0102102020087F
:1002C00008102040102040800201020108040201B1
:1002D0000102040810204080804020100804020120
:1002E0008004020180402010080402010804020179
:1002F0000102040810204080010204081020408000
:1003000000000A0B02090C0D0E080703040100008F
:1003100000000000000000000000000000000000DD
:10032000000000000000000000000000121110009A
:1003300000000000000000000000000000000000BD
:1003400000000000000053657474696E67204D6101
:10035000736B205375636365737366756C2100530B
:10036000657474696E67204D61736B204661696CBA
:100370007572652E2E2E00456E746572696E67204B
:1003800050726576696F7573204D6F6465204661A4
:10039000696C7572652E2E2E00456E746572696EDD
:1003A0006720436F6E66696775726174696F6E204E
:1003B0004D6F6465204661696C7572652E2E2E0046
:1003C0005374617274696E6720746F205365742072
:1003D0004D61736B210053657474696E67204669C3
:1003E0006C746572205375636365737366756C21F5
:1003F0000053657474696E672046696C7465722079
:100400004661696C7572652E2E2E00456E7465729C
:10041000696E672050726576696F7573204D6F64E1
:1004200065204661696C7572652E2E2E00456E74CE
:10043000657220436F6E66696775726174696F6E6D
:10044000204D6F6465204661696C7572652E2E2E95
:10045000005374617274696E6720746F2053657401
:100460002046696C746572210000C90F11241FBEFB
:10047000CFEFD1E2DEBFCDBF00E00CBF13E0A0E0C4
:10048000B2E0E0EFF7E300E00BBF02C007900D928F
:10049000AE3DB107D9F725E0AEEDB3E001C01D9246
:1004A000A932B207E1F712E0C6E3D2E000E006C0ED
:1004B00021970109802FFE010E949E19C533D107A3
:1004C00080E00807A9F70E945B100C94F61B0C94BF
:1004D00000008CBD9DBD08958150823108F05AC046
:1004E000E82FF0E08827E858FD4F8F4F0C949E19B5
:1004F00098029C028A0290029402CA029F02A502FC
:10050000A902AF02B302B702BD02C102CA02C5020C
:10051000CB02CF02809180008F7780938000089576
:10052000809180008F7DF9CF80918000877FF5CF0B
:1005300084B58F7784BD089584B58F7DFBCF80917E
:10054000B0008F778093B00008958091B0008F7DC8
:10055000F9CF809190008F778093900008958091DB
:1005600090008F7DF9CF80919000877FF5CF8091AB
:10057000A0008F778093A00008958091A0008F7DC8
:10058000F9CF8091A000877FF5CF809120018F77F0
:10059000809320010895809120018F7DF9CF809173
:1005A0002001877FF5CFCF93DF93282F30E0F9012B
:1005B000E050FD4F8491F901E654FD4FD491F901CB
:1005C000EC58FD4FC491CC23A1F081110E946C0224
:1005D000EC2FF0E0EE0FFF1FE65AFD4FA591B4910E
:1005E000EC91ED2381E090E009F480E0DF91CF9180
:1005F000089580E090E0FACF1F93CF93DF93282FE8
:1006000030E0F901E050FD4F8491F901E654FD4FCF
:10061000D491F901EC58FD4FC491CC23A9F0162FC9
:1006200081110E946C02EC2FF0E0EE0FFF1FE05CE6
:10063000FD4FA591B4918FB7F894EC91111108C0BA
:10064000D095DE23DC938FBFDF91CF911F9108956A
:10065000DE2BF8CFCF93DF9390E0FC01E654FD4F03
:1006600024918C589D4FFC0184918823D1F090E017
:10067000880F991FFC01EA5DFD4FA591B491FC0123
:10068000E05CFD4FC591D49161110EC09FB7F89405
:100690008C91E22FE0958E238C932881E223E883CE
:1006A0009FBFDF91CF9108958FB7F894EC91E22B23
:1006B000EC938FBFF6CF1F93CF93DF93182FEB01EF
:1006C00061E00E942A03209739F460E0812FDF91D6
:1006D000CF911F910C94FC02CF3FD10511F461E042
:1006E000F5CFE12FF0E0E050FD4FE491E150E23131
:1006F00008F0B3C0F0E08827EF57FC4F8F4F0C9401
:100700009E1993039B03A003AA03B4032D04BE0305
:10071000C603CE03D803E203EC03FB0305042D0458
:100720000F041904230484B5806884BDC7BDDF911C
:10073000CF911F91089584B5806284BDC8BDF7CF65
:1007400080918000806880938000D0938900C0935E
:100750008800EDCF80918000806280938000D093EC
:100760008B00C0938A00E3CF8091800088608093E3
:100770008000D0938D00C0938C00D9CF8091B000C1
:1007800080688093B000C093B300D1CF8091B00057
:1007900080628093B000C093B400C9CF8091900074
:1007A000806880939000D0939900C0939800BFCF49
:1007B00080919000806280939000D0939B00C093C2
:1007C0009A00B5CF80919000886080939000D0937C
:1007D0009D00C0939C00ABCF8091A0008068809367
:1007E000A0008091A0008F7B8093A000D093A900EF
:1007F000C093A8009CCF8091A00080628093A0004D
:10080000D093AB00C093AA0092CF8091A0008860E3
:100810008093A000D093AD00C093AC0088CF8091AE
:100820002001806880932001D0932901C093280182
:100830007ECF80912001806280932001D0932B0194
:10084000C0932A0174CF8091200188608093200199
:10085000D0932D01C0932C016ACFC038D1050CF084
:100860003ECF33CF3FB7F89480912C0490912D0464
:10087000A0912E04B0912F0426B5A89B05C02F3F50
:1008800019F00196A11DB11D3FBFBA2FA92F982FB6
:100890008827BC01CD01620F711D811D911D42E0B1
:1008A000660F771F881F991F4A95D1F708952FB7B4
:1008B000F894609128047091290480912A04909101
:1008C0002B042FBF08950E9457046093E203709396
:1008D000E3038093E4039093E5030895AF92BF92FE
:1008E000CF92DF92EF92FF920F931F93CF93DF93FC
:1008F0006C017B018B01040F151FEB015E01AE182B
:10090000BF08C017D10759F06991D601ED91FC914C
:100910000190F081E02DC6011995892B79F7C50169
:10092000DF91CF911F910F91FF90EF90DF90CF90CB
:10093000BF90AF900895FC01538D448D252F30E07A
:10094000842F90E0821B930B541710F0CF960895DC
:1009500001970895FC01918D828D981761F0A28D09
:10096000AE0FBF2FB11D5D968C91928D9F5F9F73CF
:10097000928F90E008958FEF9FEF0895FC01918D85
:10098000828D981731F0828DE80FF11D858D90E0F2
:1009900008958FEF9FEF0895FC01918D228D892F8F
:1009A00090E0805C9F4F821B91098F739927089577
:1009B00080E394E00E94CC0421E0892B09F420E03C
:1009C000822F0895FC01A48DA80FB92FB11DA35A41
:1009D000BF4F2C91848D90E001968F739927848F5F
:1009E000A689B7892C93A089B1898C918370806482
:1009F0008C93938D848D981306C00288F389E02D23
:100A000080818F7D80830895EF92FF920F931F93D3
:100A1000CF93DF93EC0181E0888F9B8D8C8D9813B1
:100A20001AC0E889F989808185FF15C09FB7F894BD
:100A3000EE89FF896083E889F98980818370806409
:100A400080839FBF81E090E0DF91CF911F910F9154
:100A5000FF90EF900895F62E0B8D10E00F5F1F4F63
:100A60000F731127E02E8C8D8E110CC00FB607FC72
:100A7000FACFE889F989808185FFF5CFCE010E9400
:100A8000E204F1CFEB8DEC0FFD2FF11DE35AFF4F88
:100A9000F0829FB7F8940B8FEA89FB89808180628E
:100AA000CFCFCF93DF93EC01888D8823B9F0AA894B
:100AB000BB89E889F9898C9185FD03C0808186FD19
:100AC0000DC00FB607FCF7CF8C9185FFF2CF808168
:100AD00085FFEDCFCE010E94E204E9CFDF91CF91F7
:100AE000089580E090E0892B29F00E94D8048111BC
:100AF0000E94000080E090E0892B49F080E090E0C7
:100B0000892B29F00E94000081110E94000080E0E2
:100B100090E0892B49F080E090E0892B29F00E9439
:100B2000000081110E94000080E090E0892B49F0D4
:100B300080E090E0892B29F00E94000081110C9444
:100B40000000089508958EBD00000DB407FEFDCF8E
:100B50008EB50895FF920F931F93CF93DF93F82ED6
:100B6000062F142F80E591E00E946902C5EED4E0C3
:100B700060E08A890E94FC0285E00E94A3058F2D17
:100B80000E94A305802F0E94A305812F0E94A30528
:100B900061E08A89DF91CF911F910F91FF900C94B2
:100BA000FC02FF920F931F93CF93DF93C82FF62E73
:100BB000172F042F80E591E00E94690260E0809188
:100BC000F7040E94FC0283E00E94A3058C2F0E9480
:100BD000A305CF2DD12F0C0F1D2F111DC017D1072D
:100BE00029F080E00E94A3058993F8CF61E080910D
:100BF000F704DF91CF911F910F91FF900C94FC02AD
:100C00001F93CF93DF93182F80E591E00E94690234
:100C1000C5EED4E060E08A890E94FC0283E00E9475
:100C2000A305812F0E94A30580E00E94A305182F31
:100C300061E08A890E94FC02812FDF91CF911F9190
:100C400008950F931F93CF93DF9300D01F92CDB7DA
:100C5000DEB7182F1092E5041092E6041092E70414
:100C60001092E8041092E90444E0BE016F5F7F4FE8
:100C70000E94D1052A81898138E0839FC001112417
:100C8000422F50E065E0559547956A95E1F7840F4E
:100C9000951F092E000CAA0BBB0B8093E6049093C2
:100CA000E704A093E804B093E90423FF29C032E0ED
:100CB000880F991FAA1FBB1F3A95D1F72370820F87
:100CC000911DA11DB11DBA2FA92F982F88272B8107
:100CD000820F911DA11DB11DBA2FA92F982F882712
:100CE0002C81820F911DA11DB11D8093E60490936C
:100CF000E704A093E804B093E90481E08093E5045D
:100D00008FEF810F0E940006082F84E0810F0E9460
:100D1000000603FF16C091E09093F304482F4F7034
:100D20004093EA046BEE74E085E0810F0E94D105E8
:100D30000F900F900F900F90DF91CF911F910F9117
:100D400008951092F304EACFCF93DF93C82F0E9447
:100D50005704D62F4C2F60EE8FE00E94AA058EE03C
:100D60000E940006807EC81749F00E9457046D1B40
:100D7000693C80F381E0DF91CF91089580E0FBCF63
:100D8000CF93DF93C82F8EE00E940006807E8032D2
:100D9000F9F4C032E9F08BE20E940006D82FD0743B
:100DA00086FD05C040E460E48BE20E94AA0540E4B1
:100DB00060E48CE20E94AA0580E60E94A4068111EC
:100DC00011C0D11105C040E060E48BE20E94AA0589
:100DD00040E060E48CE20E94AA058C2FDF91CF9165
:100DE0000C94A40681E0DF91CF9108951F93CF93D7
:100DF000DF9380E591E00E946902C5EED4E060E0F7
:100E00008A890E94FC0280EA0E94A30580E00E9479
:100E1000A305182F61E08A890E94FC02812FDF91CF
:100E2000CF911F910895EF92FF920F931F93CF934D
:100E3000DF937C018B01EA010E94F60680FF52C01D
:100E400081E60E94210640E061E08CE20E94AA0552
:100E50008091E504882389F08091E6049091E7046D
:100E6000A091E804B091E904B0688093E6049093FF
:100E7000E704A093E804B093E9048091F304882385
:100E800089F08091E6049091E704A091E804B09184
:100E9000E904B0648093E6049093E704A093E80427
:100EA000B093E9048091E6049091E704A091E804EE
:100EB000B091E904F70180839183A283B383809189
:100EC000EA04F8018083ABEEB4E0FE012091EA046D
:100ED000CF018C1B9D0B28171906A1F09CF08D915A
:100EE0008193F4CF81FF06C081E70E94210640E094
:100EF00062E0ABCF84E0DF91CF911F910F91FF9023
:100F0000EF90089580E0F7CFFF920F931F93CF9358
:100F1000DF93C82FF62E172F042F80E591E00E9453
:100F2000690260E08091F7040E94FC0282E00E9466
:100F3000A3058C2F0E94A305CF2DD12F0C0F1D2FA1
:100F4000111DC017D10721F089910E94A305F9CF87
:100F500061E08091F704DF91CF911F910F91FF9095
:100F60000C94FC02CF93DF9300D01F92CDB7DEB775
:100F70001C821B82613081F498E09A83198244E0DC
:100F8000BE016F5F7F4F0E9484070F900F900F90FC
:100F90000F90DF91CF9108951A82F0CF0F931F9396
:100FA000CF93DF93082F162F80E591E00E9469020E
:100FB000C5EED4E060E08A890E94FC0282E00E94D3
:100FC000A305802F0E94A305812F0E94A30561E045
:100FD0008A89DF91CF911F910F910C94FC022F927F
:100FE0003F924F925F926F927F928F929F92AF92B9
:100FF000CF92DF92EF92FF920F931F93CF93DF93E5
:1010000000D01F92CDB7DEB76093E6047093E7047B
:101010008093E8049093E90496FB552750F9509388
:10102000F304662797FD63957727882799276093B0
:10103000E5044093EA04F901ABEEB4E0C901089677
:1010400021912D93E817F907D9F70E9432042B015B
:101050003C0180902C0290902D02A0902E021E0147
:1010600024E0220E311C89829A82AB82CE01019645
:101070006C01F82E0D2DF60111916F01812F0E9448
:10108000000683FD14C01F5FE12C0E943204DC01C6
:10109000CB0184199509A609B709F2E0EF120EC039
:1010A000843C9940A105B105F0F206E07DC02C1406
:1010B0003D0409F710E072E0E72EE7CF843C994049
:1010C000A105B10590F74091EA046BEE74E085E06C
:1010D000810F0E9484078091F304813029F480916C
:1010E000EA0480648093EA046091EA0484E0810F5A
:1010F0000E94CE074091E6045091E7046091E80415
:101100007091E9048091E5048130D9F54C835B83CB
:10111000AB0166277727842F83708860942F990FFF
:10112000990F990F907E892B8A8365E05695479594
:101130006A95E1F7498344E06F2D702F812F0E945B
:101140008407115048E068E0812F0E94AA050E94A0
:1011500032046B017C01812F0E940006082F087069
:101160000E943204DC01CB018C199D09AE09BF0934
:101170000023A9F0843C9940A105B10560F307E084
:1011800013C0CA0123E0969587952A95E1F78983D4
:101190004295440F407E4A831C821B82CCCF843C04
:1011A0009940A105B10558F7802F0F900F900F902F
:1011B0000F90DF91CF911F910F91FF90EF90DF90F3
:1011C000CF90AF909F908F907F906F905F904F9057
:1011D0003F902F900895F894FC0181818330E9F0CD
:1011E00034F4813071F0823091F078940895843035
:1011F000D1F08530D1F7809173008D7F809373009B
:10120000F4CF80916F008D7F80936F00EECF80913F
:1012100070008D7F80937000E8CF809171008D7F8A
:1012200080937100E2CF809172008D7F8093720075
:10123000DCCFFC01F8946330C9F13CF46130C1F0BB
:10124000623029F16183789408956430F1F165305A
:10125000C9F710922001109221019091210198600C
:101260009093210190912101916090932101EACF07
:10127000109280001092810080918100886080939C
:10128000810080918100816080938100DBCF10928A
:10129000B0001092B1008091B00082608093B000E5
:1012A0008091B10081608093B100CCCF109290000A
:1012B000109291009091910098609093910090917C
:1012C0009100916090939100BDCF1092A000109278
:1012D000A1009091A10098609093A1009091A1002D
:1012E00091609093A100AECFFC014085518562854D
:1012F00073858181833009F470C084F4813089F171
:10130000823009F44CC080859185A285B385892BF4
:101310008A2B8B2B11F481E080830895843009F4AB
:101320007AC0853081F7DB01CA014115510521E002
:101330006207710520F08FEF9FEFA0E0B0E090937F
:10134000290180932801481B590B6A0B7B0B4087AE
:1013500051876287738780917300826080937300E6
:10136000D2CFDB01CA014115510521E062077105A9
:1013700020F08FEF9FEFA0E0B0E090938900809382
:101380008800481B590B6A0B7B0B4087518762878B
:10139000738780916F00826080936F00B4CF4F3F5E
:1013A00051056105710529F020F04FEF50E060E034
:1013B00070E04093B30080859185A285B385841B3E
:1013C000950BA60BB70B80879187A287B387809177
:1013D000700082608093700096CFDB01CA014115D6
:1013E000510521E06207710520F08FEF9FEFA0E02B
:1013F000B0E09093990080939800481B590B6A0BBA
:101400007B0B408751876287738780917100826070
:101410008093710078CFDB01CA014115510521E0AD
:101420006207710520F08FEF9FEFA0E0B0E090938E
:10143000A9008093A800481B590B6A0B7B0B4087BF
:1014400051876287738780917200826080937200F7
:101450005ACFCF93DF93EC01F89429818885998541
:10146000AA85BB852230A9F18F3F9F4FA105B10509
:1014700018F4CE010E94740988859985AA85BB85D8
:10148000AC01BD01009721E0A207B10520F04FEFAC
:101490005FEF60E070E0841B950BA60BB70B8887AD
:1014A0009987AA87BB8788859985AA85BB85892B5B
:1014B0008A2B8B2B39F58C819D81AE81BF818887EA
:1014C0009987AA87BB8781E088837894DF91CF9141
:1014D00008958F3F9105A105B10518F4CE010E9432
:1014E000740988859985AA85BB85AC01BD018F3FAC
:1014F0009105A105B10579F270F24FEF50E060E07F
:1015000070E0C9CF1882E1CF8F929F92AF92BF92C5
:10151000EF92FF920F931F93CF93DF9300D000D0F1
:101520001F921F92CDB7DEB7FC01F1802081F0E160
:101530002F9F900111244F2D50E064E05595479561
:101540006A95E1F7242B352B233241E0340761F112
:101550002032314009F45CC0198282E08A8380E045
:1015600090E0A0E2B2E48B839C83AD83BE8388EEDF
:1015700093E098878F8329813A814B815C816D81CB
:101580007E818F81988528960FB6F894DEBF0FBEB6
:10159000CDBFDF91CF911F910F91FF90EF90BF9042
:1015A000AF909F908F900895E12C8C01FC01828177
:1015B000F8E78F9FC00111246FEF70E00E94681957
:1015C000072E000C880B990B0E94CF1A4B015C016F
:1015D000F801638170E090E080E00E94CD1A20E085
:1015E00030E44CE156E40E94841B20E030E04FE7F9
:1015F00053E40E942C1A0E949E1AE9822F2D237018
:101600002A838B829C82AD82BE8278876F83B3CF20
:10161000EE24E394CACFFC0101900020E9F7319752
:10162000AF01481B590BBC0180E394E00C946E049D
:101630008F929F92AF92BF920F931F93CF93DF939E
:10164000CDB7DEB7A1970FB6F894DEBF0FBECDBF02
:1016500019A2423008F44AE08E010F5D1F4F842E1C
:10166000912CB12CA12CA50194010E947C19E62F8C
:10167000B901CA01EA30F4F4E05DD801EE938D01BE
:10168000232B242B252B79F790E080E0109719F07D
:10169000CD010E940B0BA1960FB6F894DEBF0FBED2
:1016A000CDBFDF91CF911F910F91BF90AF909F90D1
:1016B0008F900895E95CE1CFCF93DF930E940B0BED
:1016C000EC018DE892E00E940B0B8C0F9D1FDF91C7
:1016D000CF9108950F931F93CF93DF938C01D0E0A8
:1016E000C0E0F801EC0FFD1F6491662341F080E338
:1016F00094E00E940405892B11F02196F2CF8DE829
:1017000092E00E940B0B8C0F9D1FDF91CF911F91D8
:101710000F910895CF93DF93C82F81E594E00E9445
:101720006A0B80E80E94C006D82F8DE294E0D111A8
:1017300029C060E080E1C330A1F058F460E084E0AB
:10174000C13079F060E088E0C23059F060E080E0BC
:1017500008C060E084E1C43021F060E088E1C53079
:10176000A9F70E94B2078091F8040E94C006D82F02
:1017700086ED93E0DD2331F08BE094E00E946A0B6C
:1017800081EF93E00E946A0B8D2FDF91CF91089536
:10179000CF93DF93D82F80EC93E00E946A0B80E810
:1017A0000E94C006C82F89E993E0C11115C060E00E
:1017B00080E2D11184E20E94B2078091F8040E9475
:1017C000C006C82F86E493E0CC2331F087E793E08E
:1017D0000E946A0B8FE593E00E946A0B8C2FDF91C9
:1017E000CF9108950F931F9380E992E00E940B0B15
:1017F0000E9457040091F0031091F1032091F2032D
:101800003091F303601B710B820B930B4AE00E9433
:10181000180B8DE892E00E940B0B0E945704609316
:10182000F0037093F1038093F2039093F3031F91FD
:101830000F9108950F931F93CF93DF931F921F92E1
:10184000CDB7DEB78C010E9452198983C801019679
:101850000E9452198A8389819A810F900F90DF919B
:10186000CF911F910F910895CF92DF92EF92FF9247
:101870000F931F93CF93DF9300D01F92CDB7DEB7A6
:101880006E0125E0C20ED11C8E010F5F1F4F7C013F
:10189000E01AF10AC016D10649F0C701800F911F66
:1018A0000E945219F80181938F01F4CF69817A81E6
:1018B0008B819C810F900F900F900F90DF91CF91B3
:1018C0001F910F91FF90EF90DF90CF9008951F929E
:1018D0000F920FB60F9211242F933F938F939F93E4
:1018E000AF93BF938091280490912904A0912A047A
:1018F000B0912B043091270423E0230F2D3758F5A6
:101900000196A11DB11D2093270480932804909374
:101910002904A0932A04B0932B0480912C04909165
:101920002D04A0912E04B0912F040196A11DB11D8C
:1019300080932C0490932D04A0932E04B0932F0435
:10194000BF91AF919F918F913F912F910F900FBEBB
:101950000F901F90189526E8230F0296A11DB11D28
:10196000D2CF1F920F920FB60F9211240BB60F9287
:101970002F933F934F935F936F937F938F939F9397
:10198000AF93BF93EF93FF9380E394E00E94E20450
:10199000FF91EF91BF91AF919F918F917F916F9147
:1019A0005F914F913F912F910F900BBE0F900FBE03
:1019B0000F901F9018951F920F920FB60F9211243F
:1019C0000BB60F922F938F939F93EF93FF93E0911A
:1019D0004004F09141048081E0914604F091470475
:1019E00082FD1DC09081809149048F5F8F7320918B
:1019F0004A04821741F0E0914904F0E0E05DFB4FBA
:101A0000958F80934904FF91EF919F918F912F9132
:101A10000F900BBE0F900FBE0F901F9018958081F6
:101A2000F2CF1F920F920FB60F9211240BB60F92A6
:101A3000CF92DF92EF92FF922F933F934F935F935A
:101A40006F937F938F939F93AF93BF93EF93FF9386
:101A5000C0900505D0900605E0900705F0900805B8
:101A60008091FA04853009F04FC0C114D104E1041B
:101A7000F10409F467C08091F904882309F45DC07A
:101A8000E0910D05F0910E05309741F080910F0522
:101A900090911005009709F44EC019958091FD04AE
:101AA0009091FE04A091FF04B09100050097A14021
:101AB000B105C4F0F8948091FD049091FE04A091CA
:101AC000FF04B09100058093010590930205A09357
:101AD0000305B093040589EF94E00E947409109205
:101AE000F90478941C141D041E041F046CF481E096
:101AF000C81AD108E108F108C0920505D092060580
:101B0000E0920705F0920805FF91EF91BF91AF9128
:101B10009F918F917F916F915F914F913F912F9105
:101B2000FF90EF90DF90CF900F900BBE0F900FBE05
:101B30000F901F9018951995B1CF89EF94E00E94EE
:101B4000290AE2CF89EF94E00E94EB08DDCF1F92D3
:101B50000F920FB60F9211240BB60F92CF92DF9215
:101B6000EF92FF922F933F934F935F936F937F93E7
:101B70008F939F93AF93BF93EF93FF93C0901D05F7
:101B8000D0901E05E0901F05F09020058091120571
:101B9000833009F04FC0C114D104E104F10409F409
:101BA00067C080911105882309F45DC0E091250587
:101BB000F0912605309741F08091270590912805F6
:101BC000009709F44EC0199580911505909116055E
:101BD000A0911705B09118050097A140B105C4F078
:101BE000F8948091150590911605A0911705B09174
:101BF00018058093190590931A05A0931B05B093BF
:101C00001C0581E195E00E947409109211057894F9
:101C10001C141D041E041F046CF481E0C81AD108B2
:101C2000E108F108C0921D05D0921E05E0921F0543
:101C3000F0922005FF91EF91BF91AF919F918F910D
:101C40007F916F915F914F913F912F91FF90EF9016
:101C5000DF90CF900F900BBE0F900FBE0F901F9094
:101C600018951995B1CF81E195E00E94290AE2CF3C
:101C700081E195E00E94EB08DDCF4F925F926F9279
:101C80007F928F929F92AF92BF92CF92DF92EF920C
:101C9000FF920F931F93CF93DF93EC0119811116DD
:101CA0000CF03AC14901CB01BA010E94CD1A9B0147
:101CB000AC0160E070E08AE794E40E942C1A6B01AA
:101CC0007C012EEA37E346E856E40E94841B2B0190
:101CD0003C0120E030E040E85FE30E94271A87FDE6
:101CE0001BC18FEF9FEFDC018C879D87AE87BF877D
:101CF00020E030E040E852E4C301B201123009F4C0
:101D000087C00E947F1B01E010E0181674F020E0ED
:101D100030E040E051E4C301B2010E947F1B03E0C8
:101D200010E0181614F402E010E0C801880F991FA3
:101D30009C0121593D4F5901F501619171915F015C
:101D400090E080E00E94CD1AA70196010E94841BBA
:101D50009B01AC0160E074E284E79BE40E942C1AD2
:101D600020E030E040E85FE30E94BA190E949E1A2A
:101D70006115F0EC7F07FFEF8F07FFE39F07A8F5E2
:101D80006C837D838E839F83688779878A879B870F
:101D90001B830A83F894C88AD98AEA8AFB8A9D8AB7
:101DA0008C8A1F8A1E8A18828981823009F08BC032
:101DB0008091B100887F9A81892B8093B100CE01F8
:101DC0000E947409789481E0DF91CF911F910F9167
:101DD000FF90EF90DF90CF90BF90AF909F908F904B
:101DE0007F906F905F904F9008950F5F1F4F063068
:101DF000110509F0A1CF6C837D838E839F83688753
:101E000079878A879B8785E090E09B838A83C2CF0E
:101E10000E947F1B01E010E01816D4F020E030E0B3
:101E200040E051E4C301B2010E947F1B02E010E0D8
:101E3000181674F020E030E040E050E4C301B20135
:101E40000E947F1B04E010E0181614F403E010E079
:101E5000C801880F991F9C01215A3D4F5901F50176
:101E6000619171915F0190E080E00E94CD1AA7011D
:101E700096010E94841B9B01AC0160E074E284E740
:101E80009BE40E942C1A20E030E040E85FE30E94CF
:101E9000BA190E949E1A6115F0EC7F07FFE38F07C5
:101EA000910508F46DCF0F5F1F4F08301105B9F68B
:101EB0006C837D838E839F83688779878A879B87DE
:101EC00087E090E0A2CF813041F480918100887F4B
:101ED0009A81892B8093810072CF833041F4809165
:101EE0009100887F9A81892B8093910068CF8430FC
:101EF00041F48091A100887F9A81892B8093A10071
:101F00005ECF853009F05BCF80912101887F9A8177
:101F1000892B8093210153CF80E056CFFF920F93FE
:101F20001F93CF93DF93EC01F62E08811981C8012E
:101F30000E945219F81621F06F2DC8010E945A19FB
:101F4000CE01DF91CF911F910F91FF900895FF92E5
:101F50000F931F93CF93DF931F921F92CDB7DEB7DE
:101F60008C01F72E9A838983CE0101960E948E0FF1
:101F70000F5F1F4F1A8309836F2DCE0101960E94B8
:101F80008E0F0F900F90DF91CF911F910F91FF90C7
:101F90000895CF93DF93E0E3F4E01382128288EE9A
:101FA00093E0A0E0B0E084839583A683B7838FE7B6
:101FB00092E09183808385EC90E09587848784EC20
:101FC00090E09787868780EC90E0918B808B81EC06
:101FD00090E0938B828B82EC90E0958B848B86ECE7
:101FE00090E0978B868B118E128E138E148EE1E10A
:101FF000F5E083E08183108A118A128A138A158A98
:10200000148A178A168A108221E030E033832283F3
:102010001482158216821782108611861286138604
:102020008FEF9FEFDC0184879587A687B787E9EF5D
:10203000F4E045E04183108A118A128A138A158AD6
:10204000148A178A168A1082338322831482158297
:1020500016821782108611861286138684879587CA
:10206000A687B787C5EED4E081E28A8B61E00E9443
:10207000FC0261E08A890E942A038DEC94E0998B2E
:10208000888BE8EDF4E089E18083148282E390E0BC
:1020900094878387E3EDF4E01182128288EE93E067
:1020A00094838383EEECF4E0118212829483838321
:1020B000DF91CF910895CF93DF93CDB7DEB72E9701
:1020C0000FB6F894DEBF0FBECDBF789484B58260A2
:1020D00084BD84B5816084BD85B5826085BD85B5CC
:1020E000816085BD80916E00816080936E0010924A
:1020F00081008091810082608093810080918100C5
:102100008160809381008091800081608093800055
:102110008091B10084608093B1008091B0008160B3
:102120008093B000809191008260809391008091B3
:1021300091008160809391008091900081608093F4
:1021400090008091A10082608093A1008091A10005
:1021500081608093A1008091A00081608093A000A5
:102160008091210182608093210180912101816011
:1021700080932101809120018160809320018091D2
:102180007A00846080937A0080917A0082608093E4
:102190007A0080917A00816080937A0080917A0041
:1021A000806880937A001092C10061E08DE00E9407
:1021B0002A0361E087E20E942A0361E089E20E942B
:1021C0002A0361E080E20E942A0361E082E20E9429
:1021D0002A0361E084E20E942A0361E086E20E9411
:1021E0002A0361E088E20E942A0361E08AE20E94F9
:1021F0002A0360E083E00E942A0361E08CE20E94EF
:102200002A0361E08EE20E942A0361E088E00E94D6
:102210002A0361E086E00E942A0361E085E20E94D1
:102220002A0361E080E10E942A0361E080E10E94CC
:102230002A0361E081E10E942A0361E080E10E94BB
:10224000FC0261E081E10E94FC02E0914004F09117
:10225000410482E08083E0913C04F0913D041082CF
:10226000E0913E04F0913F0480E1808310924804A5
:10227000E0914404F091450486E08083E0914204BB
:10228000F0914304808180618083E0914204F09169
:102290004304808188608083E0914204F09143048C
:1022A000808180688083E0914204F09143048081C2
:1022B0008F7D80836091120581E195E00E9419096C
:1022C0006091FA0489EF94E00E9419091FB7F8940D
:1022D0008091E603811127C0E9EAF2E08491EFEEF4
:1022E000F2E09491E82FF0E0EE0FFF1FEA5DFD4F62
:1022F000A591B491EC91E92321F461E085E30E947A
:10230000FC0261E085E30E942A038CB580618CBDEC
:102310008CB580648CBD61E084E30E942A0361E097
:1023200083E30E942A038091E6038F5F8093E60394
:102330001FBF80E591E00E94690260E08091F70490
:102340000E94FC0280EC0E94A30561E08091F704EA
:102350000E94FC020E9432044B015C01B5E0CB2ECE
:10236000D12CE12CF12C0E943204681979098A09D8
:102370009B09683E734081059105A8F321E0C21ACC
:10238000D108E108F10838EE830E33E0931EA11C5A
:10239000B11CC114D104E104F10429F780E4809355
:1023A000F80480E80E94C006882309F475C18FEF05
:1023B00091E00E946A0B8FEB93E00E945C0B80E03F
:1023C0000E94C80B81E00E94C80B80E00E948A0B2B
:1023D00081E00E948A0B82E00E948A0B83E00E94C7
:1023E0008A0B84E00E948A0B85E00E948A0B8CEAAB
:1023F00092E00E945C0B1092F80480E00E94C006FC
:1024000004E610E00E94F606837069F0AE014F5FAB
:102410005F4FBE01635F7F4FCE0109960E94130795
:102420000150110979F783EC92E00E945C0B88E17E
:1024300099E20FB6F894A895809360000FBE909330
:10244000600085ED92E00E945C0B90E080E00E94CD
:10245000340C60930C0270930D0280930E029093E3
:102460000F0288E090E00E941A0C90931102809372
:1024700010028CE090E00E94521980930B0284E0DD
:1024800090E00E94340C60930402709305028093E4
:102490000602909307028AE090E00E941A0C909343
:1024A0000902809308028DE090E00E945219809307
:1024B0000302EFE46E2EE2E07E2EFCE02F2E312CA4
:1024C000A2E14A2EA4E05A2E0AEF10E0A8958090CF
:1024D000230490902404A0902504B0902604F4EFE7
:1024E0008F0EF1E09F1EA11CB11C0E94570486169E
:1024F0009706A806B90608F07AC0C090EB03D09002
:10250000EC03E090ED03F090EE036091E104709134
:10251000E204072E000C880B990B0E94CF1A2DECB9
:102520003CEC4CEC5DE30E94841B4B015C0126E615
:1025300036E646E65FE3C701B6010E94841B9B01B5
:10254000AC01C501B4010E94BB196093EB03709309
:10255000EC038093ED039093EE0360931F0470935C
:102560002004809321049093220460912A027091A8
:102570002B02C090E703D090E803E090E903F090CD
:10258000EA03072E000C880B990B0E94CF1A2DEC42
:102590003CEC4CEC5DE30E94841B4B015C0126E6A5
:1025A00036E646E65FE3C701B6010E94841B9B0145
:1025B000AC01C501B4010E94BB196093E70370939D
:1025C000E8038093E9039093EA0360931B047093FC
:1025D0001C0480931D0490931E040E945704609372
:1025E00023047093240480932504909326040E946E
:1025F00057048090170490901804A0901904B0908C
:102600001A04681979098A099B09653F7140810597
:102610009105A0F08DE00E94D30261E0892B09F0C2
:1026200060E08DE00E94FC020E9457046093170452
:10263000709318048093190490931A0483E00E9405
:10264000D3026C01892B09F033C542E252E062E10A
:1026500074E083E194E00E94130780911304909149
:102660001404A0911504B0911604833432E093074A
:10267000A105B10509F07EC08AEE92E00E945C0BD4
:10268000F89488E198E00FB6F894A89580936000DC
:102690000FBE90936000FFCF87ED91E00E946A0B20
:1026A00060E08AE20E94CE0761ED89E20E94CE07D7
:1026B00061E888E20E94CE078AEB91E00E946A0BF3
:1026C00061E080E20E94B20761E084E20E94B2070A
:1026D00061E080E00E94B20760E084E00E94B207FF
:1026E00061E088E00E94B20760E080E10E94B207EA
:1026F00061E084E10E94B20760E088E10E94B207D5
:1027000010E360E0812F0E94CE0760E080E1810F3E
:102710000E94CE0760E080E2810F0E94CE071F5F1B
:102720001E3379F760E080E60E94CE0760E080E724
:102730000E94CE0763E08BE20E94CE076CE38CE040
:102740000E94CE0760E08DE00E94CE0744E664E67A
:1027500080E60E94AA0540E660E680E70E94AA059E
:102760008091F8040E94C006882309F494C584E986
:1027700091E01FCE81309440A105B10569F430E0AD
:1027800020E040E061E074E080E090E00E94EF072C
:1027900089EF92E00E945C0B8091130490911404E5
:1027A000A0911504B091160482309440A105B105A2
:1027B00009F015C180912202282F237030E0309358
:1027C00009042093080490E09C01359527953595E0
:1027D00027952370332730930704209306049C0128
:1027E000F4E035952795FA95E1F723703327309378
:1027F000050420930404A6E095958795AA95E1F732
:10280000909303048093020480912302282F237065
:1028100030E0309311042093100490E09C01359532
:102820002795359527952370332730930F042093F0
:102830000E049C0144E0359527954A95E1F72370F5
:10284000332730930D0420930C0456E0959587951B
:102850005A95E1F790930B0480930A0462E0862E68
:1028600064E0962E7FE4A72E72E0B72EF4018191EA
:1028700091914F018130910509F41DC48230910579
:1028800009F41FC460E0892B09F416C4F2E0AF0E0E
:10289000B11C4814590451F780912402282F30E0CC
:1028A0002B3F31050CF012C4FF24FA948F9DC00118
:1028B0001124B8010E946819709301046093000408
:1028C00080912502282F30E02B3F31050CF007C402
:1028D0002FEF829FC0011124B8010E9468197093E4
:1028E000FF036093FE0380912602282F30E02B3FE8
:1028F00031050CF0FDC33FEF839FC0011124B801E7
:102900000E9468197093FD036093FC03A09000047B
:10291000709101046A2D8CE20E945B03B090FE036B
:102920007091FF036B2D8EE20E945B032091FC03EC
:102930008091020490910304B6E0880F991FBA9524
:10294000E1F7409104045091050494E0440F551FB1
:102950009A95E1F7842B90910804892B4091060405
:1029600050910704440F551F440F551F842B80932B
:102970001A0280910A0490910B0446E0880F991F77
:102980004A95E1F740910C0450910D0464E0440F26
:10299000551F6A95E1F7842B90911004892B409183
:1029A0000E0450910F04440F551F440F551F842BE4
:1029B00080931B02A0921C02B0921D0220931E0263
:1029C00010921F0210922002109221022AE132E09E
:1029D00048E062E274E080E090E00E94EF078091BE
:1029E000130490911404A0911504B091160483303F
:1029F0009440A105B10509F01BC182E292E00E945A
:102A0000840A2093120230931302409314025093CD
:102A10001502609316027093170280931802909328
:102A20001902323008F46DC3323009F474C3809156
:102A30000A02813081F580910C0290910D02A091E3
:102A40000E02B0910F0289879A87AB87BC875E011F
:102A5000F9E0AF0EB11CF50161915F01DE86CD8614
:102A6000CE010D960E948E0FFFEFCF1ADF0A24E0F1
:102A7000C216D10481F7609110027091110288E0B2
:102A800090E00E94A70F60910B023E862D86CE013A
:102A90000D960E948E0F86E292E00E94840A209397
:102AA0001202309313024093140250931502609364
:102AB0001602709317028093180290931902323015
:102AC00008F42EC3323009F435C3809102028130FC
:102AD000A1F58091040290910502A0910602B091A7
:102AE000070289839A83AB83BC83CE0101965C0184
:102AF000A4E0CA2ED12CF50161915F01DE86CD865E
:102B0000CE010D960E948E0FFFEFCF1ADF0A28E04C
:102B1000C216D10481F760910802709109028AE01F
:102B200090E00E94A70F609103028DE090E09E87E5
:102B30008D87CE010D960E948E0F20910B02609121
:102B40000C0270910D0280910E0290910F02C090C4
:102B50001002D0901102E2E1E0931A022063209368
:102B60001B0220E030E04FE753E40E94841B20E08A
:102B700030E040EF52E40E942C1A0E949E1A6093AB
:102B80001C02B60190E080E00E94CD1A20E030E007
:102B90004FE753E40E94841B20E030E44CE156E40C
:102BA0000E942C1A0E949E1A60931D02209103021B
:102BB00060910402709105028091060290910702D3
:102BC000C0900802D0900902F2E1F0931E02206347
:102BD00020931F0220E030E04FE753E40E94841B63
:102BE00020E030E040EF52E40E942C1A0E949E1A2E
:102BF00060932002B60190E080E00E94CD1A20E0B0
:102C000030E04FE753E40E94841B20E030E44CE1C5
:102C100056E40E942C1A0E949E1A609321022AE117
:102C200032E048E063E274E080E090E00E94EF0769
:102C30008091130490911404A0911504B09116048E
:102C400084309440A105B10509F042C08091220270
:102C50009091230298278927982720912402217098
:102C60003091250233703093CE041092CF0420931C
:102C7000D0049093D2048093D10485E0EEECF4E08C
:102C8000A3EDB4E001900D928A95E1F78091D30411
:102C90009091D5042091D6043091D70430931A0234
:102CA00020931B0290931C02837080931D0210924C
:102CB0001E0210921F0210922002109221022AE19D
:102CC00032E048E064E274E080E090E00E94EF07C8
:102CD0008091130490911404A0911504B0911604EE
:102CE00085309440A105B10509F58091220290E05C
:102CF000F6E095958795FA95E1F7813009F422C2BF
:102D000008F41DC2823009F421C28091D404E0E4A9
:102D10008E9FC00111248093FB032BEF33E048E02A
:102D200065E274E080E090E00E94EF078091130478
:102D300090911404A0911504B0911604803195402F
:102D4000A105B10509F0DAC0B090230280912402F8
:102D500090E04091260250E0B42FAA27AA27BF7026
:102D600020912502A22BB8502091280230E06091DA
:102D70002702E4E06E9FB0011124FA01689415F86F
:102D8000F595E7951694E1F76E2B7F2BF901FE2F51
:102D9000EE27FF0FFF0FEE27FC706E2B7F2B785076
:102DA000F0912902E0E1FE9F700111246901E4E045
:102DB000D594C794EA95E1F7EC28FD284701F8E09F
:102DC0009F1AD0902202F0E8FF2EDF0CD092D80498
:102DD000EB2DE370E093D9046C01E6E0D594C79441
:102DE000EA95E1F7C092DA04F4E055954795FA9533
:102DF000E1F743704093DB0435952795359527958A
:102E000023702093DC0456E0880F991F5A95E1F750
:102E1000807C9F702B2D30E0359527953595279533
:102E2000822B932B98509093DE048093DD04B09313
:102E3000E004A093DF047093E2046093E1049092B5
:102E4000E4048092E3048090EB039090EC03A09064
:102E5000ED03B090EE03072E000C880B990B0E9437
:102E6000CF1A2DEC3CEC4CEC5DE30E94841B6B0113
:102E70007C0126E636E646E65FE3C501B4010E9422
:102E8000841B9B01AC01C701B6010E94BB19609372
:102E9000EB037093EC038093ED039093EE03609348
:102EA0001F047093200480932104909322048EE5E4
:102EB00093E00E940B0B80901F0490902004A09040
:102EC0002104B0902204A5019401C501B4010E941F
:102ED000F11B882309F43FC187E793E00E940B0BA5
:102EE0008DE892E00E940B0B0E945704609323042C
:102EF0007093240480932504909326040E94570421
:102F00008090F7039090F803A090F903B090FA0333
:102F1000AB01BC01481959096A097B098091D604A3
:102F20009091D704B0E0A0E0481759076A077B07E3
:102F300008F43FC08091D404811104C08091D3046F
:102F40008823B9F11092D4048FE2C82E82E0D82EE3
:102F5000F60161917191819191916F0130E020E0D2
:102F600040E00E94EF0787E090E00197F1F742E22E
:102F700052E062E174E083E194E00E9413076C1474
:102F80007D0431F71092F5031092F60325EF33E03C
:102F900048E066E274E080E090E00E94EF070E9463
:102FA00057046093F7037093F8038093F9039093A9
:102FB000FA03D0900B02F1E0DF125FC120911F04F1
:102FC00030912004409121045091220460910C0220
:102FD00070910D0280910E0290910F020E94271AAB
:102FE00018160CF44AC18091F403811118C0409165
:102FF00010025091110270E060E022EF3BE089EF97
:1030000094E00E943D0E0E9457046093F003709379
:10301000F1038093F2039093F303D092F403D090E2
:103020000302FF24F394DF102FC120911B04309181
:103030001C0440911D0450911E0460910402709183
:10304000050280910602909107020E94271A181625
:103050000CF41AC18091EF0381110EC04091080257
:103060005091090270E060E023E634E081E195E0F0
:103070000E943D0ED092EF0370E060E085E20E9476
:103080005B0370E060E080E10E945B0370E060E061
:1030900088E00E945B0370E060E086E00E945B03D2
:1030A0001092130410921404109215041092160436
:1030B0000E9471050BCA61E0F50180810E94FC024B
:1030C000E5CB86E093E00E945C0BE0CB2F3F31051F
:1030D00009F4F6CB81E193E00E940B0BF1CB2F3F7B
:1030E000310509F400CC8DE193E00E940B0BFBCB82
:1030F0002F3F310509F40ACC89E293E00E940B0BC3
:1031000005CC88E0E2E1F2E0AAE0B2E001900D92A5
:103110008A95E1F78CCC87E393E00E940B0B87CC78
:1031200088E0E2E1F2E0A2E0B2E001900D928A953F
:10313000E1F7CBCC83E493E00E940B0BC6CC10925A
:10314000D404E3CD81E08093D404DFCD82E593E025
:103150000E940B0BDACD75016401E894F7F82FEFAC
:103160003FEF4FE75FE7C701B6010E94F11B8111F6
:103170000DC02FEF3FEF4FE75FE7C701B6010E9499
:10318000271A18161CF48BE793E0A8CE2FEF3FEF19
:103190004FE75FE4C501B4010E947F1B18161CF4C1
:1031A0008FE793E09BCE2FEF3FEF4FE75FECC5013A
:1031B000B4010E94271A87FDF3CF20E030E0A90177
:1031C000C501B4010E94271A87FF09C06DE280E3A0
:1031D00094E00E940405B7FAB094B7F8B0942AE0DE
:1031E00037ED43EA5BE3C501B4010E94BB196B01F3
:1031F0007C010E949E1A4B015C010E94CD1A9B012A
:10320000AC01C701B6010E94BA196B017C014AE00A
:10321000C501B4010E94180B6EE280E394E00E94A5
:10322000040520E030E040E251E4C701B6010E940D
:10323000841B6B017C010E949E1A4B01B12CA12CB6
:103240004AE0C501B4010E94180BC501B4010E94F7
:10325000CD1A9B01AC01C701B6010E94BA1920E04A
:1032600030E040E251E40E94841B0E949E1A90E0EC
:1032700080E04AE00E94180B33CE89EF94E00E9470
:10328000EB081092F403CBCE81E195E00E94EB08AD
:103290001092EF03F1CE83E893E00E945C0B85EA85
:1032A00093E08BC8F999FECF92BD81BDF89A99271A
:1032B00080B50895262FF999FECF1FBA92BD81BD22
:1032C00020BD0FB6F894FA9AF99A0FBE01960895A8
:1032D00097FB072E16F4009407D077FD09D00E94C3
:1032E000A61907FC05D03EF4909581959F4F08954F
:1032F000709561957F4F0895A1E21A2EAA1BBB1B02
:10330000FD010DC0AA1FBB1FEE1FFF1FA217B307B1
:10331000E407F50720F0A21BB30BE40BF50B661FC7
:10332000771F881F991F1A9469F76095709580958B
:1033300090959B01AC01BD01CF010895EE0FFF1FD9
:10334000881F8BBF0790F691E02D1994AA1BBB1B19
:1033500051E107C0AA1FBB1FA617B70710F0A61B95
:10336000B70B881F991F5A95A9F780959095BC01B6
:10337000CD0108955058BB27AA270E94D2190C945A
:10338000451B0E94371B38F00E943E1B20F039F489
:103390009F3F19F426F40C94341B0EF4E095E7FBE0
:1033A0000C942E1BE92F0E94561B58F3BA17620784
:1033B00073078407950720F079F4A6F50C94781B21
:1033C0000EF4E0950B2EBA2FA02D0B01B901900140
:1033D0000C01CA01A0011124FF27591B99F0593F84
:1033E00050F4503E68F11A16F040A22F232F342FCC
:1033F0004427585FF3CF469537952795A795F0401A
:103400005395C9F77EF41F16BA0B620B730B840B2E
:10341000BAF09150A1F0FF0FBB1F661F771F881FE6
:10342000C2F70EC0BA0F621F731F841F48F487953E
:1034300077956795B795F7959E3F08F0B0CF939530
:10344000880F08F09927EE0F9795879508950E94A9
:103450000A1B08F481E008950E94401A0C94451B51
:103460000E943E1B58F00E94371B40F029F45F3F3A
:1034700029F00C942E1B51110C94791B0C94341BC5
:103480000E94561B68F39923B1F3552391F3951BC2
:10349000550BBB27AA2762177307840738F09F5F75
:1034A0005F4F220F331F441FAA1FA9F335D00E2EE2
:1034B0003AF0E0E832D091505040E695001CCAF74F
:1034C0002BD0FE2F29D0660F771F881FBB1F261712
:1034D00037074807AB07B0E809F0BB0B802DBF01E9
:1034E000FF2793585F4F3AF09E3F510578F00C94B8
:1034F0002E1B0C94791B5F3FE4F3983ED4F3869522
:1035000077956795B795F7959F5FC9F7880F911DD8
:103510009695879597F90895E1E0660F771F881FC4
:10352000BB1F621773078407BA0720F0621B730B77
:10353000840BBA0BEE1F88F7E09508950E945E1B7E
:1035400088F09F5798F0B92F9927B751B0F0E1F064
:10355000660F771F881F991F1AF0BA95C9F714C014
:10356000B13091F00E94781BB1E008950C94781B63
:10357000672F782F8827B85F39F0B93FCCF386954D
:1035800077956795B395D9F73EF4909580957095AA
:1035900061957F4F8F4F9F4F0895E89409C097FB27
:1035A0003EF490958095709561957F4F8F4F9F4F1A
:1035B0009923A9F0F92F96E9BB279395F69587955E
:1035C00077956795B795F111F8CFFAF4BB0F11F421
:1035D00060FF1BC06F5F7F4F8F4F9F4F16C08823C8
:1035E00011F096E911C0772321F09EE8872F762FFE
:1035F00005C0662371F096E8862F70E060E02AF03F
:103600009A95660F771F881FDAF7880F969587952A
:1036100097F90895990F0008550FAA0BE0E8FEEFFF
:1036200016161706E807F907C0F012161306E40786
:10363000F50798F0621B730B840B950B39F40A267F
:1036400061F0232B242B252B21F408950A2609F45D
:10365000A140A6958FEF811D811D089597F99F6761
:1036600080E870E060E008959FEF80EC089500240A
:103670000A941616170618060906089500240A94D7
:1036800012161306140605060895092E0394000C5D
:1036900011F4882352F0BB0F40F4BF2B11F460FFEC
:1036A00004C06F5F7F4F8F4F9F4F089557FD905815
:1036B000440F551F59F05F3F71F04795880F97FBF6
:1036C000991F61F09F3F79F08795089512161306B0
:1036D0001406551FF2CF4695F1DF08C016161706DF
:1036E0001806991FF1CF8695710561050894089514
:1036F000E894BB2766277727CB0197F908950E94A6
:103700000A1B08F48FEF08950E94971B0C94451B29
:103710000E94371B38F00E943E1B20F0952311F0C9
:103720000C942E1B0C94341B11240C94791B0E94B6
:10373000561B70F3959FC1F3950F50E0551F629F84
:10374000F001729FBB27F00DB11D639FAA27F00DFA
:10375000B11DAA1F649F6627B00DA11D661F829F21
:103760002227B00DA11D621F739FB00DA11D621F06
:10377000839FA00D611D221F749F3327A00D611D23
:10378000231F849F600D211D822F762F6A2F112405
:103790009F5750409AF0F1F088234AF0EE0FFF1F38
:1037A000BB1F661F771F881F91505040A9F79E3F8F
:1037B000510580F00C942E1B0C94791B5F3FE4F3B1
:1037C000983ED4F3869577956795B795F795E795E5
:1037D0009F5FC1F7FE2B880F911D9695879597F9EE
:1037E00008950E940A1B880B990B0895F894FFCF47
:1037F0007800000000002042E803000000002042A2
:10380000E803000000002042E80320000000000060
:103810000000200000000000000078003040501040
:103820000500402005004030050040100600401112
:1038300006004020060040210600402206004027E6
:10384000002900200022002400260028002A000170
:103850000001000800200040008000000100040179
:103860000001000800400000010004000000000406
:10387000056E049B045105CC04AA04BE040D0A0085
:103880004954696D6572312063616C6C65642C20EC
:103890006D696C6C69732829203D200046696C7441
:1038A000726F73206465736162696C697461646FBF
:1038B0007321004275666665722043414E206C6933
:1038C0006D706F21005761746368646F6720686171
:1038D00062696C697461646F21005265736574205C
:1038E0007669612043414E210048656172746265CA
:1038F0006174204F4B004572726F72204C454473C7
:10390000004572726F722050574D2031004572721F
:103910006F722050574D2032004572726F722045F1
:103920006E636F646572004572726F722030783416
:103930003033004572726F72203078343033202B70
:1039400034004572726F722030783430350054651F
:103950006D706572617475726120312046696C7496
:10396000726164613A20006E616E00696E66006F7C
:103970007666004D43503235313520496E697469A1
:10398000616C697A656420537563636573736675EA
:103990006C6C7921005445737465207365206573E0
:1039A00074612066756E63696F6E616E646F004549
:1039B00072726F7220496E697469616C697A696E9E
:0E39C00067204D4350323531352E2E2E00003B
:00000001FF
