:100000000C9497010C94C8010C94C8010C94C8017D
:100010000C94C8010C94C8010C94C8010C94C8013C
:100020000C94C8010C94C8010C94C8010C94C8012C
:100030000C94C8010C94C8010C94C8010C94C8011C
:100040000C94C8010C94C8010C94C8010C94C8010C
:100050000C94C8010C94C8010C94C8010C94CF0AEC
:100060000C94C8010C94430B0C94190B0C94C8010C
:100070000C94C8010C94C8010C94C8010C94C801DC
:100080000C940F0C0C94C8010C94C8010C94C8017A
:100090000C94C8010C94C8010C94C8010C94C801BC
:1000A0000C94C8010C94C8010C94C8010C94C801AC
:1000B0000C94C8010C94C8010C94C8010C94790BE1
:1000C0000C94C8010C94C8010C94C8010C94C8018C
:1000D0000C94C8010C94C8010C94C8010C94C8017C
:1000E0000C94C8010C9453020C94E3020C94070383
:1000F0000C9414020C94F5020C94ED030C94480338
:100100000C945A0A0C9411030C94C2020C943304FC
:100110000C9418020C949D030C94CA020C941B03BB
:100120000C9434030C9452030C94D9020C942302C3
:100130000C9429020C943B020C945C030C94ED0289
:100140000C94FD020C9445020C94FB030C94D9030F
:100150000C943E030C9433020C941C020C942D025C
:100160000C944F020C94FD010C9441020C94CF02AC
:100170000C94B80E0C9402020C94CA030C94200246
:100180000C942A030C9449020C9480040C943702BA
:100190000C94920352657475726E696E6720746F69
:1001A0002050726576696F7573204D6F64652046C7
:1001B00061696C7572652E2E2E0053657474696EBC
:1001C000672042617564726174652053756363656D
:1001D000737366756C2100456E746572696E672075
:1001E000436F6E66696775726174696F6E204D6FDB
:1001F0006465205375636365737366756C21004590
:100200006E746572696E6720436F6E66696775729A
:100210006174696F6E204D6F6465204661696C750D
:1002200072652E2E2E0000002100240027002A00D7
:100230002D003000330001010000040107010A0114
:1002400000002200250028002B002E003100340081
:1002500002010000050108010B0105050505070560
:1002600008080808020202020A0A08080404040432
:10027000010101010101010103030303030303035E
:10028000040707070C0C0C0C0C0C0C0C02020202ED
:1002900006060606060606060B0B0B0B0B0B0B0BD6
:1002A0000102102020080810204010204080020188
:1002B000020108040201010204081020408080406D
:1002C000201008040201800402018040201008046C
:1002D000020108040201010204081020408001020A
:1002E00004081020408000000A0B02090C0D0E08C3
:1002F00007030401000000000000000000000000EF
:1003000000000000000000000000000000000000ED
:1003100000001211100000000000000000000000AA
:10032000000000000000000000000000B80E1124D2
:100330001FBECFEFD1E2DEBFCDBF00E00CBF13E0A8
:10034000A0E0B2E0E8EBF4E300E00BBF02C00790EE
:100350000D92A439B107D9F724E0A4E9B3E001C0B4
:100360001D92AB3DB207E1F711E0C7E9D1E000E033
:1003700006C021970109802FFE010E940218C6398C
:10038000D10780E00807A9F70E944A0F0C945A1A77
:100390000C9400008CBD9DBD0895282F30E0F9011C
:1003A000EA51FD4F9491F901E056FD4F4491265AD0
:1003B0003D4FF9012491222309F435C0992311F10D
:1003C00091509231F8F4E92FF0E08827E551FE4F83
:1003D0008F4F0C9402181C022002FD011402180217
:1003E0000202230229022D02330237023B0241029C
:1003F0004502020249024F025302809180008F772A
:1004000080938000E22FF0E0EE0FFF1FE05CFD4FD5
:10041000A591B4918FB7F894EC91611148C04095C3
:100420004E234C938FBF0895809180008F7DE8CF3D
:1004300080918000877FE4CF84B58F7784BDE2CF41
:1004400084B58F7DFBCF8091B0008F778093B00013
:10045000D9CF8091B0008F7DF9CF809190008F77B8
:1004600080939000CFCF809190008F7DF9CF8091C5
:100470009000877FF5CF8091A0008F778093A000B8
:10048000C1CF8091A0008F7DF9CF8091A000877FA0
:10049000F5CF809120018F7780932001B3CF809199
:1004A00020018F7DF9CF80912001877FF5CF4E2BE2
:1004B000B8CFCF93DF9390E0FC01E056FD4F24913D
:1004C000865A9D4FFC0184918823D1F090E0880FDB
:1004D000991FFC01EA5DFD4FA591B491FC01E05C20
:1004E000FD4FC591D49161110EC09FB7F8948C91C6
:1004F000E22FE0958E238C932881E223E8839FBF2F
:10050000DF91CF9108958FB7F894EC91E22BEC93A3
:100510008FBFF6CF1F93CF93DF93182FEB0161E0CE
:100520000E945902209739F460E0812FDF91CF912A
:100530001F910C94CD01CF3FD10511F461E0F5CFAF
:10054000E12FF0E0EA51FD4FE491E150E23108F093
:10055000B3C0F0E08827E055FD4F8F4F0C94021890
:10056000C202CA02CF02D902E3025C03ED02F50225
:10057000FD02070311031B032A0334035C033E033C
:100580004803520384B5806884BDC7BDDF91CF9115
:100590001F91089584B5806284BDC8BDF7CF809156
:1005A0008000806880938000D0938900C093880089
:1005B000EDCF80918000806280938000D0938B008B
:1005C000C0938A00E3CF8091800088608093800090
:1005D000D0938D00C0938C00D9CF8091B0008068FB
:1005E0008093B000C093B300D1CF8091B0008062FF
:1005F0008093B000C093B400C9CF80919000806810
:1006000080939000D0939900C0939800BFCF8091C1
:100610009000806280939000D0939B00C0939A00DA
:10062000B5CF80919000886080939000D0939D001A
:10063000C0939C00ABCF8091A00080688093A00005
:100640008091A0008F7B8093A000D093A900C093DD
:10065000A8009CCF8091A00080628093A000D093DE
:10066000AB00C093AA0092CF8091A00088608093D5
:10067000A000D093AD00C093AC0088CF8091200142
:10068000806880932001D0932901C09328017ECFF8
:1006900080912001806280932001D0932B01C09330
:1006A0002A0174CF80912001886080932001D0932B
:1006B0002D01C0932C016ACFC038D1050CF03ECF7C
:1006C00033CF3FB7F8948091D9039091DA03A0918A
:1006D000DB03B091DC0326B5A89B05C02F3F19F0C2
:1006E0000196A11DB11D3FBFBA2FA92F982F8827B2
:1006F000BC01CD01620F711D811D911D42E0660F8D
:10070000771F881F991F4A95D1F708952FB7F8943E
:100710006091D5037091D6038091D7039091D8034F
:100720002FBF08950E9486036093980370939903E6
:1007300080939A0390939B030895AF92BF92CF92B8
:10074000DF92EF92FF920F931F93CF93DF936C0191
:100750007B018B01040F151FEB015E01AE18BF0872
:10076000C017D10759F06991D601ED91FC91019024
:10077000F081E02DC6011995892B79F7C501DF912C
:10078000CF911F910F91FF90EF90DF90CF90BF908E
:10079000AF900895FC01538D448D252F30E0842FB8
:1007A00090E0821B930B541710F0CF960895019799
:1007B0000895FC01918D828D981761F0A28DAE0F86
:1007C000BF2FB11D5D968C91928D9F5F9F73928F0D
:1007D00090E008958FEF9FEF0895FC01918D828D39
:1007E000981731F0828DE80FF11D858D90E0089506
:1007F0008FEF9FEF0895FC01918D228D892F90E05E
:10080000805C9F4F821B91098F739927089582EE18
:1008100093E00E94FB0321E0892B09F420E0822F62
:100820000895FC01A48DA80FB92FB11DA35ABF4F85
:100830002C91848D90E001968F739927848FA689DF
:10084000B7892C93A089B1898C91837080648C9333
:10085000938D848D981306C00288F389E02D8081E2
:100860008F7D80830895EF92FF920F931F93CF9314
:10087000DF93EC0181E0888F9B8D8C8D98131AC0DB
:10088000E889F989808185FF15C09FB7F894EE89C2
:10089000FF896083E889F98980818370806480831F
:1008A0009FBF81E090E0DF91CF911F910F91FF906A
:1008B000EF900895F62E0B8D10E00F5F1F4F0F7312
:1008C0001127E02E8C8D8E110CC00FB607FCFACFCD
:1008D000E889F989808185FFF5CFCE010E94110456
:1008E000F1CFEB8DEC0FFD2FF11DE35AFF4FF0829E
:1008F0009FB7F8940B8FEA89FB8980818062CFCF04
:10090000CF93DF93EC01888D8823B9F0AA89BB8946
:10091000E889F9898C9185FD03C0808186FD0DC031
:100920000FB607FCF7CF8C9185FFF2CF808185FF52
:10093000EDCFCE010E941104E9CFDF91CF91089550
:1009400080E090E0892B29F00E94070481110E9429
:10095000000080E090E0892B49F080E090E0892B56
:1009600029F00E94000081110E94000080E090E0C8
:10097000892B49F080E090E0892B29F00E9400004B
:1009800081110E94000080E090E0892B49F080E016
:1009900090E0892B29F00E94000081110C94000046
:1009A000089508958EBD00000DB407FEFDCF8EB5ED
:1009B00008951F93CF93DF93182F80E591E00E9455
:1009C000CA01C7E9D4E060E08A890E94CD0183E0D2
:1009D0000E94D204812F0E94D20480E00E94D2049F
:1009E000182F61E08A890E94CD01812FDF91CF917C
:1009F0001F910895FF920F931F93CF93DF93F82ECB
:100A0000062F142F80E591E00E94CA01C7E9D4E0C7
:100A100060E08A890E94CD0185E00E94D2048F2D7A
:100A20000E94D204802F0E94D204812F0E94D204FF
:100A300061E08A89DF91CF911F910F91FF900C9413
:100A4000CD01CF93DF93C82F0E948603D62F4C2F62
:100A500060EE8FE00E94FA048EE00E94D904807E4E
:100A6000C81749F00E9486036D1B693C80F381E042
:100A7000DF91CF91089580E0FBCFCF93DF93C82F14
:100A80008EE00E94D904807E8032F9F4C032E9F011
:100A90008BE20E94D904D82FD07486FD05C040E4B3
:100AA00060E48BE20E94FA0440E460E48CE20E947D
:100AB000FA0480E60E942105811111C0D11105C000
:100AC00040E060E48BE20E94FA0440E060E48CE2E3
:100AD0000E94FA048C2FDF91CF910C94210581E0C4
:100AE000DF91CF9108950F931F93CF93DF93082F3A
:100AF000162F80E591E00E94CA01C7E9D4E060E0CA
:100B00008A890E94CD0182E00E94D204802F0E9437
:100B1000D204812F0E94D20461E08A89DF91CF91B3
:100B20001F910F910C94CD01FF920F931F93CF93C0
:100B3000DF93C82FF62E172F042F80E591E00E9437
:100B4000CA0160E08091A9040E94CD0182E00E9468
:100B5000D2048C2F0E94D204CF2DD12F0C0F1D2F29
:100B6000111DC017D10721F089910E94D204F9CF3D
:100B700061E08091A904DF91CF911F910F91FF90C7
:100B80000C94CD01CF93DF9300D01F92CDB7DEB789
:100B90001C821B82613081F498E09A83198244E0C0
:100BA000BE016F5F7F4F0E9494050F900F900F90D2
:100BB0000F90DF91CF9108951A82F0CF2F923F923C
:100BC0004F925F926F927F928F929F92AF92CF924D
:100BD000DF92EF92FF920F931F93CF93DF9300D09A
:100BE0001F92CDB7DEB760939804709399048093F9
:100BF0009A0490939B0496FB552750F95093A504B3
:100C0000662797FD63957727882799276093970430
:100C100040939C04F901ADE9B4E0C9010896219123
:100C20002D93E817F907D9F70E9461032B013C01C6
:100C300080902C0290902D02A0902E021E0124E0A4
:100C4000220E311C89829A82AB82CE0101966C0100
:100C5000F82E0D2DF60111916F01812F0E94D904FC
:100C600083FD14C01F5FE12C0E946103DC01CB01F6
:100C700084199509A609B709F2E0EF120EC0843C69
:100C80009940A105B105F0F206E07DC02C143D04A9
:100C900009F710E072E0E72EE7CF843C9940A10508
:100CA000B10590F740919C046DE974E085E0810FF7
:100CB0000E9494058091A504813029F480919C04C0
:100CC000806480939C0460919C0484E0810F0E9466
:100CD0007305409198045091990460919A04709121
:100CE0009B04809197048130D9F54C835B83AB01E1
:100CF00066277727842F83708860942F990F990F28
:100D0000990F907E892B8A8365E0569547956A9561
:100D1000E1F7498344E06F2D702F812F0E949405E5
:100D2000115048E068E0812F0E94FA040E9461039C
:100D30006B017C01812F0E94D904082F08700E944A
:100D40006103DC01CB018C199D09AE09BF090023A9
:100D5000A9F0843C9940A105B10560F307E013C0F8
:100D6000CA0123E0969587952A95E1F789834295F4
:100D7000440F407E4A831C821B82CCCF843C994026
:100D8000A105B10558F7802F0F900F900F900F908D
:100D9000DF91CF911F910F91FF90EF90DF90CF9057
:100DA000AF909F908F907F906F905F904F903F900B
:100DB0002F900895FF920F931F93CF93DF93C82F27
:100DC000F62E172F042F80E591E00E94CA0160E003
:100DD0008091A9040E94CD0183E00E94D2048C2F4F
:100DE0000E94D204CF2DD12F0C0F1D2F111DC01723
:100DF000D10729F080E00E94D2048993F8CF61E006
:100E00008091A904DF91CF911F910F91FF900C94D5
:100E1000CD010F931F93CF93DF9300D01F92CDB7D7
:100E2000DEB7182F1092970410929804109299042C
:100E300010929A0410929B0444E0BE016F5F7F4FB2
:100E40000E94DA062A81898138E0839FC00111243B
:100E5000422F50E065E0559547956A95E1F7840F7C
:100E6000951F092E000CAA0BBB0B8093980490933E
:100E70009904A0939A04B0939B0423FF29C032E005
:100E8000880F991FAA1FBB1F3A95D1F72370820FB5
:100E9000911DA11DB11DBA2FA92F982F88272B8135
:100EA000820F911DA11DB11DBA2FA92F982F882740
:100EB0002C81820F911DA11DB11D809398049093E8
:100EC0009904A0939A04B0939B0481E080939704C3
:100ED0008FEF810F0E94D904082F84E0810F0E94B8
:100EE000D90403FF16C091E09093A504482F4F70DA
:100EF00040939C046DE974E085E0810F0E94DA065E
:100F00000F900F900F900F90DF91CF911F910F9145
:100F100008951092A504EACFCF9380E591E00E9456
:100F2000CA0160E08091A9040E94CD0180EA0E947C
:100F3000D20480E00E94D204C82F61E08091A9040D
:100F40000E94CD01C0FF54C081E60E94090740E025
:100F500061E08CE20E94FA0480919704882389F072
:100F60008091980490919904A0919A04B0919B0467
:100F7000B0688093980490939904A0939A04B093D6
:100F80009B048091A504882389F080919804909116
:100F90009904A0919A04B0919B04B0648093980442
:100FA00090939904A0939A04B0939B048091980421
:100FB00090919904A0919A04B0919B048093DE03D0
:100FC0009093DF03A093E003B093E10380919C042E
:100FD0008093DD03ADE9B4E0E4E2F2E090E09F014C
:100FE000245232402817390764F42D912193F7CF0A
:100FF00084E0C1FF07C081E70E94090740E062E08A
:10100000A8CF80E0CF910895CF93DF93EB0181309B
:10101000910581F485E20E948A0270E060E080E13F
:101020000E948A02BE0188E00E948A0270E060E0AD
:1010300086E012C08230910599F480E10E948A0214
:1010400070E060E085E20E948A02BE0186E00E94B4
:101050008A0270E060E088E0DF91CF910C948A0210
:10106000892B69F470E060E085E20E948A0270E0FA
:1010700060E080E10E948A0270E060E0D4CFDF91FE
:10108000CF910895F894FC0181818330E9F034F424
:10109000813071F0823091F0789408958430D1F0ED
:1010A0008530D1F7809173008D7F80937300F4CFEA
:1010B00080916F008D7F80936F00EECF80917000E4
:1010C0008D7F80937000E8CF809171008D7F809339
:1010D0007100E2CF809172008D7F80937200DCCF2F
:1010E000FC01F8946330C9F13CF46130C1F0623026
:1010F00029F16183789408956430F1F16530C9F77E
:1011000010922001109221019091210198609093FA
:10111000210190912101916090932101EACF1092D9
:10112000800010928100809181008860809381000E
:1011300080918100816080938100DBCF1092B000AC
:101140001092B1008091B00082608093B0008091D5
:10115000B10081608093B100CCCF109290001092CA
:1011600091009091910098609093910090919100DE
:10117000916090939100BDCF1092A0001092A100B9
:101180009091A10098609093A1009091A10091602E
:101190009093A100AECFFC01408551856285738597
:1011A0008181833009F470C084F4813089F1823008
:1011B00009F44CC080859185A285B385892B8A2B43
:1011C0008B2B11F481E080830895843009F47AC078
:1011D000853081F7DB01CA014115510521E0620725
:1011E000710520F08FEF9FEFA0E0B0E09093290110
:1011F00080932801481B590B6A0B7B0B4087518752
:101200006287738780917300826080937300D2CF6E
:10121000DB01CA014115510521E06207710520F08B
:101220008FEF9FEFA0E0B0E090938900809388005B
:10123000481B590B6A0B7B0B40875187628773876A
:1012400080916F00826080936F00B4CF4F3F510553
:101250006105710529F020F04FEF50E060E070E08B
:101260004093B30080859185A285B385841B950B3F
:10127000A60BB70B80879187A287B38780917000F8
:1012800082608093700096CFDB01CA014115510541
:1012900021E06207710520F08FEF9FEFA0E0B0E042
:1012A0009093990080939800481B590B6A0B7B0B15
:1012B0004087518762877387809171008260809335
:1012C000710078CFDB01CA014115510521E06207A9
:1012D000710520F08FEF9FEFA0E0B0E09093A900A0
:1012E0008093A800481B590B6A0B7B0B40875187E2
:1012F00062877387809172008260809372005ACFF8
:10130000CF93DF93EC01F894298188859985AA858C
:10131000BB852230A9F18F3F9F4FA105B10518F47D
:10132000CE010E94CB0888859985AA85BB85AC0132
:10133000BD01009721E0A207B10520F04FEF5FEF5C
:1013400060E070E0841B950BA60BB70B888799872C
:10135000AA87BB8788859985AA85BB85892B8A2B17
:101360008B2B39F58C819D81AE81BF8188879987D0
:10137000AA87BB8781E088837894DF91CF91089515
:101380008F3F9105A105B10518F4CE010E94CB084D
:1013900088859985AA85BB85AC01BD018F3F9105E4
:1013A000A105B10579F270F24FEF50E060E070E016
:1013B000C9CF1882E1CFFC0101900020E9F73197F5
:1013C000AF01481B590BBC0182EE93E00C949D03C6
:1013D0008F929F92AF92BF920F931F93CF93DF9301
:1013E000CDB7DEB7A1970FB6F894DEBF0FBECDBF65
:1013F00019A2423008F44AE08E010F5D1F4F842E7F
:10140000912CB12CA12CA50194010E94E017E62F8C
:10141000B901CA01EA30F4F4E05DD801EE938D0120
:10142000232B242B252B79F790E080E0109719F0DF
:10143000CD010E94DB09A1960FB6F894DEBF0FBE66
:10144000CDBFDF91CF911F910F91BF90AF909F9033
:101450008F900895E95CE1CFCF93DF930E94DB0981
:10146000EC018DE892E00E94DB098C0F9D1FDF915B
:10147000CF9108950F931F93CF93DF938C01D0E00A
:10148000C0E0F801EC0FFD1F6491662341F082EE8D
:1014900093E00E943304892B11F02196F2CF8DE85E
:1014A00092E00E94DB098C0F9D1FDF91CF911F916D
:1014B0000F9108950F931F9380E992E00E94DB093A
:1014C0000E9486030091A6031091A7032091A80310
:1014D0003091A903601B710B820B930B4AE00E94B1
:1014E000E8098DE892E00E94DB090E948603609380
:1014F000A6037093A7038093A8039093A9031F9159
:101500000F9108950F931F93CF93DF931F921F9214
:10151000CDB7DEB78C010E94B6178983C80101964A
:101520000E94B6178A8389819A810F900F90DF916C
:10153000CF911F910F910895CF92DF92EF92FF927A
:101540000F931F93CF93DF9300D01F92CDB7DEB7D9
:101550006E0125E0C20ED11C8E010F5F1F4F7C0172
:10156000E01AF10AC016D10649F0C701800F911F99
:101570000E94B617F80181938F01F4CF69817A81B7
:101580008B819C810F900F900F900F90DF91CF91E6
:101590001F910F91FF90EF90DF90CF9008951F92D1
:1015A0000F920FB60F9211242F933F938F939F9317
:1015B000AF93BF938091D5039091D603A091D703A9
:1015C000B091D8033091D40323E0230F2D3758F581
:1015D0000196A11DB11D2093D4038093D503909350
:1015E000D603A093D703B093D8038091D9039091E9
:1015F000DA03A091DB03B091DC030196A11DB11DBC
:101600008093D9039093DA03A093DB03B093DC03B8
:10161000BF91AF919F918F913F912F910F900FBEEE
:101620000F901F90189526E8230F0296A11DB11D5B
:10163000D2CF1F920F920FB60F9211240BB60F92BA
:101640002F933F934F935F936F937F938F939F93CA
:10165000AF93BF93EF93FF9382EE93E00E94110448
:10166000FF91EF91BF91AF919F918F917F916F917A
:101670005F914F913F912F910F900BBE0F900FBE36
:101680000F901F9018951F920F920FB60F92112472
:101690000BB60F922F938F939F93EF93FF93E0914D
:1016A000F203F091F3038081E091F803F091F903E4
:1016B00082FD1DC090818091FB038F5F8F7320910D
:1016C000FC03821741F0E091FB03F0E0EE51FC4F88
:1016D000958F8093FB03FF91EF919F918F912F91B5
:1016E0000F900BBE0F900FBE0F901F90189580812A
:1016F000F2CF1F920F920FB60F9211240BB60F92DA
:10170000CF92DF92EF92FF922F933F934F935F938D
:101710006F937F938F939F93AF93BF93EF93FF93B9
:10172000C090B704D090B804E090B904F090BA0427
:101730008091AC04853009F04FC0C114D104E1049C
:10174000F10409F467C08091AB04882309F45DC0FB
:10175000E091BF04F091C004309741F08091C10442
:101760009091C204009709F44EC019958091AF047E
:101770009091B004A091B104B091B2040097A1403F
:10178000B105C4F0F8948091AF049091B004A09199
:10179000B104B091B2048093B3049093B404A093C5
:1017A000B504B093B6048BEA94E00E94CB08109283
:1017B000AB0478941C141D041E041F046CF481E017
:1017C000C81AD108E108F108C092B704D092B80451
:1017D000E092B904F092BA04FF91EF91BF91AF91FA
:1017E0009F918F917F916F915F914F913F912F9139
:1017F000FF90EF90DF90CF900F900BBE0F900FBE39
:101800000F901F9018951995B1CF8BEA94E00E9424
:101810008009E2CF8BEA94E00E944208DDCF1F925C
:101820000F920FB60F9211240BB60F92CF92DF9248
:10183000EF92FF922F933F934F935F936F937F931A
:101840008F939F93AF93BF93EF93FF93C090CF0479
:10185000D090D004E090D104F090D2048091C404E0
:10186000833009F04FC0C114D104E104F10409F43C
:1018700067C08091C304882309F45DC0E091D70458
:10188000F091D804309741F08091D9049091DA0416
:10189000009709F44EC019958091C7049091C8042F
:1018A000A091C904B091CA040097A140B105C4F049
:1018B000F8948091C7049091C804A091C904B09194
:1018C000CA048093CB049093CC04A093CD04B0932E
:1018D000CE0483EC94E00E94CB081092C304789469
:1018E0001C141D041E041F046CF481E0C81AD108E6
:1018F000E108F108C092CF04D092D004E092D10464
:10190000F092D204FF91EF91BF91AF919F918F918F
:101910007F916F915F914F913F912F91FF90EF9049
:10192000DF90CF900F900BBE0F900FBE0F901F90C7
:1019300018951995B1CF83EC94E00E948009E2CF0D
:1019400083EC94E00E944208DDCF4F925F926F9249
:101950007F928F929F92AF92BF92CF92DF92EF923F
:10196000FF920F931F93CF93DF93EC011981111610
:101970000CF03AC14901CB01BA010E9431199B0117
:10198000AC0160E070E08AE794E40E9490186B017B
:101990007C012EEA37E346E856E40E94E8192B0161
:1019A0003C0120E030E040E85FE30E948B1887FDB7
:1019B0001BC18FEF9FEFDC018C879D87AE87BF87B0
:1019C00020E030E040E852E4C301B201123009F4F3
:1019D00087C00E94E31901E010E0181674F020E0BF
:1019E00030E040E051E4C301B2010E94E31903E09A
:1019F00010E0181614F402E010E0C801880F991FD7
:101A00009C0121593D4F5901F501619171915F018F
:101A100090E080E00E943119A70196010E94E81928
:101A20009B01AC0160E074E284E79BE40E949018A3
:101A300020E030E040E85FE30E941E180E94021997
:101A40006115F0EC7F07FFEF8F07FFE39F07A8F515
:101A50006C837D838E839F83688779878A879B8742
:101A60001B830A83F894C88AD98AEA8AFB8A9D8AEA
:101A70008C8A1F8A1E8A18828981823009F08BC065
:101A80008091B100887F9A81892B8093B100CE012B
:101A90000E94CB08789481E0DF91CF911F910F9144
:101AA000FF90EF90DF90CF90BF90AF909F908F907E
:101AB0007F906F905F904F9008950F5F1F4F06309B
:101AC000110509F0A1CF6C837D838E839F83688786
:101AD00079878A879B8785E090E09B838A83C2CF42
:101AE0000E94E31901E010E01816D4F020E030E085
:101AF00040E051E4C301B2010E94E31902E010E0AA
:101B0000181674F020E030E040E050E4C301B20168
:101B10000E94E31904E010E0181614F403E010E04A
:101B2000C801880F991F9C01215A3D4F5901F501A9
:101B3000619171915F0190E080E00E943119A701ED
:101B400096010E94E8199B01AC0160E074E284E711
:101B50009BE40E94901820E030E040E85FE30E94A0
:101B60001E180E9402196115F0EC7F07FFE38F0732
:101B7000910508F46DCF0F5F1F4F08301105B9F6BE
:101B80006C837D838E839F83688779878A879B8711
:101B900087E090E0A2CF813041F480918100887F7E
:101BA0009A81892B8093810072CF833041F4809198
:101BB0009100887F9A81892B8093910068CF84302F
:101BC00041F48091A100887F9A81892B8093A100A4
:101BD0005ECF853009F05BCF80912101887F9A81AB
:101BE000892B8093210153CF80E056CF8F929F9213
:101BF000AF92BF92EF92FF920F931F93CF93DF9319
:101C000000D000D01F921F92CDB7DEB7FC01F1804B
:101C10002081F0E12F9F900111244F2D50E064E0CE
:101C2000559547956A95E1F7242B352B233241E0F2
:101C3000340761F12032314009F45CC0198282E03E
:101C40008A8380E090E0A0E2B2E48B839C83AD8342
:101C5000BE8388EE93E098878F8329813A814B81F8
:101C60005C816D817E818F81988528960FB6F8946E
:101C7000DEBF0FBECDBFDF91CF911F910F91FF90BF
:101C8000EF90BF90AF909F908F900895E12C8C01C2
:101C9000FC018281F8E78F9FC00111246FEF70E093
:101CA0000E94CC17072E000C880B990B0E94331949
:101CB0004B015C01F801638170E090E080E00E94DC
:101CC000311920E030E44CE156E40E94E81920E0AC
:101CD00030E04FE753E40E9490180E940219E98215
:101CE0002F2D23702A838B829C82AD82BE827887BF
:101CF0006F83B3CFEE24E394CACFFF920F931F9369
:101D0000CF93DF93EC01F62E08811981C8010E9460
:101D1000B617F81621F06F2DC8010E94BE17CE012C
:101D2000DF91CF911F910F91FF900895FF920F9334
:101D30001F93CF93DF931F921F92CDB7DEB78C0115
:101D4000F72E9A838983CE0101960E947D0E0F5F44
:101D50001F4F1A8309836F2DCE0101960E947D0EBD
:101D60000F900F90DF91CF911F910F91FF900895E9
:101D7000CF93DF93E2EEF3E01382128288EE93E0DA
:101D8000A0E0B0E084839583A683B7838FE792E0D9
:101D90009183808385EC90E09587848784EC90E044
:101DA0009787868780EC90E0918B808B81EC90E028
:101DB000938B828B82EC90E0958B848B86EC90E009
:101DC000978B868B118E128E138E148EE3ECF4E0BB
:101DD00083E08183108A118A128A138A158A148AF1
:101DE000178A168A108221E030E03383228314821E
:101DF00015821682178210861186128613868FEF3F
:101E00009FEFDC0184879587A687B787EBEAF4E02C
:101E100045E04183108A118A128A138A158A148A2E
:101E2000178A168A108233832283148215821682BF
:101E30001782108611861286138684879587A68757
:101E4000B787C7E9D4E081E28A8B61E00E94CD01C7
:101E500061E08A890E9459028FE794E0998B888B10
:101E6000EAE8F4E089E18083148282E390E09487D9
:101E70008387E5E8F4E01182128288EE93E0948390
:101E80008383E0E8F4E01182128294838383DF91FC
:101E9000CF910895CF93DF9300D000D000D01F9250
:101EA000CDB7DEB7789484B5826084BD84B5816097
:101EB00084BD85B5826085BD85B5816085BD809115
:101EC0006E00816080936E0010928100809181008D
:101ED0008260809381008091810081608093810085
:101EE000809180008160809380008091B100846047
:101EF0008093B1008091B00081608093B0008091A8
:101F00009100826080939100809191008160809324
:101F10009100809190008160809390008091A10059
:101F200082608093A1008091A10081608093A100D4
:101F30008091A00081608093A00080912101826047
:101F40008093210180912101816080932101809102
:101F5000200181608093200180917A0084608093C9
:101F60007A0080917A00826080937A0080917A0072
:101F7000816080937A0080917A00806880937A00F3
:101F80001092C10061E08DE00E94590261E087E299
:101F90000E94590261E089E20E94590261E080E2F8
:101FA0000E94590261E082E20E94590261E084E2EB
:101FB0000E94590261E086E20E94590261E088E2D3
:101FC0000E94590261E08AE20E94590260E083E0C7
:101FD0000E94590261E08CE20E94590261E08EE2A7
:101FE0000E94590261E088E00E94590261E086E0A7
:101FF0000E94590261E085E20E94590261E080E19D
:102000000E94590261E080E10E94590261E081E191
:102010000E94590261E080E10E94CD0161E081E10E
:102020000E94CD01E091F203F091F30382E08083FE
:10203000E091EE03F091EF031082E091F003F09154
:10204000F10380E180831092FA03E091F603F091AE
:10205000F70386E08083E091F403F091F50380813B
:1020600080618083E091F403F091F50380818860C2
:102070008083E091F403F091F50380818068808390
:10208000E091F403F091F50380818F7D808360916E
:10209000C40483EC94E00E9470086091AC048BEA65
:1020A00094E00E9470081FB7F89480919C038111FE
:1020B00027C0EFE8F2E08491E5EDF2E09491E82F9B
:1020C000F0E0EE0FFF1FEA5DFD4FA591B491EC919A
:1020D000E92321F461E085E30E94CD0161E085E31D
:1020E0000E9459028CB580618CBD8CB580648CBD1A
:1020F00061E084E30E94590261E083E30E94590297
:1021000080919C038F5F80939C031FBF80E591E0CB
:102110000E94CA0160E08091A9040E94CD0180EC78
:102120000E94D20461E08091A9040E94CD010E9426
:1021300061034B015C01B5E0CB2ED12CE12CF12CDD
:102140000E946103681979098A099B09683E7340F6
:1021500081059105A8F321E0C21AD108E108F10830
:1021600038EE830E33E0931EA11CB11CC114D104C0
:10217000E104F10429F780E48093AA0480E80E9436
:102180003D05882309F44EC08FEF91E00E943A0A82
:1021900085E793E00E942C0A1092AA0480E00E9436
:1021A0003D0590E080E00E949C0A60930C027093D1
:1021B0000D0280930E0290930F0288E090E00E943F
:1021C000820A90931102809310028CE090E00E94AA
:1021D000B61780930B0284E090E00E949C0A609303
:1021E00004027093050280930602909307028AE02E
:1021F00090E00E94820A90930902809308028DE089
:1022000090E00E94B617809303020AEF10E0EDE021
:102210002E2E312CFCE08F2E912CAFE4AA2EA2E0C2
:10222000BA2E00C587ED91E00E943A0A60E08AE28A
:102230000E94730561ED89E20E94730561E888E2FE
:102240000E9473058AEB91E00E943A0A61E080E205
:102250000E94C20561E084E20E94C20561E080E064
:102260000E94C20560E084E00E94C20561E088E04F
:102270000E94C20560E080E10E94C20561E084E145
:102280000E94C20560E088E10E94C20510E360E0A0
:10229000812F0E94730560E080E1810F0E94730529
:1022A00060E080E2810F0E9473051F5F1E3379F7A3
:1022B00060E080E60E94730560E080E70E9473059D
:1022C00063E08BE20E9473056CE38CE00E9473056F
:1022D00060E08DE00E94730544E664E680E60E94BB
:1022E000FA0440E660E680E70E94FA048091AA04BE
:1022F0000E943D05882309F432C684E991E046CF67
:1023000081309440A105B10569F430E020E040E05F
:1023100061E074E080E090E00E94DE058CEA92E0EB
:102320000E942C0A8091DE039091DF03A091E003CC
:10233000B091E10382309440A105B10509F016C1C6
:1023400080912402282F237030E03093BF03209324
:10235000BE0390E09C013595279535952795237010
:1023600033273093BD032093BC039C01F4E03595E3
:102370002795FA95E1F7237033273093BB03209319
:10238000BA03A6E095958795AA95E1F79093B903CE
:102390008093B80380912502282F237030E030937A
:1023A000C7032093C60390E09C013595279535958A
:1023B0002795237033273093C5032093C4039C01D2
:1023C00044E0359527954A95E1F7237033273093FC
:1023D000C3032093C20356E0959587955A95E1F77C
:1023E0009093C1038093C00368EB662E63E0762E62
:1023F0007FE4C72E72E0D72EF301819191913F01C6
:102400008130910509F4BBC48230910509F4BDC443
:1024100060E0892B09F4B4C4F2E0CF0ED11C28ECA3
:1024200033E02615370541F780912602282F30E04A
:102430002B3F31050CF0AEC43FEF839FC001112448
:10244000B8010E94CC177093B7036093B6038091D4
:102450002702282F30E02B3F31050CF0A4C4EFEF0A
:102460008E9FC0011124B8010E94CC177093B50350
:102470006093B40380912802282F30E02B3F310570
:102480000CF09AC4FFEF8F9FC0011124B8010E9485
:10249000CC177093B3036093B203C090B6037091EE
:1024A000B7036C2D8CE20E948A02D090B403709125
:1024B000B5036D2D8EE20E948A022091B2038091B5
:1024C000B8039091B903B6E0880F991FBA95E1F768
:1024D0004091BA035091BB0394E0440F551F9A9565
:1024E000E1F7842B9091BE03892B4091BC0350915E
:1024F000BD03440F551F440F551F842B80931A02B0
:102500008091C0039091C10346E0880F991F4A95BE
:10251000E1F74091C2035091C30364E0440F551F9B
:102520006A95E1F7842B9091C603892B4091C403EF
:102530005091C503440F551F440F551F842B8093A2
:102540001B02C0921C02D0921D0220931E02109208
:102550001F0210922002109221022AE132E048E08C
:1025600062E274E080E090E00E94DE058091DE038C
:102570009091DF03A091E003B091E1038330944098
:10258000A105B10509F01BC184E292E00E94F60D9D
:1025900020931202309313024093140250931502B9
:1025A0006093160270931702809318029093190299
:1025B000323008F40AC4323009F411C480910A029E
:1025C000813091F580910C0290910D02A0910E0244
:1025D000B0910F028D839E83AF83B8873E0135E0B3
:1025E000630E711CD12CC12CF30161913F01DA867D
:1025F000C986CE0109960E947D0EFFEFCF1ADF0A31
:1026000024E0C216D10481F760911002709111028A
:1026100088E090E00E94960E60910B029A8689866F
:10262000CE0109960E947D0E88E292E00E94F60D8E
:102630002093120230931302409314025093150218
:1026400060931602709317028093180290931902F8
:10265000323008F4C9C3323009F4D0C38091040287
:1026600090910502A0910602B0910702209102020A
:10267000213051F589839A83AB83BC83CE010196C7
:102680003C01A4E0CA2ED12CF30161913F01DA860E
:10269000C986CE0109960E947D0EFFEFCF1ADF0A90
:1026A00028E0C216D10481F76091080270910902F6
:1026B0008AE090E00E94960E609103023A86298695
:1026C000CE0109960E947D0E20910B0260910C02B2
:1026D00070910D0280910E0290910F02C090100235
:1026E000D090110232E130931A02206320931B0232
:1026F00020E030E04FE753E40E94E81920E030E0AA
:1027000040EF52E40E9490180E94021960931C024C
:10271000B60190E080E00E94311920E030E04FE700
:1027200053E40E94E81920E030E44CE156E40E94B2
:1027300090180E94021960931D022091030260917B
:102740000402709105028091060290910702C090E8
:102750000802D0900902E2E1E0931E022063209378
:102760001F0220E030E04FE753E40E94E81920E028
:1027700030E040EF52E40E9490180E9402196093EA
:102780002002B60190E080E00E94311920E030E0A4
:102790004FE753E40E94E81920E030E44CE156E4AE
:1027A0000E9490180E940219609321022AE132E0EF
:1027B00048E063E274E080E090E00E94DE058091F2
:1027C000DE039091DF03A091E003B091E103843038
:1027D0009440A105B10509F042C080912402909176
:1027E0002502982789279827209126022170309169
:1027F0002702337030938004109281042093820466
:10280000909384048093830485E0E0E8F4E0A5E8F5
:10281000B4E001900D928A95E1F780918504909142
:102820008704209188043091890430931A02209300
:102830001B0290931C02837080931D0210921E0253
:1028400010921F0210922002109221022AE132E01F
:1028500048E064E274E080E090E00E94DE05809150
:10286000DE039091DF03A091E003B091E103853096
:102870009440A105B10509F58091240290E0F6E0AD
:1028800095958795FA95E1F7813009F4BFC208F470
:10289000BAC2823009F4BEC28091860430E4839FBC
:1028A000C00111248093B10321EB33E048E065E2DD
:1028B00074E080E090E00E94DE058091DE0390915C
:1028C000DF03A091E003B091E10380319540A105C1
:1028D000B10509F0DAC0709025028091260290E0DF
:1028E0004091280250E0B42FAA27AA27BF70209158
:1028F0002702A22BB85020912A0230E060912902D1
:10290000F4E06F9FB0011124FA01689415F8F59571
:10291000E7951694E1F76E2B7F2BF901FE2FEE273A
:10292000FF0FFF0FEE27FC706E2B7F2B7850F0917E
:102930002B02E0E1FE9F700111246901E4E0D594CF
:10294000C794EA95E1F7EC28FD282701F8E05F1A23
:10295000D0902402F0E8FF2EDF0CD0928A04E72DFD
:10296000E370E0938B046C01E6E0D594C794EA959C
:10297000E1F7C0928C04F4E055954795FA95E1F79C
:10298000437040938D043595279535952795237091
:1029900020938E0456E0880F991F5A95E1F7807CAA
:1029A0009F70272D30E03595279535952795822BFB
:1029B000932B98509093900480938F04B09392043B
:1029C000A09391047093940460939304509296049E
:1029D000409295044090A1035090A2036090A303FD
:1029E0007090A403072E000C880B990B0E943319DA
:1029F0002DEC3CEC4CEC5DE30E94E8196B017C0192
:102A000026E636E646E65FE3C301B2010E94E81916
:102A10009B01AC01C701B6010E941F186093A1037E
:102A20007093A2038093A3039093A4036093CC03B9
:102A30007093CD038093CE039093CF0384E193E012
:102A40000E94DB094090CC035090CD036090CE03F0
:102A50007090CF03A3019201C301B2010E94551AE5
:102A6000882309F4DCC18DE293E00E94DB098DE844
:102A700092E00E94DB090E9486036093D00370936A
:102A8000D1038093D2039093D3030E948603409096
:102A9000AD035090AE036090AF037090B003AB01F4
:102AA000BC01441955096609770980918804909101
:102AB0008904B0E0A0E0481759076A077B07C8F10E
:102AC00080918604811104C080918504882389F156
:102AD000109286048FE2C82E82E0D82EF601619112
:102AE0007191819191916F0130E020E040E00E946E
:102AF000DE0587E090E00197F1F70E948C07AC14A7
:102B0000BD0461F71092AB031092AC032BEA33E0E3
:102B100048E066E274E080E090E00E94DE050E94FA
:102B200086036093AD037093AE038093AF039093DD
:102B3000B003D0900B02F1E0DF1203C22091CC036E
:102B40003091CD034091CE035091CF0360910C02A0
:102B500070910D0280910E0290910F020E948B18CD
:102B600018160CF4EEC18091AA03811118C040918F
:102B700010025091110270E060E02AE53AE08BEA21
:102B800094E00E94A50C0E9486036093A6037093B4
:102B9000A7038093A8039093A903D092AA03D0908F
:102BA0000302FF24F394DF10D3C12091C8033091B6
:102BB000C9034091CA035091CB0360910402709104
:102BC000050280910602909107020E948B18181648
:102BD0000CF4BEC18091A50381110EC04091080282
:102BE0005091090270E060E022E933E083EC94E068
:102BF0000E94A50CD092A50370E060E090E080E018
:102C00000E94040870E060E090E080E00E94040808
:102C10001092DE031092DF031092E0031092E103A2
:102C20000E94A0044090D0035090D1036090D20342
:102C30007090D303F4EF4F0EF1E05F1E611C711C26
:102C40000E948603461657066806790608F07AC081
:102C5000C090A103D090A203E090A303F090A4033E
:102C60006091930470919404072E000C880B990BCB
:102C70000E9433192DEC3CEC4CEC5DE30E94E8190A
:102C80002B013C0126E636E646E65FE3C701B601C6
:102C90000E94E8199B01AC01C301B2010E941F18F8
:102CA0006093A1037093A2038093A3039093A40362
:102CB0006093CC037093CD038093CE039093CF03A6
:102CC0006091220270912302C0909D03D0909E03D8
:102CD000E0909F03F090A003072E000C880B990B47
:102CE0000E9433192DEC3CEC4CEC5DE30E94E8199A
:102CF0002B013C0126E636E646E65FE3C701B60156
:102D00000E94E8199B01AC01C301B2010E941F1887
:102D100060939D0370939E0380939F039093A00301
:102D20006093C8037093C9038093CA039093CB0345
:102D30000E9486036093D0037093D1038093D203E3
:102D40009093D3030E948C078091DE039091DF0360
:102D5000A091E003B091E103833422E09207A10542
:102D6000B10509F0CDCAF89488E198E00FB6F8945F
:102D7000A895809360000FBE90936000FFCF61E044
:102D8000F60180810E94CD0147CB8CEB92E00E943E
:102D90002C0A42CB2F3F310509F459CB87EC92E046
:102DA0000E94DB0954CB2F3F310509F463CB83ED3F
:102DB00092E00E94DB095ECB2F3F310509F46DCB19
:102DC0008FED92E00E94DB0968CB88E0E2E1F2E05F
:102DD000AAE0B2E001900D928A95E1F7EFCB8DEE7B
:102DE00092E00E94DB09EACB88E0E2E1F2E0A2E0B7
:102DF000B2E001900D928A95E1F730CC89EF92E034
:102E00000E94DB092BCC1092860446CD81E0809392
:102E1000860442CD88E093E00E94DB093DCD73013A
:102E20006201E894F7F82FEF3FEF4FE75FE7C70144
:102E3000B6010E94551A81110DC02FEF3FEF4FE7E9
:102E40005FE7C701B6010E948B1818161CF481E3D6
:102E500093E00BCE2FEF3FEF4FE75FE4C301B201EA
:102E60000E94E31918161CF485E393E0FECD2FEFC2
:102E70003FEF4FE75FECC301B2010E948B1887FD63
:102E8000F3CF20E030E0A901C301B2010E948B180A
:102E900087FF09C06DE282EE93E00E94330477FA67
:102EA000709477F870942AE037ED43EA5BE3C3014E
:102EB000B2010E941F186B017C010E9402192B01B4
:102EC0003C010E9431199B01AC01C701B6010E946F
:102ED0001E186B017C014AE0C301B2010E94E8099F
:102EE0006EE282EE93E00E94330420E030E040E2A4
:102EF00051E4C701B6010E94E8196B017C010E94F0
:102F000002192B01712C612C4AE0C301B2010E940D
:102F1000E809C301B2010E9431199B01AC01C7014C
:102F2000B6010E941E1820E030E040E251E40E9409
:102F3000E8190E94021990E080E04AE00E94E80946
:102F400096CD8BEA94E00E9442081092AA0327CE05
:102F500083EC94E00E9442081092A5034DCE89E3D1
:102F600093E00E942C0A8BE593E014C9F999FECFF7
:102F700092BD81BDF89A992780B50895262FF999B9
:102F8000FECF1FBA92BD81BD20BD0FB6F894FA9A4C
:102F9000F99A0FBE0196089597FB072E16F4009438
:102FA00007D077FD09D00E940A1807FC05D03EF42F
:102FB000909581959F4F0895709561957F4F0895E5
:102FC000A1E21A2EAA1BBB1BFD010DC0AA1FBB1F2D
:102FD000EE1FFF1FA217B307E407F50720F0A21B9F
:102FE000B30BE40BF50B661F771F881F991F1A940C
:102FF00069F760957095809590959B01AC01BD0136
:10300000CF010895EE0FFF1F881F8BBF0790F69129
:10301000E02D1994AA1BBB1B51E107C0AA1FBB1FBF
:10302000A617B70710F0A61BB70B881F991F5A9554
:10303000A9F780959095BC01CD0108955058BB2704
:10304000AA270E9436180C94A9190E949B1938F0DF
:103050000E94A21920F039F49F3F19F426F40C9431
:1030600098190EF4E095E7FB0C949219E92F0E9451
:10307000BA1958F3BA17620773078407950720F047
:1030800079F4A6F50C94DC190EF4E0950B2EBA2F0A
:10309000A02D0B01B90190010C01CA01A00111245E
:1030A000FF27591B99F0593F50F4503E68F11A160A
:1030B000F040A22F232F342F4427585FF3CF46959B
:1030C00037952795A795F0405395C9F77EF41F16BD
:1030D000BA0B620B730B840BBAF09150A1F0FF0F87
:1030E000BB1F661F771F881FC2F70EC0BA0F621F73
:1030F000731F841F48F4879577956795B795F79563
:103100009E3F08F0B0CF9395880F08F09927EE0FF7
:103110009795879508950E946E1908F481E00895A7
:103120000E94A4180C94A9190E94A21958F00E9498
:103130009B1940F029F45F3F29F00C94921951112A
:103140000C94DD190C9498190E94BA1968F399230C
:10315000B1F3552391F3951B550BBB27AA27621793
:103160007307840738F09F5F5F4F220F331F441FA0
:10317000AA1FA9F335D00E2E3AF0E0E832D09150D4
:103180005040E695001CCAF72BD0FE2F29D0660FC1
:10319000771F881FBB1F261737074807AB07B0E804
:1031A00009F0BB0B802DBF01FF2793585F4F3AF00A
:1031B0009E3F510578F00C9492190C94DD195F3FF5
:1031C000E4F3983ED4F3869577956795B795F79590
:1031D0009F5FC9F7880F911D9695879597F9089578
:1031E000E1E0660F771F881FBB1F62177307840714
:1031F000BA0720F0621B730B840BBA0BEE1F88F723
:10320000E09508950E94C21988F09F5798F0B92F51
:103210009927B751B0F0E1F0660F771F881F991F0B
:103220001AF0BA95C9F714C0B13091F00E94DC19B8
:10323000B1E008950C94DC19672F782F8827B85FC8
:1032400039F0B93FCCF3869577956795B395D9F763
:103250003EF490958095709561957F4F8F4F9F4F6D
:103260000895E89409C097FB3EF490958095709579
:1032700061957F4F8F4F9F4F9923A9F0F92F96E9C2
:10328000BB279395F695879577956795B795F11137
:10329000F8CFFAF4BB0F11F460FF1BC06F5F7F4FD4
:1032A0008F4F9F4F16C0882311F096E911C07723E6
:1032B00021F09EE8872F762F05C0662371F096E8EF
:1032C000862F70E060E02AF09A95660F771F881FBE
:1032D000DAF7880F9695879597F90895990F000862
:1032E000550FAA0BE0E8FEEF16161706E807F907D8
:1032F000C0F012161306E407F50798F0621B730B73
:10330000840B950B39F40A2661F0232B242B252BF3
:1033100021F408950A2609F4A140A6958FEF811D96
:10332000811D089597F99F6780E870E060E0089537
:103330009FEF80EC089500240A94161617061806CD
:103340000906089500240A941216130614060506A9
:103350000895092E0394000C11F4882352F0BB0F3A
:1033600040F4BF2B11F460FF04C06F5F7F4F8F4F9D
:103370009F4F089557FD9058440F551F59F05F3FD8
:1033800071F04795880F97FB991F61F09F3F79F087
:1033900087950895121613061406551FF2CF469509
:1033A000F1DF08C0161617061806991FF1CF86958B
:1033B0007105610508940895E894BB27662777276F
:1033C000CB0197F908950E946E1908F48FEF0895C4
:1033D0000E94FB190C94A9190E949B1938F00E94B5
:1033E000A21920F0952311F00C9492190C949819BD
:1033F00011240C94DD190E94BA1970F3959FC1F342
:10340000950F50E0551F629FF001729FBB27F00D92
:10341000B11D639FAA27F00DB11DAA1F649F6627E7
:10342000B00DA11D661F829F2227B00DA11D621F36
:10343000739FB00DA11D621F839FA00D611D221FF0
:10344000749F3327A00D611D231F849F600D211DD4
:10345000822F762F6A2F11249F5750409AF0F1F057
:1034600088234AF0EE0FFF1FBB1F661F771F881FC0
:1034700091505040A9F79E3F510580F00C9492194D
:103480000C94DD195F3FE4F3983ED4F3869577956D
:103490006795B795F795E7959F5FC1F7FE2B880F66
:1034A000911D9695879597F908950E946E19880B3E
:0834B000990B0895F894FFCF79
:1034B8007800000000002042E803000000002042DD
:1034C800E803000000002042E8032000000000009C
:1034D800000078002000000000000000304050107C
:1034E800050040200500403005004010060040114E
:1034F8000600402006004021060040220600402722
:10350800002900200022002400260028002A0001AB
:1035180000010008002000400080000001000401B4
:103528000001000800400000010004000000003312
:10353800049D03CA038004FB03D903ED030D0A00AD
:103548004954696D6572312063616C6C65642C2027
:103558006D696C6C69732829203D20004573746F70
:10356800752061636F726461646F0A004572726FDF
:1035780072204C454473004572726F722050574D4B
:103588002031004572726F722050574D203200452D
:1035980072726F7220456E636F6465720045727255
:1035A8006F72203078343033004572726F72203079
:1035B80078343033202B34004572726F72203078A3
:1035C8003430350054656D706572617475726120B0
:1035D800312046696C74726164613A20006E616ED4
:1035E80000696E66006F7666004D4350323531359E
:1035F80020496E697469616C697A656420537563E2
:103608006365737366756C6C7921005445737465D2
:1036180020736520657374612066756E63696F6ECB
:10362800616E646F004572726F7220496E697469C9
:10363800616C697A696E67204D4350323531352E99
:043648002E2E000022
:00000001FF
