:100000000C94A4010C94D5010C94D5010C94D50149
:100010000C94D5010C94D5010C94D5010C94D50108
:100020000C94D5010C94D5010C94D5010C94D501F8
:100030000C94D5010C94D5010C94D5010C94D501E8
:100040000C94D5010C94D5010C94D5010C94D501D8
:100050000C94D5010C94D5010C94D5010C94440B4F
:100060000C94D5010C94B80B0C948E0B0C94D50108
:100070000C94D5010C94D5010C94D5010C94D501A8
:100080000C94840C0C94D5010C94D5010C94D501DE
:100090000C94D5010C94D5010C94D5010C94D50188
:1000A0000C94D5010C94D5010C94D5010C94D50178
:1000B0000C94D5010C94D5010C94D5010C94EE0B45
:1000C0000C94D5010C94D5010C94D5010C94D50158
:1000D0000C94D5010C94D5010C94D5010C94D50148
:1000E0000C94D5010C9406020C9472030C94A60E89
:1000F0000C9403040C941D030C94E0030C945E0315
:100100000C9431030C9413020C9427030C94FE01FD
:100110000C9440030C942B020C94F9020C942502CD
:100120000C94E5020C9449040C9413030C940D02F6
:100130000C94A8030C9496040C94EF030C943802CE
:100140000C9439020C94D8020C944A030C940202C9
:100150000C940B030C94F8010C9421020C941104E0
:100160000C94EF020C942F020C9468030C940A0276
:100170000C941D020C94B3030C9417020C945403BA
:100180000C94E0020C943D020C9433020C94CF0AC0
:100190000C94030352657475726E696E6720746FF8
:1001A0002050726576696F7573204D6F64652046C7
:1001B00061696C7572652E2E2E0053657474696EBC
:1001C000672042617564726174652053756363656D
:1001D000737366756C2100456E746572696E672075
:1001E000436F6E66696775726174696F6E204D6FDB
:1001F0006465205375636365737366756C21004590
:100200006E746572696E6720436F6E66696775729A
:100210006174696F6E204D6F6465204661696C750D
:1002200072652E2E2E0000002000230026002900DB
:100230002C002F003200000100000301060109011B
:1002400000002100240027002A002D003000330088
:1002500001010000040107010A010000220025003D
:1002600028002B002E00310034000201000005019F
:1002700008010B0105050505070508080808020225
:1002800002020A0A08080404040401010101010130
:1002900001010303030303030303040707070C0C13
:1002A0000C0C0C0C0C0C02020202060606060606DA
:1002B00006060B0B0B0B0B0B0B0B0102102020087F
:1002C00008102040102040800201020108040201B1
:1002D0000102040810204080804020100804020120
:1002E0008004020180402010080402010804020179
:1002F0000102040810204080010204081020408000
:1003000000000A0B02090C0D0E080703040100008F
:1003100000000000000000000000000000000000DD
:10032000000000000000000000000000121110009A
:1003300000000000000000000000000000000000BD
:10034000000000000000A60E11241FBECFEFD1E276
:10035000DEBFCDBF00E00CBF13E0A0E0B2E0E0E5FF
:10036000F5E300E00BBF02C007900D92A63CB10779
:10037000D9F725E0A6ECB3E001C01D92AD30B2077D
:10038000E1F711E0C4EAD1E000E006C021970109DD
:10039000802FFE010E944E18C33AD10780E0080763
:1003A000A9F70E94380F0C94A61A0C9400008CBD7B
:1003B0009DBD08958150823108F05AC0E82FF0E0C9
:1003C0008827EA51FE4F8F4F0C944E1806020A02FE
:1003D000F801FE01020238020D02130217021D028B
:1003E000210225022B022F023802330239023D027C
:1003F000809180008F7780938000089580918000A5
:100400008F7DF9CF80918000877FF5CF84B58F777E
:1004100084BD089584B58F7DFBCF8091B0008F7728
:100420008093B00008958091B0008F7DF9CF8091C6
:1004300090008F77809390000895809190008F7D39
:10044000F9CF80919000877FF5CF8091A0008F77C2
:100450008093A00008958091A0008F7DF9CF8091B6
:10046000A000877FF5CF809120018F7780932001B6
:100470000895809120018F7DF9CF80912001877FA1
:10048000F5CF1F93CF93DF93282F30E0F901E05091
:10049000FD4F8491F901E654FD4FD491F901EC58D8
:1004A000FD4FC491CC23A9F0162F81110E94DA01CF
:1004B000EC2FF0E0EE0FFF1FE65AFD4FA591B4912F
:1004C0008FB7F894EC91111108C0D095DE23DC931E
:1004D0008FBFDF91CF911F910895DE2BF8CFCF937F
:1004E000DF9390E0FC01E654FD4F24918C589D4F22
:1004F000FC0184918823D1F090E0880F991FFC01C2
:10050000E05CFD4FA591B491FC01E65AFD4FC59109
:10051000D49161110EC09FB7F8948C91E22FE095B1
:100520008E238C932881E223E8839FBFDF91CF91B4
:1005300008958FB7F894EC91E22BEC938FBFF6CF30
:100540001F93CF93DF93182FEB0161E00E946F029E
:10055000209739F460E0812FDF91CF911F910C94A7
:100560004102CF3FD10511F461E0F5CFE12FF0E07A
:10057000E050FD4FE491E150E23108F0B3C0F0E00B
:100580008827EA53FD4F8F4F0C944E18D802E00293
:10059000E502EF02F902720303030B0313031D03C9
:1005A0002703310340034A03720354035E036803C5
:1005B00084B5806884BDC7BDDF91CF911F91089538
:1005C00084B5806284BDC8BDF7CF8091800080680B
:1005D00080938000D0938900C0938800EDCF8091F4
:1005E0008000806280938000D0938B00C0938A004B
:1005F000E3CF80918000886080938000D0938D004D
:10060000C0938C00D9CF8091B00080688093B000F7
:10061000C093B300D1CF8091B00080628093B000CE
:10062000C093B400C9CF80919000806880939000FF
:10063000D0939900C0939800BFCF809190008062C2
:1006400080939000D0939B00C0939A00B5CF809187
:100650009000886080939000D0939D00C0939C0090
:10066000ABCF8091A00080688093A0008091A00013
:100670008F7B8093A000D093A900C093A8009CCF4B
:100680008091A00080628093A000D093AB00C093C3
:10069000AA0092CF8091A00088608093A000D093A0
:1006A000AD00C093AC0088CF80912001806880931A
:1006B0002001D0932901C09328017ECF8091200191
:1006C000806280932001D0932B01C0932A0174CFC4
:1006D00080912001886080932001D0932D01C093E8
:1006E0002C016ACFC038D1050CF03ECF33CF3FB7D5
:1006F000F8948091100490911104A0911204B0918B
:10070000130426B5A89B05C02F3F19F00196A11D23
:10071000B11D3FBFBA2FA92F982F8827BC01CD014B
:10072000620F711D811D911D42E0660F771F881FAA
:10073000991F4A95D1F708952FB7F89460910C044A
:1007400070910D0480910E0490910F042FBF0895B5
:100750000E949C036093CA037093CB038093CC03E5
:100760009093CD030895AF92BF92CF92DF92EF9214
:10077000FF920F931F93CF93DF936C017B018B014B
:10078000040F151FEB015E01AE18BF08C017D1079B
:1007900059F06991D601ED91FC910190F081E02D25
:1007A000C6011995892B79F7C501DF91CF911F916A
:1007B0000F91FF90EF90DF90CF90BF90AF90089592
:1007C000FC01538D448D252F30E0842F90E0821B57
:1007D000930B541710F0CF96089501970895FC01DC
:1007E000918D828D981761F0A28DAE0FBF2FB11D34
:1007F0005D968C91928D9F5F9F73928F90E008958C
:100800008FEF9FEF0895FC01918D828D981731F045
:10081000828DE80FF11D858D90E008958FEF9FEF99
:100820000895FC01918D228D892F90E0805C9F4F6F
:10083000821B91098F739927089584E194E00E94A7
:10084000110421E0892B09F420E0822F0895FC0196
:10085000A48DA80FB92FB11DA35ABF4F2C91848D21
:1008600090E001968F739927848FA689B7892C937E
:10087000A089B1898C91837080648C93938D848DD1
:10088000981306C00288F389E02D80818F7D8083D4
:100890000895EF92FF920F931F93CF93DF93EC0194
:1008A00081E0888F9B8D8C8D98131AC0E889F98917
:1008B000808185FF15C09FB7F894EE89FF8960831A
:1008C000E889F98980818370806480839FBF81E09B
:1008D00090E0DF91CF911F910F91FF90EF900895DD
:1008E000F62E0B8D10E00F5F1F4F0F731127E02EB8
:1008F0008C8D8E110CC00FB607FCFACFE889F989F0
:10090000808185FFF5CFCE010E942704F1CFEB8DCA
:10091000EC0FFD2FF11DE35AFF4FF0829FB7F894C3
:100920000B8FEA89FB8980818062CFCFCF93DF93E1
:10093000EC01888D8823B9F0AA89BB89E889F989F7
:100940008C9185FD03C0808186FD0DC00FB607FC2C
:10095000F7CF8C9185FFF2CF808185FFEDCFCE015F
:100960000E942704E9CFDF91CF91089580E090E0C5
:10097000892B29F00E941D0481110E94000080E053
:1009800090E0892B49F080E090E0892B29F00E94CB
:10099000000081110E94000080E090E0892B49F066
:1009A00080E090E0892B29F00E94000081110E94D4
:1009B000000080E090E0892B49F080E090E0892BF6
:1009C00029F00E94000081110C9400000895089500
:1009D0008EBD00000DB407FEFDCF8EB50895FF92C9
:1009E0000F931F93CF93DF93F82E062F142F80E5DC
:1009F00091E00E94D701C9ECD4E060E08A890E94AE
:100A0000410285E00E94E8048F2D0E94E804802FB7
:100A10000E94E804812F0E94E80461E08A89DF9146
:100A2000CF911F910F91FF900C944102FF920F9371
:100A30001F93CF93DF93C82FF62E172F042F80E537
:100A400091E00E94D70160E08091DB040E944102A6
:100A500083E00E94E8048C2F0E94E804CF2DD12F60
:100A60000C0F1D2F111DC017D10729F080E00E9427
:100A7000E8048993F8CF61E08091DB04DF91CF91A6
:100A80001F910F91FF900C9441021F93CF93DF931E
:100A9000182F80E591E00E94D701C9ECD4E060E016
:100AA0008A890E94410283E00E94E804812F0E940B
:100AB000E80480E00E94E804182F61E08A890E941F
:100AC0004102812FDF91CF911F9108950F931F93C2
:100AD000CF93DF9300D01F92CDB7DEB7182F1092BF
:100AE000C9041092CA041092CB041092CC04109244
:100AF000CD0444E0BE016F5F7F4F0E9416052A813E
:100B0000898138E0839FC0011124422F50E065E0C5
:100B1000559547956A95E1F7840F951F092E000CAE
:100B2000AA0BBB0B8093CA049093CB04A093CC0474
:100B3000B093CD0423FF29C032E0880F991FAA1F6C
:100B4000BB1F3A95D1F72370820F911DA11DB11DD6
:100B5000BA2FA92F982F88272B81820F911DA11DB5
:100B6000B11DBA2FA92F982F88272C81820F911D94
:100B7000A11DB11D8093CA049093CB04A093CC0413
:100B8000B093CD0481E08093C9048FEF810F0E9460
:100B90004505082F84E0810F0E94450503FF16C01C
:100BA00091E09093D704482F4F704093CE046FECA0
:100BB00074E085E0810F0E9416050F900F900F9052
:100BC0000F90DF91CF911F910F9108951092D7044C
:100BD000EACFCF93DF93C82F0E949C03D62F4C2FD0
:100BE00060EE8FE00E94EF048EE00E944505807E5B
:100BF000C81749F00E949C036D1B693C80F381E09B
:100C0000DF91CF91089580E0FBCFCF93DF93C82F82
:100C10008EE00E944505807E8032F9F4C032E9F012
:100C20008BE20E944505D82FD07486FD05C040E4B4
:100C300060E48BE20E94EF0440E460E48CE20E94F6
:100C4000EF0480E60E94E905811111C0D11105C0B1
:100C500040E060E48BE20E94EF0440E060E48CE25C
:100C60000E94EF048C2FDF91CF910C94E90581E075
:100C7000DF91CF9108951F93CF93DF9380E591E0AB
:100C80000E94D701C9ECD4E060E08A890E94410249
:100C900080EA0E94E80480E00E94E804182F61E0E6
:100CA0008A890E944102812FDF91CF911F9108957F
:100CB000EF92FF920F931F93CF93DF937C018B01F1
:100CC000EA010E943B0680FF52C081E60E94660551
:100CD00040E061E08CE20E94EF048091C904882327
:100CE00089F08091CA049091CB04A091CC04B0917A
:100CF000CD04B0688093CA049093CB04A093CC0435
:100D0000B093CD048091D704882389F08091CA04E0
:100D10009091CB04A091CC04B091CD04B0648093A9
:100D2000CA049093CB04A093CC04B093CD048091DB
:100D3000CA049091CB04A091CC04B091CD04F701EA
:100D400080839183A283B3838091CE04F801808352
:100D5000AFECB4E0FE012091CE04CF018C1B9D0BC3
:100D600028171906A1F09CF08D918193F4CF81FF93
:100D700006C081E70E94660540E062E0ABCF84E0F8
:100D8000DF91CF911F910F91FF90EF90089580E038
:100D9000F7CFFF920F931F93CF93DF93C82FF62EB9
:100DA000172F042F80E591E00E94D70160E0809129
:100DB000DB040E94410282E00E94E8048C2F0E9422
:100DC000E804CF2DD12F0C0F1D2F111DC017D107F7
:100DD00021F089910E94E804F9CF61E08091DB0461
:100DE000DF91CF911F910F91FF900C944102CF930F
:100DF000DF9300D01F92CDB7DEB71C821B8261301B
:100E000081F498E09A83198244E0BE016F5F7F4FBE
:100E10000E94C9060F900F900F900F90DF91CF9115
:100E200008951A82F0CF0F931F93CF93DF93082F6B
:100E3000162F80E591E00E94D701C9ECD4E060E074
:100E40008A890E94410282E00E94E804802F0E9469
:100E5000E804812F0E94E80461E08A89DF91CF9144
:100E60001F910F910C9441022F923F924F925F92EB
:100E70006F927F928F929F92AF92CF92DF92EF927A
:100E8000FF920F931F93CF93DF9300D01F92CDB7A4
:100E9000DEB76093CA047093CB048093CC04909324
:100EA000CD0496FB552750F95093D704662797FD3C
:100EB00063957727882799276093C9044093CE04C8
:100EC000F901AFECB4E0C901089621912D93E81720
:100ED000F907D9F70E9477032B013C0180902C027F
:100EE00090902D02A0902E021E0124E0220E311CB3
:100EF00089829A82AB82CE0101966C01F82E0D2D6B
:100F0000F60111916F01812F0E94450583FD14C0E8
:100F10001F5FE12C0E947703DC01CB018419950946
:100F2000A609B709F2E0EF120EC0843C9940A10572
:100F3000B105F0F206E07DC02C143D0409F710E085
:100F400072E0E72EE7CF843C9940A105B10590F708
:100F50004091CE046FEC74E085E0810F0E94C906D9
:100F60008091D704813029F48091CE0480648093ED
:100F7000CE046091CE0484E0810F0E94130740915B
:100F8000CA045091CB046091CC047091CD0480913F
:100F9000C9048130D9F54C835B83AB016627772781
:100FA000842F83708860942F990F990F990F907EEA
:100FB000892B8A8365E0569547956A95E1F74983C1
:100FC00044E06F2D702F812F0E94C906115048E018
:100FD00068E0812F0E94EF040E9477036B017C017F
:100FE000812F0E944505082F08700E947703DC01BD
:100FF000CB018C199D09AE09BF090023A9F0843CDF
:101000009940A105B10560F307E013C0CA0123E0D0
:10101000969587952A95E1F789834295440F407EFE
:101020004A831C821B82CCCF843C9940A105B10528
:1010300058F7802F0F900F900F900F90DF91CF9166
:101040001F910F91FF90EF90DF90CF90AF909F9006
:101050008F907F906F905F904F903F902F9008956A
:10106000F894FC0181818330E9F034F4813071F02F
:10107000823091F0789408958430D1F08530D1F7A2
:10108000809173008D7F80937300F4CF80916F0007
:101090008D7F80936F00EECF809170008D7F809365
:1010A0007000E8CF809171008D7F80937100E2CF56
:1010B000809172008D7F80937200DCCFFC01F894E8
:1010C0006330C9F13CF46130C1F0623029F16183D1
:1010D000789408956430F1F16530C9F710922001D9
:1010E000109221019091210198609093210190919B
:1010F0002101916090932101EACF1092800010921B
:1011000081008091810088608093810080918100BE
:10111000816080938100DBCF1092B0001092B1000B
:101120008091B00082608093B0008091B1008160B6
:101130008093B100CCCF10929000109291009091CA
:10114000910098609093910090919100916090939C
:101150009100BDCF1092A0001092A1009091A1002B
:1011600098609093A1009091A10091609093A1004C
:10117000AECFFC01408551856285738581818330C6
:1011800009F470C084F4813089F1823009F44CC0D4
:1011900080859185A285B385892B8A2B8B2B11F4B1
:1011A00081E080830895843009F47AC0853081F726
:1011B000DB01CA014115510521E06207710520F0EC
:1011C0008FEF9FEFA0E0B0E090932901809328017A
:1011D000481B590B6A0B7B0B4087518762877387CB
:1011E00080917300826080937300D2CFDB01CA01CB
:1011F0004115510521E06207710520F08FEF9FEF47
:10120000A0E0B0E09093890080938800481B590BC0
:101210006A0B7B0B408751876287738780916F00D1
:10122000826080936F00B4CF4F3F51056105710517
:1012300029F020F04FEF50E060E070E04093B30001
:1012400080859185A285B385841B950BA60BB70B72
:1012500080879187A287B387809170008260809396
:10126000700096CFDB01CA014115510521E06207EC
:10127000710520F08FEF9FEFA0E0B0E09093990010
:1012800080939800481B590B6A0B7B0B4087518752
:10129000628773878091710082608093710078CF3C
:1012A000DB01CA014115510521E06207710520F0FB
:1012B0008FEF9FEFA0E0B0E09093A9008093A8008B
:1012C000481B590B6A0B7B0B4087518762877387DA
:1012D000809172008260809372005ACFCF93DF9327
:1012E000EC01F894298188859985AA85BB852230EF
:1012F000A9F18F3F9F4FA105B10518F4CE010E94BF
:10130000B90888859985AA85BB85AC01BD01009780
:1013100021E0A207B10520F04FEF5FEF60E070E041
:10132000841B950BA60BB70B88879987AA87BB8769
:1013300088859985AA85BB85892B8A2B8B2B39F5C6
:101340008C819D81AE81BF8188879987AA87BB8761
:1013500081E088837894DF91CF9108958F3F910544
:10136000A105B10518F4CE010E94B90888859985B8
:10137000AA85BB85AC01BD018F3F9105A105B105D3
:1013800079F270F24FEF50E060E070E0C9CF188260
:10139000E1CF8F929F92AF92BF92EF92FF920F9305
:1013A0001F93CF93DF9300D000D01F921F92CDB731
:1013B000DEB7FC01F1802081F0E12F9F9001112424
:1013C0004F2D50E064E0559547956A95E1F7242B41
:1013D000352B233241E0340761F12032314009F4EA
:1013E0005CC0198282E08A8380E090E0A0E2B2E4EF
:1013F0008B839C83AD83BE8388EE93E098878F8335
:1014000029813A814B815C816D817E818F819885B4
:1014100028960FB6F894DEBF0FBECDBFDF91CF91F7
:101420001F910F91FF90EF90BF90AF909F908F9082
:101430000895E12C8C01FC018281F8E78F9FC001A7
:1014400011246FEF70E00E941818072E000C880B13
:10145000990B0E947F194B015C01F801638170E0D8
:1014600090E080E00E947D1920E030E44CE156E4F9
:101470000E94341A20E030E04FE753E40E94DC1869
:101480000E944E19E9822F2D23702A838B829C8221
:10149000AD82BE8278876F83B3CFEE24E394CACF48
:1014A000FC0101900020E9F73197AF01481B590B6F
:1014B000BC0184E194E00C94B3038F929F92AF92AD
:1014C000BF920F931F93CF93DF93CDB7DEB7A19752
:1014D0000FB6F894DEBF0FBECDBF19A2423008F49C
:1014E0004AE08E010F5D1F4F842E912CB12CA12C50
:1014F000A50194010E942C18E62FB901CA01EA3017
:10150000F4F4E05DD801EE938D01232B242B252BE1
:1015100079F790E080E0109719F0CD010E94500A11
:10152000A1960FB6F894DEBF0FBECDBFDF91CF916D
:101530001F910F91BF90AF909F908F900895E95C9D
:10154000E1CFCF93DF930E94500AEC018DE892E047
:101550000E94500A8C0F9D1FDF91CF9108950F9329
:101560001F93CF93DF938C01D0E0C0E0F801EC0F24
:10157000FD1F6491662341F084E194E00E944904D8
:10158000892B11F02196F2CF8DE892E00E94500A4B
:101590008C0F9D1FDF91CF911F910F9108950F9395
:1015A0001F9380E992E00E94500A0E949C030091E0
:1015B000D8031091D9032091DA033091DB03601B2B
:1015C000710B820B930B4AE00E945D0A8DE892E05A
:1015D0000E94500A0E949C036093D8037093D90321
:1015E0008093DA039093DB031F910F9108950F937B
:1015F0001F93CF93DF931F921F92CDB7DEB78C015D
:101600000E9402188983C80101960E9402188A83E9
:1016100089819A810F900F90DF91CF911F910F9147
:101620000895CF92DF92EF92FF920F931F93CF9383
:10163000DF9300D01F92CDB7DEB76E0125E0C20E5A
:10164000D11C8E010F5F1F4F7C01E01AF10AC016FA
:10165000D10649F0C701800F911F0E940218F801BE
:1016600081938F01F4CF69817A818B819C810F9066
:101670000F900F900F90DF91CF911F910F91FF90DE
:10168000EF90DF90CF9008951F920F920FB60F92B8
:1016900011242F933F938F939F93AF93BF93809188
:1016A0000C0490910D04A0910E04B0910F043091A0
:1016B0000B0423E0230F2D3758F50196A11DB11D12
:1016C00020930B0480930C0490930D04A0930E04BC
:1016D000B0930F048091100490911104A091120412
:1016E000B09113040196A11DB11D80931004909335
:1016F0001104A0931204B0931304BF91AF919F9172
:101700008F913F912F910F900FBE0F901F901895C2
:1017100026E8230F0296A11DB11DD2CF1F920F9272
:101720000FB60F9211240BB60F922F933F934F9346
:101730005F936F937F938F939F93AF93BF93EF9339
:10174000FF9384E194E00E942704FF91EF91BF9101
:10175000AF919F918F917F916F915F914F913F9149
:101760002F910F900BBE0F900FBE0F901F901895EA
:101770001F920F920FB60F9211240BB60F922F9358
:101780008F939F93EF93FF93E0912404F0912504AE
:101790008081E0912A04F0912B0482FD1DC090818C
:1017A00080912D048F5F8F7320912E04821741F05A
:1017B000E0912D04F0E0EC5EFB4F958F80932D04BB
:1017C000FF91EF919F918F912F910F900BBE0F90F2
:1017D0000FBE0F901F9018958081F2CF1F920F922D
:1017E0000FB60F9211240BB60F92CF92DF92EF92A9
:1017F000FF922F933F934F935F936F937F938F93BA
:101800009F93AF93BF93EF93FF93C090E904D09061
:10181000EA04E090EB04F090EC048091DE04853063
:1018200009F04FC0C114D104E104F10409F467C008
:101830008091DD04882309F45DC0E091F104F0910A
:10184000F204309741F08091F3049091F4040097F2
:1018500009F44EC019958091E1049091E204A091A1
:10186000E304B091E4040097A140B105C4F0F894FA
:101870008091E1049091E204A091E304B091E4042A
:101880008093E5049093E604A093E704B093E80402
:101890008DED94E00E94B9081092DD0478941C1438
:1018A0001D041E041F046CF481E0C81AD108E1086D
:1018B000F108C092E904D092EA04E092EB04F092BD
:1018C000EC04FF91EF91BF91AF919F918F917F9128
:1018D0006F915F914F913F912F91FF90EF90DF902B
:1018E000CF900F900BBE0F900FBE0F901F901895CA
:1018F0001995B1CF8DED94E00E946E09E2CF8DED88
:1019000094E00E943008DDCF1F920F920FB60F9225
:1019100011240BB60F92CF92DF92EF92FF922F938A
:101920003F934F935F936F937F938F939F93AF9367
:10193000BF93EF93FF93C0900105D0900205E09014
:101940000305F09004058091F604833009F04FC040
:10195000C114D104E104F10409F467C08091F504D5
:10196000882309F45DC0E0910905F0910A053097DC
:1019700041F080910B0590910C05009709F44EC041
:1019800019958091F9049091FA04A091FB04B0910B
:10199000FC040097A140B105C4F0F8948091F904CB
:1019A0009091FA04A091FB04B091FC048093FD0493
:1019B0009093FE04A093FF04B093000585EF94E09C
:1019C0000E94B9081092F50478941C141D041E049A
:1019D0001F046CF481E0C81AD108E108F108C09234
:1019E0000105D0920205E0920305F0920405FF91F3
:1019F000EF91BF91AF919F918F917F916F915F9187
:101A00004F913F912F91FF90EF90DF90CF900F90EB
:101A10000BBE0F900FBE0F901F9018951995B1CF68
:101A200085EF94E00E946E09E2CF85EF94E00E947A
:101A30003008DDCF4F925F926F927F928F929F928C
:101A4000AF92BF92CF92DF92EF92FF920F931F93CC
:101A5000CF93DF93EC01198111160CF03AC14901C3
:101A6000CB01BA010E947D199B01AC0160E070E0DE
:101A70008AE794E40E94DC186B017C012EEA37E3CC
:101A800046E856E40E94341A2B013C0120E030E085
:101A900040E85FE30E94D71887FD1BC18FEF9FEFDF
:101AA000DC018C879D87AE87BF8720E030E040E86F
:101AB00052E4C301B201123009F487C00E942F1A08
:101AC00001E010E0181674F020E030E040E051E44E
:101AD000C301B2010E942F1A03E010E0181614F49B
:101AE00002E010E0C801880F991F9C0121593D4F69
:101AF0005901F501619171915F0190E080E00E94D0
:101B00007D19A70196010E94341A9B01AC0160E087
:101B100074E284E79BE40E94DC1820E030E040E8B7
:101B20005FE30E946A180E944E196115F0EC7F076E
:101B3000FFEF8F07FFE39F07A8F56C837D838E83FC
:101B40009F83688779878A879B871B830A83F8949A
:101B5000C88AD98AEA8AFB8A9D8A8C8A1F8A1E8A49
:101B600018828981823009F08BC08091B100887F12
:101B70009A81892B8093B100CE010E94B908789494
:101B800081E0DF91CF911F910F91FF90EF90DF9057
:101B9000CF90BF90AF909F908F907F906F905F900D
:101BA0004F9008950F5F1F4F0630110509F0A1CF28
:101BB0006C837D838E839F83688779878A879B87E1
:101BC00085E090E09B838A83C2CF0E942F1A01E0B8
:101BD00010E01816D4F020E030E040E051E4C301FA
:101BE000B2010E942F1A02E010E0181674F020E0F3
:101BF00030E040E050E4C301B2010E942F1A04E03B
:101C000010E0181614F403E010E0C801880F991FC3
:101C10009C01215A3D4F5901F501619171915F017C
:101C200090E080E00E947D19A70196010E94341A7D
:101C30009B01AC0160E074E284E79BE40E94DC1845
:101C400020E030E040E85FE30E946A180E944E19ED
:101C50006115F0EC7F07FFE38F07910508F46DCF66
:101C60000F5F1F4F08301105B9F66C837D838E839B
:101C70009F83688779878A879B8787E090E0A2CFD8
:101C8000813041F480918100887F9A81892B8093F3
:101C9000810072CF833041F480919100887F9A81D6
:101CA000892B8093910068CF843041F48091A1000A
:101CB000887F9A81892B8093A1005ECF853009F0BF
:101CC0005BCF80912101887F9A81892B80932101AC
:101CD00053CF80E056CFFF920F931F93CF93DF93A4
:101CE000EC01F62E08811981C8010E940218F8162D
:101CF00021F06F2DC8010E940A18CE01DF91CF910B
:101D00001F910F91FF900895FF920F931F93CF9310
:101D1000DF931F921F92CDB7DEB78C01F72E9A8307
:101D20008983CE0101960E946B0E0F5F1F4F1A83AD
:101D300009836F2DCE0101960E946B0E0F900F90BC
:101D4000DF91CF911F910F91FF900895CF93DF9373
:101D5000E4E1F4E01382128288EE93E0A0E0B0E0C8
:101D600084839583A683B7838FE792E091838083F2
:101D700085EC90E09587848784EC90E09787868750
:101D800080EC90E0918B808B81EC90E0938B828B48
:101D900082EC90E0958B848B86EC90E0978B868B21
:101DA000118E128E138E148EE5EFF4E083E08183A2
:101DB000108A118A128A138A158A148A178A168A37
:101DC000108221E030E03383228314821582168250
:101DD000178210861186128613868FEF9FEFDC0123
:101DE00084879587A687B787EDEDF4E045E04183CA
:101DF000108A118A128A138A158A148A178A168AF7
:101E000010823383228314821582168217821086F1
:101E100011861286138684879587A687B787C9ECB3
:101E2000D4E081E28A8B61E00E94410261E08A890C
:101E30000E946F0281EB94E0998B888BECEBF4E0CD
:101E400089E18083148282E390E094878387E7EBC3
:101E5000F4E01182128288EE93E094838383E2EBB4
:101E6000F4E01182128294838383DF91CF910895ED
:101E7000CF93DF93CDB7DEB72E970FB6F894DEBFC2
:101E80000FBECDBF789484B5826084BD84B5816077
:101E900084BD85B5826085BD85B5816085BD809135
:101EA0006E00816080936E001092810080918100AD
:101EB00082608093810080918100816080938100A5
:101EC000809180008160809380008091B100846067
:101ED0008093B1008091B00081608093B0008091C8
:101EE0009100826080939100809191008160809345
:101EF0009100809190008160809390008091A1007A
:101F000082608093A1008091A10081608093A100F4
:101F10008091A00081608093A00080912101826067
:101F20008093210180912101816080932101809122
:101F3000200181608093200180917A0084608093E9
:101F40007A0080917A00826080937A0080917A0092
:101F5000816080937A0080917A00806880937A0013
:101F60001092C10061E08DE00E946F0261E087E2A3
:101F70000E946F0261E089E20E946F0261E080E2EC
:101F80000E946F0261E082E20E946F0261E084E2DF
:101F90000E946F0261E086E20E946F0261E088E2C7
:101FA0000E946F0261E08AE20E946F0260E083E0BB
:101FB0000E946F0261E08CE20E946F0261E08EE29B
:101FC0000E946F0261E088E00E946F0261E086E09B
:101FD0000E946F0261E085E20E946F0261E080E191
:101FE0000E946F0261E080E10E946F0261E081E186
:101FF0000E946F0261E080E10E94410261E081E1A4
:102000000E944102E0912404F091250482E0808343
:10201000E0912004F09121041082E0912204F091DB
:10202000230480E1808310922C04E0912804F09135
:10203000290486E08083E0912604F09127048081C2
:1020400080618083E0912604F0912704808188607C
:102050008083E0912604F09127048081806880834A
:10206000E0912604F091270480818F7D8083609128
:10207000F60485EF94E00E945E086091DE048DED29
:1020800094E00E945E081FB7F8948091CE038111FE
:1020900027C0E9EAF2E08491EFEEF2E09491E82FB4
:1020A000F0E0EE0FFF1FE05CFD4FA591B491EC91C5
:1020B000E92321F461E085E30E94410261E085E3C8
:1020C0000E946F028CB580618CBD8CB580648CBD24
:1020D00061E084E30E946F0261E083E30E946F028B
:1020E0008091CE038F5F8093CE031FBF80E591E088
:1020F0000E94D70160E08091DB040E94410280ECE5
:102100000E94E80461E08091DB040E9441020E9489
:1021100077034B015C0185E0C82ED12CE12CF12C1A
:102120000E947703681979098A099B09683E734000
:1021300081059105A8F321E0C21AD108E108F10850
:1021400088EE880E83E0981EA11CB11CC114D10436
:10215000E104F10429F780E48093DC0480E80E9424
:102160000506882309F433C18FEF91E00E94AF0A7E
:1021700088EA93E00E94A10A1092DC0480E00E94A9
:10218000050604E610E00E943B06837069F0AE018C
:102190004F5F5F4FBE01635F7F4FCE0109960E9484
:1021A00058060150110979F78CEA92E00E94A10AC1
:1021B00088E199E20FB6F894A895809360000FBE6D
:1021C000909360008EEB92E00E94A10A90E080E084
:1021D0000E94110B60930C0270930D0280930E020B
:1021E00090930F0288E090E00E94F70A909311020A
:1021F000809310028CE090E00E94021880930B0202
:1022000084E090E00E94110B609304027093050239
:1022100080930602909307028AE090E00E94F70AFA
:1022200090930902809308028DE090E00E940218CA
:102230008093030212E1E12E0AEF602E03E0702E7C
:10224000FF24FA940AEF10E0A8952090070430903C
:1022500008044090090450900A04E4EF2E0EE1E0D7
:102260003E1E411C511C0E949C0326163706480640
:10227000590608F07AC02090D3033090D4034090E0
:10228000D5035090D6036091C5047091C604072E03
:10229000000C880B990B0E947F192DEC3CEC4CEC48
:1022A0005DE30E94341A4B015C0126E636E646E601
:1022B0005FE3C201B1010E94341A9B01AC01C50168
:1022C000B4010E946B186093D3037093D40380937E
:1022D000D5039093D6036093030470930404809312
:1022E00005049093060460912A0270912B022090BD
:1022F000CF033090D0034090D1035090D203072EEB
:10230000000C880B990B0E947F192DEC3CEC4CECD7
:102310005DE30E94341A4B015C0126E636E646E690
:102320005FE3C201B1010E94341A9B01AC01C501F7
:10233000B4010E946B186093CF037093D003809315
:10234000D1039093D2036093FF03709300048093B2
:102350000104909302040E949C036093070470930D
:1023600008048093090490930A04E3E0F3E0849165
:10237000EDEBF2E0C490E7E7F2E0D490D11095C025
:1023800042E252E06AEF73E08BEF93E00E9458065E
:102390008091FB039091FC03A091FD03B091FE039B
:1023A0008334F2E09F07A105B10509F090C083EDE9
:1023B00092E00E94A10AF89488E198E00FB6F894A0
:1023C000A895809360000FBE90936000FFCF87EDCB
:1023D00091E00E94AF0A60E08AE20E94130761ED7B
:1023E00089E20E94130761E888E20E9413078AEBE2
:1023F00091E00E94AF0A61E080E20E94F70661E08E
:1024000084E20E94F70661E080E00E94F70660E047
:1024100084E00E94F70661E088E00E94F70660E031
:1024200080E10E94F70661E084E10E94F70660E027
:1024300088E10E94F70610E360E0812F0E941307F5
:1024400060E080E1810F0E94130760E080E2810F6D
:102450000E9413071F5F1E3379F760E080E60E9439
:10246000130760E080E70E94130763E08BE20E949D
:1024700013076CE38CE00E94130760E08DE00E947C
:10248000130744E664E680E60E94EF0440E660E657
:1024900080E70E94EF048091DC040E9405068823F7
:1024A00009F4A9C584E991E061CE81110E94DA01A5
:1024B000ED2DF0E0EE0FFF1FEA5DFD4FA591B49109
:1024C0008C91C82209F45CCF0E94B604BDCE813045
:1024D0009440A105B10569F430E020E040E061E0FE
:1024E00074E080E090E00E94340782EE92E00E9467
:1024F000A10A8091FB039091FC03A091FD03B09190
:10250000FE0382309440A105B10509F011C180910C
:102510002202282F237030E03093F1032093F00340
:1025200090E09C01359527953595279523703327A5
:102530003093EF032093EE039C0144E035952795FB
:102540004A95E1F7237033273093ED032093EC0392
:1025500056E0959587955A95E1F79093EB03809314
:10256000EA0380912302282F237030E03093F9038F
:102570002093F80390E09C01359527953595279594
:10258000237033273093F7032093F6039C0174E004
:10259000359527957A95E1F7237033273093F50326
:1025A0002093F403E6E095958795EA95E1F79093FB
:1025B000F3038093F203FAEE8F2EF3E09F2EAFE445
:1025C000CA2EA2E0DA2EF401819191914F0181305F
:1025D000910509F41FC48230910509F421C460E01B
:1025E000892B09F418C4F2E0CF0ED11C68147904C9
:1025F00051F780912402282F30E02B3F31050CF059
:1026000014C48F9DC0011124B8010E941818709342
:10261000E9036093E80380912502282F30E02B3FE7
:1026200031050CF00BC48F9DC0011124B8010E942C
:1026300018187093E7036093E60380912602282F11
:1026400030E02B3F31050CF002C48F9DC0011124F6
:10265000B8010E9418187093E5036093E403C090DA
:10266000E8037091E9036C2D8CE20E94A002D090E7
:10267000E6037091E7036D2D8EE20E94A002209187
:10268000E4038091EA039091EB0336E0880F991FF1
:102690003A95E1F74091EC035091ED0364E0440F6B
:1026A000551F6A95E1F7842B9091F003892B409197
:1026B000EE035091EF03440F551F440F551F842B19
:1026C00080931A028091F2039091F303E6E0880F61
:1026D000991FEA95E1F74091F4035091F503F4E076
:1026E000440F551FFA95E1F7842B9091F803892B3D
:1026F0004091F6035091F703440F551F440F551FA7
:10270000842B80931B02C0921C02D0921D02209346
:102710001E0210921F0210922002109221022AE142
:1027200032E048E062E274E080E090E00E9434072A
:102730008091FB039091FC03A091FD03B091FE03F7
:1027400083309440A105B10509F01DC182E292E0F9
:102750000E94C9092093120230931302409314027D
:10276000509315026093160270931702809318021B
:1027700090931902323008F473C3323009F47AC3EB
:1027800080910A028130A1F580910C0290910D0296
:10279000A0910E02B0910F0289879A87AB87BC8700
:1027A0004E0189E0880E911CD12CC12CF40161915D
:1027B0004F01DE86CD86CE010D960E946B0EFFEF97
:1027C000CF1ADF0A24E0C216D10481F7609110020B
:1027D0007091110288E090E00E94840E60910B02DB
:1027E0008CE090E09E878D87CE010D960E946B0E47
:1027F00086E292E00E94C9092093120230931302EC
:1028000040931402509315026093160270931702BE
:102810008093180290931902323008F430C332309A
:1028200009F437C3809102028130A1F5809104023E
:1028300090910502A0910602B091070289839A83C4
:10284000AB83BC83FE0131964F0184E0C82ED12CAE
:10285000F40161914F01DE86CD86CE010D960E9476
:102860006B0EFFEFCF1ADF0A28E0C216D10481F702
:1028700060910802709109028AE090E00E94840E43
:10288000609103028DE090E09E878D87CE010D96CA
:102890000E946B0E20910B0260910C0270910D0250
:1028A00080910E0290910F02C0901002D090110200
:1028B000E0921A02206320931B0220E030E04FE7F1
:1028C00053E40E94341A20E030E040EF52E40E94CA
:1028D000DC180E944E1960931C02B60190E080E063
:1028E0000E947D1920E030E04FE753E40E94341A43
:1028F00020E030E44CE156E40E94DC180E944E19BE
:1029000060931D0220910302609104027091050200
:102910008091060290910702C0900802D0900902AF
:10292000E0921E02206320931F0220E030E04FE778
:1029300053E40E94341A20E030E040EF52E40E9459
:10294000DC180E944E1960932002B60190E080E0EE
:102950000E947D1920E030E04FE753E40E94341AD2
:1029600020E030E44CE156E40E94DC180E944E194D
:10297000609321022AE132E048E063E274E080E003
:1029800090E00E9434078091FB039091FC03A0919A
:10299000FD03B091FE0384309440A105B10509F018
:1029A00042C080912202909123029827892798277C
:1029B0002091240221703091250233703093B204AB
:1029C0001092B3042093B4049093B6048093B5049A
:1029D00085E0E2EBF4E0A7EBB4E001900D928A957C
:1029E000E1F78091B7049091B9042091BA04309135
:1029F000BB0430931A0220931B0290931C02837035
:102A000080931D0210921E0210921F02109220024B
:102A1000109221022AE132E048E064E274E080E0B2
:102A200090E00E9434078091FB039091FC03A091F9
:102A3000FD03B091FE0385309440A105B10509F571
:102A40008091220290E0B6E095958795BA95E1F7DE
:102A5000813009F426C208F421C2823009F426C26A
:102A60008091B80420E4829FC00111248093E30385
:102A700023EE33E048E065E274E080E090E00E94FD
:102A800034078091FB039091FC03A091FD03B0916A
:102A9000FE0380319540A105B10509F0D9C0A09091
:102AA00023028091240290E04091260250E0B42F4E
:102AB000AA27AA27BF7020912502A22B4D01F8E07A
:102AC0009F1A2091280230E060912702A4E06A9FBB
:102AD000B0011124FA01A6E0F595E795AA95E1F772
:102AE0006E2B7F2BF901FE2FEE27FF0FFF0FEE2736
:102AF000FC706E2B7F2B7850E0912902A0E1EA9FB9
:102B0000F00111246901A4E0D594C794AA95E1F7D6
:102B1000EC29FD29F850D0902202B0E8BB2EDB0C46
:102B2000D092BC04AA2DA370A093BD046C01A6E0B2
:102B3000D594C794AA95E1F7C092BE04B4E0559528
:102B40004795BA95E1F743704093BF0435952795B3
:102B50003595279523702093C00456E0880F991F60
:102B60005A95E1F7807C9F702A2D30E035952795A6
:102B700035952795822B932B98509093C204809380
:102B8000C1049092C4048092C3047093C6046093FD
:102B9000C504F093C804E093C7042090D303309099
:102BA000D4034090D5035090D603072E000C880B19
:102BB000990B0E947F192DEC3CEC4CEC5DE30E94DC
:102BC000341A4B015C0126E636E646E65FE3C201B5
:102BD000B1010E94341A9B01AC01C501B4010E94ED
:102BE0006B186093D3037093D4038093D5039093B1
:102BF000D6036093030470930404809305049093B8
:102C0000060487E493E00E94500A809003049090A9
:102C10000404A0900504B0900604A5019401C50128
:102C2000B4010E94A11A882309F445C180E693E00B
:102C30000E94500A8DE892E00E94500A0E949C0374
:102C400060930704709308048093090490930A0426
:102C50000E949C032091DF033091E0034091E10347
:102C60005091E2035B016C01A21AB30AC40AD50AAF
:102C7000B601A5018091BA049091BB04B0E0A0E038
:102C8000481759076A077B0708F443C08091B804C6
:102C9000811104C08091B7048823D9F11092B8043F
:102CA0009FE2C92E92E0D92EF60161917191819136
:102CB00091916F0130E020E040E00E94340787E00E
:102CC00090E00197F1F742E252E06AEF73E08BEF98
:102CD00093E00E9458068FE4A82E82E0B82EAC1430
:102CE000BD0411F71092DD031092DE032DED33E0E9
:102CF00048E066E274E080E090E00E9434070E94C1
:102D00009C036093DF037093E0038093E10390934F
:102D1000E203D0900B02BB24B394DB105EC1209180
:102D2000030430910404409105045091060460911D
:102D30000C0270910D0280910E0290910F020E9480
:102D4000D71818160CF449C18091DC03811118C002
:102D5000409110025091110270E060E02FEC3AE0D7
:102D60008DED94E00E941A0D0E949C036093D8039D
:102D70007093D9038093DA039093DB03D092DC0342
:102D8000D0900302CC24C394DC102EC12091FF0309
:102D900030910004409101045091020460910402BA
:102DA0007091050280910602909107020E94D71847
:102DB00018160CF419C18091D70381110EC04091EF
:102DC00008025091090270E060E028EA33E085EFE4
:102DD00094E00E941A0DD092D70370E060E085E283
:102DE0000E94A00270E060E080E10E94A00270E01A
:102DF00060E088E00E94A00270E060E086E00E944F
:102E0000A0021092FB031092FC031092FD0310929B
:102E1000FE035ACB61E0F60180810E944102E3CBC0
:102E20008FEE92E00E94A10ADECB2F3F310509F41C
:102E3000F2CB8AEF92E00E94500AEDCB2F3F310592
:102E400009F4FBCB86E093E00E94500AF6CB2F3FBB
:102E5000310509F404CC82E193E00E94500AFFCBD3
:102E600088E0E2E1F2E0AAE0B2E001900D928A95FA
:102E7000E1F786CC80E293E00E94500A81CC88E0A2
:102E8000E2E1F2E0A2E0B2E001900D928A95E1F772
:102E9000C9CC8CE293E00E94500AC4CC1092B804D2
:102EA000DFCDAA24A394A092B804DACD8BE393E0FB
:102EB0000E94500AD5CD14012501E89457F82FEF50
:102EC0003FEF4FE75FE7C201B1010E94A11A8111F4
:102ED0000DC02FEF3FEF4FE75FE7C201B1010E9446
:102EE000D71818161CF484E693E0A2CE2FEF3FEF1C
:102EF0004FE75FE4C501B4010E942F1A18161CF4B5
:102F000088E693E095CE2FEF3FEF4FE75FECC501EA
:102F1000B4010E94D71887FDF3CF20E030E0A9016B
:102F2000C501B4010E94D71887FF09C06DE284E192
:102F300094E00E944904B7FAB094B7F8B0942AE03C
:102F400037ED43EA5BE3C501B4010E946B184B0106
:102F50005C010E944E191B012C010E947D199B01EE
:102F6000AC01C501B4010E946A184B015C014AE042
:102F7000C201B1010E945D0A6EE284E194E00E9408
:102F8000490420E030E040E251E4C501B4010E9470
:102F9000341A4B015C010E944E191B01512C412C2B
:102FA0004AE0C201B1010E945D0AC201B1010E9462
:102FB0007D199B01AC01C501B4010E946A1820E093
:102FC00030E040E251E40E94341A0E944E1990E031
:102FD00080E04AE00E945D0A2DCE8DED94E00E94D3
:102FE00030081092DC03CCCE85EF94E00E943008CC
:102FF0001092D703F2CE8CE693E00E94A10A8EE8ED
:1030000093E0B8C8F999FECF92BD81BDF89A99278F
:1030100080B50895262FF999FECF1FBA92BD81BDC4
:1030200020BD0FB6F894FA9AF99A0FBE019608954A
:1030300097FB072E16F4009407D077FD09D00E9465
:10304000561807FC05D03EF4909581959F4F089542
:10305000709561957F4F0895A1E21A2EAA1BBB1BA4
:10306000FD010DC0AA1FBB1FEE1FFF1FA217B30754
:10307000E407F50720F0A21BB30BE40BF50B661F6A
:10308000771F881F991F1A9469F76095709580952E
:1030900090959B01AC01BD01CF010895EE0FFF1F7C
:1030A000881F8BBF0790F691E02D1994AA1BBB1BBC
:1030B00051E107C0AA1FBB1FA617B70710F0A61B38
:1030C000B70B881F991F5A95A9F780959095BC0159
:1030D000CD0108955058BB27AA270E9482180C944E
:1030E000F5190E94E71938F00E94EE1920F039F422
:1030F0009F3F19F426F40C94E4190EF4E095E7FBD5
:103100000C94DE19E92F0E94061A58F3BA176207C9
:1031100073078407950720F079F4A6F50C94281A14
:103120000EF4E0950B2EBA2FA02D0B01B9019001E2
:103130000C01CA01A0011124FF27591B99F0593F26
:1031400050F4503E68F11A16F040A22F232F342F6E
:103150004427585FF3CF469537952795A795F040BC
:103160005395C9F77EF41F16BA0B620B730B840BD1
:10317000BAF09150A1F0FF0FBB1F661F771F881F89
:10318000C2F70EC0BA0F621F731F841F48F48795E1
:1031900077956795B795F7959E3F08F0B0CF9395D3
:1031A000880F08F09927EE0F9795879508950E944C
:1031B000BA1908F481E008950E94F0180C94F519EA
:1031C0000E94EE1958F00E94E71940F029F45F3F81
:1031D00029F00C94DE1951110C94291A0C94E4195D
:1031E0000E94061A68F39923B1F3552391F3951BB6
:1031F000550BBB27AA2762177307840738F09F5F18
:103200005F4F220F331F441FAA1FA9F335D00E2E84
:103210003AF0E0E832D091505040E695001CCAF7F1
:103220002BD0FE2F29D0660F771F881FBB1F2617B4
:1032300037074807AB07B0E809F0BB0B802DBF018B
:10324000FF2793585F4F3AF09E3F510578F00C945A
:10325000DE190C94291A5F3FE4F3983ED4F3869567
:1032600077956795B795F7959F5FC9F7880F911D7B
:103270009695879597F90895E1E0660F771F881F67
:10328000BB1F621773078407BA0720F0621B730B1A
:10329000840BBA0BEE1F88F7E09508950E940E1A72
:1032A00088F09F5798F0B92F9927B751B0F0E1F007
:1032B000660F771F881F991F1AF0BA95C9F714C0B7
:1032C000B13091F00E94281AB1E008950C94281AA8
:1032D000672F782F8827B85F39F0B93FCCF38695F0
:1032E00077956795B395D9F73EF49095809570954D
:1032F00061957F4F8F4F9F4F0895E89409C097FBCA
:103300003EF490958095709561957F4F8F4F9F4FBC
:103310009923A9F0F92F96E9BB279395F695879500
:1033200077956795B795F111F8CFFAF4BB0F11F4C3
:1033300060FF1BC06F5F7F4F8F4F9F4F16C088236A
:1033400011F096E911C0772321F09EE8872F762FA0
:1033500005C0662371F096E8862F70E060E02AF0E1
:103360009A95660F771F881FDAF7880F96958795CD
:1033700097F90895990F0008550FAA0BE0E8FEEFA2
:1033800016161706E807F907C0F012161306E40729
:10339000F50798F0621B730B840B950B39F40A2622
:1033A00061F0232B242B252B21F408950A2609F400
:1033B000A140A6958FEF811D811D089597F99F6704
:1033C00080E870E060E008959FEF80EC08950024AD
:1033D0000A941616170618060906089500240A947A
:1033E00012161306140605060895092E0394000C00
:1033F00011F4882352F0BB0F40F4BF2B11F460FF8F
:1034000004C06F5F7F4F8F4F9F4F089557FD9058B7
:10341000440F551F59F05F3F71F04795880F97FB98
:10342000991F61F09F3F79F0879508951216130652
:103430001406551FF2CF4695F1DF08C01616170681
:103440001806991FF1CF86957105610508940895B6
:10345000E894BB2766277727CB0197F908950E9448
:10346000BA1908F48FEF08950E94471A0C94F519C1
:103470000E94E71938F00E94EE1920F0952311F010
:103480000C94DE190C94E41911240C94291A0E944E
:10349000061A70F3959FC1F3950F50E0551F629F78
:1034A000F001729FBB27F00DB11D639FAA27F00D9D
:1034B000B11DAA1F649F6627B00DA11D661F829FC4
:1034C0002227B00DA11D621F739FB00DA11D621FA9
:1034D000839FA00D611D221F749F3327A00D611DC6
:1034E000231F849F600D211D822F762F6A2F1124A8
:1034F0009F5750409AF0F1F088234AF0EE0FFF1FDB
:10350000BB1F661F771F881F91505040A9F79E3F31
:10351000510580F00C94DE190C94291A5F3FE4F3F6
:10352000983ED4F3869577956795B795F795E79587
:103530009F5FC1F7FE2B880F911D9695879597F990
:1035400008950E94BA19880B990B0895F894FFCF3B
:103550007800000000002042E80300000000204244
:10356000E803000000002042E80320000000000003
:1035700000002000000000000000780030405010E3
:1035800005004020050040300500401006004011B5
:103590000600402006004021060040220600402789
:1035A000002900200022002400260028002A000113
:1035B000000100080020004000800000010004011C
:1035C0000001000800400000010004000000004964
:1035D00004B303E00396041104EF0303040D0A008F
:1035E0004954696D6572312063616C6C65642C208F
:1035F0006D696C6C69732829203D200042756666F0
:1036000065722043414E206C696D706F21005761D7
:10361000746368646F6720686162696C697461646F
:103620006F21005265736574207669612043414EB5
:103630002100486561727462656174204F4B0045DA
:1036400072726F72204C454473004572726F722023
:1036500050574D2031004572726F722050574D20E7
:1036600032004572726F7220456E636F646572003E
:103670004572726F72203078343033004572726F49
:1036800072203078343033202B34004572726F72E0
:103690002030783430350054656D70657261747512
:1036A000726120312046696C74726164613A200055
:1036B0006E616E00696E66006F7666004D43503233
:1036C00035313520496E697469616C697A656420A9
:1036D0005375636365737366756C6C79210054452B
:1036E00073746520736520657374612066756E63FD
:1036F000696F6E616E646F004572726F7220496E01
:10370000697469616C697A696E67204D435032351E
:0637100031352E2E2E00C3
:00000001FF
