:100000000C9497010C94C8010C94C8010C94C8017D
:100010000C94C8010C94C8010C94C8010C94C8013C
:100020000C94C8010C94C8010C94C8010C94C8012C
:100030000C94C8010C94C8010C94C8010C94C8011C
:100040000C94C8010C94C8010C94C8010C94C8010C
:100050000C94C8010C94C8010C94C8010C94CF0AEC
:100060000C94C8010C94430B0C94190B0C94C8010C
:100070000C94C8010C94C8010C94C8010C94C801DC
:100080000C940F0C0C94C8010C94C8010C94C8017A
:100090000C94C8010C94C8010C94C8010C94C801BC
:1000A0000C94C8010C94C8010C94C8010C94C801AC
:1000B0000C94C8010C94C8010C94C8010C94790BE1
:1000C0000C94C8010C94C8010C94C8010C94C8018C
:1000D0000C94C8010C94C8010C94C8010C94C8017C
:1000E0000C94C8010C9453020C94E3020C94070383
:1000F0000C9414020C94F5020C94ED030C94480338
:100100000C945A0A0C9411030C94C2020C943304FC
:100110000C9418020C949D030C94CA020C941B03BB
:100120000C9434030C9452030C94D9020C942302C3
:100130000C9429020C943B020C945C030C94ED0289
:100140000C94FD020C9445020C94FB030C94D9030F
:100150000C943E030C9433020C941C020C942D025C
:100160000C944F020C94FD010C9441020C94CF02AC
:100170000C94B80E0C9402020C94CA030C94200246
:100180000C942A030C9449020C9480040C943702BA
:100190000C94920352657475726E696E6720746F69
:1001A0002050726576696F7573204D6F64652046C7
:1001B00061696C7572652E2E2E0053657474696EBC
:1001C000672042617564726174652053756363656D
:1001D000737366756C2100456E746572696E672075
:1001E000436F6E66696775726174696F6E204D6FDB
:1001F0006465205375636365737366756C21004590
:100200006E746572696E6720436F6E66696775729A
:100210006174696F6E204D6F6465204661696C750D
:1002200072652E2E2E0000002100240027002A00D7
:100230002D003000330001010000040107010A0114
:1002400000002200250028002B002E003100340081
:1002500002010000050108010B0105050505070560
:1002600008080808020202020A0A08080404040432
:10027000010101010101010103030303030303035E
:10028000040707070C0C0C0C0C0C0C0C02020202ED
:1002900006060606060606060B0B0B0B0B0B0B0BD6
:1002A0000102102020080810204010204080020188
:1002B000020108040201010204081020408080406D
:1002C000201008040201800402018040201008046C
:1002D000020108040201010204081020408001020A
:1002E00004081020408000000A0B02090C0D0E08C3
:1002F00007030401000000000000000000000000EF
:1003000000000000000000000000000000000000ED
:1003100000001211100000000000000000000000AA
:10032000000000000000000000000000B80E1124D2
:100330001FBECFEFD1E2DEBFCDBF00E00CBF13E0A8
:10034000A0E0B2E0E0EBF4E300E00BBF02C00790F6
:100350000D92A438B107D9F724E0A4E8B3E001C0B6
:100360001D92AB3CB207E1F711E0C7E9D1E000E034
:1003700006C021970109802FFE010E94FE17C63991
:10038000D10780E00807A9F70E944A0F0C94561A7B
:100390000C9400008CBD9DBD0895282F30E0F9011C
:1003A000EA51FD4F9491F901E056FD4F4491265AD0
:1003B0003D4FF9012491222309F435C0992311F10D
:1003C00091509231F8F4E92FF0E08827E551FE4F83
:1003D0008F4F0C94FE171C022002FD01140218021C
:1003E0000202230229022D02330237023B0241029C
:1003F0004502020249024F025302809180008F772A
:1004000080938000E22FF0E0EE0FFF1FE05CFD4FD5
:10041000A591B4918FB7F894EC91611148C04095C3
:100420004E234C938FBF0895809180008F7DE8CF3D
:1004300080918000877FE4CF84B58F7784BDE2CF41
:1004400084B58F7DFBCF8091B0008F778093B00013
:10045000D9CF8091B0008F7DF9CF809190008F77B8
:1004600080939000CFCF809190008F7DF9CF8091C5
:100470009000877FF5CF8091A0008F778093A000B8
:10048000C1CF8091A0008F7DF9CF8091A000877FA0
:10049000F5CF809120018F7780932001B3CF809199
:1004A00020018F7DF9CF80912001877FF5CF4E2BE2
:1004B000B8CFCF93DF9390E0FC01E056FD4F24913D
:1004C000865A9D4FFC0184918823D1F090E0880FDB
:1004D000991FFC01EA5DFD4FA591B491FC01E05C20
:1004E000FD4FC591D49161110EC09FB7F8948C91C6
:1004F000E22FE0958E238C932881E223E8839FBF2F
:10050000DF91CF9108958FB7F894EC91E22BEC93A3
:100510008FBFF6CF1F93CF93DF93182FEB0161E0CE
:100520000E945902209739F460E0812FDF91CF912A
:100530001F910C94CD01CF3FD10511F461E0F5CFAF
:10054000E12FF0E0EA51FD4FE491E150E23108F093
:10055000B3C0F0E08827E055FD4F8F4F0C94FE1795
:10056000C202CA02CF02D902E3025C03ED02F50225
:10057000FD02070311031B032A0334035C033E033C
:100580004803520384B5806884BDC7BDDF91CF9115
:100590001F91089584B5806284BDC8BDF7CF809156
:1005A0008000806880938000D0938900C093880089
:1005B000EDCF80918000806280938000D0938B008B
:1005C000C0938A00E3CF8091800088608093800090
:1005D000D0938D00C0938C00D9CF8091B0008068FB
:1005E0008093B000C093B300D1CF8091B0008062FF
:1005F0008093B000C093B400C9CF80919000806810
:1006000080939000D0939900C0939800BFCF8091C1
:100610009000806280939000D0939B00C0939A00DA
:10062000B5CF80919000886080939000D0939D001A
:10063000C0939C00ABCF8091A00080688093A00005
:100640008091A0008F7B8093A000D093A900C093DD
:10065000A8009CCF8091A00080628093A000D093DE
:10066000AB00C093AA0092CF8091A00088608093D5
:10067000A000D093AD00C093AC0088CF8091200142
:10068000806880932001D0932901C09328017ECFF8
:1006900080912001806280932001D0932B01C09330
:1006A0002A0174CF80912001886080932001D0932B
:1006B0002D01C0932C016ACFC038D1050CF03ECF7C
:1006C00033CF3FB7F8948091C9039091CA03A091AA
:1006D000CB03B091CC0326B5A89B05C02F3F19F0E2
:1006E0000196A11DB11D3FBFBA2FA92F982F8827B2
:1006F000BC01CD01620F711D811D911D42E0660F8D
:10070000771F881F991F4A95D1F708952FB7F8943E
:100710006091C5037091C6038091C7039091C8038F
:100720002FBF08950E948603609388037093890306
:1007300080938A0390938B030895AF92BF92CF92D8
:10074000DF92EF92FF920F931F93CF93DF936C0191
:100750007B018B01040F151FEB015E01AE18BF0872
:10076000C017D10759F06991D601ED91FC91019024
:10077000F081E02DC6011995892B79F7C501DF912C
:10078000CF911F910F91FF90EF90DF90CF90BF908E
:10079000AF900895FC01538D448D252F30E0842FB8
:1007A00090E0821B930B541710F0CF960895019799
:1007B0000895FC01918D828D981761F0A28DAE0F86
:1007C000BF2FB11D5D968C91928D9F5F9F73928F0D
:1007D00090E008958FEF9FEF0895FC01918D828D39
:1007E000981731F0828DE80FF11D858D90E0089506
:1007F0008FEF9FEF0895FC01918D228D892F90E05E
:10080000805C9F4F821B91098F739927089582ED19
:1008100093E00E94FB0321E0892B09F420E0822F62
:100820000895FC01A48DA80FB92FB11DA35ABF4F85
:100830002C91848D90E001968F739927848FA689DF
:10084000B7892C93A089B1898C91837080648C9333
:10085000938D848D981306C00288F389E02D8081E2
:100860008F7D80830895EF92FF920F931F93CF9314
:10087000DF93EC0181E0888F9B8D8C8D98131AC0DB
:10088000E889F989808185FF15C09FB7F894EE89C2
:10089000FF896083E889F98980818370806480831F
:1008A0009FBF81E090E0DF91CF911F910F91FF906A
:1008B000EF900895F62E0B8D10E00F5F1F4F0F7312
:1008C0001127E02E8C8D8E110CC00FB607FCFACFCD
:1008D000E889F989808185FFF5CFCE010E94110456
:1008E000F1CFEB8DEC0FFD2FF11DE35AFF4FF0829E
:1008F0009FB7F8940B8FEA89FB8980818062CFCF04
:10090000CF93DF93EC01888D8823B9F0AA89BB8946
:10091000E889F9898C9185FD03C0808186FD0DC031
:100920000FB607FCF7CF8C9185FFF2CF808185FF52
:10093000EDCFCE010E941104E9CFDF91CF91089550
:1009400080E090E0892B29F00E94070481110E9429
:10095000000080E090E0892B49F080E090E0892B56
:1009600029F00E94000081110E94000080E090E0C8
:10097000892B49F080E090E0892B29F00E9400004B
:1009800081110E94000080E090E0892B49F080E016
:1009900090E0892B29F00E94000081110C94000046
:1009A000089508958EBD00000DB407FEFDCF8EB5ED
:1009B00008951F93CF93DF93182F80E591E00E9455
:1009C000CA01C7E8D4E060E08A890E94CD0183E0D3
:1009D0000E94D204812F0E94D20480E00E94D2049F
:1009E000182F61E08A890E94CD01812FDF91CF917C
:1009F0001F910895FF920F931F93CF93DF93F82ECB
:100A0000062F142F80E591E00E94CA01C7E8D4E0C8
:100A100060E08A890E94CD0185E00E94D2048F2D7A
:100A20000E94D204802F0E94D204812F0E94D204FF
:100A300061E08A89DF91CF911F910F91FF900C9413
:100A4000CD01CF93DF93C82F0E948603D62F4C2F62
:100A500060EE8FE00E94FA048EE00E94D904807E4E
:100A6000C81749F00E9486036D1B693C80F381E042
:100A7000DF91CF91089580E0FBCFCF93DF93C82F14
:100A80008EE00E94D904807E8032F9F4C032E9F011
:100A90008BE20E94D904D82FD07486FD05C040E4B3
:100AA00060E48BE20E94FA0440E460E48CE20E947D
:100AB000FA0480E60E942105811111C0D11105C000
:100AC00040E060E48BE20E94FA0440E060E48CE2E3
:100AD0000E94FA048C2FDF91CF910C94210581E0C4
:100AE000DF91CF9108950F931F93CF93DF93082F3A
:100AF000162F80E591E00E94CA01C7E8D4E060E0CB
:100B00008A890E94CD0182E00E94D204802F0E9437
:100B1000D204812F0E94D20461E08A89DF91CF91B3
:100B20001F910F910C94CD01FF920F931F93CF93C0
:100B3000DF93C82FF62E172F042F80E591E00E9437
:100B4000CA0160E0809199040E94CD0182E00E9478
:100B5000D2048C2F0E94D204CF2DD12F0C0F1D2F29
:100B6000111DC017D10721F089910E94D204F9CF3D
:100B700061E080919904DF91CF911F910F91FF90D7
:100B80000C94CD01CF93DF9300D01F92CDB7DEB789
:100B90001C821B82613081F498E09A83198244E0C0
:100BA000BE016F5F7F4F0E9494050F900F900F90D2
:100BB0000F90DF91CF9108951A82F0CF2F923F923C
:100BC0004F925F926F927F928F929F92AF92CF924D
:100BD000DF92EF92FF920F931F93CF93DF9300D09A
:100BE0001F92CDB7DEB76093880470938904809319
:100BF0008A0490938B0496FB552750F950939504E3
:100C0000662797FD63957727882799276093870440
:100C100040938C04F901ADE8B4E0C9010896219134
:100C20002D93E817F907D9F70E9461032B013C01C6
:100C300080902C0290902D02A0902E021E0124E0A4
:100C4000220E311C89829A82AB82CE0101966C0100
:100C5000F82E0D2DF60111916F01812F0E94D904FC
:100C600083FD14C01F5FE12C0E946103DC01CB01F6
:100C700084199509A609B709F2E0EF120EC0843C69
:100C80009940A105B105F0F206E07DC02C143D04A9
:100C900009F710E072E0E72EE7CF843C9940A10508
:100CA000B10590F740918C046DE874E085E0810F08
:100CB0000E94940580919504813029F480918C04E0
:100CC000806480938C0460918C0484E0810F0E9486
:100CD0007305409188045091890460918A04709151
:100CE0008B04809187048130D9F54C835B83AB0101
:100CF00066277727842F83708860942F990F990F28
:100D0000990F907E892B8A8365E0569547956A9561
:100D1000E1F7498344E06F2D702F812F0E949405E5
:100D2000115048E068E0812F0E94FA040E9461039C
:100D30006B017C01812F0E94D904082F08700E944A
:100D40006103DC01CB018C199D09AE09BF090023A9
:100D5000A9F0843C9940A105B10560F307E013C0F8
:100D6000CA0123E0969587952A95E1F789834295F4
:100D7000440F407E4A831C821B82CCCF843C994026
:100D8000A105B10558F7802F0F900F900F900F908D
:100D9000DF91CF911F910F91FF90EF90DF90CF9057
:100DA000AF909F908F907F906F905F904F903F900B
:100DB0002F900895FF920F931F93CF93DF93C82F27
:100DC000F62E172F042F80E591E00E94CA0160E003
:100DD000809199040E94CD0183E00E94D2048C2F5F
:100DE0000E94D204CF2DD12F0C0F1D2F111DC01723
:100DF000D10729F080E00E94D2048993F8CF61E006
:100E000080919904DF91CF911F910F91FF900C94E5
:100E1000CD010F931F93CF93DF9300D01F92CDB7D7
:100E2000DEB7182F1092870410928804109289045C
:100E300010928A0410928B0444E0BE016F5F7F4FD2
:100E40000E94DA062A81898138E0839FC00111243B
:100E5000422F50E065E0559547956A95E1F7840F7C
:100E6000951F092E000CAA0BBB0B8093880490934E
:100E70008904A0938A04B0938B0423FF29C032E035
:100E8000880F991FAA1FBB1F3A95D1F72370820FB5
:100E9000911DA11DB11DBA2FA92F982F88272B8135
:100EA000820F911DA11DB11DBA2FA92F982F882740
:100EB0002C81820F911DA11DB11D809388049093F8
:100EC0008904A0938A04B0938B0481E08093870403
:100ED0008FEF810F0E94D904082F84E0810F0E94B8
:100EE000D90403FF16C091E090939504482F4F70EA
:100EF00040938C046DE874E085E0810F0E94DA066F
:100F00000F900F900F900F90DF91CF911F910F9145
:100F1000089510929504EACFCF9380E591E00E9466
:100F2000CA0160E0809199040E94CD0180EA0E948C
:100F3000D20480E00E94D204C82F61E0809199041D
:100F40000E94CD01C0FF54C081E60E94090740E025
:100F500061E08CE20E94FA0480918704882389F082
:100F60008091880490918904A0918A04B0918B04A7
:100F7000B0688093880490938904A0938A04B09306
:100F80008B0480919504882389F080918804909146
:100F90008904A0918A04B0918B04B0648093880482
:100FA00090938904A0938A04B0938B048091880461
:100FB00090918904A0918A04B0918B048093CE0310
:100FC0009093CF03A093D003B093D10380918C046E
:100FD0008093CD03ADE8B4E0E4E2F2E090E09F015D
:100FE000245232402817390764F42D912193F7CF0A
:100FF00084E0C1FF07C081E70E94090740E062E08A
:10100000A8CF80E0CF910895CF93DF93EB0181309B
:10101000910581F485E20E948A0270E060E080E13F
:101020000E948A02BE0188E00E948A0270E060E0AD
:1010300086E012C08230910599F480E10E948A0214
:1010400070E060E085E20E948A02BE0186E00E94B4
:101050008A0270E060E088E0DF91CF910C948A0210
:10106000892B69F470E060E085E20E948A0270E0FA
:1010700060E080E10E948A0270E060E0D4CFDF91FE
:10108000CF910895F894FC0181818330E9F034F424
:10109000813071F0823091F0789408958430D1F0ED
:1010A0008530D1F7809173008D7F80937300F4CFEA
:1010B00080916F008D7F80936F00EECF80917000E4
:1010C0008D7F80937000E8CF809171008D7F809339
:1010D0007100E2CF809172008D7F80937200DCCF2F
:1010E000FC01F8946330C9F13CF46130C1F0623026
:1010F00029F16183789408956430F1F16530C9F77E
:1011000010922001109221019091210198609093FA
:10111000210190912101916090932101EACF1092D9
:10112000800010928100809181008860809381000E
:1011300080918100816080938100DBCF1092B000AC
:101140001092B1008091B00082608093B0008091D5
:10115000B10081608093B100CCCF109290001092CA
:1011600091009091910098609093910090919100DE
:10117000916090939100BDCF1092A0001092A100B9
:101180009091A10098609093A1009091A10091602E
:101190009093A100AECFFC01408551856285738597
:1011A0008181833009F470C084F4813089F1823008
:1011B00009F44CC080859185A285B385892B8A2B43
:1011C0008B2B11F481E080830895843009F47AC078
:1011D000853081F7DB01CA014115510521E0620725
:1011E000710520F08FEF9FEFA0E0B0E09093290110
:1011F00080932801481B590B6A0B7B0B4087518752
:101200006287738780917300826080937300D2CF6E
:10121000DB01CA014115510521E06207710520F08B
:101220008FEF9FEFA0E0B0E090938900809388005B
:10123000481B590B6A0B7B0B40875187628773876A
:1012400080916F00826080936F00B4CF4F3F510553
:101250006105710529F020F04FEF50E060E070E08B
:101260004093B30080859185A285B385841B950B3F
:10127000A60BB70B80879187A287B38780917000F8
:1012800082608093700096CFDB01CA014115510541
:1012900021E06207710520F08FEF9FEFA0E0B0E042
:1012A0009093990080939800481B590B6A0B7B0B15
:1012B0004087518762877387809171008260809335
:1012C000710078CFDB01CA014115510521E06207A9
:1012D000710520F08FEF9FEFA0E0B0E09093A900A0
:1012E0008093A800481B590B6A0B7B0B40875187E2
:1012F00062877387809172008260809372005ACFF8
:10130000CF93DF93EC01F894298188859985AA858C
:10131000BB852230A9F18F3F9F4FA105B10518F47D
:10132000CE010E94CB0888859985AA85BB85AC0132
:10133000BD01009721E0A207B10520F04FEF5FEF5C
:1013400060E070E0841B950BA60BB70B888799872C
:10135000AA87BB8788859985AA85BB85892B8A2B17
:101360008B2B39F58C819D81AE81BF8188879987D0
:10137000AA87BB8781E088837894DF91CF91089515
:101380008F3F9105A105B10518F4CE010E94CB084D
:1013900088859985AA85BB85AC01BD018F3F9105E4
:1013A000A105B10579F270F24FEF50E060E070E016
:1013B000C9CF1882E1CFFC0101900020E9F73197F5
:1013C000AF01481B590BBC0182ED93E00C949D03C7
:1013D0008F929F92AF92BF920F931F93CF93DF9301
:1013E000CDB7DEB7A1970FB6F894DEBF0FBECDBF65
:1013F00019A2423008F44AE08E010F5D1F4F842E7F
:10140000912CB12CA12CA50194010E94DC17E62F90
:10141000B901CA01EA30F4F4E05DD801EE938D0120
:10142000232B242B252B79F790E080E0109719F0DF
:10143000CD010E94DB09A1960FB6F894DEBF0FBE66
:10144000CDBFDF91CF911F910F91BF90AF909F9033
:101450008F900895E95CE1CFCF93DF930E94DB0981
:10146000EC018DE892E00E94DB098C0F9D1FDF915B
:10147000CF9108950F931F93CF93DF938C01D0E00A
:10148000C0E0F801EC0FFD1F6491662341F082ED8E
:1014900093E00E943304892B11F02196F2CF8DE85E
:1014A00092E00E94DB098C0F9D1FDF91CF911F916D
:1014B0000F9108950F931F9380E992E00E94DB093A
:1014C0000E94860300919603109197032091980340
:1014D00030919903601B710B820B930B4AE00E94C1
:1014E000E8098DE892E00E94DB090E948603609380
:1014F00096037093970380939803909399031F9199
:101500000F9108950F931F93CF93DF931F921F9214
:10151000CDB7DEB78C010E94B2178983C80101964E
:101520000E94B2178A8389819A810F900F90DF9170
:10153000CF911F910F910895CF92DF92EF92FF927A
:101540000F931F93CF93DF9300D01F92CDB7DEB7D9
:101550006E0125E0C20ED11C8E010F5F1F4F7C0172
:10156000E01AF10AC016D10649F0C701800F911F99
:101570000E94B217F80181938F01F4CF69817A81BB
:101580008B819C810F900F900F900F90DF91CF91E6
:101590001F910F91FF90EF90DF90CF9008951F92D1
:1015A0000F920FB60F9211242F933F938F939F9317
:1015B000AF93BF938091C5039091C603A091C703D9
:1015C000B091C8033091C40323E0230F2D3758F5A1
:1015D0000196A11DB11D2093C4038093C503909370
:1015E000C603A093C703B093C8038091C903909129
:1015F000CA03A091CB03B091CC030196A11DB11DEC
:101600008093C9039093CA03A093CB03B093CC03F8
:10161000BF91AF919F918F913F912F910F900FBEEE
:101620000F901F90189526E8230F0296A11DB11D5B
:10163000D2CF1F920F920FB60F9211240BB60F92BA
:101640002F933F934F935F936F937F938F939F93CA
:10165000AF93BF93EF93FF9382ED93E00E94110449
:10166000FF91EF91BF91AF919F918F917F916F917A
:101670005F914F913F912F910F900BBE0F900FBE36
:101680000F901F9018951F920F920FB60F92112472
:101690000BB60F922F938F939F93EF93FF93E0914D
:1016A000E203F091E3038081E091E803F091E90324
:1016B00082FD1DC090818091EB038F5F8F7320911D
:1016C000EC03821741F0E091EB03F0E0EE52FC4FA7
:1016D000958F8093EB03FF91EF919F918F912F91C5
:1016E0000F900BBE0F900FBE0F901F90189580812A
:1016F000F2CF1F920F920FB60F9211240BB60F92DA
:10170000CF92DF92EF92FF922F933F934F935F938D
:101710006F937F938F939F93AF93BF93EF93FF93B9
:10172000C090A704D090A804E090A904F090AA0467
:1017300080919C04853009F04FC0C114D104E104AC
:10174000F10409F467C080919B04882309F45DC00B
:10175000E091AF04F091B004309741F08091B10472
:101760009091B204009709F44EC0199580919F049E
:101770009091A004A091A104B091A2040097A1406F
:10178000B105C4F0F89480919F049091A004A091B9
:10179000A104B091A2048093A3049093A404A09305
:1017A000A504B093A6048BE994E00E94CB081092A4
:1017B0009B0478941C141D041E041F046CF481E027
:1017C000C81AD108E108F108C092A704D092A80471
:1017D000E092A904F092AA04FF91EF91BF91AF911A
:1017E0009F918F917F916F915F914F913F912F9139
:1017F000FF90EF90DF90CF900F900BBE0F900FBE39
:101800000F901F9018951995B1CF8BE994E00E9425
:101810008009E2CF8BE994E00E944208DDCF1F925D
:101820000F920FB60F9211240BB60F92CF92DF9248
:10183000EF92FF922F933F934F935F936F937F931A
:101840008F939F93AF93BF93EF93FF93C090BF0489
:10185000D090C004E090C104F090C2048091B40420
:10186000833009F04FC0C114D104E104F10409F43C
:1018700067C08091B304882309F45DC0E091C70478
:10188000F091C804309741F08091C9049091CA0446
:10189000009709F44EC019958091B7049091B8044F
:1018A000A091B904B091BA040097A140B105C4F069
:1018B000F8948091B7049091B804A091B904B091C4
:1018C000BA048093BB049093BC04A093BD04B0936E
:1018D000BE0483EB94E00E94CB081092B30478948A
:1018E0001C141D041E041F046CF481E0C81AD108E6
:1018F000E108F108C092BF04D092C004E092C10494
:10190000F092C204FF91EF91BF91AF919F918F919F
:101910007F916F915F914F913F912F91FF90EF9049
:10192000DF90CF900F900BBE0F900FBE0F901F90C7
:1019300018951995B1CF83EB94E00E948009E2CF0E
:1019400083EB94E00E944208DDCF4F925F926F924A
:101950007F928F929F92AF92BF92CF92DF92EF923F
:10196000FF920F931F93CF93DF93EC011981111610
:101970000CF03AC14901CB01BA010E942D199B011B
:10198000AC0160E070E08AE794E40E948C186B017F
:101990007C012EEA37E346E856E40E94E4192B0165
:1019A0003C0120E030E040E85FE30E94871887FDBB
:1019B0001BC18FEF9FEFDC018C879D87AE87BF87B0
:1019C00020E030E040E852E4C301B201123009F4F3
:1019D00087C00E94DF1901E010E0181674F020E0C3
:1019E00030E040E051E4C301B2010E94DF1903E09E
:1019F00010E0181614F402E010E0C801880F991FD7
:101A00009C0121593D4F5901F501619171915F018F
:101A100090E080E00E942D19A70196010E94E41930
:101A20009B01AC0160E074E284E79BE40E948C18A7
:101A300020E030E040E85FE30E941A180E94FE18A0
:101A40006115F0EC7F07FFEF8F07FFE39F07A8F515
:101A50006C837D838E839F83688779878A879B8742
:101A60001B830A83F894C88AD98AEA8AFB8A9D8AEA
:101A70008C8A1F8A1E8A18828981823009F08BC065
:101A80008091B100887F9A81892B8093B100CE012B
:101A90000E94CB08789481E0DF91CF911F910F9144
:101AA000FF90EF90DF90CF90BF90AF909F908F907E
:101AB0007F906F905F904F9008950F5F1F4F06309B
:101AC000110509F0A1CF6C837D838E839F83688786
:101AD00079878A879B8785E090E09B838A83C2CF42
:101AE0000E94DF1901E010E01816D4F020E030E089
:101AF00040E051E4C301B2010E94DF1902E010E0AE
:101B0000181674F020E030E040E050E4C301B20168
:101B10000E94DF1904E010E0181614F403E010E04E
:101B2000C801880F991F9C01215A3D4F5901F501A9
:101B3000619171915F0190E080E00E942D19A701F1
:101B400096010E94E4199B01AC0160E074E284E715
:101B50009BE40E948C1820E030E040E85FE30E94A4
:101B60001A180E94FE186115F0EC7F07FFE38F073B
:101B7000910508F46DCF0F5F1F4F08301105B9F6BE
:101B80006C837D838E839F83688779878A879B8711
:101B900087E090E0A2CF813041F480918100887F7E
:101BA0009A81892B8093810072CF833041F4809198
:101BB0009100887F9A81892B8093910068CF84302F
:101BC00041F48091A100887F9A81892B8093A100A4
:101BD0005ECF853009F05BCF80912101887F9A81AB
:101BE000892B8093210153CF80E056CF8F929F9213
:101BF000AF92BF92EF92FF920F931F93CF93DF9319
:101C000000D000D01F921F92CDB7DEB7FC01F1804B
:101C10002081F0E12F9F900111244F2D50E064E0CE
:101C2000559547956A95E1F7242B352B233241E0F2
:101C3000340761F12032314009F45CC0198282E03E
:101C40008A8380E090E0A0E2B2E48B839C83AD8342
:101C5000BE8388EE93E098878F8329813A814B81F8
:101C60005C816D817E818F81988528960FB6F8946E
:101C7000DEBF0FBECDBFDF91CF911F910F91FF90BF
:101C8000EF90BF90AF909F908F900895E12C8C01C2
:101C9000FC018281F8E78F9FC00111246FEF70E093
:101CA0000E94C817072E000C880B990B0E942F1951
:101CB0004B015C01F801638170E090E080E00E94DC
:101CC0002D1920E030E44CE156E40E94E41920E0B4
:101CD00030E04FE753E40E948C180E94FE18E9821E
:101CE0002F2D23702A838B829C82AD82BE827887BF
:101CF0006F83B3CFEE24E394CACFFF920F931F9369
:101D0000CF93DF93EC01F62E08811981C8010E9460
:101D1000B217F81621F06F2DC8010E94BA17CE0134
:101D2000DF91CF911F910F91FF900895FF920F9334
:101D30001F93CF93DF931F921F92CDB7DEB78C0115
:101D4000F72E9A838983CE0101960E947D0E0F5F44
:101D50001F4F1A8309836F2DCE0101960E947D0EBD
:101D60000F900F90DF91CF911F910F91FF900895E9
:101D7000CF93DF93E2EDF3E01382128288EE93E0DB
:101D8000A0E0B0E084839583A683B7838FE792E0D9
:101D90009183808385EC90E09587848784EC90E044
:101DA0009787868780EC90E0918B808B81EC90E028
:101DB000938B828B82EC90E0958B848B86EC90E009
:101DC000978B868B118E128E138E148EE3EBF4E0BC
:101DD00083E08183108A118A128A138A158A148AF1
:101DE000178A168A108221E030E03383228314821E
:101DF00015821682178210861186128613868FEF3F
:101E00009FEFDC0184879587A687B787EBE9F4E02D
:101E100045E04183108A118A128A138A158A148A2E
:101E2000178A168A108233832283148215821682BF
:101E30001782108611861286138684879587A68757
:101E4000B787C7E8D4E081E28A8B61E00E94CD01C8
:101E500061E08A890E9459028FE694E0998B888B11
:101E6000EAE7F4E089E18083148282E390E09487DA
:101E70008387E5E7F4E01182128288EE93E0948391
:101E80008383E0E7F4E01182128294838383DF91FD
:101E9000CF910895CF93DF9300D000D000D01F9250
:101EA000CDB7DEB7789484B5826084BD84B5816097
:101EB00084BD85B5826085BD85B5816085BD809115
:101EC0006E00816080936E0010928100809181008D
:101ED0008260809381008091810081608093810085
:101EE000809180008160809380008091B100846047
:101EF0008093B1008091B00081608093B0008091A8
:101F00009100826080939100809191008160809324
:101F10009100809190008160809390008091A10059
:101F200082608093A1008091A10081608093A100D4
:101F30008091A00081608093A00080912101826047
:101F40008093210180912101816080932101809102
:101F5000200181608093200180917A0084608093C9
:101F60007A0080917A00826080937A0080917A0072
:101F7000816080937A0080917A00806880937A00F3
:101F80001092C10061E08DE00E94590261E087E299
:101F90000E94590261E089E20E94590261E080E2F8
:101FA0000E94590261E082E20E94590261E084E2EB
:101FB0000E94590261E086E20E94590261E088E2D3
:101FC0000E94590261E08AE20E94590260E083E0C7
:101FD0000E94590261E08CE20E94590261E08EE2A7
:101FE0000E94590261E088E00E94590261E086E0A7
:101FF0000E94590261E085E20E94590261E080E19D
:102000000E94590261E080E10E94590261E081E191
:102010000E94590261E080E10E94CD0161E081E10E
:102020000E94CD01E091E203F091E30382E080831E
:10203000E091DE03F091DF031082E091E003F09184
:10204000E10380E180831092EA03E091E603F091DE
:10205000E70386E08083E091E403F091E50380816B
:1020600080618083E091E403F091E50380818860E2
:102070008083E091E403F091E503808180688083B0
:10208000E091E403F091E50380818F7D808360918E
:10209000B40483EB94E00E94700860919C048BE987
:1020A00094E00E9470081FB7F89480918C0381110E
:1020B00027C0EFE8F2E08491E5EDF2E09491E82F9B
:1020C000F0E0EE0FFF1FEA5DFD4FA591B491EC919A
:1020D000E92321F461E085E30E94CD0161E085E31D
:1020E0000E9459028CB580618CBD8CB580648CBD1A
:1020F00061E084E30E94590261E083E30E94590297
:1021000080918C038F5F80938C031FBF80E591E0EB
:102110000E94CA0160E0809199040E94CD0180EC88
:102120000E94D20461E0809199040E94CD010E9436
:1021300061034B015C01B5E0CB2ED12CE12CF12CDD
:102140000E946103681979098A099B09683E7340F6
:1021500081059105A8F321E0C21AD108E108F10830
:1021600038EE830E33E0931EA11CB11CC114D104C0
:10217000E104F10429F780E480939A0480E80E9446
:102180003D05882309F44EC08FEF91E00E943A0A82
:1021900085E693E00E942C0A10929A0480E00E9447
:1021A0003D0590E080E00E949C0A60930C027093D1
:1021B0000D0280930E0290930F0288E090E00E943F
:1021C000820A90931102809310028CE090E00E94AA
:1021D000B21780930B0284E090E00E949C0A609307
:1021E00004027093050280930602909307028AE02E
:1021F00090E00E94820A90930902809308028DE089
:1022000090E00E94B217809303020AEF10E0EDE025
:102210002E2E312CFCE08F2E912CAFE4AA2EA2E0C2
:10222000BA2EFCC487ED91E00E943A0A60E08AE28F
:102230000E94730561ED89E20E94730561E888E2FE
:102240000E9473058AEB91E00E943A0A61E080E205
:102250000E94C20561E084E20E94C20561E080E064
:102260000E94C20560E084E00E94C20561E088E04F
:102270000E94C20560E080E10E94C20561E084E145
:102280000E94C20560E088E10E94C20510E360E0A0
:10229000812F0E94730560E080E1810F0E94730529
:1022A00060E080E2810F0E9473051F5F1E3379F7A3
:1022B00060E080E60E94730560E080E70E9473059D
:1022C00063E08BE20E9473056CE38CE00E9473056F
:1022D00060E08DE00E94730544E664E680E60E94BB
:1022E000FA0440E660E680E70E94FA0480919A04CE
:1022F0000E943D05882309F42EC684E991E046CF6B
:1023000081309440A105B10549F430E020E040E07F
:1023100061E074E080E090E00E94DE058091CE03F1
:102320009091CF03A091D003B091D103823094401B
:10233000A105B10509F016C180912402282F237050
:1023400030E03093AF032093AE0390E09C013595CD
:10235000279535952795237033273093AD03209328
:10236000AC039C01F4E035952795FA95E1F72370CD
:1023700033273093AB032093AA03A6E09595879566
:10238000AA95E1F79093A9038093A8038091250271
:10239000282F237030E03093B7032093B60390E0EA
:1023A0009C013595279535952795237033273093D4
:1023B000B5032093B4039C0144E0359527954A95D5
:1023C000E1F7237033273093B3032093B20356E031
:1023D000959587955A95E1F79093B1038093B00353
:1023E00068EA662E63E0762E7FE4C72E72E0D72E71
:1023F000F301819191913F018130910509F4BBC4B2
:102400008230910509F4BDC460E0892B09F4B4C49D
:10241000F2E0CF0ED11C28EB33E02615370541F74B
:1024200080912602282F30E02B3F31050CF0AEC4FE
:102430003FEF839FC0011124B8010E94C817709319
:10244000A7036093A60380912702282F30E02B3F3B
:1024500031050CF0A4C4EFEF8E9FC0011124B80128
:102460000E94C8177093A5036093A403809128026B
:10247000282F30E02B3F31050CF09AC4FFEF8F9FDF
:10248000C0011124B8010E94C8177093A303609380
:10249000A203C090A6037091A7036C2D8CE20E944A
:1024A0008A02D090A4037091A5036D2D8EE20E9444
:1024B0008A022091A2038091A8039091A903B6E01B
:1024C000880F991FBA95E1F74091AA035091AB0389
:1024D00094E0440F551F9A95E1F7842B9091AE0339
:1024E000892B4091AC035091AD03440F551F440F0D
:1024F000551F842B80931A028091B0039091B103F1
:1025000046E0880F991F4A95E1F74091B203509138
:10251000B30364E0440F551F6A95E1F7842B909153
:10252000B603892B4091B4035091B503440F551F56
:10253000440F551F842B80931B02C0921C02D09223
:102540001D0220931E0210921F0210922002109270
:1025500021022AE132E048E062E274E080E090E0AB
:102560000E94DE058091CE039091CF03A091D0030D
:10257000B091D10383309440A105B10509F01BC18E
:1025800084E292E00E94F60D20931202309313022F
:102590004093140250931502609316027093170231
:1025A0008093180290931902323008F40AC4323032
:1025B00009F411C480910A02813091F580910C02D6
:1025C00090910D02A0910E02B0910F028D839E8317
:1025D000AF83B8873E0135E0630E711CD12CC12C4E
:1025E000F30161913F01DA86C986CE0109960E9406
:1025F0007D0EFFEFCF1ADF0A24E0C216D10481F767
:10260000609110027091110288E090E00E94960E95
:1026100060910B029A868986CE0109960E947D0EF2
:1026200088E292E00E94F60D20931202309313028A
:102630004093140250931502609316027093170290
:102640008093180290931902323008F4C9C33230D3
:1026500009F4D0C38091040290910502A091060272
:10266000B091070220910202213051F589839A83AB
:10267000AB83BC83CE0101963C01A4E0CA2ED12CD1
:10268000F30161913F01DA86C986CE0109960E9465
:102690007D0EFFEFCF1ADF0A28E0C216D10481F7C2
:1026A00060910802709109028AE090E00E94960E03
:1026B000609103023A862986CE0109960E947D0E1A
:1026C00020910B0260910C0270910D0280910E021C
:1026D00090910F02C0901002D090110232E130931D
:1026E0001A02206320931B0220E030E04FE753E4FE
:1026F0000E94E41920E030E040EF52E40E948C1880
:102700000E94FE1860931C02B60190E080E00E94D7
:102710002D1920E030E04FE753E40E94E41920E057
:1027200030E44CE156E40E948C180E94FE1860933D
:102730001D022091030260910402709105028091B4
:10274000060290910702C0900802D0900902E2E1CF
:10275000E0931E02206320931F0220E030E04FE749
:1027600053E40E94E41920E030E040EF52E40E947C
:102770008C180E94FE1860932002B60190E080E061
:102780000E942D1920E030E04FE753E40E94E41945
:1027900020E030E44CE156E40E948C180E94FE18C0
:1027A000609321022AE132E048E063E274E080E0D5
:1027B00090E00E94DE058091CE039091CF03A0911E
:1027C000D003B091D10384309440A105B10509F044
:1027D00042C080912402909125029827892798274A
:1027E00020912602217030912702337030937004BB
:1027F0001092710420937204909374048093730474
:1028000085E0E0E7F4E0A5E7B4E001900D928A9559
:10281000E1F78091750490917704209178043091CC
:10282000790430931A0220931B0290931C02837048
:1028300080931D0210921E0210921F02109220021D
:10284000109221022AE132E048E064E274E080E084
:1028500090E00E94DE058091CE039091CF03A0917D
:10286000D003B091D10385309440A105B10509F59D
:102870008091240290E0F6E095958795FA95E1F72E
:10288000813009F4BFC208F4BAC2823009F4BEC272
:102890008091760430E4839FC00111248093A103CA
:1028A00021EA33E048E065E274E080E090E00E94D5
:1028B000DE058091CE039091CF03A091D003B0911B
:1028C000D10380319540A105B10509F0DAC07090BF
:1028D00025028091260290E04091280250E0B42F1A
:1028E000AA27AA27BF7020912702A22BB8502091B7
:1028F0002A0230E060912902F4E06F9FB0011124B8
:10290000FA01689415F8F595E7951694E1F76E2BA2
:102910007F2BF901FE2FEE27FF0FFF0FEE27FC7034
:102920006E2B7F2B7850F0912B02E0E1FE9F70011F
:1029300011246901E4E0D594C794EA95E1F7EC2805
:10294000FD282701F8E05F1AD0902402F0E8FF2E5E
:10295000DF0CD0927A04E72DE370E0937B046C01E6
:10296000E6E0D594C794EA95E1F7C0927C04F4E0E0
:1029700055954795FA95E1F7437040937D04359559
:10298000279535952795237020937E0456E0880F70
:10299000991F5A95E1F7807C9F70272D30E035957F
:1029A000279535952795822B932B985090938004EB
:1029B00080937F04B0938204A09381047093840475
:1029C0006093830450928604409285044090910362
:1029D000509092036090930370909403072E000C24
:1029E000880B990B0E942F192DEC3CEC4CEC5DE30D
:1029F0000E94E4196B017C0126E636E646E65FE3B9
:102A0000C301B2010E94E4199B01AC01C701B601E8
:102A10000E941B1860939103709392038093930319
:102A2000909394036093BC037093BD038093BE03A3
:102A30009093BF0384E093E00E94DB094090BC03C5
:102A40005090BD036090BE037090BF03A30192013C
:102A5000C301B2010E94511A882309F4DCC18DE13F
:102A600093E00E94DB098DE892E00E94DB090E945E
:102A700086036093C0037093C1038093C203909355
:102A8000C3030E94860340909D0350909E03609074
:102A90009F037090A003AB01BC014419550966095E
:102AA00077098091780490917904B0E0A0E048170C
:102AB00059076A077B07C8F180917604811104C029
:102AC00080917504882389F1109276048FE2C82ED4
:102AD00082E0D82EF60161917191819191916F01FF
:102AE00030E020E040E00E94DE0587E090E00197C2
:102AF000F1F70E948C07AC14BD0461F710929B03A0
:102B000010929C032BE933E048E066E274E080E039
:102B100090E00E94DE050E94860360939D037093FF
:102B20009E0380939F039093A003D0900B02F1E04B
:102B3000DF1203C22091BC033091BD034091BE035C
:102B40005091BF0360910C0270910D0280910E02B2
:102B500090910F020E94871818160CF4EEC1809114
:102B60009A03811118C0409110025091110270E037
:102B700060E02AE53AE08BE994E00E94A50C0E940F
:102B800086036093960370939703809398039093C2
:102B90009903D0929A03D0900302FF24F394DF109C
:102BA000D3C12091B8033091B9034091BA03509139
:102BB000BB0360910402709105028091060290911E
:102BC00007020E94871818160CF4BEC18091950365
:102BD00081110EC0409108025091090270E060E03E
:102BE00022E933E083EB94E00E94A50CD092950398
:102BF00070E060E090E080E00E94040870E060E037
:102C000090E080E00E9404081092CE031092CF035F
:102C10001092D0031092D1030E94A0044090C003F0
:102C20005090C1036090C2037090C303F4EF4F0E45
:102C3000F1E05F1E611C711C0E9486034616570658
:102C40006806790608F07AC0C0909103D09092038C
:102C5000E0909303F0909403609183047091840456
:102C6000072E000C880B990B0E942F192DEC3CECC1
:102C70004CEC5DE30E94E4192B013C0126E636E6AC
:102C800046E65FE3C701B6010E94E4199B01AC016F
:102C9000C301B2010E941B186093910370939203C9
:102CA00080939303909394036093BC037093BD034C
:102CB0008093BE039093BF03609122027091230220
:102CC000C0908D03D0908E03E0908F03F09090031E
:102CD000072E000C880B990B0E942F192DEC3CEC51
:102CE0004CEC5DE30E94E4192B013C0126E636E63C
:102CF00046E65FE3C701B6010E94E4199B01AC01FF
:102D0000C301B2010E941B1860938D0370938E0360
:102D100080938F03909390036093B8037093B903EB
:102D20008093BA039093BB030E9486036093C00311
:102D30007093C1038093C2039093C3030E948C07D6
:102D40008091CE039091CF03A091D003B091D10395
:102D5000833422E09207A105B10509F0D1CAF894A5
:102D600088E198E00FB6F894A895809360000FBEB4
:102D700090936000FFCF61E0F60180810E94CD0159
:102D800047CB8CEA92E00E942C0A42CB2F3F3105C0
:102D900009F459CB87EB92E00E94DB0954CB2F3F1B
:102DA000310509F463CB83EC92E00E94DB095ECB32
:102DB0002F3F310509F46DCB8FEC92E00E94DB09C7
:102DC00068CB88E0E2E1F2E0AAE0B2E001900D9287
:102DD0008A95E1F7EFCB8DED92E00E94DB09EACB1B
:102DE00088E0E2E1F2E0A2E0B2E001900D928A9583
:102DF000E1F730CC89EE92E00E94DB092BCC1092F7
:102E0000760446CD81E08093760442CD88EF92E04F
:102E10000E94DB093DCD73016201E894F7F82FEFC2
:102E20003FEF4FE75FE7C701B6010E94511A8111DA
:102E30000DC02FEF3FEF4FE75FE7C701B6010E94DC
:102E4000871818161CF481E293E00BCE2FEF3FEFAA
:102E50004FE75FE4C301B2010E94DF1918161CF4AA
:102E600085E293E0FECD2FEF3FEF4FE75FECC3012C
:102E7000B2010E94871887FDF3CF20E030E0A9015E
:102E8000C301B2010E94871887FF09C06DE282ED7D
:102E900093E00E94330477FA709477F870942AE0F4
:102EA00037ED43EA5BE3C301B2010E941B186B01DB
:102EB0007C010E94FE182B013C010E942D199B01F0
:102EC000AC01C701B6010E941A186B017C014AE0EF
:102ED000C301B2010E94E8096EE282ED93E00E9414
:102EE000330420E030E040E251E4C701B6010E9423
:102EF000E4196B017C010E94FE182B01712C612CDE
:102F00004AE0C301B2010E94E809C301B2010E9474
:102F10002D199B01AC01C701B6010E941A1820E0CF
:102F200030E040E251E40E94E4190E94FE1890E073
:102F300080E04AE00E94E80996CD8BE994E00E9487
:102F4000420810929A0327CE83EB94E00E94420835
:102F5000109295034DCE89E293E00E942C0A8BE4F7
:102F600093E018C9F999FECF92BD81BDF89A9927CF
:102F700080B50895262FF999FECF1FBA92BD81BD65
:102F800020BD0FB6F894FA9AF99A0FBE01960895EB
:102F900097FB072E16F4009407D077FD09D00E9406
:102FA000061807FC05D03EF4909581959F4F089533
:102FB000709561957F4F0895A1E21A2EAA1BBB1B45
:102FC000FD010DC0AA1FBB1FEE1FFF1FA217B307F5
:102FD000E407F50720F0A21BB30BE40BF50B661F0B
:102FE000771F881F991F1A9469F7609570958095CF
:102FF00090959B01AC01BD01CF010895EE0FFF1F1D
:10300000881F8BBF0790F691E02D1994AA1BBB1B5C
:1030100051E107C0AA1FBB1FA617B70710F0A61BD8
:10302000B70B881F991F5A95A9F780959095BC01F9
:10303000CD0108955058BB27AA270E9432180C943E
:10304000A5190E94971938F00E949E1920F039F4B2
:103050009F3F19F426F40C9494190EF4E095E7FBC5
:103060000C948E19E92F0E94B61958F3BA1762070B
:1030700073078407950720F079F4A6F50C94D81906
:103080000EF4E0950B2EBA2FA02D0B01B901900183
:103090000C01CA01A0011124FF27591B99F0593FC7
:1030A00050F4503E68F11A16F040A22F232F342F0F
:1030B0004427585FF3CF469537952795A795F0405D
:1030C0005395C9F77EF41F16BA0B620B730B840B72
:1030D000BAF09150A1F0FF0FBB1F661F771F881F2A
:1030E000C2F70EC0BA0F621F731F841F48F4879582
:1030F00077956795B795F7959E3F08F0B0CF939574
:10310000880F08F09927EE0F9795879508950E94EC
:103110006A1908F481E008950E94A0180C94A5197A
:103120000E949E1958F00E94971940F029F45F3FC1
:1031300029F00C948E1951110C94D9190C949419EE
:103140000E94B61968F39923B1F3552391F3951BA7
:10315000550BBB27AA2762177307840738F09F5FB8
:103160005F4F220F331F441FAA1FA9F335D00E2E25
:103170003AF0E0E832D091505040E695001CCAF792
:103180002BD0FE2F29D0660F771F881FBB1F261755
:1031900037074807AB07B0E809F0BB0B802DBF012C
:1031A000FF2793585F4F3AF09E3F510578F00C94FB
:1031B0008E190C94D9195F3FE4F3983ED4F38695A9
:1031C00077956795B795F7959F5FC9F7880F911D1C
:1031D0009695879597F90895E1E0660F771F881F08
:1031E000BB1F621773078407BA0720F0621B730BBB
:1031F000840BBA0BEE1F88F7E09508950E94BE1964
:1032000088F09F5798F0B92F9927B751B0F0E1F0A7
:10321000660F771F881F991F1AF0BA95C9F714C057
:10322000B13091F00E94D819B1E008950C94D819EA
:10323000672F782F8827B85F39F0B93FCCF3869590
:1032400077956795B395D9F73EF4909580957095ED
:1032500061957F4F8F4F9F4F0895E89409C097FB6A
:103260003EF490958095709561957F4F8F4F9F4F5D
:103270009923A9F0F92F96E9BB279395F6958795A1
:1032800077956795B795F111F8CFFAF4BB0F11F464
:1032900060FF1BC06F5F7F4F8F4F9F4F16C088230B
:1032A00011F096E911C0772321F09EE8872F762F41
:1032B00005C0662371F096E8862F70E060E02AF082
:1032C0009A95660F771F881FDAF7880F969587956E
:1032D00097F90895990F0008550FAA0BE0E8FEEF43
:1032E00016161706E807F907C0F012161306E407CA
:1032F000F50798F0621B730B840B950B39F40A26C3
:1033000061F0232B242B252B21F408950A2609F4A0
:10331000A140A6958FEF811D811D089597F99F67A4
:1033200080E870E060E008959FEF80EC089500244D
:103330000A941616170618060906089500240A941A
:1033400012161306140605060895092E0394000CA0
:1033500011F4882352F0BB0F40F4BF2B11F460FF2F
:1033600004C06F5F7F4F8F4F9F4F089557FD905858
:10337000440F551F59F05F3F71F04795880F97FB39
:10338000991F61F09F3F79F08795089512161306F3
:103390001406551FF2CF4695F1DF08C01616170622
:1033A0001806991FF1CF8695710561050894089557
:1033B000E894BB2766277727CB0197F908950E94E9
:1033C0006A1908F48FEF08950E94F7190C94A51953
:1033D0000E94971938F00E949E1920F0952311F051
:1033E0000C948E190C94941911240C94D9190E94E0
:1033F000B61970F3959FC1F3950F50E0551F629F6A
:10340000F001729FBB27F00DB11D639FAA27F00D3D
:10341000B11DAA1F649F6627B00DA11D661F829F64
:103420002227B00DA11D621F739FB00DA11D621F49
:10343000839FA00D611D221F749F3327A00D611D66
:10344000231F849F600D211D822F762F6A2F112448
:103450009F5750409AF0F1F088234AF0EE0FFF1F7B
:10346000BB1F661F771F881F91505040A9F79E3FD2
:10347000510580F00C948E190C94D9195F3FE4F338
:10348000983ED4F3869577956795B795F795E79528
:103490009F5FC1F7FE2B880F911D9695879597F931
:1034A00008950E946A19880B990B0895F894FFCF2C
:1034B0007800000000002042E803000000002042E5
:1034C000E803000000002042E803200000000000A4
:1034D0000000780020000000000000003040501084
:1034E0000500402005004030050040100600401156
:1034F000060040200600402106004022060040272A
:10350000002900200022002400260028002A0001B3
:1035100000010008002000400080000001000401BC
:10352000000100080040000001000400000000331A
:10353000049D03CA038004FB03D903ED030D0A00B5
:103540004954696D6572312063616C6C65642C202F
:103550006D696C6C69732829203D20004572726F7B
:1035600072204C454473004572726F722050574D63
:103570002031004572726F722050574D2032004545
:1035800072726F7220456E636F646572004572726D
:103590006F72203078343033004572726F72203091
:1035A00078343033202B34004572726F72203078BB
:1035B0003430350054656D706572617475726120C8
:1035C000312046696C74726164613A20006E616EEC
:1035D00000696E66006F7666004D435032353135B6
:1035E00020496E697469616C697A656420537563FA
:1035F0006365737366756C6C7921005445737465EB
:1036000020736520657374612066756E63696F6EE3
:10361000616E646F004572726F7220496E697469E1
:10362000616C697A696E67204D4350323531352EB1
:043630002E2E00003A
:00000001FF
