:100000000C94A4010C94D5010C94D5010C94D50149
:100010000C94D5010C94D5010C94D5010C94D50108
:100020000C94D5010C94D5010C94D5010C94D501F8
:100030000C94D5010C94D5010C94D5010C94D501E8
:100040000C94D5010C94D5010C94D5010C94D501D8
:100050000C94D5010C94D5010C94D5010C946D0B26
:100060000C94D5010C94E10B0C94B70B0C94D501B6
:100070000C94D5010C94D5010C94D5010C94D501A8
:100080000C94AD0C0C94D5010C94D5010C94D501B5
:100090000C94D5010C94D5010C94D5010C94D50188
:1000A0000C94D5010C94D5010C94D5010C94D50178
:1000B0000C94D5010C94D5010C94D5010C94170C1B
:1000C0000C94D5010C94D5010C94D5010C94D50158
:1000D0000C94D5010C94D5010C94D5010C94D50148
:1000E0000C94D5010C9409040C94F8010C9422038F
:1000F0000C9450030C9438020C9421020C940D02C1
:100100000C94FE010C94F80A0C9473030C94720482
:100110000C9433020C941D020C9425020C945A0387
:100120000C949B030C94DC030C9491030C94060236
:100130000C9402020C94D1030C9469030C941803E0
:100140000C942F020C9417020C943A040C942C0477
:100150000C9413020C9418040C9434030C942C0388
:100160000C9439020C9409030C943C030C940A027D
:100170000C947D030C9401030C943D020C94CF0E5F
:100180000C9487030C942B020C94BF040C940E0364
:100190000C94460352657475726E696E6720746FB5
:1001A0002050726576696F7573204D6F64652046C7
:1001B00061696C7572652E2E2E0053657474696EBC
:1001C000672042617564726174652053756363656D
:1001D000737366756C2100456E746572696E672075
:1001E000436F6E66696775726174696F6E204D6FDB
:1001F0006465205375636365737366756C21004590
:100200006E746572696E6720436F6E66696775729A
:100210006174696F6E204D6F6465204661696C750D
:1002200072652E2E2E0000002100240027002A00D7
:100230002D003000330001010000040107010A0114
:1002400000002200250028002B002E003100340081
:1002500002010000050108010B010000200023003D
:10026000260029002C002F003200000100000301AD
:100270000601090105050505070508080808020229
:1002800002020A0A08080404040401010101010130
:1002900001010303030303030303040707070C0C13
:1002A0000C0C0C0C0C0C02020202060606060606DA
:1002B00006060B0B0B0B0B0B0B0B0102102020087F
:1002C00008102040102040800201020108040201B1
:1002D0000102040810204080804020100804020120
:1002E0008004020180402010080402010804020179
:1002F0000102040810204080010204081020408000
:1003000000000A0B02090C0D0E080703040100008F
:1003100000000000000000000000000000000000DD
:10032000000000000000000000000000121110009A
:1003300000000000000000000000000000000000BD
:10034000000000000000CF0E11241FBECFEFD1E24D
:10035000DEBFCDBF00E00CBF13E0A0E0B2E0E4ECF4
:10036000F5E300E00BBF02C007900D92A63CB10779
:10037000D9F725E0A6ECB3E001C01D92A131B20788
:10038000E1F711E0C4EAD1E000E006C021970109DD
:10039000802FFE010E948818C33AD10780E0080729
:1003A000A9F70E94610F0C94E01A0C9400008CBD18
:1003B0009DBD08958150823108F05AC0E82FF0E0C9
:1003C0008827EA51FE4F8F4F0C94881806020A02C4
:1003D000F801FE01020238020D02130217021D028B
:1003E000210225022B022F023802330239023D027C
:1003F000809180008F7780938000089580918000A5
:100400008F7DF9CF80918000877FF5CF84B58F777E
:1004100084BD089584B58F7DFBCF8091B0008F7728
:100420008093B00008958091B0008F7DF9CF8091C6
:1004300090008F77809390000895809190008F7D39
:10044000F9CF80919000877FF5CF8091A0008F77C2
:100450008093A00008958091A0008F7DF9CF8091B6
:10046000A000877FF5CF809120018F7780932001B6
:100470000895809120018F7DF9CF80912001877FA1
:10048000F5CFCF93DF93282F30E0F901E050FD4FF7
:100490008491F901E654FD4FD491F901EC58FD4FD8
:1004A000C491CC23A1F081110E94DA01EC2FF0E07D
:1004B000EE0FFF1FE65AFD4FA591B491EC91ED238D
:1004C00081E090E009F480E0DF91CF91089580E031
:1004D00090E0FACF1F93CF93DF93282F30E0F901FC
:1004E000E050FD4F8491F901E654FD4FD491F9019C
:1004F000EC58FD4FC491CC23A9F0162F81110E9416
:10050000DA01EC2FF0E0EE0FFF1FE05CFD4FA5914C
:10051000B4918FB7F894EC91111108C0D095DE23F7
:10052000DC938FBFDF91CF911F910895DE2BF8CF21
:10053000CF93DF9390E0FC01E654FD4F24918C585B
:100540009D4FFC0184918823D1F090E0880F991F82
:10055000FC01EA5DFD4FA591B491FC01E05CFD4F0B
:10056000C591D49161110EC09FB7F8948C91E22F80
:10057000E0958E238C932881E223E8839FBFDF914F
:10058000CF9108958FB7F894EC91E22BEC938FBF45
:10059000F6CF1F93CF93DF93182FEB0161E00E94FA
:1005A0009802209739F460E0812FDF91CF911F915D
:1005B0000C946A02CF3FD10511F461E0F5CFE12F31
:1005C000F0E0E050FD4FE491E150E23108F0B3C0BB
:1005D000F0E08827E151FD4F8F4F0C9488180103FC
:1005E00009030E03180322039B032C0334033C036B
:1005F000460350035A03690373039B037D03870378
:10060000910384B5806884BDC7BDDF91CF911F91F0
:10061000089584B5806284BDC8BDF7CF8091800005
:10062000806880938000D0938900C0938800EDCFCC
:1006300080918000806280938000D0938B00C09373
:100640008A00E3CF80918000886080938000D093FF
:100650008D00C0938C00D9CF8091B00080688093CA
:10066000B000C093B300D1CF8091B000806280937E
:10067000B000C093B400C9CF80919000806880938F
:100680009000D0939900C0939800BFCF80919000C4
:10069000806280939000D0939B00C0939A00B5CF66
:1006A00080919000886080939000D0939D00C093CB
:1006B0009C00ABCF8091A00080688093A0008091C7
:1006C000A0008F7B8093A000D093A900C093A800C6
:1006D0009CCF8091A00080628093A000D093AB005B
:1006E000C093AA0092CF8091A00088608093A00060
:1006F000D093AD00C093AC0088CF8091200180687A
:1007000080932001D0932901C09328017ECF80914E
:100710002001806280932001D0932B01C0932A0195
:1007200074CF80912001886080932001D0932D01A7
:10073000C0932C016ACFC038D1050CF03ECF33CF27
:100740003FB7F8948091140490911504A091160479
:10075000B091170426B5A89B05C02F3F19F001964C
:10076000A11DB11D3FBFBA2FA92F982F8827BC010B
:10077000CD01620F711D811D911D42E0660F771F33
:10078000881F991F4A95D1F708952FB7F894609163
:1007900010047091110480911204909113042FBFE2
:1007A00008950E94C5036093CA037093CB0380939E
:1007B000CC039093CD030895AF92BF92CF92DF9276
:1007C000EF92FF920F931F93CF93DF936C017B0106
:1007D0008B01040F151FEB015E01AE18BF08C01797
:1007E000D10759F06991D601ED91FC910190F0810A
:1007F000E02DC6011995892B79F7C501DF91CF91BD
:100800001F910F91FF90EF90DF90CF90BF90AF902E
:100810000895FC01538D448D252F30E0842F90E006
:10082000821B930B541710F0CF96089501970895EB
:10083000FC01918D828D981761F0A28DAE0FBF2FB4
:10084000B11D5D968C91928D9F5F9F73928F90E00A
:1008500008958FEF9FEF0895FC01918D828D981779
:1008600031F0828DE80FF11D858D90E008958FEFB6
:100870009FEF0895FC01918D228D892F90E0805C7F
:100880009F4F821B91098F739927089588E194E007
:100890000E943A0421E0892B09F420E0822F089578
:1008A000FC01A48DA80FB92FB11DA35ABF4F2C91E5
:1008B000848D90E001968F739927848FA689B789DC
:1008C0002C93A089B1898C91837080648C93938DD3
:1008D000848D981306C00288F389E02D80818F7D76
:1008E00080830895EF92FF920F931F93CF93DF932E
:1008F000EC0181E0888F9B8D8C8D98131AC0E8895C
:10090000F989808185FF15C09FB7F894EE89FF892A
:100910006083E889F98980818370806480839FBFC8
:1009200081E090E0DF91CF911F910F91FF90EF90C8
:100930000895F62E0B8D10E00F5F1F4F0F731127D8
:10094000E02E8C8D8E110CC00FB607FCFACFE88913
:10095000F989808185FFF5CFCE010E945004F1CF47
:10096000EB8DEC0FFD2FF11DE35AFF4FF0829FB787
:10097000F8940B8FEA89FB8980818062CFCFCF9377
:10098000DF93EC01888D8823B9F0AA89BB89E889B7
:10099000F9898C9185FD03C0808186FD0DC00FB65D
:1009A00007FCF7CF8C9185FFF2CF808185FFEDCFDB
:1009B000CE010E945004E9CFDF91CF91089580E0ED
:1009C00090E0892B29F00E94460481110E940000CA
:1009D00080E090E0892B49F080E090E0892B29F0BD
:1009E0000E94000081110E94000080E090E0892BAD
:1009F00049F080E090E0892B29F00E9400008111ED
:100A00000E94000080E090E0892B49F080E090E0B7
:100A1000892B29F00E94000081110C940000089598
:100A200008958EBD00000DB407FEFDCF8EB508956C
:100A3000FF920F931F93CF93DF93F82E062F142F5F
:100A400080E591E00E94D701CDECD4E060E08A8996
:100A50000E946A0285E00E9411058F2D0E941105F7
:100A6000802F0E941105812F0E94110561E08A8963
:100A7000DF91CF911F910F91FF900C946A02FF922A
:100A80000F931F93CF93DF93C82FF62E172F042FAA
:100A900080E591E00E94D70160E08091DF040E9430
:100AA0006A0283E00E9411058C2F0E941105CF2D50
:100AB000D12F0C0F1D2F111DC017D10729F080E079
:100AC0000E9411058993F8CF61E08091DF04DF91E6
:100AD000CF911F910F91FF900C946A021F93CF93B7
:100AE000DF93182F80E591E00E94D701CDECD4E090
:100AF00060E08A890E946A0283E00E941105812FCA
:100B00000E94110580E00E941105182F61E08A897A
:100B10000E946A02812FDF91CF911F9108950F9358
:100B20001F93CF93DF9300D01F92CDB7DEB7182F5E
:100B30001092CD041092CE041092CF041092D004E3
:100B40001092D10444E0BE016F5F7F4F0E943F05C9
:100B50002A81898138E0839FC0011124422F50E00F
:100B600065E0559547956A95E1F7840F951F092E25
:100B7000000CAA0BBB0B8093CE049093CF04A093E0
:100B8000D004B093D10423FF29C032E0880F991F0D
:100B9000AA1FBB1F3A95D1F72370820F911DA11D8B
:100BA000B11DBA2FA92F982F88272B81820F911D55
:100BB000A11DB11DBA2FA92F982F88272C81820F34
:100BC000911DA11DB11D8093CE049093CF04A093DD
:100BD000D004B093D10481E08093CD048FEF810FD6
:100BE0000E946E05082F84E0810F0E946E0503FFAE
:100BF00016C091E09093DB04482F4F704093D204CD
:100C000063ED74E085E0810F0E943F050F900F9027
:100C10000F900F90DF91CF911F910F910895109237
:100C2000DB04EACFCF93DF93C82F0E94C503D62FF2
:100C30004C2F60EE8FE00E9418058EE00E946E053A
:100C4000807EC81749F00E94C5036D1B693C80F384
:100C500081E0DF91CF91089580E0FBCFCF93DF93C8
:100C6000C82F8EE00E946E05807E8032F9F4C0327B
:100C7000E9F08BE20E946E05D82FD07486FD05C086
:100C800040E460E48BE20E94180540E460E48CE2FA
:100C90000E94180580E60E941206811111C0D11130
:100CA00005C040E060E48BE20E94180540E060E48B
:100CB0008CE20E9418058C2FDF91CF910C941206C4
:100CC00081E0DF91CF9108951F93CF93DF9380E56B
:100CD00091E00E94D701CDECD4E060E08A890E94C7
:100CE0006A0280EA0E94110580E00E941105182F17
:100CF00061E08A890E946A02812FDF91CF911F9162
:100D00000895EF92FF920F931F93CF93DF937C018F
:100D10008B01EA010E94640680FF52C081E60E94B6
:100D20008F0540E061E08CE20E9418058091CD04BF
:100D3000882389F08091CE049091CF04A091D004B3
:100D4000B091D104B0688093CE049093CF04A09367
:100D5000D004B093D1048091DB04882389F0809182
:100D6000CE049091CF04A091D004B091D104B0648E
:100D70008093CE049093CF04A093D004B093D10479
:100D80008091CE049091CF04A091D004B091D10471
:100D9000F70180839183A283B3838091D204F80109
:100DA0008083A3EDB4E0FE012091D204CF018C1B1F
:100DB0009D0B28171906A1F09CF08D918193F4CF1B
:100DC00081FF06C081E70E948F0540E062E0ABCF63
:100DD00084E0DF91CF911F910F91FF90EF900895E4
:100DE00080E0F7CF0F931F93CF93DF93082F162F39
:100DF00080E591E00E94D701CDECD4E060E08A89E3
:100E00000E946A0282E00E941105802F0E94110553
:100E1000812F0E94110561E08A89DF91CF911F9196
:100E20000F910C946A02FF920F931F93CF93DF935D
:100E3000C82FF62E172F042F80E591E00E94D701CE
:100E400060E08091DF040E946A0282E00E94110546
:100E50008C2F0E941105CF2DD12F0C0F1D2F111D8E
:100E6000C017D10721F089910E941105F9CF61E0E7
:100E70008091DF04DF91CF911F910F91FF900C942F
:100E80006A02CF93DF9300D01F92CDB7DEB71C82EA
:100E90001B82613081F498E09A83198244E0BE019C
:100EA0006F5F7F4F0E9413070F900F900F900F906E
:100EB000DF91CF9108951A82F0CF2F923F924F92F7
:100EC0005F926F927F928F929F92AF92CF92DF92BA
:100ED000EF92FF920F931F93CF93DF9300D01F9257
:100EE000CDB7DEB76093CE047093CF048093D00467
:100EF0009093D10496FB552750F95093DB04662755
:100F000097FD63957727882799276093CD044093B1
:100F1000D204F901A3EDB4E0C901089621912D9303
:100F2000E817F907D9F70E94A0032B013C01809034
:100F30002C0290902D02A0902E021E0124E0220E81
:100F4000311C89829A82AB82CE0101966C01F82E07
:100F50000D2DF60111916F01812F0E946E0583FD09
:100F600014C01F5FE12C0E94A003DC01CB01841997
:100F70009509A609B709F2E0EF120EC0843C99402A
:100F8000A105B105F0F206E07DC02C143D0409F77F
:100F900010E072E0E72EE7CF843C9940A105B1054F
:100FA00090F74091D20463ED74E085E0810F0E94D8
:100FB00013078091DB04813029F48091D20480648E
:100FC0008093D2046091D20484E0810F0E94F206E3
:100FD0004091CE045091CF046091D0047091D1041F
:100FE0008091CD048130D9F54C835B83AB016627BA
:100FF0007727842F83708860942F990F990F990F0A
:10100000907E892B8A8365E0569547956A95E1F72E
:10101000498344E06F2D702F812F0E9413071150D8
:1010200048E068E0812F0E9418050E94A0036B0130
:101030007C01812F0E946E05082F08700E94A0037A
:10104000DC01CB018C199D09AE09BF090023A9F071
:10105000843C9940A105B10560F307E013C0CA01C3
:1010600023E0969587952A95E1F789834295440F69
:10107000407E4A831C821B82CCCF843C9940A105D0
:10108000B10558F7802F0F900F900F900F90DF91C0
:10109000CF911F910F91FF90EF90DF90CF90AF9085
:1010A0009F908F907F906F905F904F903F902F9088
:1010B0000895F894FC0181818330E9F034F48130A3
:1010C00071F0823091F0789408958430D1F08530B9
:1010D000D1F7809173008D7F80937300F4CF80915E
:1010E0006F008D7F80936F00EECF809170008D7FB9
:1010F00080937000E8CF809171008D7F80937100A4
:10110000E2CF809172008D7F80937200DCCFFC0172
:10111000F8946330C9F13CF46130C1F0623029F1D8
:101120006183789408956430F1F16530C9F71092C5
:10113000200110922101909121019860909321014A
:1011400090912101916090932101EACF109280004B
:10115000109281008091810088608093810080914D
:101160008100816080938100DBCF1092B0001092EB
:10117000B1008091B00082608093B0008091B10096
:1011800081608093B100CCCF1092900010929100BA
:10119000909191009860909391009091910091604E
:1011A00090939100BDCF1092A0001092A100909159
:1011B000A10098609093A1009091A10091609093FC
:1011C000A100AECFFC014085518562857385818188
:1011D000833009F470C084F4813089F1823009F4DD
:1011E0004CC080859185A285B385892B8A2B8B2B5A
:1011F00011F481E080830895843009F47AC0853049
:1012000081F7DB01CA014115510521E06207710533
:1012100020F08FEF9FEFA0E0B0E090932901809342
:101220002801481B590B6A0B7B0B4087518762874B
:10123000738780917300826080937300D2CFDB014B
:10124000CA014115510521E06207710520F08FEFB9
:101250009FEFA0E0B0E09093890080938800481B46
:10126000590B6A0B7B0B408751876287738780918C
:101270006F00826080936F00B4CF4F3F51056105CE
:10128000710529F020F04FEF50E060E070E04093EE
:10129000B30080859185A285B385841B950BA60B31
:1012A000B70B80879187A287B38780917000826097
:1012B0008093700096CFDB01CA014115510521E0F2
:1012C0006207710520F08FEF9FEFA0E0B0E09093F0
:1012D000990080939800481B590B6A0B7B0B408741
:1012E000518762877387809171008260809371005B
:1012F00078CFDB01CA014115510521E06207710574
:1013000020F08FEF9FEFA0E0B0E09093A9008093D2
:10131000A800481B590B6A0B7B0B408751876287DB
:101320007387809172008260809372005ACFCF934E
:10133000DF93EC01F894298188859985AA85BB857E
:101340002230A9F18F3F9F4FA105B10518F4CE01BE
:101350000E94E20888859985AA85BB85AC01BD01FC
:10136000009721E0A207B10520F04FEF5FEF60E0AA
:1013700070E0841B950BA60BB70B88879987AA870B
:10138000BB8788859985AA85BB85892B8A2B8B2B62
:1013900039F58C819D81AE81BF8188879987AA8725
:1013A000BB8781E088837894DF91CF9108958F3F48
:1013B0009105A105B10518F4CE010E94E2088885C7
:1013C0009985AA85BB85AC01BD018F3F9105A1051B
:1013D000B10579F270F24FEF50E060E070E0C9CFF4
:1013E0001882E1CF8F929F92AF92BF92EF92FF92BD
:1013F0000F931F93CF93DF9300D000D01F921F92C3
:10140000CDB7DEB7FC01F1802081F0E12F9F900184
:1014100011244F2D50E064E0559547956A95E1F70A
:10142000242B352B233241E0340761F12032314047
:1014300009F45CC0198282E08A8380E090E0A0E237
:10144000B2E48B839C83AD83BE8388EE93E0988760
:101450008F8329813A814B815C816D817E818F816F
:10146000988528960FB6F894DEBF0FBECDBFDF91EA
:10147000CF911F910F91FF90EF90BF90AF909F90F1
:101480008F900895E12C8C01FC018281F8E78F9FF9
:10149000C00111246FEF70E00E945218072E000C5B
:1014A000880B990B0E94B9194B015C01F80163810B
:1014B00070E090E080E00E94B71920E030E44CE159
:1014C00056E40E946E1A20E030E04FE753E40E9499
:1014D00016190E948819E9822F2D23702A838B8286
:1014E0009C82AD82BE8278876F83B3CFEE24E39473
:1014F000CACFFC0101900020E9F73197AF01481BEA
:10150000590BBC0188E194E00C94DC038F929F920C
:10151000AF92BF920F931F93CF93DF93CDB7DEB7F8
:10152000A1970FB6F894DEBF0FBECDBF19A242300F
:1015300008F44AE08E010F5D1F4F842E912CB12CD0
:10154000A12CA50194010E946618E62FB901CA01D9
:10155000EA30F4F4E05DD801EE938D01232B242BC7
:10156000252B79F790E080E0109719F0CD010E94CB
:10157000790AA1960FB6F894DEBF0FBECDBFDF91FA
:10158000CF911F910F91BF90AF909F908F90089532
:10159000E95CE1CFCF93DF930E94790AEC018DE8FB
:1015A00092E00E94790A8C0F9D1FDF91CF910895E0
:1015B0000F931F93CF93DF938C01D0E0C0E0F8012D
:1015C000EC0FFD1F6491662341F088E194E00E94D6
:1015D0007204892B11F02196F2CF8DE892E00E94DF
:1015E000790A8C0F9D1FDF91CF911F910F91089564
:1015F0000F931F9380E992E00E94790A0E94C5032D
:101600000091D8031091D9032091DA033091DB03C4
:10161000601B710B820B930B4AE00E94860A8DE8D7
:1016200092E00E94790A0E94C5036093D8037093E8
:10163000D9038093DA039093DB031F910F910895F0
:101640000F931F93CF93DF931F921F92CDB7DEB7F7
:101650008C010E943C188983C80101960E943C18A5
:101660008A8389819A810F900F90DF91CF911F918A
:101670000F910895CF92DF92EF92FF920F931F93F5
:10168000CF93DF9300D01F92CDB7DEB76E0125E078
:10169000C20ED11C8E010F5F1F4F7C01E01AF10AB0
:1016A000C016D10649F0C701800F911F0E943C1857
:1016B000F80181938F01F4CF69817A818B819C81BC
:1016C0000F900F900F900F90DF91CF911F910F917E
:1016D000FF90EF90DF90CF9008951F920F920FB67A
:1016E0000F9211242F933F938F939F93AF93BF93A8
:1016F0008091100490911104A0911204B0911304F0
:1017000030910F0423E0230F2D3758F50196A11DCA
:10171000B11D20930F048093100490931104A093A3
:101720001204B09313048091140490911504A091B5
:101730001604B09117040196A11DB11D80931404E5
:1017400090931504A0931604B0931704BF91AF9122
:101750009F918F913F912F910F900FBE0F901F90EF
:10176000189526E8230F0296A11DB11DD2CF1F9216
:101770000F920FB60F9211240BB60F922F933F9337
:101780004F935F936F937F938F939F93AF93BF9389
:10179000EF93FF9388E194E00E945004FF91EF9152
:1017A000BF91AF919F918F917F916F915F914F9179
:1017B0003F912F910F900BBE0F900FBE0F901F9077
:1017C00018951F920F920FB60F9211240BB60F921D
:1017D0002F938F939F93EF93FF93E0912804F091C1
:1017E00029048081E0912E04F0912F0482FD1DC018
:1017F0009081809131048F5F8F7320913204821722
:1018000041F0E0913104F0E0E85EFB4F958F80936A
:101810003104FF91EF919F918F912F910F900BBE0B
:101820000F900FBE0F901F9018958081F2CF1F92DE
:101830000F920FB60F9211240BB60F92CF92DF9238
:10184000EF92FF922F933F934F935F936F937F930A
:101850008F939F93AF93BF93EF93FF93C090ED044B
:10186000D090EE04E090EF04F090F0048091E20458
:10187000853009F04FC0C114D104E104F10409F42A
:1018800067C08091E104882309F45DC0E091F5040C
:10189000F091F604309741F08091F7049091F804AC
:1018A000009709F44EC019958091E5049091E604E3
:1018B000A091E704B091E8040097A140B105C4F0FD
:1018C000F8948091E5049091E604A091E704B0912A
:1018D000E8048093E9049093EA04A093EB04B093A6
:1018E000EC0481EE94E00E94E2081092E104789406
:1018F0001C141D041E041F046CF481E0C81AD108D6
:10190000E108F108C092ED04D092EE04E092EF04F9
:10191000F092F004FF91EF91BF91AF919F918F9161
:101920007F916F915F914F913F912F91FF90EF9039
:10193000DF90CF900F900BBE0F900FBE0F901F90B7
:1019400018951995B1CF81EE94E00E949709E2CFE6
:1019500081EE94E00E945908DDCF1F920F920FB6DE
:101960000F9211240BB60F92CF92DF92EF92FF925B
:101970002F933F934F935F936F937F938F939F9397
:10198000AF93BF93EF93FF93C0900505D0900605EA
:10199000E0900705F09008058091FA04833009F083
:1019A0004FC0C114D104E104F10409F467C080916F
:1019B000F904882309F45DC0E0910D05F0910E054E
:1019C000309741F080910F0590911005009709F430
:1019D0004EC019958091FD049091FE04A091FF04E2
:1019E000B09100050097A140B105C4F0F894809132
:1019F000FD049091FE04A091FF04B0910005809336
:101A0000010590930205A0930305B093040589EFA7
:101A100094E00E94E2081092F90478941C141D04CA
:101A20001E041F046CF481E0C81AD108E108F10813
:101A3000C0920505D0920605E0920705F0920805D0
:101A4000FF91EF91BF91AF919F918F917F916F9196
:101A50005F914F913F912F91FF90EF90DF90CF904A
:101A60000F900BBE0F900FBE0F901F9018951995F9
:101A7000B1CF89EF94E00E949709E2CF89EF94E01B
:101A80000E945908DDCF4F925F926F927F928F92A2
:101A90009F92AF92BF92CF92DF92EF92FF920F93FD
:101AA0001F93CF93DF93EC01198111160CF03AC10B
:101AB0004901CB01BA010E94B7199B01AC0160E05A
:101AC00070E08AE794E40E9416196B017C012EEA0B
:101AD00037E346E856E40E946E1A2B013C0120E0F1
:101AE00030E040E85FE30E94111987FD1BC18FEFD2
:101AF0009FEFDC018C879D87AE87BF8720E030E0B9
:101B000040E852E4C301B201123009F487C00E94D8
:101B1000691A01E010E0181674F020E030E040E0AF
:101B200051E4C301B2010E94691A03E010E01816E3
:101B300014F402E010E0C801880F991F9C0121599C
:101B40003D4F5901F501619171915F0190E080E095
:101B50000E94B719A70196010E946E1A9B01AC0161
:101B600060E074E284E79BE40E94161920E030E014
:101B700040E85FE30E94A4180E9488196115F0EC08
:101B80007F07FFEF8F07FFE39F07A8F56C837D8337
:101B90008E839F83688779878A879B871B830A83C5
:101BA000F894C88AD98AEA8AFB8A9D8A8C8A1F8A15
:101BB0001E8A18828981823009F08BC08091B10021
:101BC000887F9A81892B8093B100CE010E94E20820
:101BD000789481E0DF91CF911F910F91FF90EF906A
:101BE000DF90CF90BF90AF909F908F907F906F903D
:101BF0005F904F9008950F5F1F4F0630110509F059
:101C0000A1CF6C837D838E839F83688779878A8742
:101C10009B8785E090E09B838A83C2CF0E94691AEC
:101C200001E010E01816D4F020E030E040E051E48C
:101C3000C301B2010E94691A02E010E0181674F0A4
:101C400020E030E040E050E4C301B2010E94691A94
:101C500004E010E0181614F403E010E0C801880F47
:101C6000991F9C01215A3D4F5901F50161917191D4
:101C70005F0190E080E00E94B719A70196010E94E1
:101C80006E1A9B01AC0160E074E284E79BE40E9461
:101C9000161920E030E040E85FE30E94A4180E949B
:101CA00088196115F0EC7F07FFE38F07910508F4B1
:101CB0006DCF0F5F1F4F08301105B9F66C837D8320
:101CC0008E839F83688779878A879B8787E090E0E8
:101CD000A2CF813041F480918100887F9A81892B45
:101CE0008093810072CF833041F480919100887F8E
:101CF0009A81892B8093910068CF843041F4809140
:101D0000A100887F9A81892B8093A1005ECF8530C6
:101D100009F05BCF80912101887F9A81892B809384
:101D2000210153CF80E056CFFF920F931F93CF93A3
:101D3000DF93EC01F62E08811981C8010E943C183E
:101D4000F81621F06F2DC8010E944418CE01DF91D2
:101D5000CF911F910F91FF900895FF920F931F93C2
:101D6000CF93DF931F921F92CDB7DEB78C01F72E72
:101D70009A838983CE0101960E94940E0F5F1F4FB4
:101D80001A8309836F2DCE0101960E94940E0F9045
:101D90000F90DF91CF911F910F91FF900895CF93F6
:101DA000DF93E8E1F4E01382128288EE93E0A0E092
:101DB000B0E084839583A683B7838FE792E0918315
:101DC000808385EC90E09587848784EC90E097870A
:101DD000868780EC90E0918B808B81EC90E0938BF8
:101DE000828B82EC90E0958B848B86EC90E0978BD5
:101DF000868B118E128E138E148EE9EFF4E083E041
:101E00008183108A118A128A138A158A148A178A82
:101E1000168A108221E030E03383228314821582F7
:101E20001682178210861186128613868FEF9FEF17
:101E3000DC0184879587A687B787E1EEF4E045E06B
:101E40004183108A118A128A138A158A148A178A82
:101E5000168A108233832283148215821682178297
:101E6000108611861286138684879587A687B78782
:101E7000CDECD4E081E28A8B61E00E946A0261E0ED
:101E80008A890E94980285EB94E0998B888BE0EC1C
:101E9000F4E089E18083148282E390E09487838771
:101EA000EBEBF4E01182128288EE93E0948383835B
:101EB000E6EBF4E01182128294838383DF91CF9169
:101EC0000895CF93DF93CDB7DEB72E970FB6F89472
:101ED000DEBF0FBECDBF789484B5826084BD84B56B
:101EE000816084BD85B5826085BD85B5816085BD15
:101EF00080916E00816080936E00109281008091CD
:101F00008100826080938100809181008160809354
:101F10008100809180008160809380008091B10079
:101F200084608093B1008091B00081608093B000A4
:101F300080919100826080939100809191008160F6
:101F400080939100809190008160809390008091B7
:101F5000A10082608093A1008091A10081608093A4
:101F6000A1008091A00081608093A0008091210158
:101F70008260809321018091210181608093210101
:101F80008091200181608093200180917A0084609B
:101F900080937A0080917A00826080937A008091A9
:101FA0007A00816080937A0080917A0080688093C3
:101FB0007A001092C10061E08DE00E94980261E019
:101FC00087E20E94980261E089E20E94980261E043
:101FD00080E20E94980261E082E20E94980261E041
:101FE00084E20E94980261E086E20E94980261E029
:101FF00088E20E94980261E08AE20E94980260E012
:1020000083E00E94980261E08CE20E94980261E005
:102010008EE20E94980261E088E00E94980261E0EE
:1020200086E00E94980261E085E20E94980261E0E9
:1020300080E10E94980261E080E10E94980261E0E4
:1020400081E10E94980261E080E10E946A0261E001
:1020500081E10E946A02E0912804F091290482E063
:102060008083E0912404F09125041082E0912604FD
:10207000F091270480E1808310923004E0912C04D9
:10208000F0912D0486E08083E0912A04F0912B04E6
:10209000808180618083E0912A04F0912B0480810B
:1020A00088608083E0912A04F0912B04808180680D
:1020B0008083E0912A04F0912B0480818F7D8083BE
:1020C0006091FA0489EF94E00E9487086091E2042D
:1020D00081EE94E00E9487081FB7F8948091CE03A8
:1020E000811127C0E9EAF2E08491EFEEF2E09491E9
:1020F000E82FF0E0EE0FFF1FEA5DFD4FA591B491D0
:10210000EC91E92321F461E085E30E946A0261E039
:1021100085E30E9498028CB580618CBD8CB580648B
:102120008CBD61E084E30E94980261E083E30E9439
:1021300098028091CE038F5F8093CE031FBF80E50E
:1021400091E00E94D70160E08091DF040E946A0262
:1021500080EC0E94110561E08091DF040E946A0218
:102160000E94A0034B015C01B5E0CB2ED12CE12CE9
:10217000F12C0E94A003681979098A099B09683E1D
:10218000734081059105A8F321E0C21AD108E10846
:10219000F10838EE830E33E0931EA11CB11CC1146C
:1021A000D104E104F10429F780E48093E00480E89D
:1021B0000E942E06882309F459C18FEF91E00E94F6
:1021C000D80A88EA93E00E94CA0A1092E00480E0EC
:1021D0000E942E0604E610E00E946406837069F0F7
:1021E000AE014F5F5F4FBE01635F7F4FCE01099627
:1021F0000E9481060150110979F78CEA92E00E9451
:10220000CA0A88E199E20FB6F894A8958093600015
:102210000FBE909360008EEB92E00E94CA0A90E09D
:1022200080E00E943A0B60930C0270930D02809341
:102230000E0290930F0288E090E00E94200B909392
:102240001102809310028CE090E00E943C18809371
:102250000B0284E090E00E943A0B609304027093BA
:10226000050280930602909307028AE090E00E94A4
:10227000200B90930902809308028DE090E00E9469
:102280003C1880930302EFE46E2EE2E07E2EFCE029
:102290002F2E312CAAEF4A2EA3E05A2E0AEF10E07F
:1022A000A89580900B0490900C04A0900D04B09021
:1022B0000E04F4EF8F0EF1E09F1EA11CB11C0E94D2
:1022C000C50386169706A806B90608F07AC0C0901E
:1022D000D303D090D403E090D503F090D60360915F
:1022E000C9047091CA04072E000C880B990B0E9438
:1022F000B9192DEC3CEC4CEC5DE30E946E1A4B01DD
:102300005C0126E636E646E65FE3C701B6010E94B9
:102310006E1A9B01AC01C501B4010E94A51860931F
:10232000D3037093D4038093D5039093D603609323
:102330000704709308048093090490930A04609141
:102340002A0270912B02C090CF03D090D003E0906E
:10235000D103F090D203072E000C880B990B0E943A
:10236000B9192DEC3CEC4CEC5DE30E946E1A4B016C
:102370005C0126E636E646E65FE3C701B6010E9449
:102380006E1A9B01AC01C501B4010E94A5186093AF
:10239000CF037093D0038093D1039093D2036093C3
:1023A00003047093040480930504909306040E9430
:1023B000C50360930B0470930C0480930D049093F9
:1023C0000E040E94C5038090FF0390900004A0902B
:1023D0000104B0900204681979098A099B09653FD4
:1023E000714081059105A0F08DE00E94410261E0FD
:1023F000892B09F060E08DE00E946A020E94C5030B
:102400006093FF037093000480930104909302048F
:1024100083E00E9441026C01892B09F033C542E23E
:1024200052E06AEF73E08BEF93E00E9481068091A7
:10243000FB039091FC03A091FD03B091FE03833454
:1024400032E09307A105B10509F07EC083ED92E06B
:102450000E94CA0AF89488E198E00FB6F894A8950B
:10246000809360000FBE90936000FFCF87ED91E0F6
:102470000E94D80A60E08AE20E94F20661ED89E2D9
:102480000E94F20661E888E20E94F2068AEB91E07F
:102490000E94D80A61E080E20E94410761E084E284
:1024A0000E94410761E080E00E94410760E084E013
:1024B0000E94410761E088E00E94410760E080E1FE
:1024C0000E94410761E084E10E94410760E088E1E9
:1024D0000E94410710E360E0812F0E94F20660E055
:1024E00080E1810F0E94F20660E080E2810F0E948D
:1024F000F2061F5F1E3379F760E080E60E94F20665
:1025000060E080E70E94F20663E08BE20E94F20640
:102510006CE38CE00E94F20660E08DE00E94F2061F
:1025200044E664E680E60E94180540E660E680E73F
:102530000E9418058091E0040E942E06882309F469
:1025400094C584E991E03BCE81309440A105B1056A
:1025500069F430E020E040E061E074E080E090E089
:102560000E945D0782EE92E00E94CA0A8091FB03FE
:102570009091FC03A091FD03B091FE038230944042
:10258000A105B10509F015C180912202282F237001
:1025900030E03093F1032093F00390E09C013595F7
:1025A000279535952795237033273093EF03209394
:1025B000EE039C01F4E035952795FA95E1F7237039
:1025C00033273093ED032093EC03A6E09595879590
:1025D000AA95E1F79093EB038093EA03809123029D
:1025E000282F237030E03093F9032093F80390E014
:1025F0009C01359527953595279523703327309382
:10260000F7032093F6039C0144E0359527954A95FE
:10261000E1F7237033273093F5032093F40356E05A
:10262000959587955A95E1F79093F3038093F2037C
:102630006AEE862E63E0962E7FE4A72E72E0B72E18
:10264000F401819191914F018130910509F41DC4EC
:102650008230910509F41FC460E0892B09F416C487
:10266000F2E0AF0EB11C4814590451F780912402D6
:10267000282F30E02B3F31050CF012C4FF24FA94D0
:102680008F9DC0011124B8010E9452187093E90374
:102690006093E80380912502282F30E02B3F31051D
:1026A0000CF007C42FEF829FC0011124B8010E94D3
:1026B00052187093E7036093E60380912602282F57
:1026C00030E02B3F31050CF0FDC33FEF839FC0018D
:1026D0001124B8010E9452187093E5036093E4033B
:1026E000A090E8037091E9036A2D8CE20E94C90270
:1026F000B090E6037091E7036B2D8EE20E94C90251
:102700002091E4038091EA039091EB03B6E0880FF7
:10271000991FBA95E1F74091EC035091ED0394E0D5
:10272000440F551F9A95E1F7842B9091F003892B64
:102730004091EE035091EF03440F551F440F551F76
:10274000842B80931A028091F2039091F30346E068
:10275000880F991F4A95E1F74091F4035091F503D2
:1027600064E0440F551F6A95E1F7842B9091F803BC
:10277000892B4091F6035091F703440F551F440FE6
:10278000551F842B80931B02A0921C02B0921D0245
:1027900020931E0210921F0210922002109221021A
:1027A0002AE132E048E062E274E080E090E00E94DA
:1027B0005D078091FB039091FC03A091FD03B09114
:1027C000FE0383309440A105B10509F01BC182E2EC
:1027D00092E00E94F2092093120230931302409378
:1027E000140250931502609316027093170280939F
:1027F000180290931902323008F46DC3323009F494
:1028000074C380910A02813081F580910C0290910D
:102810000D02A0910E02B0910F0289879A87AB87B3
:10282000BC875E01F9E0AF0EB11CF50161915F015B
:10283000DE86CD86CE010D960E94940EFFEFCF1A54
:10284000DF0A24E0C216D10481F760911002709172
:10285000110288E090E00E94AD0E60910B023E866E
:102860002D86CE010D960E94940E86E292E00E9483
:10287000F2092093120230931302409314025093F2
:1028800015026093160270931702809318029093BA
:102890001902323008F42EC3323009F435C3809166
:1028A00002028130A1F58091040290910502A0916D
:1028B0000602B091070289839A83AB83BC83CE0161
:1028C00001965C01A4E0CA2ED12CF50161915F0153
:1028D000DE86CD86CE010D960E94940EFFEFCF1AB4
:1028E000DF0A28E0C216D10481F7609108027091D6
:1028F00009028AE090E00E94AD0E609103028DE033
:1029000090E09E878D87CE010D960E94940E2091B7
:102910000B0260910C0270910D0280910E02909159
:102920000F02C0901002D0901102E2E1E0931A026F
:10293000206320931B0220E030E04FE753E40E9425
:102940006E1A20E030E040EF52E40E9416190E9417
:10295000881960931C02B60190E080E00E94B719CC
:1029600020E030E04FE753E40E946E1A20E030E4AC
:102970004CE156E40E9416190E94881960931D02CA
:102980002091030260910402709105028091060279
:1029900090910702C0900802D0900902F2E1F093F2
:1029A0001E02206320931F0220E030E04FE753E433
:1029B0000E946E1A20E030E040EF52E40E941619A7
:1029C0000E94881960932002B60190E080E00E9486
:1029D000B71920E030E04FE753E40E946E1A20E080
:1029E00030E44CE156E40E9416190E948819609365
:1029F00021022AE132E048E063E274E080E090E006
:102A00000E945D078091FB039091FC03A091FD0360
:102A1000B091FE0384309440A105B10509F042C095
:102A2000809122029091230298278927982720914C
:102A3000240221703091250233703093B604109235
:102A4000B7042093B8049093BA048093B90485E046
:102A5000E6EBF4E0ABEBB4E001900D928A95E1F780
:102A60008091BB049091BD042091BE043091BF04BD
:102A700030931A0220931B0290931C028370809360
:102A80001D0210921E0210921F021092200210923C
:102A900021022AE132E048E064E274E080E090E064
:102AA0000E945D078091FB039091FC03A091FD03C0
:102AB000B091FE0385309440A105B10509F58091E0
:102AC000220290E0F6E095958795FA95E1F781303E
:102AD00009F422C208F41DC2823009F421C2809197
:102AE000BC04E0E48E9FC00111248093E30323EE35
:102AF00033E048E065E274E080E090E00E945D072A
:102B00008091FB039091FC03A091FD03B091FE0323
:102B100080319540A105B10509F0DAC0B0902302DB
:102B20008091240290E04091260250E0B42FAA2721
:102B3000AA27BF7020912502A22BB850209128020D
:102B400030E060912702E4E06E9FB0011124FA01A9
:102B5000689415F8F595E7951694E1F76E2B7F2BA1
:102B6000F901FE2FEE27FF0FFF0FEE27FC706E2BF3
:102B70007F2B7850F0912902E0E1FE9F7001112433
:102B80006901E4E0D594C794EA95E1F7EC28FD28C3
:102B90004701F8E09F1AD0902202F0E8FF2EDF0CE8
:102BA000D092C004EB2DE370E093C1046C01E6E029
:102BB000D594C794EA95E1F7C092C204F4E0559524
:102BC0004795FA95E1F743704093C30435952795EF
:102BD0003595279523702093C40456E0880F991FDC
:102BE0005A95E1F7807C9F702B2D30E03595279525
:102BF00035952795822B932B98509093C6048093FC
:102C0000C504B093C804A093C7047093CA0460932A
:102C1000C9049092CC048092CB048090D30390900E
:102C2000D403A090D503B090D603072E000C880BD8
:102C3000990B0E94B9192DEC3CEC4CEC5DE30E9421
:102C40006E1A6B017C0126E636E646E65FE3C501B7
:102C5000B4010E946E1A9B01AC01C701B6010E942B
:102C6000A5186093D3037093D4038093D5039093F6
:102C7000D60360930704709308048093090490932B
:102C80000A0487E493E00E94790A809007049090F8
:102C90000804A0900904B0900A04A5019401C5019C
:102CA000B4010E94DB1A882309F43FC180E693E057
:102CB0000E94790A8DE892E00E94790A0E94C50379
:102CC00060930B0470930C0480930D0490930E0496
:102CD0000E94C5038090DF039090E003A090E10381
:102CE000B090E203AB01BC01481959096A097B099C
:102CF0008091BE049091BF04B0E0A0E0481759074E
:102D00006A077B0708F43FC08091BC04811104C0AE
:102D10008091BB048823B9F11092BC048FE2C82EC5
:102D200082E0D82EF60161917191819191916F01AC
:102D300030E020E040E00E945D0787E090E00197EE
:102D4000F1F742E252E06AEF73E08BEF93E00E940A
:102D500081066C147D0431F71092DD031092DE03BE
:102D60002DED33E048E066E274E080E090E00E9400
:102D70005D070E94C5036093DF037093E0038093B7
:102D8000E1039093E203D0900B02F1E0DF125FC108
:102D900020910704309108044091090450910A04DD
:102DA00060910C0270910D0280910E0290910F02C1
:102DB0000E94111918160CF44AC18091DC0381118C
:102DC00018C0409110025091110270E060E028EFAD
:102DD0003AE081EE94E00E94430D0E94C5036093A7
:102DE000D8037093D9038093DA039093DB03D092D6
:102DF000DC03D0900302FF24F394DF102FC1209155
:102E0000030430910404409105045091060460913C
:102E100004027091050280910602909107020E94BF
:102E2000111918160CF41AC18091D70381110EC024
:102E3000409108025091090270E060E021ED33E01A
:102E400089EF94E00E94430DD092D70370E060E0D8
:102E500085E20E94C90270E060E080E10E94C90240
:102E600070E060E088E00E94C90270E060E086E007
:102E70000E94C9021092FB031092FC031092FD0302
:102E80001092FE030E94DF040BCA61E0F50180810D
:102E90000E946A02E5CB8FEE92E00E94CA0AE0CB64
:102EA0002F3F310509F4F6CB8AEF92E00E94790AB0
:102EB000F1CB2F3F310509F400CC86E093E00E946E
:102EC000790AFBCB2F3F310509F40ACC82E193E06C
:102ED0000E94790A05CC88E0E2E1F2E0AAE0B2E0E3
:102EE00001900D928A95E1F78CCC80E293E00E94EC
:102EF000790A87CC88E0E2E1F2E0A2E0B2E001905A
:102F00000D928A95E1F7CBCC8CE293E00E94790A8E
:102F1000C6CC1092BC04E3CD81E08093BC04DFCD2D
:102F20008BE393E00E94790ADACD75016401E8949D
:102F3000F7F82FEF3FEF4FE75FE7C701B6010E94B9
:102F4000DB1A81110DC02FEF3FEF4FE75FE7C7019D
:102F5000B6010E94111918161CF484E693E0A8CE5D
:102F60002FEF3FEF4FE75FE4C501B4010E94691AFC
:102F700018161CF488E693E09BCE2FEF3FEF4FE747
:102F80005FECC501B4010E94111987FDF3CF20E069
:102F900030E0A901C501B4010E94111987FF09C0E1
:102FA0006DE288E194E00E947204B7FAB094B7F839
:102FB000B0942AE037ED43EA5BE3C501B4010E9417
:102FC000A5186B017C010E9488194B015C010E94CD
:102FD000B7199B01AC01C701B6010E94A4186B018F
:102FE0007C014AE0C501B4010E94860A6EE288E1D4
:102FF00094E00E94720420E030E040E251E4C70116
:10300000B6010E946E1A6B017C010E9488194B0167
:10301000B12CA12C4AE0C501B4010E94860AC50169
:10302000B4010E94B7199B01AC01C701B6010E940F
:10303000A41820E030E040E251E40E946E1A0E94A1
:10304000881990E080E04AE00E94860A33CE81EE43
:1030500094E00E9459081092DC03CBCE89EF94E0F3
:103060000E9459081092D703F1CE8CE693E00E949B
:10307000CA0A8EE893E0A7C8F999FECF92BD81BD38
:10308000F89A992780B50895262FF999FECF1FBA8F
:1030900092BD81BD20BD0FB6F894FA9AF99A0FBE81
:1030A0000196089597FB072E16F4009407D077FD3C
:1030B00009D00E94901807FC05D03EF490958195A8
:1030C0009F4F0895709561957F4F0895A1E21A2E44
:1030D000AA1BBB1BFD010DC0AA1FBB1FEE1FFF1FBC
:1030E000A217B307E407F50720F0A21BB30BE40B0C
:1030F000F50B661F771F881F991F1A9469F7609553
:103100007095809590959B01AC01BD01CF0108950C
:10311000EE0FFF1F881F8BBF0790F691E02D1994CB
:10312000AA1BBB1B51E107C0AA1FBB1FA617B707ED
:1031300010F0A61BB70B881F991F5A95A9F7809509
:103140009095BC01CD0108955058BB27AA270E9435
:10315000BC180C942F1A0E94211A38F00E94281AC9
:1031600020F039F49F3F19F426F40C941E1A0EF443
:10317000E095E7FB0C94181AE92F0E94401A58F3C7
:10318000BA17620773078407950720F079F4A6F54C
:103190000C94621A0EF4E0950B2EBA2FA02D0B01A1
:1031A000B90190010C01CA01A0011124FF27591B8C
:1031B00099F0593F50F4503E68F11A16F040A22F92
:1031C000232F342F4427585FF3CF46953795279503
:1031D000A795F0405395C9F77EF41F16BA0B620B02
:1031E000730B840BBAF09150A1F0FF0FBB1F661F49
:1031F000771F881FC2F70EC0BA0F621F731F841F8C
:1032000048F4879577956795B795F7959E3F08F0B1
:10321000B0CF9395880F08F09927EE0F9795879573
:1032200008950E94F41908F481E008950E942A1973
:103230000C942F1A0E94281A58F00E94211A40F06C
:1032400029F45F3F29F00C94181A51110C94631A59
:103250000C941E1A0E94401A68F39923B1F3552367
:1032600091F3951B550BBB27AA2762177307840799
:1032700038F09F5F5F4F220F331F441FAA1FA9F32F
:1032800035D00E2E3AF0E0E832D091505040E6951D
:10329000001CCAF72BD0FE2F29D0660F771F881F7E
:1032A000BB1F261737074807AB07B0E809F0BB0B71
:1032B000802DBF01FF2793585F4F3AF09E3F510585
:1032C00078F00C94181A0C94631A5F3FE4F3983E5C
:1032D000D4F3869577956795B795F7959F5FC9F76E
:1032E000880F911D9695879597F90895E1E0660FEF
:1032F000771F881FBB1F621773078407BA0720F068
:10330000621B730B840BBA0BEE1F88F7E0950895D0
:103310000E94481A88F09F5798F0B92F9927B75103
:10332000B0F0E1F0660F771F881F991F1AF0BA9569
:10333000C9F714C0B13091F00E94621AB1E008954B
:103340000C94621A672F782F8827B85F39F0B93F3D
:10335000CCF3869577956795B395D9F73EF490951C
:103360008095709561957F4F8F4F9F4F0895E8949A
:1033700009C097FB3EF490958095709561957F4FBD
:103380008F4F9F4F9923A9F0F92F96E9BB2793956B
:10339000F695879577956795B795F111F8CFFAF47B
:1033A000BB0F11F460FF1BC06F5F7F4F8F4F9F4FAC
:1033B00016C0882311F096E911C0772321F09EE80A
:1033C000872F762F05C0662371F096E8862F70E070
:1033D00060E02AF09A95660F771F881FDAF7880F4A
:1033E0009695879597F90895990F0008550FAA0BA0
:1033F000E0E8FEEF16161706E807F907C0F0121608
:103400001306E407F50798F0621B730B840B950B0A
:1034100039F40A2661F0232B242B252B21F408955F
:103420000A2609F4A140A6958FEF811D811D0895FC
:1034300097F99F6780E870E060E008959FEF80EC67
:10344000089500240A94161617061806090608950A
:1034500000240A9412161306140605060895092E70
:103460000394000C11F4882352F0BB0F40F4BF2BDF
:1034700011F460FF04C06F5F7F4F8F4F9F4F08951F
:1034800057FD9058440F551F59F05F3F71F0479515
:10349000880F97FB991F61F09F3F79F087950895FA
:1034A000121613061406551FF2CF4695F1DF08C019
:1034B000161617061806991FF1CF86957105610536
:1034C00008940895E894BB2766277727CB0197F9DE
:1034D00008950E94F41908F48FEF08950E94811A4C
:1034E0000C942F1A0E94211A38F00E94281A20F0FA
:1034F000952311F00C94181A0C941E1A11240C9494
:10350000631A0E94401A70F3959FC1F3950F50E023
:10351000551F629FF001729FBB27F00DB11D639F85
:10352000AA27F00DB11DAA1F649F6627B00DA11D2B
:10353000661F829F2227B00DA11D621F739FB00DD1
:10354000A11D621F839FA00D611D221F749F332741
:10355000A00D611D231F849F600D211D822F762FDA
:103560006A2F11249F5750409AF0F1F088234AF0B7
:10357000EE0FFF1FBB1F661F771F881F9150504023
:10358000A9F79E3F510580F00C94181A0C94631A09
:103590005F3FE4F3983ED4F3869577956795B795AA
:1035A000F795E7959F5FC1F7FE2B880F911D9695C4
:1035B000879597F908950E94F419880B990B08953F
:0435C000F894FFCFAD
:1035C4007800000000002042E803000000002042D0
:1035D400E803000000002042E8032000000000008F
:1035E400000020000000000000007800304050106F
:1035F4000500402005004030050040100600401141
:103604000600402006004021060040220600402714
:10361400002900200022002400260028002A00019E
:1036240000010008002000400080000001000401A7
:1036340000010008004000000100040000000072C6
:1036440004DC030904BF043A0418042C040D0A0022
:103654004954696D6572312063616C6C65642C201A
:103664006D696C6C69732829203D2000427566667B
:1036740065722043414E206C696D706F2100576163
:10368400746368646F6720686162696C69746164FB
:103694006F21005265736574207669612043414E41
:1036A4002100486561727462656174204F4B004566
:1036B40072726F72204C454473004572726F7220AF
:1036C40050574D2031004572726F722050574D2073
:1036D40032004572726F7220456E636F64657200CA
:1036E4004572726F72203078343033004572726FD5
:1036F40072203078343033202B34004572726F726C
:103704002030783430350054656D7065726174759D
:10371400726120312046696C74726164613A2000E0
:103724006E616E00696E66006F7666004D435032BE
:1037340035313520496E697469616C697A65642034
:103744005375636365737366756C6C7921005445B6
:1037540073746520736520657374612066756E6388
:10376400696F6E616E646F004572726F7220496E8C
:10377400697469616C697A696E67204D43503235AA
:0637840031352E2E2E004F
:00000001FF
