:100000000C9497010C94C8010C94C8010C94C8017D
:100010000C94C8010C94C8010C94C8010C94C8013C
:100020000C94C8010C94C8010C94C8010C94C8012C
:100030000C94C8010C94C8010C94C8010C94C8011C
:100040000C94C8010C94C8010C94C8010C94C8010C
:100050000C94C8010C94C8010C94C8010C94F90AC2
:100060000C94C8010C946D0B0C94430B0C94C801B8
:100070000C94C8010C94C8010C94C8010C94C801DC
:100080000C94390C0C94C8010C94C8010C94C80150
:100090000C94C8010C94C8010C94C8010C94C801BC
:1000A0000C94C8010C94C8010C94C8010C94C801AC
:1000B0000C94C8010C94C8010C94C8010C94A30BB7
:1000C0000C94C8010C94C8010C94C8010C94C8018C
:1000D0000C94C8010C94C8010C94C8010C94C8017C
:1000E0000C94C8010C942A030C945C030C94CF026A
:1000F0000C94D9020C9407030C944F020C94370211
:100100000C94F5020C943B020C9429020C94750497
:100110000C94FD010C94CA020C9428040C943E0328
:100120000C94E3020C9422100C9418020C94840A90
:100130000C9423020C94F0030C9433020C944102AF
:100140000C9411030C9414020C94500A0C940202A7
:100150000C942D020C9448030C94BF030C94CE0312
:100160000C9452030C9434030C941B030C941C0247
:100170000C94FD020C9445020C9453020C94E2037F
:100180000C9420020C9449020C94ED020C949203FE
:100190000C94C20252657475726E696E6720746F3A
:1001A0002050726576696F7573204D6F64652046C7
:1001B00061696C7572652E2E2E0053657474696EBC
:1001C000672042617564726174652053756363656D
:1001D000737366756C2100456E746572696E672075
:1001E000436F6E66696775726174696F6E204D6FDB
:1001F0006465205375636365737366756C21004590
:100200006E746572696E6720436F6E66696775729A
:100210006174696F6E204D6F6465204661696C750D
:1002200072652E2E2E0000002100240027002A00D7
:100230002D003000330001010000040107010A0114
:1002400000002200250028002B002E003100340081
:1002500002010000050108010B0105050505070560
:1002600008080808020202020A0A08080404040432
:10027000010101010101010103030303030303035E
:10028000040707070C0C0C0C0C0C0C0C02020202ED
:1002900006060606060606060B0B0B0B0B0B0B0BD6
:1002A0000102102020080810204010204080020188
:1002B000020108040201010204081020408080406D
:1002C000201008040201800402018040201008046C
:1002D000020108040201010204081020408001020A
:1002E00004081020408000000A0B02090C0D0E08C3
:1002F00007030401000000000000000000000000EF
:1003000000000000000000000000000000000000ED
:1003100000001211100000000000000000000000AA
:100320000000000000000000000000002210112466
:100330001FBECFEFD1E2DEBFCDBF00E00CBF13E0A8
:10034000A0E0B2E0E8E5F6E300E00BBF02C00790F2
:100350000D92A03CB107D9F725E0A0ECB3E001C0B5
:100360001D92AE31B207E1F711E0C7E9D1E000E03C
:1003700006C021970109802FFE010E94D218C639BC
:10038000D10780E00807A9F70E94C0100C942A1B2F
:100390000C9400008CBD9DBD0895282F30E0F9011C
:1003A000EA51FD4F9491F901E056FD4F4491265AD0
:1003B0003D4FF9012491222309F435C0992311F10D
:1003C00091509231F8F4E92FF0E08827E551FE4F83
:1003D0008F4F0C94D2181C022002FD011402180247
:1003E0000202230229022D02330237023B0241029C
:1003F0004502020249024F025302809180008F772A
:1004000080938000E22FF0E0EE0FFF1FE05CFD4FD5
:10041000A591B4918FB7F894EC91611148C04095C3
:100420004E234C938FBF0895809180008F7DE8CF3D
:1004300080918000877FE4CF84B58F7784BDE2CF41
:1004400084B58F7DFBCF8091B0008F778093B00013
:10045000D9CF8091B0008F7DF9CF809190008F77B8
:1004600080939000CFCF809190008F7DF9CF8091C5
:100470009000877FF5CF8091A0008F778093A000B8
:10048000C1CF8091A0008F7DF9CF8091A000877FA0
:10049000F5CF809120018F7780932001B3CF809199
:1004A00020018F7DF9CF80912001877FF5CF4E2BE2
:1004B000B8CFCF93DF9390E0FC01E056FD4F24913D
:1004C000865A9D4FFC0184918823D1F090E0880FDB
:1004D000991FFC01EA5DFD4FA591B491FC01E05C20
:1004E000FD4FC591D49161110EC09FB7F8948C91C6
:1004F000E22FE0958E238C932881E223E8839FBF2F
:10050000DF91CF9108958FB7F894EC91E22BEC93A3
:100510008FBFF6CF1F93CF93DF93182FEB0161E0CE
:100520000E945902209739F460E0812FDF91CF912A
:100530001F910C94CD01CF3FD10511F461E0F5CFAF
:10054000E12FF0E0EA51FD4FE491E150E23108F093
:10055000B3C0F0E08827E055FD4F8F4F0C94D218C0
:10056000C202CA02CF02D902E3025C03ED02F50225
:10057000FD02070311031B032A0334035C033E033C
:100580004803520384B5806884BDC7BDDF91CF9115
:100590001F91089584B5806284BDC8BDF7CF809156
:1005A0008000806880938000D0938900C093880089
:1005B000EDCF80918000806280938000D0938B008B
:1005C000C0938A00E3CF8091800088608093800090
:1005D000D0938D00C0938C00D9CF8091B0008068FB
:1005E0008093B000C093B300D1CF8091B0008062FF
:1005F0008093B000C093B400C9CF80919000806810
:1006000080939000D0939900C0939800BFCF8091C1
:100610009000806280939000D0939B00C0939A00DA
:10062000B5CF80919000886080939000D0939D001A
:10063000C0939C00ABCF8091A00080688093A00005
:100640008091A0008F7B8093A000D093A900C093DD
:10065000A8009CCF8091A00080628093A000D093DE
:10066000AB00C093AA0092CF8091A00088608093D5
:10067000A000D093AD00C093AC0088CF8091200142
:10068000806880932001D0932901C09328017ECFF8
:1006900080912001806280932001D0932B01C09330
:1006A0002A0174CF80912001886080932001D0932B
:1006B0002D01C0932C016ACFC038D1050CF03ECF7C
:1006C00033CF3FB7F8948091020490910304A09136
:1006D0000404B091050426B5A89B05C02F3F19F06E
:1006E0000196A11DB11D3FBFBA2FA92F982F8827B2
:1006F000BC01CD01620F711D811D911D42E0660F8D
:10070000771F881F991F4A95D1F708952FB7F8943E
:100710006091FE037091FF038091000490910104A9
:100720002FBF0895AF92BF92CF92DF92EF92FF92C8
:100730000F931F93CF93DF936C017B018B01040F09
:10074000151FEB015E01AE18BF08C017D10759F0A5
:100750006991D601ED91FC910190F081E02DC601E7
:100760001995892B79F7C501DF91CF911F910F91D1
:10077000FF90EF90DF90CF90BF90AF900895FC0175
:10078000538D448D252F30E0842F90E0821B930BF6
:10079000541710F0CF96089501970895FC01918D9C
:1007A000828D981761F0A28DAE0FBF2FB11D5D969F
:1007B0008C91928D9F5F9F73928F90E008958FEF41
:1007C0009FEF0895FC01918D828D981731F0828DF5
:1007D000E80FF11D858D90E008958FEF9FEF08954C
:1007E000FC01918D228D892F90E0805C9F4F821BB0
:1007F00091098F73992708958BE094E00E94F0038C
:1008000021E0892B09F420E0822F0895FC01A48DBA
:10081000A80FB92FB11DA35ABF4F2C91848D90E022
:1008200001968F739927848FA689B7892C93A08905
:10083000B1898C91837080648C93938D848D98138F
:1008400006C00288F389E02D80818F7D8083089522
:10085000EF92FF920F931F93CF93DF93EC0181E010
:10086000888F9B8D8C8D98131AC0E889F9898081B7
:1008700085FF15C09FB7F894EE89FF896083E889EA
:10088000F98980818370806480839FBF81E090E0DC
:10089000DF91CF911F910F91FF90EF900895F62E69
:1008A0000B8D10E00F5F1F4F0F731127E02E8C8D03
:1008B0008E110CC00FB607FCFACFE889F989808148
:1008C00085FFF5CFCE010E940604F1CFEB8DEC0F32
:1008D000FD2FF11DE35AFF4FF0829FB7F8940B8F65
:1008E000EA89FB8980818062CFCFCF93DF93EC01CF
:1008F000888D8823B9F0AA89BB89E889F9898C9108
:1009000085FD03C0808186FD0DC00FB607FCF7CFC3
:100910008C9185FFF2CF808185FFEDCFCE010E94C3
:100920000604E9CFDF91CF91089580E090E0892B14
:1009300029F00E94FC0381110E94000080E090E0F9
:10094000892B49F080E090E0892B29F00E9400007B
:1009500081110E94000080E090E0892B49F080E046
:1009600090E0892B29F00E94000081110E94000074
:1009700080E090E0892B49F080E090E0892B29F01D
:100980000E94000081110C940000089508958EBD0E
:1009900000000DB407FEFDCF8EB508951F93CF93D1
:1009A000DF93182F80E591E00E94CA01CAEDD4E0E0
:1009B00060E08A890E94CD0183E00E94C704812FF4
:1009C0000E94C70480E00E94C704182F61E08A8952
:1009D0000E94CD01812FDF91CF911F910895FF9249
:1009E0000F931F93CF93DF93F82E062F142F80E5DC
:1009F00091E00E94CA01CAEDD4E060E08A890E94B9
:100A0000CD0185E00E94C7048F2D0E94C704802F6E
:100A10000E94C704812F0E94C70461E08A89DF9188
:100A2000CF911F910F91FF900C94CD01CF93DF9345
:100A3000C82F0E948603D62F4C2F60EE8FE00E94B5
:100A4000EF048EE00E94CE04807EC81749F00E9419
:100A500086036D1B693C80F381E0DF91CF9108959F
:100A600080E0FBCFCF93DF93C82F8EE00E94CE04AF
:100A7000807E8032F9F4C032E9F08BE20E94CE042D
:100A8000D82FD07486FD05C040E460E48BE20E945C
:100A9000EF0440E460E48CE20E94EF0480E60E94F0
:100AA0001605811111C0D11105C040E060E48BE250
:100AB0000E94EF0440E060E48CE20E94EF048C2F7F
:100AC000DF91CF910C94160581E0DF91CF910895CD
:100AD0000F931F93CF93DF93082F162F80E591E09C
:100AE0000E94CA01CAEDD4E060E08A890E94CD016B
:100AF00082E00E94C704802F0E94C704812F0E94B9
:100B0000C70461E08A89DF91CF911F910F910C9406
:100B1000CD01FF920F931F93CF93DF93C82FF62E33
:100B2000172F042F80E591E00E94CA0160E08091B8
:100B3000EC040E94CD0182E00E94C7048C2F0E9429
:100B4000C704CF2DD12F0C0F1D2F111DC017D1079A
:100B500021F089910E94C704F9CF61E08091EC04F3
:100B6000DF91CF911F910F91FF900C94CD01CF9306
:100B7000DF9300D01F92CDB7DEB71C821B8261309D
:100B800081F498E09A83198244E0BE016F5F7F4F41
:100B90000E9489050F900F900F900F90DF91CF91D9
:100BA00008951A82F0CF2F923F924F925F926F92E8
:100BB0007F928F929F92AF92CF92DF92EF92FF92AD
:100BC0000F931F93CF93DF9300D01F92CDB7DEB763
:100BD0006093DB047093DC048093DD049093DE0467
:100BE00096FB552750F95093E804662797FD6395C7
:100BF0007727882799276093DA044093DF04F90167
:100C0000A0EEB4E0C901089621912D93E817F907E9
:100C1000D9F70E9461032B013C0180902C02909037
:100C20002D02A0902E021E0124E0220E311C89828A
:100C30009A82AB82CE0101966C01F82E0D2DF60141
:100C400011916F01812F0E94CE0483FD14C01F5F9C
:100C5000E12C0E946103DC01CB0184199509A609EE
:100C6000B709F2E0EF120EC0843C9940A105B1052E
:100C7000F0F206E07DC02C143D0409F710E072E0AC
:100C8000E72EE7CF843C9940A105B10590F740914C
:100C9000DF0460EE74E085E0810F0E948905809199
:100CA000E804813029F48091DF0480648093DF04BC
:100CB0006091DF0484E0810F0E9468054091DB04AD
:100CC0005091DC046091DD047091DE048091DA04BF
:100CD0008130D9F54C835B83AB0166277727842F5E
:100CE00083708860942F990F990F990F907E892BAC
:100CF0008A8365E0569547956A95E1F7498344E014
:100D00006F2D702F812F0E948905115048E068E0F7
:100D1000812F0E94EF040E9461036B017C01812FEF
:100D20000E94CE04082F08700E946103DC01CB01F1
:100D30008C199D09AE09BF090023A9F0843C994094
:100D4000A105B10560F307E013C0CA0123E0969541
:100D500087952A95E1F789834295440F407E4A831F
:100D60001C821B82CCCF843C9940A105B10558F769
:100D7000802F0F900F900F900F90DF91CF911F91C8
:100D80000F91FF90EF90DF90CF90AF909F908F905A
:100D90007F906F905F904F903F902F900895FF92BB
:100DA0000F931F93CF93DF93C82FF62E172F042F87
:100DB00080E591E00E94CA0160E08091EC040E940D
:100DC000CD0183E00E94C7048C2F0E94C704CF2D61
:100DD000D12F0C0F1D2F111DC017D10729F080E056
:100DE0000E94C7048993F8CF61E08091EC04DF9101
:100DF000CF911F910F91FF900C94CD010F931F93F2
:100E0000CF93DF9300D01F92CDB7DEB7182F10928B
:100E1000DA041092DB041092DC041092DD041092CC
:100E2000DE0444E0BE016F5F7F4F0E94CF062A813F
:100E3000898138E0839FC0011124422F50E065E092
:100E4000559547956A95E1F7840F951F092E000C7B
:100E5000AA0BBB0B8093DB049093DC04A093DD040E
:100E6000B093DE0423FF29C032E0880F991FAA1F28
:100E7000BB1F3A95D1F72370820F911DA11DB11DA3
:100E8000BA2FA92F982F88272B81820F911DA11D82
:100E9000B11DBA2FA92F982F88272C81820F911D61
:100EA000A11DB11D8093DB049093DC04A093DD04AD
:100EB000B093DE0481E08093DA048FEF810F0E940B
:100EC000CE04082F84E0810F0E94CE0403FF16C0D9
:100ED00091E09093E804482F4F704093DF0460EE58
:100EE00074E085E0810F0E94CF060F900F900F9065
:100EF0000F90DF91CF911F910F9108951092E80408
:100F0000EACFCF9380E591E00E94CA0160E0809132
:100F1000EC040E94CD0180EA0E94C70480E00E9498
:100F2000C704C82F61E08091EC040E94CD01C0FF8E
:100F300054C081E60E94FE0640E061E08CE20E941F
:100F4000EF048091DA04882389F08091DB0490918A
:100F5000DC04A091DD04B091DE04B0688093DB0472
:100F60009093DC04A093DD04B093DE048091E80448
:100F7000882389F08091DB049091DC04A091DD044A
:100F8000B091DE04B0648093DB049093DC04A09302
:100F9000DD04B093DE048091DB049091DC04A09129
:100FA000DD04B091DE048093070490930804A093BD
:100FB0000904B0930A048091DF0480930604A0EE34
:100FC000B4E0E4E2F2E090E09F01245232402817BE
:100FD000390764F42D912193F7CF84E0C1FF07C056
:100FE00081E70E94FE0640E062E0A8CF80E0CF915A
:100FF00008958F929F92AF92BF92CF92DF92EF921D
:10100000FF928090C5039090C603A090C703B09054
:10101000C803BC01990F880B990B0E94031A2DEC91
:101020003CEC4CEC5DE30E94B81A6B017C0126E6B7
:1010300036E646E65FE3C501B4010E94B81A9B019B
:10104000AC01C701B6010E94EF186093C50370930D
:10105000C6038093C7039093C803FF90EF90DF907F
:10106000CF90BF90AF909F908F900895F894FC011F
:1010700081818330E9F034F4813071F0823091F075
:10108000789408958430D1F08530D1F78091730041
:101090008D7F80937300F4CF80916F008D7F80935C
:1010A0006F00EECF809170008D7F80937000E8CF4D
:1010B000809171008D7F80937100E2CF80917200EA
:1010C0008D7F80937200DCCFFC01F8946330C9F10E
:1010D0003CF46130C1F0623029F161837894089565
:1010E0006430F1F16530C9F71092200110922101AE
:1010F000909121019860909321019091210191603C
:1011000090932101EACF109280001092810080918B
:10111000810088608093810080918100816080934C
:101120008100DBCF1092B0001092B1008091B0002E
:1011300082608093B0008091B10081608093B100A3
:10114000CCCF1092900010929100909191009860F5
:101150009093910090919100916090939100BDCFF8
:101160001092A0001092A1009091A100986090931D
:10117000A1009091A10091609093A100AECFFC01DD
:1011800040855185628573858181833009F470C003
:1011900084F4813089F1823009F44CC080859185D6
:1011A000A285B385892B8A2B8B2B11F481E0808358
:1011B0000895843009F47AC0853081F7DB01CA01D3
:1011C0004115510521E06207710520F08FEF9FEF77
:1011D000A0E0B0E09093290180932801481B590BAF
:1011E0006A0B7B0B408751876287738780917300FE
:1011F000826080937300D2CFDB01CA014115510593
:1012000021E06207710520F08FEF9FEFA0E0B0E0D2
:101210009093890080938800481B590B6A0B7B0BC5
:10122000408751876287738780916F0082608093C7
:101230006F00B4CF4F3F51056105710529F020F0D3
:101240004FEF50E060E070E04093B30080859185FF
:10125000A285B385841B950BA60BB70B808791875E
:10126000A287B3878091700082608093700096CFD0
:10127000DB01CA014115510521E06207710520F02B
:101280008FEF9FEFA0E0B0E09093990080939800DB
:10129000481B590B6A0B7B0B40875187628773870A
:1012A0008091710082608093710078CFDB01CA0168
:1012B0004115510521E06207710520F08FEF9FEF86
:1012C000A0E0B0E09093A9008093A800481B590BC0
:1012D0006A0B7B0B4087518762877387809172000E
:1012E0008260809372005ACFCF93DF93EC01F89421
:1012F000298188859985AA85BB852230A9F18F3FF0
:101300009F4FA105B10518F4CE010E94BF08888542
:101310009985AA85BB85AC01BD01009721E0A20794
:10132000B10520F04FEF5FEF60E070E0841B950B9C
:10133000A60BB70B88879987AA87BB87888599856D
:10134000AA85BB85892B8A2B8B2B39F58C819D81B6
:10135000AE81BF8188879987AA87BB8781E0888310
:101360007894DF91CF9108958F3F9105A105B10544
:1013700018F4CE010E94BF0888859985AA85BB858F
:10138000AC01BD018F3F9105A105B10579F270F265
:101390004FEF50E060E070E0C9CF1882E1CFFC0170
:1013A00001900020E9F73197AF01481B590BBC01B0
:1013B0008BE094E00C9492038F929F92AF92BF9235
:1013C0000F931F93CF93DF93CDB7DEB7A1970FB6DF
:1013D000F894DEBF0FBECDBF19A2423008F44AE038
:1013E0008E010F5D1F4F842E912CB12CA12CA501D5
:1013F00094010E94B018E62FB901CA01EA30F4F452
:10140000E05DD801EE938D01232B242B252B79F75A
:1014100090E080E0109719F0CD010E94CF09A196CD
:101420000FB6F894DEBF0FBECDBFDF91CF911F91F5
:101430000F91BF90AF909F908F900895E95CE1CF9E
:101440000C94CF09CF93DF930E94CF09EC018DE874
:1014500092E00E94CF098C0F9D1FDF91CF910895DC
:101460000F931F93CF93DF938C01D0E0C0E0F8017E
:10147000EC0FFD1F6491662341F08BE094E00E9425
:101480002804892B11F02196F2CF8DE892E00E947A
:10149000CF098C0F9D1FDF91CF911F910F91089560
:1014A0000F931F93CF938CE992E00E94200A0E9431
:1014B00086030091CB031091CC032091CD03309192
:1014C000CE03601B710B820B930B4AE00E94DC0978
:1014D0008DE892E00E94CF090E9486036093CB03BF
:1014E0007093CC038093CD039093CE03C091C0033F
:1014F0006C2F8DE00E94CD0181E0C827C093C0030E
:10150000CF911F910F9108950F931F9388EB92E055
:101510000E94200A0E9486030091C1031091C20319
:101520002091C3033091C403601B710B820B930B9A
:101530004AE00E94DC098DE892E00E94CF090E94F7
:1015400086036093C1037093C2038093C303909397
:10155000C4031F910F9108950F931F93CF93DF93AF
:101560001F921F92CDB7DEB78C010E948618898327
:10157000C80101960E9486188A8389819A810F90FA
:101580000F90DF91CF911F910F910895CF92DF922D
:10159000EF92FF920F931F93CF93DF9300D01F9290
:1015A000CDB7DEB76E0125E0C20ED11C8E010F5FF4
:1015B0001F4F7C01E01AF10AC016D10649F0C7019D
:1015C000800F911F0E948618F80181938F01F4CF3C
:1015D00069817A818B819C810F900F900F900F9081
:1015E000DF91CF911F910F91FF90EF90DF90CF90FF
:1015F00008951F920F920FB60F9211242F933F93CD
:101600008F939F93AF93BF938091FE039091FF03BD
:10161000A0910004B09101043091FD0323E0230F59
:101620002D3758F50196A11DB11D2093FD03809320
:10163000FE039093FF03A0930004B09301048091F4
:10164000020490910304A0910404B0910504019652
:10165000A11DB11D8093020490930304A093040480
:10166000B0930504BF91AF919F918F913F912F91BE
:101670000F900FBE0F901F90189526E8230F02962B
:10168000A11DB11DD2CF1F920F920FB60F92112440
:101690000BB60F922F933F934F935F936F937F936C
:1016A0008F939F93AF93BF93EF93FF938BE094E05F
:1016B0000E940604FF91EF91BF91AF919F918F918E
:1016C0007F916F915F914F913F912F910F900BBE42
:1016D0000F900FBE0F901F9018951F920F920FB68C
:1016E0000F9211240BB60F922F938F939F93EF932A
:1016F000FF93E0911B04F0911C048081E091210490
:10170000F091220482FD1DC09081809124048F5F9E
:101710008F7320912504821741F0E0912404F0E0BA
:10172000E55FFB4F958F80932404FF91EF919F918C
:101730008F912F910F900BBE0F900FBE0F901F90A7
:1017400018958081F2CF1F920F920FB60F9211243D
:101750000BB60F92CF92DF92EF92FF922F933F93AF
:101760004F935F936F937F938F939F93AF93BF93A9
:10177000EF93FF93C090FA04D090FB04E090FC0438
:10178000F090FD048091EF04853009F04FC0C11442
:10179000D104E104F10409F467C08091EE048823C8
:1017A00009F45DC0E0910205F0910305309741F026
:1017B0008091040590910505009709F44EC0199594
:1017C0008091F2049091F304A091F404B091F50497
:1017D0000097A140B105C4F0F8948091F204909173
:1017E000F304A091F404B091F5048093F60490936F
:1017F000F704A093F804B093F9048EEE94E00E94ED
:10180000BF081092EE0478941C141D041E041F04DB
:101810006CF481E0C81AD108E108F108C092FA041A
:10182000D092FB04E092FC04F092FD04FF91EF9152
:10183000BF91AF919F918F917F916F915F914F91E8
:101840003F912F91FF90EF90DF90CF900F900BBEC4
:101850000F900FBE0F901F9018951995B1CF8EEE77
:1018600094E00E947409E2CF8EEE94E00E94360864
:10187000DDCF1F920F920FB60F9211240BB60F926D
:10188000CF92DF92EF92FF922F933F934F935F930C
:101890006F937F938F939F93AF93BF93EF93FF9338
:1018A000C0901205D0901305E0901405F090150536
:1018B00080910705833009F04FC0C114D104E104C1
:1018C000F10409F467C080910605882309F45DC01E
:1018D000E0911A05F0911B05309741F080911C05AD
:1018E00090911D05009709F44EC0199580910A0545
:1018F00090910B05A0910C05B0910D050097A140AA
:10190000B105C4F0F89480910A0590910B05A0915F
:101910000C05B0910D0580930E0590930F05A093D3
:101920001005B093110586E095E00E94BF08109263
:10193000060578941C141D041E041F046CF481E039
:10194000C81AD108E108F108C0921205D092130517
:10195000E0921405F0921505FF91EF91BF91AF91C0
:101960009F918F917F916F915F914F913F912F91B7
:10197000FF90EF90DF90CF900F900BBE0F900FBEB7
:101980000F901F9018951995B1CF86E095E00E94B1
:101990007409E2CF86E095E00E943608DDCFFC01B5
:1019A000A4E2B2E08C918058808311964C911197FB
:1019B000842F8370818312962C91129730E0C90195
:1019C00056E0880F991F5A95E1F7807C9F7050E090
:1019D0005595479555954795842B952B985096830B
:1019E000858376E0359527957A95E1F722831496DD
:1019F0004C91149750E0942F882788279F70139656
:101A00002C911397822B985090878783CA0124E0EA
:101A1000959587952A95E1F78370838316962C9187
:101A2000169730E015969C91159764E0969FC0013B
:101A3000112466E0559547956A95E1F7842B952B1F
:101A4000A901542F4427550F550F44275C70842B50
:101A5000952B985092878187C90195958795959583
:101A600087958370848317969C9140E1949FC00171
:101A7000112454E0359527955A95E1F7822B932B45
:101A8000985094878387CF0108954F925F926F9209
:101A90007F928F929F92AF92BF92CF92DF92EF92FE
:101AA000FF920F931F93CF93DF93EC0119811116CF
:101AB0000CF03AC14901CB01BA010E94011A9B0105
:101AC000AC0160E070E08AE794E40E9460196B0169
:101AD0007C012EEA37E346E856E40E94B81A2B014F
:101AE0003C0120E030E040E85FE30E945B1987FDA5
:101AF0001BC18FEF9FEFDC018C879D87AE87BF876F
:101B000020E030E040E852E4C301B201123009F4B1
:101B100087C00E94B31A01E010E0181674F020E0AC
:101B200030E040E051E4C301B2010E94B31A03E087
:101B300010E0181614F402E010E0C801880F991F95
:101B40009C0121593D4F5901F501619171915F014E
:101B500090E080E00E94011AA70196010E94B81A45
:101B60009B01AC0160E074E284E79BE40E94601991
:101B700020E030E040E85FE30E94EE180E94D219B6
:101B80006115F0EC7F07FFEF8F07FFE39F07A8F5D4
:101B90006C837D838E839F83688779878A879B8701
:101BA0001B830A83F894C88AD98AEA8AFB8A9D8AA9
:101BB0008C8A1F8A1E8A18828981823009F08BC024
:101BC0008091B100887F9A81892B8093B100CE01EA
:101BD0000E94BF08789481E0DF91CF911F910F910F
:101BE000FF90EF90DF90CF90BF90AF909F908F903D
:101BF0007F906F905F904F9008950F5F1F4F06305A
:101C0000110509F0A1CF6C837D838E839F83688744
:101C100079878A879B8785E090E09B838A83C2CF00
:101C20000E94B31A01E010E01816D4F020E030E072
:101C300040E051E4C301B2010E94B31A02E010E097
:101C4000181674F020E030E040E050E4C301B20127
:101C50000E94B31A04E010E0181614F403E010E038
:101C6000C801880F991F9C01215A3D4F5901F50168
:101C7000619171915F0190E080E00E94011AA701DB
:101C800096010E94B81A9B01AC0160E074E284E7FF
:101C90009BE40E94601920E030E040E85FE30E948E
:101CA000EE180E94D2196115F0EC7F07FFE38F0751
:101CB000910508F46DCF0F5F1F4F08301105B9F67D
:101CC0006C837D838E839F83688779878A879B87D0
:101CD00087E090E0A2CF813041F480918100887F3D
:101CE0009A81892B8093810072CF833041F4809157
:101CF0009100887F9A81892B8093910068CF8430EE
:101D000041F48091A100887F9A81892B8093A10062
:101D10005ECF853009F05BCF80912101887F9A8169
:101D2000892B8093210153CF80E056CF8F929F92D1
:101D3000AF92BF92EF92FF920F931F93CF93DF93D7
:101D400000D000D01F921F92CDB7DEB7FC01F1800A
:101D50002081F0E12F9F900111244F2D50E064E08D
:101D6000559547956A95E1F7242B352B233241E0B1
:101D7000340761F12032314009F45CC0198282E0FD
:101D80008A8380E090E0A0E2B2E48B839C83AD8301
:101D9000BE8388EE93E098878F8329813A814B81B7
:101DA0005C816D817E818F81988528960FB6F8942D
:101DB000DEBF0FBECDBFDF91CF911F910F91FF907E
:101DC000EF90BF90AF909F908F900895E12C8C0181
:101DD000FC018281F8E78F9FC00111246FEF70E052
:101DE0000E949C18072E000C880B990B0E94031A66
:101DF0004B015C01F801638170E090E080E00E949B
:101E0000011A20E030E44CE156E40E94B81A20E0C8
:101E100030E04FE753E40E9460190E94D219E98232
:101E20002F2D23702A838B829C82AD82BE8278877D
:101E30006F83B3CFEE24E394CACF4F925F926F9239
:101E40007F928F929F92AF92BF92CF92DF92EF924A
:101E5000FF926B017C01AC019B010E94251B882332
:101E6000C1F080E992E00E94CF097C018DE892E008
:101E70000E94CF098E0D9F1DFF90EF90DF90CF90B5
:101E8000BF90AF909F908F907F906F905F904F909A
:101E9000089546015701E894B7F82FEF3FEF4FE759
:101EA0005FE7C501B4010E94251B81110DC02FEF12
:101EB0003FEF4FE75FE7C501B4010E945B191816B9
:101EC0001CF484E992E0CFCF2FEF3FEF4FE75FE4C0
:101ED000C701B6010E94B31A18161CF488E992E0F3
:101EE000C2CF2FEF3FEF4FE75FECC701B6010E9473
:101EF0005B1987FDF3CF20E030E0A901C701B601EF
:101F00000E945B19B12CA12C87FF0AC06DE28BE007
:101F100094E00E9428045C01F7FAF094F7F8F0943A
:101F20002AE037ED43EA5BE3C701B6010E94EF18F0
:101F30002B013C010E94D2196B017C010E94011A05
:101F40009B01AC01C301B2010E94EE182B013C01C0
:101F50004AE0C701B6010E94DC097C01EA0CFB1CC7
:101F60006EE28BE094E00E942804E80EF91E20E067
:101F700030E040E251E4C301B2010E94B81A2B01E3
:101F80003C010E94D2194B01B12CA12C4AE0C501A1
:101F9000B4010E94DC09E80EF91EC501B4010E94DB
:101FA000011A9B01AC01C301B2010E94EE1820E0AE
:101FB00030E040E251E40E94B81A0E94D21990E049
:101FC00080E04AE00E94DC09E80EF91E4FCFFF9244
:101FD0000F931F93CF93DF93EC01F62E08811981A5
:101FE000C8010E948618F81621F06F2DC8010E94C2
:101FF0008E18CE01DF91CF911F910F91FF90089520
:10200000FF920F931F93CF93DF931F921F92CDB731
:10201000DEB78C01F72E9A838983CE0101960E9448
:10202000E70F0F5F1F4F1A8309836F2DCE010196B3
:102030000E94E70F0F900F90DF91CF911F910F91AA
:10204000FF900895CF93DF93EBE0F4E013821282C8
:1020500088EE93E0A0E0B0E084839583A683B78305
:102060008FE792E09183808385EC90E09587848769
:1020700084EC90E09787868780EC90E0918B808B52
:1020800081EC90E0938B828B82EC90E0958B848B3B
:1020900086EC90E0978B868B118E128E138E148EA9
:1020A000E6E0F5E083E08183108A118A128A138AC0
:1020B000158A148A178A168A108221E030E0338349
:1020C0002283148215821682178210861186128648
:1020D00013868FEF9FEFDC0184879587A687B787EC
:1020E000EEEEF4E045E04183108A118A128A138AE9
:1020F000158A148A178A168A1082338322831482DF
:10210000158216821782108611861286138684879E
:102110009587A687B787CAEDD4E081E28A8B61E014
:102120000E94CD0161E08A890E94590288EA94E008
:10213000998B888BEDECF4E029E12083148282E313
:1021400090E094878387E0ECF4E020831482948706
:102150008387E3EBF4E02083148294878387EEEA9D
:10216000F4E01182128288EE93E094838383E9EA9B
:10217000F4E01182128294838383DF91CF910895DA
:10218000CF93DF93CDB7DEB72C970FB6F894DEBFB1
:102190000FBECDBF789484B5826084BD84B5816064
:1021A00084BD85B5826085BD85B5816085BD809122
:1021B0006E00816080936E0010928100809181009A
:1021C0008260809381008091810081608093810092
:1021D000809180008160809380008091B100846054
:1021E0008093B1008091B00081608093B0008091B5
:1021F0009100826080939100809191008160809332
:102200009100809190008160809390008091A10066
:1022100082608093A1008091A10081608093A100E1
:102220008091A00081608093A00080912101826054
:10223000809321018091210181608093210180910F
:10224000200181608093200180917A0084608093D6
:102250007A0080917A00826080937A0080917A007F
:10226000816080937A0080917A00806880937A0000
:102270001092C10061E08DE00E94590261E087E2A6
:102280000E94590261E089E20E94590261E080E205
:102290000E94590261E082E20E94590261E084E2F8
:1022A0000E94590261E086E20E94590261E088E2E0
:1022B0000E94590261E08AE20E94590260E083E0D4
:1022C0000E94590261E08CE20E94590261E08EE2B4
:1022D0000E94590261E088E00E94590261E086E0B4
:1022E0000E94590261E085E20E94590261E080E1AA
:1022F0000E94590261E080E10E94590261E081E19F
:102300000E94590261E080E10E94CD0161E081E11B
:102310000E94CD01E0911B04F0911C0482E08083B7
:10232000E0911704F09118041082E0911904F091E3
:102330001A0480E1808310922304E0911F04F0913D
:10234000200486E08083E0911D04F0911E048081CA
:1023500080618083E0911D04F0911E04808188607B
:102360008083E0911D04F0911E0480818068808349
:10237000E0911D04F0911E0480818F7D8083609127
:10238000070586E095E00E9464086091EF048EEEF8
:1023900094E00E9464081FB7F8948091C9038111EA
:1023A00027C0EFE8F2E08491E5EDF2E09491E82FA8
:1023B000F0E0EE0FFF1FEA5DFD4FA591B491EC91A7
:1023C000E92321F461E085E30E94CD0161E085E32A
:1023D0000E9459028CB580618CBD8CB580648CBD27
:1023E00061E084E30E94590261E083E30E945902A4
:1023F0008091C9038F5F8093C9031FBF80E591E07F
:102400000E94CA0160E08091EC040E94CD0180EC42
:102410000E94C70461E08091EC040E94CD010E94FB
:1024200061034B015C0105E0C02ED12CE12CF12CA5
:102430000E946103681979098A099B09683E734003
:1024400081059105A8F321E0C21AD108E108F1083D
:1024500048EE840E43E0941EA11CB11CC114D104AB
:10246000E104F10429F780E48093ED0480E80E9400
:102470003205882309F457C08FEF91E00E94300A9B
:1024800081EA93E00E94220A1092ED0480E00E940B
:10249000320590E080E00E94C60A60930E027093BD
:1024A0000F02809310029093110288E090E00E9446
:1024B000AC0A90931302809312028CE090E00E9489
:1024C000861880930D0284E090E00E94C60A609313
:1024D00006027093070280930802909309028AE033
:1024E00090E00E94AC0A90930B0280930A028DE068
:1024F00090E00E9486188093050284ED92E00E948D
:10250000220AE5EF2E2EE3E03E2E55245A94FAEFF0
:10251000EF2EF12CA2E14A2EBDE06B2E712C1CE0B7
:10252000C12ED12CA2C487ED91E00E94300A60E058
:102530008AE20E94680561ED89E20E94680561E80F
:1025400088E20E9468058AEB91E00E94300A61E00F
:1025500080E20E94B70561E084E20E94B70561E075
:1025600080E00E94B70560E084E00E94B70561E06A
:1025700088E00E94B70560E080E10E94B70561E055
:1025800084E10E94B70560E088E10E94B70510E38E
:1025900060E0812F0E94680560E080E1810F0E9469
:1025A000680560E080E2810F0E9468051F5F1E33AE
:1025B00079F760E080E60E94680560E080E70E94AD
:1025C000680563E08BE20E9468056CE38CE00E9482
:1025D000680560E08DE00E94680544E664E680E6F8
:1025E0000E94EF0440E660E680E70E94EF048091DD
:1025F000ED040E943205882309F483C584E991E043
:102600003DCF81309440A105B10549F430E020E090
:1026100040E061E074E080E090E00E94D3058091AA
:10262000070490910804A0910904B0910A04823033
:102630009440A105B10509F00EC180912402282F14
:10264000237030E03093EC032093EB0390E09C0187
:102650003595279535952795237033273093EA03D1
:102660002093E9039C0114E0359527951A95E1F72D
:10267000237033273093E8032093E70306E0959512
:1026800087950A95E1F79093E6038093E50380919F
:102690002502282F237030E03093F4032093F303B6
:1026A00090E09C0135952795359527952370332724
:1026B0003093F2032093F1039C0154E03595279564
:1026C0005A95E1F7237033273093F0032093EF03FB
:1026D00066E0959587956A95E1F79093EE03809370
:1026E000ED0375EE872E73E0972E0FE412E0F401F0
:1026F000819191914F018130910509F400C482309C
:10270000910509F402C460E0892B09F4F9C30E5F56
:102710001F4F2814390459F780912602282F30E0E2
:102720002B3F31050CF0F6C3859DC0011124B70184
:102730000E949C187093E4036093E3038091270246
:10274000282F30E02B3F31050CF0EDC3859DC001F3
:102750001124B7010E949C187093E2036093E10377
:1027600080912802282F30E02B3F31050CF0E4C384
:10277000859DC0011124B7010E949C187093E0034D
:102780006093DF030091E3037091E403602F8CE218
:102790000E948A021091E1037091E203612F8EE2A0
:1027A0000E948A022091DF038091E5039091E60365
:1027B00036E0880F991F3A95E1F74091E703509171
:1027C000E80364E0440F551F6A95E1F7842B90916C
:1027D000EB03892B4091E9035091EA03440F551F05
:1027E000440F551F842B80931C028091ED03909120
:1027F000EE03E6E0880F991FEA95E1F74091EF03B9
:102800005091F003F4E0440F551FFA95E1F7842B43
:102810009091F303892B4091F1035091F203440FFF
:10282000551F440F551F842B80931D0200931E02D9
:1028300010931F0220932002109221021092220274
:10284000109223022CE132E048E062E274E080E082
:1028500090E00E94D3058091070490910804A09114
:102860000904B0910A0483309440A105B10509F030
:1028700015C184E292E00E94960E209314023093D8
:10288000150240931602509317026093180270933A
:10289000190280931A0290931B02323008F455C338
:1028A000323009F45CC380910C02813081F5809153
:1028B0000E0290910F02A0911002B09111028D832F
:1028C0009E83AF83B8874E0125E0820E911C10E0F5
:1028D00000E0F40161914F011A870987CE01099642
:1028E0000E94E70F0F5F1F4F0430110591F76091B1
:1028F00012027091130288E090E00E940010609133
:102900000D02DA86C986CE0109960E94E70F88E299
:1029100092E00E94960E2093140230931502409389
:102920001602509317026093180270931902809355
:102930001A0290931B02323008F416C3323009F4A5
:102940001DC38091060290910702A0910802B091E8
:10295000090220910402213041F589839A83AB83D7
:10296000BC83AE014F5F5F4F4A0104E010E0F40109
:1029700061914F011A870987CE0109960E94E70FDE
:102980000F5F1F4F0830110591F760910A02709197
:102990000B028AE090E00E940010609105027A86A6
:1029A0006986CE0109960E94E70F20910D02609181
:1029B0000E0270910F02809110029091110200910D
:1029C00012021091130240921C02206320931D02F8
:1029D00020E030E04FE753E40E94B81A20E030E0F6
:1029E00040EF52E40E9460190E94D21960931E02C7
:1029F000B80190E080E00E94011A20E030E04FE74B
:102A000053E40E94B81A20E030E44CE156E40E94FE
:102A100060190E94D21960931F02209105026091F3
:102A200006027091070280910802909109020091BC
:102A30000A0210910B02409220022063209321028F
:102A400020E030E04FE753E40E94B81A20E030E085
:102A500040EF52E40E9460190E94D2196093220252
:102A6000B80190E080E00E94011A20E030E04FE7DA
:102A700053E40E94B81A20E030E44CE156E40E948E
:102A800060190E94D219609323022CE132E048E0E1
:102A900063E274E080E090E00E94D3058091070437
:102AA00090910804A0910904B0910A0484309440E4
:102AB000A105B10509F042C0809124029091250240
:102AC0009827892798272091260221703091270284
:102AD00033703093A9041092AA042093AB0490930E
:102AE000AD048093AC0485E0E9EAF4E0AEEAB4E03A
:102AF00001900D928A95E1F78091AE049091B00417
:102B00002091B1043091B20430931C0220931D0235
:102B100090931E02837080931F02109220021092E5
:102B2000210210922202109223022CE132E048E0AE
:102B300064E274E080E090E00E94D3058091070495
:102B400090910804A0910904B0910A048530944042
:102B5000A105B10509F58091240290E026E0959544
:102B600087952A95E1F7813009F410C208F40BC269
:102B7000823009F40FC28091AF0440E4849FC00109
:102B800011248093DE032EED33E048E065E274E02B
:102B900080E090E00E94D3058091070490910804A2
:102BA000A0910904B0910A0480319540A105B105B6
:102BB00051F58DEC94E00E94CF0C8091D604909159
:102BC000D7040E94F9076093F5037093F60380938E
:102BD000F7039093F80384E393E00E94200A609146
:102BE000F5037091F6038091F7039091F8030E942A
:102BF0001D0F0E9486036093F9037093FA0380937C
:102C0000FB039093FC030E9486030091DA0310916A
:102C1000DB032091DC033091DD03AB01BC01401BE1
:102C2000510B620B730B8091B1049091B204B0E030
:102C3000A0E021E0481759076A077B0708F420E065
:102C40008091AF048111ABC181E09091AE049111EC
:102C500001C080E0222309F447C0882309F444C05E
:102C60001092AF048FE292E09C878B8710E000E027
:102C7000EB85FC856191719181919191FC87EB8746
:102C800030E020E040E00E94D30587E090E001972B
:102C9000F1F70E948107A8014F5F5F4F4A010130A1
:102CA000110509F4AEC108F47CC10230110509F424
:102CB000E2C1840108301105D9F61092D0031092B8
:102CC000D10320ED33E048E066E274E080E090E07C
:102CD0000E94D3050E9486036093DA037093DB039E
:102CE0008093DC039093DD038091070490910804A6
:102CF000A0910904B0910A0481159340A105B10582
:102D0000A1F58091240290E0909303028093020247
:102D10008091250290E090930102809300028091BF
:102D20000202909103020E94F9076093F5037093E9
:102D3000F6038093F7039093F8038091000290913B
:102D400001020E94F9076093D6037093D703809322
:102D5000D8039093D9030E9486036093F90370937C
:102D6000FA038093FB039093FC0310910D02113042
:102D700009F0B9C12091F5033091F6034091F703B2
:102D80005091F80360910E0270910F028091100231
:102D9000909111020E945B1918160CF4A4C1809145
:102DA000CF03811118C0409112025091130270E0BC
:102DB00060E020E53AE08EEE94E00E94450D0E942E
:102DC00086036093CB037093CC038093CD039093E1
:102DD000CE031093CF0310910502113009F08AC180
:102DE0002091D6033091D7034091D8035091D90355
:102DF0006091060270910702809108029091090289
:102E00000E945B1918160CF475C18091CA038111D8
:102E10000EC040910A0250910B0270E060E024E87D
:102E20003AE086E095E00E94450D1093CA0370E0F9
:102E300060E085E20E948A0270E060E080E10E942A
:102E40008A0270E060E088E00E948A0270E060E040
:102E500086E00E948A0210920704109208041092E1
:102E6000090410920A040E9495048090F90390903E
:102E7000FA03A090FB03B090FC0384EF880E81E07E
:102E8000981EA11CB11C0E94860386169706A806F0
:102E9000B906C0F48091D6049091D7040E94F90736
:102EA0006093F5037093F6038093F7039093F80310
:102EB0000E9486036093F9037093FA038093FB03E7
:102EC0009093FC030E94810780910704909108046D
:102ED000A0910904B0910A048334E2E09E07A105A1
:102EE000B10509F08ECBF89488E198E00FB6F8941C
:102EF000A895809360000FBE90936000FFCF61E0C3
:102F0000F80180810E94CD0102CC8CED92E00E94FC
:102F1000220AFDCB2F3F310509F410CC87EE92E059
:102F20000E94200A0BCC2F3F310509F419CC83EF06
:102F300092E00E94200A14CC2F3F310509F422CCE4
:102F40008FEF92E00E94200A1DCC88E0E4E1F2E0DD
:102F5000ACE0B2E001900D928A95E1F7A4CC8DE04F
:102F600093E00E94200A9FCC88E0E4E1F2E0A4E034
:102F7000B2E001900D928A95E1F7E3CC89E193E00C
:102F80000E94200ADECC1092AF04F5CD81E0809340
:102F9000AF04F1CD88E293E00E94200AECCD81E0FD
:102FA00059CE8091070490910804A0910904B09132
:102FB0000A0480319540A105B10509F0A5C08DEC4A
:102FC00094E00E94CF0C8091D004813009F09CC025
:102FD00084E393E00E94200A6091F5037091F60368
:102FE0008091F7039091F8030E941D0F0E948603C1
:102FF0006093F9037093FA038093FB039093FC03AF
:1030000058CE8091070490910804A0910904B091D2
:103010000A0480329540A105B10509F075C080EC25
:1030200094E00E94CF0C8091C304813009F06CC001
:103030009091C0042091C9043091CA04A901491B90
:10304000510997FD5395CA010E94F9076093D60371
:103050007093D7038093D8039093D9038DE493E0C2
:103060000E94200A6091D6037091D7038091D80303
:103070009091D903B9CF8091070490910804A09151
:103080000904B0910A0480339540A105B105E1F52A
:1030900083EB94E00E94CF0C8091B6048130A1F5BF
:1030A0009091B3042091BC043091BD04F901E91B57
:1030B000F10997FDF395CF010E94F9076093D203C0
:1030C0007093D3038093D4039093D50386E693E063
:1030D0000E94200A6091D2037091D3038091D4039F
:1030E0009091D50381CF8EEE94E00E943608109225
:1030F000CF0371CE86E095E00E9436081092CA0395
:1031000096CE8FE793E0BEC98401B2CDF999FECF88
:1031100092BD81BDF89A992780B50895262FF99917
:10312000FECF1FBA92BD81BD20BD0FB6F894FA9AAA
:10313000F99A0FBE0196089597FB072E16F4009496
:1031400007D077FD09D00E94DA1807FC05D03EF4BD
:10315000909581959F4F0895709561957F4F089543
:10316000A1E21A2EAA1BBB1BFD010DC0AA1FBB1F8B
:10317000EE1FFF1FA217B307E407F50720F0A21BFD
:10318000B30BE40BF50B661F771F881F991F1A946A
:1031900069F760957095809590959B01AC01BD0194
:1031A000CF010895EE0FFF1F881F8BBF0790F69188
:1031B000E02D1994AA1BBB1B51E107C0AA1FBB1F1E
:1031C000A617B70710F0A61BB70B881F991F5A95B3
:1031D000A9F780959095BC01CD0108955058BB2763
:1031E000AA270E9406190C94791A0E946B1A38F0CB
:1031F0000E94721A20F039F49F3F19F426F40C94BF
:10320000681A0EF4E095E7FB0C94621AE92F0E940D
:103210008A1A58F3BA17620773078407950720F0D4
:1032200079F4A6F50C94AC1A0EF4E0950B2EBA2F97
:10323000A02D0B01B90190010C01CA01A0011124BC
:10324000FF27591B99F0593F50F4503E68F11A1668
:10325000F040A22F232F342F4427585FF3CF4695F9
:1032600037952795A795F0405395C9F77EF41F161B
:10327000BA0B620B730B840BBAF09150A1F0FF0FE5
:10328000BB1F661F771F881FC2F70EC0BA0F621FD1
:10329000731F841F48F4879577956795B795F795C1
:1032A0009E3F08F0B0CF9395880F08F09927EE0F56
:1032B0009795879508950E943E1A08F481E0089535
:1032C0000E9474190C94791A0E94721A58F00E9484
:1032D0006B1A40F029F45F3F29F00C94621A5111E7
:1032E0000C94AD1A0C94681A0E948A1A68F39923F8
:1032F000B1F3552391F3951B550BBB27AA276217F2
:103300007307840738F09F5F5F4F220F331F441FFE
:10331000AA1FA9F335D00E2E3AF0E0E832D0915032
:103320005040E695001CCAF72BD0FE2F29D0660F1F
:10333000771F881FBB1F261737074807AB07B0E862
:1033400009F0BB0B802DBF01FF2793585F4F3AF068
:103350009E3F510578F00C94621A0C94AD1A5F3FB1
:10336000E4F3983ED4F3869577956795B795F795EE
:103370009F5FC9F7880F911D9695879597F90895D6
:10338000E1E0660F771F881FBB1F62177307840772
:10339000BA0720F0621B730B840BBA0BEE1F88F781
:1033A000E09508950E94921A88F09F5798F0B92FDF
:1033B0009927B751B0F0E1F0660F771F881F991F6A
:1033C0001AF0BA95C9F714C0B13091F00E94AC1A46
:1033D000B1E008950C94AC1A672F782F8827B85F56
:1033E00039F0B93FCCF3869577956795B395D9F7C2
:1033F0003EF490958095709561957F4F8F4F9F4FCC
:103400000895E89409C097FB3EF4909580957095D7
:1034100061957F4F8F4F9F4F9923A9F0F92F96E920
:10342000BB279395F695879577956795B795F11195
:10343000F8CFFAF4BB0F11F460FF1BC06F5F7F4F32
:103440008F4F9F4F16C0882311F096E911C0772344
:1034500021F09EE8872F762F05C0662371F096E84D
:10346000862F70E060E02AF09A95660F771F881F1C
:10347000DAF7880F9695879597F90895990F0008C0
:10348000550FAA0BE0E8FEEF16161706E807F90736
:10349000C0F012161306E407F50798F0621B730BD1
:1034A000840B950B39F40A2661F0232B242B252B52
:1034B00021F408950A2609F4A140A6958FEF811DF5
:1034C000811D089597F99F6780E870E060E0089596
:1034D0009FEF80EC089500240A941616170618062C
:1034E0000906089500240A94121613061406050608
:1034F0000895092E0394000C11F4882352F0BB0F99
:1035000040F4BF2B11F460FF04C06F5F7F4F8F4FFB
:103510009F4F089557FD9058440F551F59F05F3F36
:1035200071F04795880F97FB991F61F09F3F79F0E5
:1035300087950895121613061406551FF2CF469567
:10354000F1DF08C0161617061806991FF1CF8695E9
:103550007105610508940895E894BB2766277727CD
:10356000CB0197F908950E943E1A08F48FEF089551
:103570000E94CB1A0C94791A0E946B1A38F00E94A0
:10358000721A20F0952311F00C94621A0C94681AA8
:1035900011240C94AD1A0E948A1A70F3959FC1F3FE
:1035A000950F50E0551F629FF001729FBB27F00DF1
:1035B000B11D639FAA27F00DB11DAA1F649F662746
:1035C000B00DA11D661F829F2227B00DA11D621F95
:1035D000739FB00DA11D621F839FA00D611D221F4F
:1035E000749F3327A00D611D231F849F600D211D33
:1035F000822F762F6A2F11249F5750409AF0F1F0B6
:1036000088234AF0EE0FFF1FBB1F661F771F881F1E
:1036100091505040A9F79E3F510580F00C94621ADA
:103620000C94AD1A5F3FE4F3983ED4F386957795FA
:103630006795B795F795E7959F5FC1F7FE2B880FC4
:10364000911D9695879597F908950E943E1A880BCB
:08365000990B0895F894FFCFD7
:1036580078007800000000002042E8030000000025
:103668002042E803000000002042E8032000000098
:103678000000000020000000000000003040501052
:1036880005004020050040300500401006004011AC
:103698000600402006004021060040220600402780
:1036A800002900200022002400260028002A00010A
:1036B8000001000800200040008000000100040113
:1036C800000100080040000001000400000000287C
:1036D800049203BF037504F003CE03E2030D0A004E
:1036E8006E616E00696E66006F7666004954696D9A
:1036F8006572312063616C6C65642C206D696C6C3B
:1037080069732829203D20004954696D657232206B
:1037180063616C6C65642C206D696C6C6973282915
:10372800203D200044657520626F6D004572726F00
:1037380072204C454473004572726F722050574D89
:103748002031004572726F722050574D203200456B
:1037580072726F7220456E636F6465720045727293
:103768006F72203078343033004572726F722030B7
:1037780078343033202B34004572726F72203078E1
:103788003430350054656D706572617475726120EE
:10379800312046696C74726164613A200054656D29
:1037A800706572617475726120322046696C74723A
:1037B8006164613A200054656D7065726174757258
:1037C8006120332046696C74726164613A20004D4F
:1037D80043503235313520496E697469616C697AB4
:1037E8006564205375636365737366756C6C7921C2
:1037F800004572726F7220496E697469616C697AEA
:10380800696E67204D4350323531352E2E2E00001B
:00000001FF
