:100000000C94A8010C94D9010C94D9010C94D90139
:100010000C94D9010C94D9010C94D9010C94D901F8
:100020000C94D9010C94D9010C94D9010C94D901E8
:100030000C94D9010C94FF0F0C94D9010C94D901A4
:100040000C94D9010C94D9010C94D9010C94D901C8
:100050000C94D9010C94D9010C94D9010C94D50DB0
:100060000C94D9010C94490E0C941F0E0C94D901D8
:100070000C94D9010C94D9010C94D9010C94D90198
:100080000C947F0F0C94D9010C94D9010C94D901D4
:100090000C94D9010C94D9010C94D9010C94D90178
:1000A0000C94D9010C94D9010C94FF0E0C94D90135
:1000B0000C94D9010C94D9010C94D9010C947F0EA5
:1000C0000C94D9010C94D9010C94D9010C94D90148
:1000D0000C94D9010C94D9010C94D9010C94D90138
:1000E0000C94D9010C94ED030C942D050C949F02F3
:1000F0000C940B040C9401040C9483030C94E704FB
:100100000C94AE030C9480020C94B2020C94D304B1
:100110000C9484020C9478020C94B7020C9488041A
:100120000C94A5020C947A050C9492030C947C0216
:100130000C949C030C94A9020C948D020C948702DD
:100140000C94B6030C94F3100C947B030C949B0258
:100150000C94A6030C94F5040C94C4040C9497021C
:100160000C9497040C9472020C9493040C94AD02BA
:100170000C947D040C9415040C9495040C94D403F5
:100180000C9491020C94C0030C9488030C94B30259
:100190000C94F7030C94E3030C94CA035265747532
:1001A000726E696E6720746F2050726576696F7524
:1001B00073204D6F6465204661696C7572652E2EE3
:1001C0002E0053657474696E6720426175647261B4
:1001D0007465205375636365737366756C210045A0
:1001E0006E746572696E6720436F6E6669677572BB
:1001F0006174696F6E204D6F64652053756363652C
:10020000737366756C2100456E746572696E672044
:10021000436F6E66696775726174696F6E204D6FAA
:100220006465204661696C7572652E2E2E00000093
:100230002100240027002A002D0030003300010196
:100240000000040107010A01000022002500280027
:100250002B002E00310034000201000005010801CE
:100260000B01000020002300260029002C002F0095
:100270003200000100000301060109010505050522
:10028000070508080808020202020A0A080804040E
:10029000040401010101010101010303030303033C
:1002A0000303040707070C0C0C0C0C0C0C0C0202CB
:1002B000020206060606060606060B0B0B0B0B0BC8
:1002C0000B0B010210202008081020401020408055
:1002D000020102010804020101020408102040800A
:1002E0008040201008040201800402018040201098
:1002F00008040201080402010102040810204080E1
:10030000010204081020408000000A0B02090C0DB5
:100310000E080703040100000000000000000000B8
:1003200000000000000000000000000000000000CD
:10033000000000001211100000000000000000008A
:100340000000000000000000000000000000F310AA
:1003500011241FBECFEFD1E2DEBFCDBF00E00CBF46
:1003600017E0A0E0B2E0E0E6FEE300E00BBF02C071
:1003700007900D92A437B107D9F729E0A4E7B7E0B9
:1003800001C01D92A232B207E1F711E0C8EAD1E044
:1003900000E006C021970109802FFE010E94D61CB3
:1003A000C73AD10780E00807A9F70E94C5110C944D
:1003B0002E1F0C940000FC01A8E3B2E08C91805841
:1003C000808311964C911197842F837081831296AC
:1003D0002C91129730E0C90156E0880F991F5A9569
:1003E000E1F7807C9F7050E055954795559547956E
:1003F000842B952B98509683858376E035952795A9
:100400007A95E1F7228314964C91149750E0942F3B
:10041000882788279F7013962C911397822B9850CA
:1004200090878783CA0124E0959587952A95E1F7FF
:100430008370838316962C91169730E015969C91C5
:10044000159764E0969FC001112466E05595479585
:100450006A95E1F7842B952BA901542F4427550F5A
:10046000550F44275C70842B952B98509287818779
:10047000C90195958795959587958370848317967F
:100480009C9140E1949FC001112454E0359527953B
:100490005A95E1F7822B932B985094878387CF014D
:1004A00008958CBD9DBD08958150823108F05AC0D9
:1004B000E82FF0E08827E05AFD4F8F4F0C94D61CB0
:1004C00080028402720278027C02B20287028D02EC
:1004D000910297029B029F02A502A902B202AD02FD
:1004E000B302B702809180008F77809380000895D7
:1004F000809180008F7DF9CF80918000877FF5CF3C
:1005000084B58F7784BD089584B58F7DFBCF8091AE
:10051000B0008F778093B00008958091B0008F7DF8
:10052000F9CF809190008F7780939000089580910B
:1005300090008F7DF9CF80919000877FF5CF8091DB
:10054000A0008F778093A00008958091A0008F7DF8
:10055000F9CF8091A000877FF5CF809120018F7720
:10056000809320010895809120018F7DF9CF8091A3
:100570002001877FF5CFCF93DF93282F30E0F9015B
:10058000E85FFC4F8491F901EE53FD4FD491F901DE
:10059000E458FD4FC491CC23A1F081110E94540274
:1005A000EC2FF0E0EE0FFF1FEE59FD4FA591B49137
:1005B000EC91ED2381E090E009F480E0DF91CF91B0
:1005C000089580E090E0FACF1F93CF93DF93282F18
:1005D00030E0F901E85FFC4F8491F901EE53FD4FE3
:1005E000D491F901E458FD4FC491CC23A9F0162F02
:1005F00081110E945402EC2FF0E0EE0FFF1FE85B28
:10060000FD4FA591B4918FB7F894EC91111108C0EA
:10061000D095DE23DC938FBFDF91CF911F9108959A
:10062000DE2BF8CFCF93DF9390E0FC01EE53FD4F2C
:10063000249184589D4FFC0184918823D1F090E04F
:10064000880F991FFC01E25DFD4FA591B491FC015B
:10065000E85BFD4FC591D49161110EC09FB7F8942E
:100660008C91E22FE0958E238C932881E223E883FE
:100670009FBFDF91CF9108958FB7F894EC91E22B53
:10068000EC938FBFF6CF1F93CF93DF93182FEB011F
:1006900061E00E941203209739F460E0812FDF911E
:1006A000CF911F910C94E402CF3FD10511F461E08A
:1006B000F5CFE12FF0E0E85FFC4FE491E150E2314B
:1006C00008F0B3C0F0E08827E759FC4F8F4F0C9437
:1006D000D61C7B038303880392039C031504A603A3
:1006E000AE03B603C003CA03D403E303ED0315044A
:1006F000F70301040B0484B5806884BDC7BDDF9196
:10070000CF911F91089584B5806284BDC8BDF7CF95
:1007100080918000806880938000D0938900C0938E
:100720008800EDCF80918000806280938000D0931C
:100730008B00C0938A00E3CF809180008860809313
:100740008000D0938D00C0938C00D9CF8091B000F1
:1007500080688093B000C093B300D1CF8091B00087
:1007600080628093B000C093B400C9CF80919000A4
:10077000806880939000D0939900C0939800BFCF79
:1007800080919000806280939000D0939B00C093F2
:100790009A00B5CF80919000886080939000D093AC
:1007A0009D00C0939C00ABCF8091A0008068809397
:1007B000A0008091A0008F7B8093A000D093A9001F
:1007C000C093A8009CCF8091A00080628093A0007D
:1007D000D093AB00C093AA0092CF8091A000886014
:1007E0008093A000D093AD00C093AC0088CF8091DF
:1007F0002001806880932001D0932901C0932801B3
:100800007ECF80912001806280932001D0932B01C4
:10081000C0932A0174CF80912001886080932001C9
:10082000D0932D01C0932C016ACFC038D1050CF0B4
:100830003ECF33CF3FB7F8948091CF079091D00748
:10084000A091D107B091D20726B5A89B05C02F3F34
:1008500019F00196A11DB11D3FBFBA2FA92F982FE6
:100860008827BC01CD01620F711D811D911D42E0E1
:10087000660F771F881F991F4A95D1F708958F92A9
:100880009F92AF92BF92CF92DF92EF92FF924B0175
:100890005C010E941A046B017C010E941A046C190D
:1008A0007D098E099F09683E734081059105A8F373
:1008B00021E0821A9108A108B10888EEC80E83E0F1
:1008C000D81EE11CF11C81149104A104B10429F784
:1008D000FF90EF90DF90CF90BF90AF909F908F9060
:1008E00008952FB7F8946091CB077091CC07809151
:1008F000CD079091CE072FBF08950E947104609399
:10090000740770937507809376079093770708951F
:100910000E947104609390077093910780939207EF
:100920009093930708950C9488040C948804AF92D4
:10093000BF92CF92DF92EF92FF920F931F93CF93CC
:10094000DF936C017B018B01040F151FEB015E012E
:10095000AE18BF08C017D10759F06991D601ED91C3
:10096000FC910190F081E02DC6011995892B79F752
:10097000C501DF91CF911F910F91FF90EF90DF9014
:10098000CF90BF90AF900895FC01538D448D252FDB
:1009900030E0842F90E0821B930B541710F0CF9619
:1009A000089501970895FC01918D828D981761F04B
:1009B000A28DAE0FBF2FB11D5D968C91928D9F5F62
:1009C0009F73928F90E008958FEF9FEF0895FC0141
:1009D000918D828D981731F0828DE80FF11D858DF4
:1009E00090E008958FEF9FEF0895FC01918D228D87
:1009F000892F90E0805C9F4F821B91098F7399270C
:100A0000089583ED97E00E94F50421E0892B09F415
:100A100020E0822F0895FC01A48DA80FB92FB11DED
:100A2000A35ABF4F2C91848D90E001968F73992724
:100A3000848FA689B7892C93A089B1898C91837002
:100A400080648C93938D848D981306C00288F389FB
:100A5000E02D80818F7D80830895EF92FF920F9328
:100A60001F93CF93DF93EC0181E0888F9B8D8C8D5A
:100A700098131AC0E889F989808185FF15C09FB74E
:100A8000F894EE89FF896083E889F9898081837011
:100A9000806480839FBF81E090E0DF91CF911F91C0
:100AA0000F91FF90EF900895F62E0B8D10E00F5FE1
:100AB0001F4F0F731127E02E8C8D8E110CC00FB6B7
:100AC00007FCFACFE889F989808185FFF5CFCE014F
:100AD0000E940B05F1CFEB8DEC0FFD2FF11DE35ABA
:100AE000FF4FF0829FB7F8940B8FEA89FB898081D2
:100AF0008062CFCFCF93DF93EC01888D8823B9F04C
:100B0000AA89BB89E889F9898C9185FD03C0808118
:100B100086FD0DC00FB607FCF7CF8C9185FFF2CF95
:100B2000808185FFEDCFCE010E940B05E9CFDF91DB
:100B3000CF91089580E090E0892B29F00E94010573
:100B400081110E94000080E090E0892B49F080E054
:100B500090E0892B29F00E94000081110E94000082
:100B600080E090E0892B49F080E090E0892B29F02B
:100B70000E94000081110E94000080E090E0892B1B
:100B800049F080E090E0892B29F00E94000081115B
:100B90000C940000089508958EBD00000DB407FE6A
:100BA000FDCF8EB50895FF920F931F93CF93DF93E0
:100BB000F82E062F142F80E591E00E945102CEEA14
:100BC000D8E060E08A890E94E40285E00E94CC05BA
:100BD0008F2D0E94CC05802F0E94CC05812F0E9472
:100BE000CC0561E08A89DF91CF911F910F91FF9031
:100BF0000C94E402FF920F931F93CF93DF93C82FBF
:100C0000F62E172F042F80E591E00E94510260E03C
:100C10008091C0080E94E40283E00E94CC058C2FE2
:100C20000E94CC05CF2DD12F0C0F1D2F111DC017E9
:100C3000D10729F080E00E94CC058993F8CF61E0CC
:100C40008091C008DF91CF911F910F91FF900C947C
:100C5000E4021F93CF93DF93182F80E591E00E9469
:100C60005102CEEAD8E060E08A890E94E40283E083
:100C70000E94CC05812F0E94CC0580E00E94CC050B
:100C8000182F61E08A890E94E402812FDF91CF91C1
:100C90001F9108950F931F93CF93DF9300D01F925E
:100CA000CDB7DEB7182F1092AE081092AF08109291
:100CB000B0081092B1081092B20844E0BE016F5F14
:100CC0007F4F0E94FA052A81898138E0839FC00105
:100CD0001124422F50E065E0559547956A95E1F75C
:100CE000840F951F092E000CAA0BBB0B8093AF0835
:100CF0009093B008A093B108B093B20823FF29C025
:100D000032E0880F991FAA1FBB1F3A95D1F72370B5
:100D1000820F911DA11DB11DBA2FA92F982F8827D1
:100D20002B81820F911DA11DB11DBA2FA92F982FC4
:100D300088272C81820F911DA11DB11D8093AF08C2
:100D40009093B008A093B108B093B20881E080936B
:100D5000AE088FEF810F0E942906082F84E0810FD3
:100D60000E94290603FF16C091E09093BC08482F0B
:100D70004F704093B30864EB78E085E0810F0E94E8
:100D8000FA050F900F900F900F90DF91CF911F9168
:100D90000F9108951092BC08EACFCF93DF93C82F2C
:100DA0000E947104D62F4C2F60EE8FE00E94D30575
:100DB0008EE00E942906807EC81749F00E947104C7
:100DC0006D1B693C80F381E0DF91CF91089580E055
:100DD000FBCFCF93DF93C82F8EE00E942906807E41
:100DE0008032F9F4C032E9F08BE20E942906D82F54
:100DF000D07486FD05C040E460E48BE20E94D30518
:100E000040E460E48CE20E94D30580E60E94CD06B7
:100E1000811111C0D11105C040E060E48BE20E9455
:100E2000D30540E060E48CE20E94D3058C2FDF9173
:100E3000CF910C94CD0681E0DF91CF9108951F935F
:100E4000CF93DF9380E591E00E945102CEEAD8E093
:100E500060E08A890E94E40280EA0E94CC0580E07A
:100E60000E94CC05182F61E08A890E94E402812F3C
:100E7000DF91CF911F910895EF92FF920F931F93EF
:100E8000CF93DF937C018B01EA010E941F0780FF53
:100E900052C081E60E944A0640E061E08CE20E9476
:100EA000D3058091AE08882389F08091AF08909196
:100EB000B008A091B108B091B208B0688093AF08B3
:100EC0009093B008A093B108B093B2088091BC0889
:100ED000882389F08091AF089091B008A091B10863
:100EE000B091B208B0648093AF089093B008A0931B
:100EF000B108B093B2088091AF089091B008A0916A
:100F0000B108B091B208F70180839183A283B383C3
:100F10008091B308F8018083A4EBB8E0FE01209132
:100F2000B308CF018C1B9D0B28171906A1F09CF06C
:100F30008D918193F4CF81FF06C081E70E944A061C
:100F400040E062E0ABCF84E0DF91CF911F910F9141
:100F5000FF90EF90089580E0F7CF0F931F93CF930A
:100F6000DF93082F162F80E591E00E945102CEEA10
:100F7000D8E060E08A890E94E40282E00E94CC0509
:100F8000802F0E94CC05812F0E94CC0561E08A89C8
:100F9000DF91CF911F910F910C94E402FF920F9378
:100FA0001F93CF93DF93C82FF62E172F042F80E5C2
:100FB00091E00E94510260E08091C0080E94E4022A
:100FC00082E00E94CC058C2F0E94CC05CF2DD12F22
:100FD0000C0F1D2F111DC017D10721F089910E9400
:100FE000CC05F9CF61E08091C008DF91CF911F91CE
:100FF0000F91FF900C94E402CF93DF9300D01F92E7
:10100000CDB7DEB71C821B82613081F498E09A83F1
:10101000198244E0BE016F5F7F4F0E94CE070F90A0
:101020000F900F900F90DF91CF9108951A82F0CF1B
:101030002F923F924F925F926F927F928F929F92E8
:10104000AF92CF92DF92EF92FF920F931F93CF93C5
:10105000DF9300D01F92CDB7DEB76093AF087093D7
:10106000B0088093B1089093B20896FB552750F9C9
:101070005093BC08662797FD6395772788279927A3
:101080006093AE084093B308F901A4EBB8E0C9013E
:10109000089621912D93E817F907D9F70E941A04B1
:1010A0002B013C018090400290904102A0904202AE
:1010B0001E0124E0220E311C89829A82AB82CE016D
:1010C00001966C01F82E0D2DF60111916F01812F03
:1010D0000E94290683FD14C01F5FE12C0E941A04A0
:1010E000DC01CB0184199509A609B709F2E0EF12DA
:1010F0000EC0843C9940A105B105F0F206E07DC028
:101100002C143D0409F710E072E0E72EE7CF843C91
:101110009940A105B10590F74091B30864EB78E0E0
:1011200085E0810F0E94CE078091BC08813029F4B0
:101130008091B30880648093B3086091B30884E021
:10114000810F0E94AD074091AF085091B0086091A7
:10115000B1087091B2088091AE088130D9F54C8306
:101160005B83AB0166277727842F83708860942F79
:10117000990F990F990F907E892B8A8365E0569578
:1011800047956A95E1F7498344E06F2D702F812FD1
:101190000E94CE07115048E068E0812F0E94D305DD
:1011A0000E941A046B017C01812F0E942906082FDE
:1011B00008700E941A04DC01CB018C199D09AE094C
:1011C000BF090023A9F0843C9940A105B10560F353
:1011D00007E013C0CA0123E0969587952A95E1F7A9
:1011E00089834295440F407E4A831C821B82CCCF68
:1011F000843C9940A105B10558F7802F0F900F90BE
:101200000F900F90DF91CF911F910F91FF90EF9072
:10121000DF90CF90AF909F908F907F906F905F9076
:101220004F903F902F900895F894FC018181833076
:10123000E9F034F4813071F0823091F078940895BF
:101240008430D1F08530D1F7809173008D7F809309
:101250007300F4CF80916F008D7F80936F00EECF8D
:10126000809170008D7F80937000E8CF8091710035
:101270008D7F80937100E2CF809172008D7F80938B
:101280007200DCCFFC019181F8949330C9F13CF4F9
:101290009130C1F0923029F191837894089594307F
:1012A000F1F19530C9F7109220011092210120919F
:1012B00021012860209321012091210121602093A8
:1012C0002101EACF1092800010928100809181006C
:1012D000886080938100809181008160809381008B
:1012E000DBCF1092B0001092B1008091B00082600C
:1012F0008093B0002091B10021602093B100CCCF49
:1013000010929000109291002091910028602093FB
:10131000910020919100216020939100BDCF109207
:10132000A0001092A1002091A10028602093A100AC
:101330002091A10021602093A100AECFFC01408547
:101340005185628573858181833009F470C084F48E
:10135000813089F1823009F44CC080859185A28565
:10136000B385892B8A2B8B2B11F481E08083089520
:10137000843009F47AC0853081F7DB01CA01411558
:10138000510521E06207710520F08FEF9FEFA0E08B
:10139000B0E09093290180932801481B590B6A0BF8
:1013A0007B0B4087518762877387809173008260CF
:1013B00080937300D2CFDB01CA014115510521E0B2
:1013C0006207710520F08FEF9FEFA0E0B0E09093EF
:1013D000890080938800481B590B6A0B7B0B408760
:1013E00051876287738780916F00826080936F005E
:1013F000B4CF4F3F51056105710529F020F04FEF43
:1014000050E060E070E04093B30080859185A28554
:10141000B385841B950BA60BB70B80879187A2879A
:10142000B3878091700082608093700096CFDB015B
:10143000CA014115510521E06207710520F08FEFC7
:101440009FEFA0E0B0E09093990080939800481B34
:10145000590B6A0B7B0B408751876287738780919A
:10146000710082608093710078CFDB01CA01411561
:10147000510521E06207710520F08FEF9FEFA0E09A
:10148000B0E09093A9008093A800481B590B6A0B09
:101490007B0B4087518762877387809172008260DF
:1014A000809372005ACF4F925F926F927F928F9289
:1014B0009F92AF92BF92CF92DF92EF92FF920F93E3
:1014C0001F93CF93DF93EC01198111160CF03AC1F1
:1014D0004901CB01BA010E94051E9B01AC0160E0ED
:1014E00070E08AE794E40E94641D6B017C012EEA9F
:1014F00037E346E856E40E94BC1E2B013C0120E085
:1015000030E040E85FE30E945F1D87FD1BC18FEF65
:101510009FEFDC018C879D87AE87BF8720E030E09E
:1015200040E852E4C301B201123009F487C00E94BE
:10153000B71E01E010E0181674F020E030E040E043
:1015400051E4C301B2010E94B71E03E010E0181677
:1015500014F402E010E0C801880F991F9C012D5976
:101560003D4F5901F501619171915F0190E080E07B
:101570000E94051EA70196010E94BC1E9B01AC01A2
:1015800060E074E284E79BE40E94641D20E030E0A8
:1015900040E85FE30E94F21C0E94D61D6115F0EC4A
:1015A0007F07FFEF8F07FFE39F07A8F56C837D831D
:1015B0008E839F83688779878A879B871B830A83AB
:1015C000F894C88AD98AEA8AFB8A9D8A8C8A1F8AFB
:1015D0001E8A18828981823009F08BC08091B10007
:1015E000887F9A81892B8093B100CE010E949E0949
:1015F000789481E0DF91CF911F910F91FF90EF9050
:10160000DF90CF90BF90AF909F908F907F906F9022
:101610005F904F9008950F5F1F4F0630110509F03E
:10162000A1CF6C837D838E839F83688779878A8728
:101630009B8785E090E09B838A83C2CF0E94B71E80
:1016400001E010E01816D4F020E030E040E051E472
:10165000C301B2010E94B71E02E010E0181674F038
:1016600020E030E040E050E4C301B2010E94B71E28
:1016700004E010E0181614F403E010E0C801880F2D
:10168000991F9C012D5A3D4F5901F50161917191AE
:101690005F0190E080E00E94051EA70196010E9474
:1016A000BC1E9B01AC0160E074E284E79BE40E94F5
:1016B000641D20E030E040E85FE30E94F21C0E94DD
:1016C000D61D6115F0EC7F07FFE38F07910508F445
:1016D0006DCF0F5F1F4F08301105B9F66C837D8306
:1016E0008E839F83688779878A879B8787E090E0CE
:1016F000A2CF813041F480918100887F9A81892B2B
:101700008093810072CF833041F480919100887F73
:101710009A81892B8093910068CF843041F4809125
:10172000A100887F9A81892B8093A1005ECF8530AC
:1017300009F05BCF80912101887F9A81892B80936A
:10174000210153CF80E056CFCF93DF93EC01F89483
:101750008C819D81AE81BF8188879987AA87BB874D
:10176000CE010E949E0918827894DF91CF9108954E
:10177000CF93DF93EC01F894298188859985AA8518
:10178000BB852230A9F18F3F9F4FA105B10518F409
:10179000CE010E949E0988859985AA85BB85AC01EA
:1017A000BD01009721E0A207B10520F04FEF5FEFE8
:1017B00060E070E0841B950BA60BB70B88879987B8
:1017C000AA87BB8788859985AA85BB85892B8A2BA3
:1017D0008B2B39F58C819D81AE81BF81888799875C
:1017E000AA87BB8781E088837894DF91CF910895A1
:1017F0008F3F9105A105B10518F4CE010E949E0905
:1018000088859985AA85BB85AC01BD018F3F91056F
:10181000A105B10579F270F24FEF50E060E070E0A1
:10182000C9CF1882E1CFFC0101900020E9F7319780
:10183000AF01481B590BBC0183ED97E00C94970452
:101840008F929F92AF92BF920F931F93CF93DF938C
:10185000CDB7DEB7A1970FB6F894DEBF0FBECDBFF0
:1018600019A2423008F44AE08E010F5D1F4F842E0A
:10187000912CB12CA12CA50194010E94B41CE62F3F
:10188000B901CA01EA30F4F4E05DD801EE938D01AC
:10189000232B242B252B79F790E080E0109719F06B
:1018A000CD010E94130CA1960FB6F894DEBF0FBEB7
:1018B000CDBFDF91CF911F910F91BF90AF909F90BF
:1018C0008F900895E95CE1CFCF93DF930E94130CD2
:1018D000EC0181E892E00E94130C8C0F9D1FDF91B8
:1018E000CF9108950F931F93CF93DF938C01D0E096
:1018F000C0E0F801EC0FFD1F6491662341F083ED19
:1019000097E00E942D05892B11F02196F2CF81E8F6
:1019100092E00E94130C8C0F9D1FDF91CF911F91BD
:101920000F9108950C94130C4F925F926F927F92D7
:101930008F929F92AF92BF92CF92DF92EF92FF92DF
:101940001F93CF93DF936B017C01142FAC019B019C
:101950000E94291F882399F084E892E0DF91CF91BB
:101960001F91FF90EF90DF90CF90BF90AF909F902E
:101970008F907F906F905F904F900C94130C460166
:101980005701E894B7F82FEF3FEF4FE75FE7C50146
:10199000B4010E94291F81110DC02FEF3FEF4FE7C7
:1019A0005FE7C501B4010E945F1D18161CF488E8AA
:1019B00092E0D4CF2FEF3FEF4FE75FE4C701B601CE
:1019C0000E94B71E18161CF48CE892E0C7CF2FEFC8
:1019D0003FEF4FE75FECC701B6010E945F1D87FD37
:1019E000F3CF20E030E0A901C701B6010E945F1DDE
:1019F000D0E0C0E087FF0AC06DE283ED97E00E946F
:101A00002D05EC01F7FAF094F7F8F09420E060E08F
:101A100070E080E09FE3211740F420E030E040E2F6
:101A200051E40E94641D21E0F6CFA70196010E94B7
:101A3000F31C2B013C010E94D61D4B015C014AE0C6
:101A40000E94200CC80FD91F112309F16EE283ED0B
:101A500097E00E942D056C01C501B4010E94051E8E
:101A60009B01AC01C301B2010E94F21C20E030E0F6
:101A700040E251E40E94BC1E0E94D61D90E080E02E
:101A80004AE00E94200C8C0D9D1DC80FD91FCE016D
:101A9000DF91CF911F91FF90EF90DF90CF90BF909B
:101AA000AF909F908F907F906F905F904F90089530
:101AB000CF92DF92EF92FF92CF93DF936C01990F59
:101AC000EE08FF08F7FE19C06DE283ED97E00E9473
:101AD0002D05EC0166277727CB016C197D098E094E
:101AE0009F094AE00E94200C8C0F9D1FDF91CF912F
:101AF000FF90EF90DF90CF9008954AE0C701B601C4
:101B0000DF91CF91FF90EF90DF90CF900C94200C5D
:101B10000F931F93CF93DF931F921F92CDB7DEB722
:101B20008C010E948A1C8983C80101960E948A1C2C
:101B30008A8389819A810F900F90DF91CF911F91B5
:101B40000F910895CF92DF92EF92FF920F931F9320
:101B5000CF93DF9300D01F92CDB7DEB76E0125E0A3
:101B6000C20ED11C8E010F5F1F4F7C01E01AF10ADB
:101B7000C016D10649F0C701800F911F0E948A1C30
:101B8000F80181938F01F4CF69817A818B819C81E7
:101B90000F900F900F900F90DF91CF911F910F91A9
:101BA000FF90EF90DF90CF9008951F920F920FB6A5
:101BB0000F9211242F933F938F939F93AF93BF93D3
:101BC0008091CB079091CC07A091CD07B091CE0723
:101BD0003091CA0723E0230F2D3758F50196A11D38
:101BE000B11D2093CA078093CB079093CC07A09395
:101BF000CD07B093CE078091CF079091D007A091E9
:101C0000D107B091D2070196A11DB11D8093CF07D6
:101C10009093D007A093D107B093D207BF91AF9113
:101C20009F918F913F912F910F900FBE0F901F901A
:101C3000189526E8230F0296A11DB11DD2CF1F9241
:101C40000F920FB60F9211240BB60F922F933F9362
:101C50004F935F936F937F938F939F93AF93BF93B4
:101C6000EF93FF9383ED97E00E940B05FF91EF91B7
:101C7000BF91AF919F918F917F916F915F914F91A4
:101C80003F912F910F900BBE0F900FBE0F901F90A2
:101C900018951F920F920FB60F9211240BB60F9248
:101CA0002F938F939F93EF93FF93E091E307F0912E
:101CB000E4078081E091E907F091EA0782FD1DC009
:101CC00090818091EC078F5F8F732091ED078217D1
:101CD00041F0E091EC07F0E0ED52F84F958F8093E2
:101CE000EC07FF91EF919F918F912F910F900BBE79
:101CF0000F900FBE0F901F9018958081F2CF1F920A
:101D00000F920FB60F9211240BB60F92CF92DF9263
:101D1000EF92FF922F933F934F935F936F937F9335
:101D20008F939F93AF93BF93EF93FF93C090CE0891
:101D3000D090CF08E090D008F090D1088091C308EF
:101D40008530D1F5C114D104E104F10409F452C085
:101D50008091C208882309F448C0E091D608F09128
:101D6000D708309739F08091D8089091D90800971A
:101D7000D1F119958091C6089091C708A091C80823
:101D8000B091C9080097A140B10524F082EC98E019
:101D90000E94A40B1C141D041E041F046CF481E09B
:101DA000C81AD108E108F108C092CE08D092CF0835
:101DB000E092D008F092D108FF91EF91BF91AF91DE
:101DC0009F918F917F916F915F914F913F912F9153
:101DD000FF90EF90DF90CF900F900BBE0F900FBE53
:101DE0000F901F9018951995C5CF82EC98E00E942E
:101DF000B80BE2CF82EC98E00E941409DDCF1F926D
:101E00000F920FB60F9211240BB60F92CF92DF9262
:101E1000EF92FF922F933F934F935F936F937F9334
:101E20008F939F93AF93BF93EF93FF93C090E60878
:101E3000D090E708E090E808F090E9088091DB088E
:101E40008430D1F5C114D104E104F10409F452C085
:101E50008091DA08882309F448C0E091EE08F091F7
:101E6000EF08309739F08091F0089091F1080097D1
:101E7000D1F119958091DE089091DF08A091E008DA
:101E8000B091E1080097A140B10524F08AED98E0F7
:101E90000E94A40B1C141D041E041F046CF481E09A
:101EA000C81AD108E108F108C092E608D092E70804
:101EB000E092E808F092E908FF91EF91BF91AF91AD
:101EC0009F918F917F916F915F914F913F912F9152
:101ED000FF90EF90DF90CF900F900BBE0F900FBE52
:101EE0000F901F9018951995C5CF8AED98E00E9424
:101EF000B80BE2CF8AED98E00E941409DDCF1F9263
:101F00000F920FB60F9211240BB60F92CF92DF9261
:101F1000EF92FF922F933F934F935F936F937F9333
:101F20008F939F93AF93BF93EF93FF93C090FE085F
:101F3000D090FF08E0900009F09001098091F3082B
:101F40008330D1F5C114D104E104F10409F452C085
:101F50008091F208882309F448C0E0910609F091C5
:101F60000709309739F08091080990910909009785
:101F7000D1F119958091F6089091F708A091F80891
:101F8000B091F9080097A140B10524F082EF98E0E4
:101F90000E94A40B1C141D041E041F046CF481E099
:101FA000C81AD108E108F108C092FE08D092FF08D3
:101FB000E0920009F0920109FF91EF91BF91AF917A
:101FC0009F918F917F916F915F914F913F912F9151
:101FD000FF90EF90DF90CF900F900BBE0F900FBE51
:101FE0000F901F9018951995C5CF82EF98E00E9429
:101FF000B80BE2CF82EF98E00E941409DDCF1F9268
:102000000F920FB60F9211240BB60F92CF92DF9260
:10201000EF92FF922F933F934F935F936F937F9332
:102020008F939F93AF93BF93EF93FF93C090160945
:10203000D0901709E0901809F090190980910B09C8
:102040008230E1F5C114D104E104F10409F454C073
:1020500080910A09882309F44AC0E0911E09F09191
:102060001F09309739F0809120099091210900973C
:10207000E1F1199580910E0990910F09A091100935
:10208000B09111098F3F9105A105B10529F024F008
:102090008AE099E00E94A40B1C141D041E041F0476
:1020A0006CF481E0C81AD108E108F108C092160961
:1020B000D0921709E0921809F0921909FF91EF9157
:1020C000BF91AF919F918F917F916F915F914F9150
:1020D0003F912F91FF90EF90DF90CF900F900BBE2C
:1020E0000F900FBE0F901F9018951995C3CF8AE0DF
:1020F00099E00E94B80BE2CF8AE099E00E941409AF
:10210000DDCFFF920F931F93CF93DF93EC01F62E59
:1021100008811981C8010E948A1CF81621F06F2DD0
:10212000C8010E94921CCE01DF91CF911F910F91A7
:10213000FF900895FF920F931F93CF93DF931F9209
:102140001F92CDB7DEB78C01F72E9A838983CE011B
:1021500001960E9481100F5F1F4F1A8309836F2D14
:10216000CE0101960E9481100F900F90DF91CF91C8
:102170001F910F91FF900895CF92DF92EF92FF92FF
:102180000F931F93CF93DF9300D000D0CDB7DEB76E
:102190006C014B835C836D837E837E0183E0E80E5C
:1021A000F11C10E000E0F70161917F01C8018C0D86
:1021B0009D1D9A838983CE0101960E9481100F5F35
:1021C0001F4F0430110579F726960FB6F894DEBF3D
:1021D0000FBECDBFDF91CF911F910F91FF90EF9078
:1021E000DF90CF900895CF93DF93E3EDF7E0138274
:1021F000128288EE93E0A0E0B0E084839583A6830A
:10220000B78383E792E09183808385EC90E09587A4
:10221000848784EC90E09787868780EC90E0918BB0
:10222000808B81EC90E0938B828B82EC90E0958B9D
:10223000848B86EC90E0978B868B118E128E138E9A
:10224000148EEAE0F9E082E08183108A118A128A12
:10225000138A158A148A178A168A108221E030E0C0
:102260003383228314821582168217821086118688
:10227000128613868FEF9FEFDC0184879587A687F0
:10228000B787E2EFF8E043E04183108A118A128AAF
:10229000138A158A148A178A168A10823383228336
:1022A0001482158216821782108611861286138672
:1022B00084879587A687B787EAEDF8E044E04183F5
:1022C000108A118A128A138A158A148A178A168A22
:1022D000108233832283148215821682178210861D
:1022E00011861286138684879587A687B787E2ECC6
:1022F000F8E045E04183108A118A128A138A158A10
:10230000148A178A168A10823383228314821582D4
:102310001682178210861186128613868487958707
:10232000A687B787CEEAD8E081E28A8B61E00E9477
:10233000E40261E08A890E94120380E798E0998BA9
:10234000888BEDE9F8E089E1808314821486138696
:10235000E0E9F8E08083148214861386E3E8F8E06D
:102360008083148214861386E6E7F8E08083148263
:1023700014861386E1E7F8E01182128288EE93E07A
:1023800094838383DF91CF910895CF93DF93CDB76B
:10239000DEB72D970FB6F894DEBF0FBECDBF789491
:1023A00084B5826084BD84B5816084BD85B582605A
:1023B00085BD85B5816085BD80916E00816080930B
:1023C0006E00109281008091810082608093810074
:1023D0008091810081608093810080918000816084
:1023E000809380008091B10084608093B1008091DF
:1023F000B00081608093B0008091910082608093F2
:102400009100809191008160809391008091900073
:102410008160809390008091A10082608093A100F0
:102420008091A10081608093A1008091A0008160D3
:102430008093A0008091210182608093210180918E
:10244000210181608093210180912001816080932E
:10245000200180917A00846080937A0080917A00D4
:10246000826080937A0080917A00816080937A0004
:1024700080917A00806880937A001092C10061E0B8
:102480008DE00E94120361E087E20E94120361E086
:1024900089E20E94120361E080E20E94120361E07F
:1024A00082E20E94120361E084E20E94120361E072
:1024B00086E20E94120361E088E20E94120361E05A
:1024C0008AE20E94120361E087E20E94E40261E076
:1024D00089E20E94E40261E080E20E94E40261E09D
:1024E00082E20E94E40261E084E20E94E40261E090
:1024F00086E20E94E40261E088E20E94E40261E078
:102500008AE20E94E40260E083E00E94120361E03C
:102510008CE20E94120361E08EE20E94120361E0ED
:1025200088E00E94120361E086E00E94120361E0ED
:1025300085E20E94120361E080E10E94120361E0E3
:1025400080E10E94120361E081E10E94120361E0D8
:1025500080E10E94E40261E081E10E94E402E091F6
:10256000E307F091E40782E08083E091DF07F091D8
:10257000E0071082E091E107F091E20780E18083BB
:102580001092EB07E091E707F091E80786E080837F
:10259000E091E507F091E607808180618083E0911A
:1025A000E507F091E607808188608083E091E50788
:1025B000F091E607808180688083E091E507F091E3
:1025C000E60780818F7D80830FB6F894A89580916F
:1025D0006000886180936000109260000FBE8AE006
:1025E00099E00E94420982EF98E00E94420982EC41
:1025F00098E00E9442098AED98E00E9442091FB7C4
:10260000F89480917807811127C0E1EBF2E0849182
:10261000E7EFF2E09491E82FF0E0EE0FFF1FE25DAC
:10262000FD4FA591B491EC91E92321F461E085E39C
:102630000E94E40261E085E30E9412038CB5806190
:102640008CBD8CB580648CBD61E084E30E94120374
:1026500061E083E30E941203809178078F5F80938B
:1026600078071FBF80E591E00E94510260E08091F1
:10267000C0080E94E40280EC0E94CC0561E08091D9
:10268000C0080E94E40265E070E080E090E00E94F3
:102690003F0480E48093C10880E80E94E906882313
:1026A00009F432C187E092E00E94720C86E597E05F
:1026B0000E94640C1092C10880E00E94E90604E6C2
:1026C00010E00E941F07837069F0AE014F5F5F4FFB
:1026D000BE01635F7F4FCE0109960E943C07015007
:1026E000110979F781EA92E00E94640C90E080E0A1
:1026F0000E94A20D60932202709323028093240211
:102700009093250288E090E00E94880D9093270224
:10271000809326028CE090E00E948A1C8093210224
:1027200084E090E00E94A20D60931A0270931B0255
:1027300080931C0290931D028AE090E00E94880D15
:1027400090931F0280931E028DE090E00E948A1CED
:10275000809319028EE090E00E94A20D6093120215
:1027600070931302809314029093150282E190E01B
:102770000E94880D909317028093160284E190E0E6
:102780000E948A1C8093110285E190E00E94A20DB4
:1027900060930A0270930B0280930C0290930D02D7
:1027A00089E190E00E94880D90930F0280930E02C1
:1027B0008BE190E00E948A1C8093090281E0809363
:1027C000710884E690E090937508809374080E94E5
:1027D000710460939707709398078093990790937B
:1027E0009A0783EB92E00E94640C61E08AE20E9407
:1027F000E402B8E3CB2EB2E0DB2E1DE0212E312C1B
:102800008091C6079091C707A091C807B091C907EA
:102810000196A11DB11D8093C6079093C707A09391
:10282000C807B093C9070E9471040091C2071091B4
:10283000C3072091C4073091C507601B710B820B41
:10284000930B693E734081059105E0F08DE00E9495
:10285000BB0261E0892B09F060E08DE00E94E40298
:102860001092C6071092C7071092C8071092C907A6
:102870000E9471046093C2077093C3078093C407DA
:102880009093C50783E00E94BB02892B09F054C5D1
:1028900048E352E061EC77E08AEA98E00E943C0766
:1028A00081114AC54090AA085090AB086090AC08CE
:1028B0007090AD084FE1742282E44816510461041F
:1028C000710409F08FC08AED92E00E94640C8AEADC
:1028D0008093300220E332E041E062E470E080E087
:1028E00090E00E94180864E670E080E090E00E94AA
:1028F0003F0488E198E00FB6F894A89580936000B3
:102900000FBE90936000FFCF8FED91E00E94720C9C
:1029100060E08AE20E94AD0761ED89E20E94AD07A6
:1029200061E888E20E94AD0782EC91E00E94720C9F
:1029300061E080E20E94FC0761E084E20E94FC0703
:1029400061E080E00E94FC0760E084E00E94FC07F8
:1029500061E088E00E94FC0760E080E10E94FC07E3
:1029600061E084E10E94FC0760E088E10E94FC07CE
:1029700010E360E0812F0E94AD0760E080E1810FED
:102980000E94AD0760E080E2810F0E94AD071F5FEB
:102990001E3379F760E080E60E94AD0760E080E7D3
:1029A0000E94AD0763E08BE20E94AD076CE38CE010
:1029B0000E94AD0760E08DE00E94AD0744E664E64A
:1029C00080E60E94D30540E660E680E70E94D305DA
:1029D0008091C1080E94E906882309F493C78CE915
:1029E00091E062CE91E0491694E0590661047104C9
:1029F00009F008C189E093E00E94640C28E232E00B
:102A000048E061E074E080E090E00E941808F0E1A6
:102A10004F16F5E05F066104710409F053C38DE9B8
:102A200098E00E94DB0180E998E00E94DB0183E8E6
:102A300098E00E94DB0186E798E00E94DB0180902D
:102A4000790790907A07A0907B07B0907C076091FF
:102A5000A2087091A308072E000C880B990B0E9406
:102A6000071E2DEC3CEC4CEC5DE30E94BC1E2B01E0
:102A70003C0126E636E646E65FE3C501B4010E9466
:102A8000BC1E9B01AC01C301B2010E94F31C609308
:102A9000790770937A0780937B0790937C07609304
:102AA000A7077093A8078093A9079093AA0780901F
:102AB0007D0790907E07A0907F07B090800760917F
:102AC000970870919808072E000C880B990B0E94AC
:102AD000071E2DEC3CEC4CEC5DE30E94BC1E2B0170
:102AE0003C0126E636E646E65FE3C501B4010E94F6
:102AF000BC1E9B01AC01C301B2010E94F31C609398
:102B00007D0770937E0780937F0790938007609383
:102B1000A3077093A4078093A5079093A6078090BE
:102B2000810790908207A0908307B09084076091FE
:102B30008C0870918D08072E000C880B990B0E9451
:102B4000071E2DEC3CEC4CEC5DE30E94BC1E2B01FF
:102B50003C0126E636E646E65FE3C501B4010E9485
:102B6000BC1E9B01AC01C301B2010E94F31C609327
:102B70008107709382078093830790938407609303
:102B80009F077093A0078093A1079093A20780905E
:102B9000850790908607A0908707B090880760917E
:102BA000810870918208072E000C880B990B0E94F7
:102BB000071E2DEC3CEC4CEC5DE30E94BC1E2B018F
:102BC0003C0126E636E646E65FE3C501B4010E9415
:102BD000BC1E9B01AC01C301B2010E94F31C6093B7
:102BE0008507709386078093870790938807609383
:102BF0009B0770939C0780939D0790939E070E946C
:102C000071049AC3E2E04E16E4E05E0661047104CA
:102C100009F078C18CE193E00E94640C8091380245
:102C2000282F237030E03093B8072093B70790E047
:102C30009C0135952795359527952370332730933B
:102C4000B6072093B5079C0154E0359527955A9512
:102C5000E1F7237033273093B4072093B30766E07E
:102C6000959587956A95E1F79093B2078093B107A0
:102C700080913902282F237030E03093C0072093D1
:102C8000BF0790E09C0135952795359527952370D2
:102C900033273093BE072093BD079C01E4E03595B0
:102CA0002795EA95E1F7237033273093BC072093EB
:102CB000BB07F6E095958795FA95E1F79093BA07EB
:102CC0008093B90780E393E00E94640C89E493E069
:102CD0000E94920CA1EBEA2EA7E0FA2E570110E019
:102CE00000E0F501819191915F010E94580D07303C
:102CF000110521F08CE493E00E94920C0F5F1F4FAE
:102D00000830110571F703E412E0F7018191919108
:102D10007F01009709F0C3C0F801B080A18060E096
:102D20008B2D0E94E4028FE493E00E94920C8B2D85
:102D30009A2D0E94580D84E593E00E94640C0E5F6A
:102D40001F4FF1ECEF16F7E0FF06F9F680913A021B
:102D5000282F30E02B3F31050CF0B6C02FEF829FBB
:102D6000C00111246AEF70E00E94A01C9B018091B9
:102D70003B02482F50E04B3F51050CF0AEC04FEFE7
:102D8000849FC00111246AEF70E00E94A01C7B01A7
:102D900080913C02482F50E04B3F51050CF0A9C0F8
:102DA000EFEF8E9FC00111246AEF70E00E94A01C1B
:102DB0008B0137FD08C03093B0072093AF07B901EE
:102DC0008CE20E944303F7FC08C0F092AE07E09249
:102DD000AD07B7018EE20E94430317FD04C01093B4
:102DE000AC070093AB072091AB073091AD07409142
:102DF000AF078091B1079091B20756E0880F991FF5
:102E00005A95E1F76091B3077091B407E4E0660F5B
:102E1000771FEA95E1F7862B9091B707892B609190
:102E2000B5077091B607660F771F660F771F862B61
:102E3000809330028091B9079091BA07A6E0880F7D
:102E4000991FAA95E1F76091BB077091BC07B4E0A8
:102E5000660F771FBA95E1F7862B9091BF07892BF4
:102E60006091BD077091BE07660F771F660F771FD1
:102E7000862B8093310240933202309333022093A9
:102E8000340210923502109236021092370220E37B
:102E900032E048E062E274E080E090E0B6CD019775
:102EA00009F04DCFF801B080A18061E08B2D0E9428
:102EB000E4028FE493E00E94920C8B2D9A2D0E94E5
:102EC000580D8DE593E039CF2F3F310519F42EEFE2
:102ED0003FEF4DCF2FEF3FEF4ACF8EEFE82EFF248D
:102EE000FA944F3F510509F453CFEE24EA94FE2C97
:102EF0004FCF0EEF1FEF4F3F510509F45ACF0FEFA1
:102F00001FEF57CFF3E04F16F4E05F066104710442
:102F100009F0ACC18091C107882309F47FC089E61C
:102F200093E00E94640C0091390203700093210227
:102F300060913A0270E090E080E00E94051E4B0133
:102F40005C018092220290922302A0922402B0920D
:102F5000250280913B0290E0909327028093260205
:102F600011E01093200280913D028370809319023A
:102F700060913E0270E090E080E00E94051E609348
:102F80001A0270931B0280931C0290931D02809181
:102F90003F0290E090931F0280931E02109318024C
:102FA0000230C1F0B501A40190E080E00E94BC10A5
:102FB000609126027091270288E090E00E949A10AA
:102FC000609121028CE090E09A838983CE01019682
:102FD0000E948110809119028230E1F040911A0222
:102FE00050911B0260911C0270911D0284E090E0E0
:102FF0000E94BC1060911E0270911F028AE090E056
:103000000E949A10609119023A822982CE0101969B
:103010000E94811089E893E00E94640C12E11093F1
:10302000300280912102837080638093310260912D
:1030300022027091230280912402909125020E9425
:10304000D61D609332028091260280933302109342
:1030500034028091190283708063809335026091FD
:103060001A0270911B0280911C0290911D020E9415
:10307000D61D6093360280911E028093370282EB48
:1030800093E00E94920C00E312E0F80161918F013D
:1030900070E090E080E040E10E94200C86ED94E03A
:1030A0000E94920CC016D10681F781E892E00E943E
:1030B000130C20E332E048E063E274E080E090E04B
:1030C0000E94180826E0421624E0520661047104AA
:1030D00009F032C18091C107882309F472C08CE6DF
:1030E00095E00E94640C1091390213701093110244
:1030F00060913A0270E090E080E00E94051EAB0112
:10310000BC01409312025093130260931402709317
:10311000150280913B0290E0909317028093160273
:103120001230B1F08EE090E00E94BC106091160267
:103130007091170282E190E00E949A106091110252
:1031400084E190E09A838983CE0101960E948110E8
:1031500010913D0213701093090260913E0270E0DD
:1031600090E080E00E94051EAB01BC0140930A0282
:1031700050930B0260930C0270930D0280913F02FA
:1031800090E090930F0280930E021130B1F485E12C
:1031900090E00E94BC1060910E0270910F0289E1D4
:1031A00090E00E949A1060910902EBE1F0E0FA834E
:1031B000E983CE0101960E94811089E893E00E9484
:1031C000640C12E1109330028091110283708063CD
:1031D0008093310260911202709113028091140267
:1031E000909115020E94D61D6093320280911602C2
:1031F00080933302109334028091090283708063BC
:103200008093350260910A0270910B0280910C024A
:1032100090910D020E94D61D6093360280910E029D
:103220008093370285E895E00E94920C00E312E05B
:10323000F80161918F0170E090E080E040E10E9430
:10324000200C86ED94E00E94920CC016D10681F706
:1032500081E892E00E94130C20E332E048E066E24D
:1032600074E080E090E00E94180866C0F4E04F1619
:103270005F066104710409F06AC28091C107882366
:1032800009F462C286EC93E00E94640C209138023B
:10329000309139023227232732272A30310510F4A2
:1032A00024E630E040913A0280913B0282FB88277D
:1032B00080F9309375082093740891E0411101C0A2
:1032C00090E0909373088093710886EE93E00E94DB
:1032D000920C80917108882309F433C283E992E04B
:1032E0000E94640C8091740890917508909330024C
:1032F000809331028091730880933202809171082B
:1033000024E0829FC00111248470809333021092C4
:10331000340210923502109236021092370220E3E6
:1033200032E048E064E274E080E090E00E94180837
:1033300085E294E00E94640C0E947104009197075A
:10334000109198072091990730919A07AB01BC0121
:10335000401B510B620B730B8091740890917508A0
:10336000B0E0A0E0481759076A077B0708F44AC095
:1033700010917208111105C080917108882309F419
:1033800041C00E94710460939707709398078093DF
:10339000990790939A07113011F41092720830E057
:1033A00020E040E060E175E080E090E40E941808D1
:1033B0000BE811E0C8010197F1F730E020E040E0B0
:1033C00060E275E080E090E40E941808C80101976F
:1033D000F1F730E020E040E060E375E080E090E469
:1033E0000E941808C8010197F1F7109295071092F2
:1033F000960725E937E048E066E274E080E090E077
:103400000E9418081091940700912102013009F0E0
:103410002BC22091A7073091A8074091A90750918E
:10342000AA07609122027091230280912402909158
:1034300025020E945F1D18160CF406C2111120C04F
:1034400089E995E00E94640C60E087E20E94E40252
:10345000409126025091270270E060E023E934E0B9
:1034600082EC98E00E94530A0E94710460939007D6
:10347000709391078093920790939307009394071A
:1034800010918F0700911902013009F002C22091BA
:10349000A3073091A4074091A5075091A60760911A
:1034A0001A0270911B0280911C0290911D020E94D1
:1034B0005F1D18160CF4DDC1111116C08BEE95E0DE
:1034C0000E94640C60E089E20E94E40240911E02C6
:1034D00050911F0270E060E02DE734E082EF98E049
:1034E0000E94530A00938F0710918E0700911102DA
:1034F000013009F0E5C120919F073091A00740916C
:10350000A1075091A207609112027091130280915D
:103510001402909115020E945F1D18160CF4BEC192
:10352000111116C08DE396E00E94640C60E089E200
:103530000E94E402409116025091170270E060E090
:1035400025E934E08AE099E00E94530A00938E074F
:1035500010918D0700910902013009F0CEC1209130
:103560009B0730919C0740919D0750919E07609169
:103570000A0270910B0280910C0290910D020E9440
:103580005F1D18160CF4A1C1111116C08FE896E04A
:103590000E94640C60E084E20E94E40240910E020A
:1035A00050910F0270E060E028E834E08AED98E086
:1035B0000E94530A00938D0770E060E085E20E944C
:1035C000430370E060E080E10E94430370E060E04C
:1035D00088E00E94430370E060E086E00E944303BD
:1035E0000E9471040091890710918A0720918B072E
:1035F00030918C07601B710B820B930B643F714001
:103600008105910508F492C00E94710460938907B6
:1036100070938A0780938B0790938C0781EE96E0D6
:103620000E94920C6091A7077091A8078091A9074A
:103630009091AA0741E050E00E94940C8FEE96E032
:103640000E94920C609122027091230280912402C8
:103650009091250250E040E00E94940C87EF96E0A4
:103660000E94920C6091A3077091A4078091A50716
:103670009091A60741E050E00E94940C8FEE96E0F6
:103680000E94920C60911A0270911B0280911C02A0
:1036900090911D0250E040E00E94940C80E097E081
:1036A0000E94920C60919F077091A0078091A107E2
:1036B0009091A20741E050E00E94940C8FEE96E0BA
:1036C0000E94920C60911202709113028091140278
:1036D0009091150250E040E00E94940C89E097E040
:1036E0000E94920C8CE097E00E94920C60919B07E4
:1036F00070919C0780919D0790919E0741E050E05A
:103700000E94940C8FEE96E00E94920C60910A0247
:1037100070910B0280910C0290910D0250E040E0FC
:103720000E94940C86EF94E00E94640C1092AA0808
:103730001092AB081092AC081092AD080E949A0546
:103740005FC880E992E0CCCD87E094E0C9CD45E048
:10375000441644E054066104710409F058C980918C
:10376000C107882309F462C08FE394E00E94640CCF
:1037700083E694E00E94920C80917208813009F0F7
:103780004CC088E794E00E94640CE09038020E2D53
:1037900010E086E0159507958A95E1F786E994E0B3
:1037A0000E94920C6E2D70E090E080E040E10E945B
:1037B000200C8DEA94E00E94920CB801110F880B46
:1037C000990B4AE00E94200C86EF94E00E94640C62
:1037D00081E0801740F10093720883EC94E00E942E
:1037E000920C809172088130D9F488ED94E00E94A7
:1037F000640C80917208E0E48E9FC00111248983DB
:103800009E012F5F3F4F48E065E274E080E090E06A
:103810000E94180882E595E08DCD85E894E0B3CF4D
:1038200087EE94E0E4CF88EF94E0E1CF84E295E086
:103830000E94920C80917208882319F08AE992E024
:10384000D6CF8DE992E0D3CF112309F419CE89ECBC
:1038500095E00E94640C61E087E20E94E40282EC41
:1038600098E00E94140902C01111F9CF1092940738
:1038700007CE112309F438CE8BE196E00E94640C48
:1038800061E089E20E94E40282EF98E00E9414095C
:1038900002C01111F9CF10928F0726CE112309F41F
:1038A00057CE8DE696E00E94640C61E089E20E94AA
:1038B000E4028AE099E00E94140910928E0748CE33
:1038C0001123D9F382EF98E0F6CF112309F474CED7
:1038D0008FEB96E00E94640C61E08AE20E94E402B1
:1038E00061E084E20E94E40261E086E20E94E40278
:1038F0008AED98E00E94140902C01111F9CF1092CC
:103900008D075ACE8AE197E00E94640C8CE397E021
:103910000C945813F999FECF92BD81BDF89A99275E
:1039200080B50895262FF999FECF1FBA92BD81BDAB
:1039300020BD0FB6F894FA9AF99A0FBE0196089531
:1039400097FB072E16F4009407D077FD09D00E944C
:10395000DE1C07FC05D03EF4909581959F4F08959D
:10396000709561957F4F0895A1E21A2EAA1BBB1B8B
:10397000FD010DC0AA1FBB1FEE1FFF1FA217B3073B
:10398000E407F50720F0A21BB30BE40BF50B661F51
:10399000771F881F991F1A9469F760957095809515
:1039A00090959B01AC01BD01CF010895EE0FFF1F63
:1039B000881F8BBF0790F691E02D1994AA1BBB1BA3
:1039C00051E107C0AA1FBB1FA617B70710F0A61B1F
:1039D000B70B881F991F5A95A9F780959095BC0140
:1039E000CD0108955058BB27AA270E940A1D0C94A8
:1039F0007D1E0E946F1E38F00E94761E20F039F462
:103A00009F3F19F426F40C946C1E0EF4E095E7FB2E
:103A10000C94661EE92F0E948E1E58F3BA17620797
:103A200073078407950720F079F4A6F50C94B01E6F
:103A30000EF4E0950B2EBA2FA02D0B01B9019001C9
:103A40000C01CA01A0011124FF27591B99F0593F0D
:103A500050F4503E68F11A16F040A22F232F342F55
:103A60004427585FF3CF469537952795A795F040A3
:103A70005395C9F77EF41F16BA0B620B730B840BB8
:103A8000BAF09150A1F0FF0FBB1F661F771F881F70
:103A9000C2F70EC0BA0F621F731F841F48F48795C8
:103AA00077956795B795F7959E3F08F0B0CF9395BA
:103AB000880F08F09927EE0F9795879508950E9433
:103AC000421E08F481E008950E94781D0C947D1E2A
:103AD0000E94761E58F00E946F1E40F029F45F3F4E
:103AE00029F00C94661E51110C94B11E0C946C1E9E
:103AF0000E948E1E68F39923B1F3552391F3951B11
:103B0000550BBB27AA2762177307840738F09F5FFE
:103B10005F4F220F331F441FAA1FA9F335D00E2E6B
:103B20003AF0E0E832D091505040E695001CCAF7D8
:103B30002BD0FE2F29D0660F771F881FBB1F26179B
:103B400037074807AB07B0E809F0BB0B802DBF0172
:103B5000FF2793585F4F3AF09E3F510578F00C9441
:103B6000661E0C94B11E5F3FE4F3983ED4F3869535
:103B700077956795B795F7959F5FC9F7880F911D62
:103B80009695879597F90895E1E0660F771F881F4E
:103B9000BB1F621773078407BA0720F0621B730B01
:103BA000840BBA0BEE1F88F7E09508950E94961ECD
:103BB00088F09F5798F0B92F9927B751B0F0E1F0EE
:103BC000660F771F881F991F1AF0BA95C9F714C09E
:103BD000B13091F00E94B01EB1E008950C94B01E77
:103BE000672F782F8827B85F39F0B93FCCF38695D7
:103BF00077956795B395D9F73EF490958095709534
:103C000061957F4F8F4F9F4F0895E89409C097FBB0
:103C10003EF490958095709561957F4F8F4F9F4FA3
:103C20009923A9F0F92F96E9BB279395F6958795E7
:103C300077956795B795F111F8CFFAF4BB0F11F4AA
:103C400060FF1BC06F5F7F4F8F4F9F4F16C0882351
:103C500011F096E911C0772321F09EE8872F762F87
:103C600005C0662371F096E8862F70E060E02AF0C8
:103C70009A95660F771F881FDAF7880F96958795B4
:103C800097F90895990F0008550FAA0BE0E8FEEF89
:103C900016161706E807F907C0F012161306E40710
:103CA000F50798F0621B730B840B950B39F40A2609
:103CB00061F0232B242B252B21F408950A2609F4E7
:103CC000A140A6958FEF811D811D089597F99F67EB
:103CD00080E870E060E008959FEF80EC0895002494
:103CE0000A941616170618060906089500240A9461
:103CF00012161306140605060895092E0394000CE7
:103D000011F4882352F0BB0F40F4BF2B11F460FF75
:103D100004C06F5F7F4F8F4F9F4F089557FD90589E
:103D2000440F551F59F05F3F71F04795880F97FB7F
:103D3000991F61F09F3F79F0879508951216130639
:103D40001406551FF2CF4695F1DF08C01616170668
:103D50001806991FF1CF869571056105089408959D
:103D6000E894BB2766277727CB0197F908950E942F
:103D7000421E08F48FEF08950E94CF1E0C947D1E02
:103D80000E946F1E38F00E94761E20F0952311F0DD
:103D90000C94661E0C946C1E11240C94B11E0E948F
:103DA0008E1E70F3959FC1F3950F50E0551F629FD3
:103DB000F001729FBB27F00DB11D639FAA27F00D84
:103DC000B11DAA1F649F6627B00DA11D661F829FAB
:103DD0002227B00DA11D621F739FB00DA11D621F90
:103DE000839FA00D611D221F749F3327A00D611DAD
:103DF000231F849F600D211D822F762F6A2F11248F
:103E00009F5750409AF0F1F088234AF0EE0FFF1FC1
:103E1000BB1F661F771F881F91505040A9F79E3F18
:103E2000510580F00C94661E0C94B11E5F3FE4F3C4
:103E3000983ED4F3869577956795B795F795E7956E
:103E40009F5FC1F7FE2B880F911D9695879597F977
:103E500008950E94421E880B990B0895F894FFCF95
:103E60007800780078007800000000000000E80387
:103E7000000000000000E803000000000000E8036C
:103E8000000000000000E803555555FFFFFFFFFF4D
:103E900020000000000000002000000000000000E2
:103EA000304050270029002000220024002600284E
:103EB000002A0001000100080020004000800000EE
:103EC000010004010001000800400000010004009E
:103ED0000000002D059704C4047A05F504D304E717
:103EE000040D0A006E616E00696E66006F766600F2
:103EF0004445534C494741444F004F4E004F4646BE
:103F0000004275666665722043414E206C696D7093
:103F10006F21004D4F444F20434F4E54494E554F53
:103F200020494E49434941444F204155544F4D414A
:103F3000544943414D454E54450021212120434FD2
:103F40004D414E444F204445205550444154452056
:103F5000524543454249444F202D20524553455434
:103F6000414E444F2021212100636D643A20307876
:103F7000343031202844656275672900636D643AE6
:103F8000203078343032202853616964617329000D
:103F900045737461646F7320646F20726573756C10
:103FA0007420616E7465733A005B20002C20004C15
:103FB00065642000204174697661646F0020446567
:103FC000736174697661646F000A2D2D2D20434F53
:103FD0004D414E444F2030783430332052454345D4
:103FE0004249444F202D2D2D00202D3E20436F6E41
:103FF000666967757261636F65732073616C766162
:1040000073206E612052414D206520454550524F2E
:104010004D00203E20545820283078343233292057
:104020004845583A20000A2D2D2D20434F4D414E32
:10403000444F20307834303420524543454249447F
:104040004F202D2D2D00203E204D6F646F20436F9B
:104050006E74696E756F20616C74657261646F2037
:10406000706172613A2000636D643A2030783430B8
:104070003420284C657220537461747573202D2090
:104080005254522900203E20526573706F73746140
:1040900020307834323420656E7669616461000ABC
:1040A0002D2D2D20434F4D414E444F20307834303C
:1040B00035202853544152542F53544F5029202D0A
:1040C0002D2D00203E2045737461646F20414E54B5
:1040D0004552494F523A20004C494741444F20280D
:1040E00052756E29004445534C494741444F20289E
:1040F00053746F702900203E204279746520526508
:1041000063656269646F3A20202030780020284976
:104110006E7465727072657461646F20636F6D6F29
:104120003A2000203E2045737461646F204E4F5644
:104130004F3A2020202020004C494741444F20285E
:10414000535441525429004445534C494741444F2C
:10415000202853544F502900203E204552524F3AB8
:104160002056616C6F7220696E76616C69646F2095
:10417000726563656269646F202849676E6F72615A
:10418000646F2900636D643A20307834303520281C
:104190004C657220537461747573202D20525452F3
:1041A00029202D3E20417475616C6D656E74653AF1
:1041B0002000203E20526573706F73746120307848
:1041C00034323520656E766961646100636D643AEE
:1041D0002030783430362028496E746572636F6FF2
:1041E0006C65722900203E205458202830783432E3
:1041F0003629204845583A200021212120414C45AC
:104200005254413A205431204C494D4954452041A3
:1042100054494E4749444F204163696F6E616E6453
:104220006F2044312021212100494E464F3A20542D
:1042300031204E6F726D616C697A61646F20443118
:10424000204465736C696761646F002121212041FE
:104250004C455254413A205432204C494D49544522
:10426000204154494E4749444F204163696F6E6174
:104270006E646F2044322021212100494E464F3A7E
:10428000205432204E6F726D616C697A61646F20C8
:104290004432206465736C696761646F0021212179
:1042A00020414C455254413A205433204C494D4909
:1042B0005445204154494E4749444F204163696F5A
:1042C0006E616E646F2044332021212100494E46E7
:1042D0004F3A205433204E6F726D616C697A61647D
:1042E0006F204433204465736C696761646F0021FB
:1042F000212120414C455254413A205434204C490C
:104300004D495445204154494E4749444F2041634B
:10431000696F6E616E646F20443420212121004951
:104320004E464F3A205434204E6F726D616C697A5C
:1043300061646F204434204465736C696761646F05
:10434000005B5354415455535D2054313A2000438F
:1043500020284D61783A0029207C2054323A2000F0
:1043600029207C2054333A2000290A0020202020D4
:10437000202020202054343A20004D435032353143
:104380003520496E697469616C697A65642053757A
:10439000636365737366756C6C792100544573743F
:1043A0006520736520657374612066756E63696F3F
:1043B0006E616E646F004572726F7220496E69742F
:1043C00069616C697A696E67204D435032353135C9
:0443D0002E2E2E005F
:00000001FF
