:020000023000CC
:10F0000071C000008FC000008DC000008BC00000E8
:10F0100089C0000087C0000085C0000083C00000D8
:10F0200081C000007FC000007DC000007BC00000E8
:10F0300079C0000077C0000075C0000073C00000F8
:10F0400071C000006FC000006DC000006BC0000008
:10F0500069C0000067C0000065C0000045C2000034
:10F0600061C000005FC000005DC000005BC0000028
:10F0700059C0000057C0000055C0000053C0000038
:10F0800051C000004FC000004DC000004BC0000048
:10F0900049C0000047C0000045C0000043C0000058
:10F0A00041C000003FC000003DC000003BC0000068
:10F0B00039C0000037C0000035C0000033C0000078
:10F0C00031C000002FC000002DC000002BC0000088
:10F0D00029C0000027C0000025C0000023C0000098
:10F0E00021C0000011241FBECFEFD1E2DEBFCDBF93
:10F0F00001E00CBF84B7282E14BE0FB6F894A89573
:10F1000080916000886180936000109260000FBE63
:10F1100023E0A0E0B2E001C01D92A032B207E1F707
:10F1200055D299C56DCF8EBD00000DB407FEFDCF41
:10F130008EB50895FF920F931F93CF93DF93C82F3F
:10F14000F62E172F042F85B185B982E0ECDF8C2FC6
:10F15000EADFCF2DD12F0C0F1D2F111DC017D107A6
:10F1600019F08991E0DFFACF85B185B9DF91CF91B0
:10F170001F910F91FF9008951F93CF93DF93182F46
:10F18000D62FC42F85B185B985E0CDDF812FCBDFA8
:10F190008D2FC9DF8C2FC7DF85B185B9DF91CF9166
:10F1A0001F910895CF93C82F85B185B983E0BBDF48
:10F1B0008C2FB9DF80E0B7DF95B195B9CF91089575
:10F1C000FF920F931F93CF93DF93C82FF62E172F25
:10F1D000042F85B185B983E0A6DF8C2FA4DFCF2D66
:10F1E000D12F0C0F1D2F111DC017D10721F080E06A
:10F1F0009ADF8993F9CF85B185B9DF91CF911F91BE
:10F200000F91FF900895CF93DF93D82FC62F85B12C
:10F2100085B982E088DF8D2F86DF8C2F84DF85B172
:10F2200085B9DF91CF9108953FB7F89480910B0392
:10F2300090910C03A0910D03B0910E0326B5A89BED
:10F2400005C02F3F19F00196A11DB11D3FBFBA2F78
:10F25000A92F982F8827BC01CD01620F711D811D38
:10F26000911D42E0660F771F881F991F4A95D1F7BD
:10F2700008952FB7F8946091070370910803809167
:10F28000090390910A032FBF08951CBC1DBC14B83C
:10F29000EEE6F0E080818E7F8083F89485B7982F2A
:10F2A000916095BF8D7F85BF1CBEF0E0E0E01994B2
:10F2B000E0E1F3E082876295660F607E822F8F71B6
:10F2C000682B6387548745873687278708958F92F1
:10F2D0009F92AF92BF92CF92DF92EF92FF921F93D5
:10F2E000CF93DF93CDB7DEB72D970FB6F894DEBF7F
:10F2F0000FBECDBF10911403193008F065C0809186
:10F30000100390911103A0911203B0911303AC016B
:10F31000BD01442777FD43955527662777276C0164
:10F320007D01CC24DD24EE2420E4F22288248A947A
:10F33000982CA82C6FE1B62E411106C088248A941F
:10F3400057E0952EA12CB12C88219921AA21BB210F
:10F35000442309F43BC08C839B83CD01AA27BB27A0
:10F36000282F220F220F220F207E382F3370386073
:10F37000232B2A8335E0969587953A95E1F7898383
:10F38000812FCD28CE28CF2809F080648D83412F8E
:10F3900050E068E173E0CE0106964DD445E0410FA0
:10F3A000BE016F5F7F4F81E3C5DE48E068E080E328
:10F3B000E3DE1FEF80E3F6DE83FF16C01150D1F7C6
:10F3C00040E068E080E3D8DE84E00FC09C0193E079
:10F3D000369527959A95E1F729838295880F807E47
:10F3E0008A831C821B82CCCF80E02D960FB6F894C6
:10F3F000DEBF0FBECDBFDF91CF911F91FF90EF9089
:10F40000DF90CF90BF90AF909F908F900895CF9254
:10F41000DF92EF92FF921F93CF93DF9380910403CB
:10F4200090910503B0E0A0E0BA2FA92F982F88276C
:10F430007FB7F894F999FECF23E0FC01A0935B001D
:10F4400020935700E89507B600FCFDCFC4E0D2E05A
:10F4500044E053E06C017D0111E0298130E0322F5E
:10F4600022276881260F311D0901F601E0925B0019
:10F4700010935700E8951124229622E0C20ED11C69
:10F48000E11CF11C4C175D0741F725E0FC01A0933E
:10F490005B0020935700E89507B600FCFDCF81E1A3
:10F4A00080935700E8957FBF40E051E06FEF70E038
:10F4B00084E092E0C9D3109203021092020280917C
:10F4C0000403909105030196909305038093040330
:10F4D0001092010210920002DF91CF911F91FF90D4
:10F4E000EF90DF90CF9008951F920F920FB60F927A
:10F4F00011242F933F938F939F93AF93BF9380914A
:10F50000070390910803A0910903B0910A03309179
:10F51000060323E0230F2D3768F126E8230F029618
:10F52000A11DB11D20930603809307039093080348
:10F53000A0930903B0930A0380910B0390910C03ED
:10F54000A0910D03B0910E030196A11DB11D8093F2
:10F550000B0390930C03A0930D03B0930E03BF9184
:10F56000AF919F918F913F912F910F900FBE0F9070
:10F570001F9018950196A11DB11DD4CFCF92DF9297
:10F58000EF92FF92CF93C82F482F60EE8FE0F4DD0B
:10F5900070DE6B017C012AE0C20ED11CE11CF11C63
:10F5A00068DE6C157D058E059F0570F48EE0FADD32
:10F5B000807EC813F5CF81E091E08927CF91FF903D
:10F5C000EF90DF90CF90089580E0F6CFCF93DF9358
:10F5D00000D000D000D0CDB7DEB7322C789484B5FF
:10F5E000836084BD85B5836085BD80916E00816038
:10F5F00080936E0082E08093810080918100816021
:10F600008093810080918000816080938000809150
:10F61000B10084608093B1008091B00081608093DC
:10F62000B000809191008360809391008091900060
:10F630008160809390008091A10083608093A100FD
:10F640008091A00081608093A0008091210183605F
:10F65000809321018091200181608093200187E8BF
:10F6600080937A001092C10004DE9FB7F89485B7AA
:10F67000282F216025BF826085BF9FBF84B186602F
:10F6800084B984B184B98EE58CBD81E08DBD85B12E
:10F6900085B940E051E06FEF70E084E092E0D4D2B1
:10F6A00085B185B980EC3FDD85B185B9BDDD4B0104
:10F6B0005C013AE0C32ED12CE12CF12CB5DD6819A8
:10F6C00079098A099B09683E734081059105B0F369
:10F6D00021E0C21AD108E108F10838EE830E33E0C8
:10F6E000931EA11CB11CC114D104E104F10431F733
:10F6F00060E080E688DD63EA8BE285DD80E83EDF5E
:10F70000811109C060E08AE27EDD60E989E27BDD8B
:10F7100062E888E278DD80E831DF81110CC08FEF8C
:10F720008C838B839BEE9A83898344E0BE016F5F59
:10F730007F4F80E2FFDC80E821DF81110DC082E095
:10F740008C838FEF8B839BEE9A83898344E0BE0189
:10F750006F5F7F4F80E0EEDC80E010DF81E09FEFA5
:10F76000AFEFBFE98093100390931103A0931203AE
:10F77000B093130388E0809314031092180382E47B
:10F780008093190382E080931A0310921B038EE189
:10F7900080931C0388E980931D0381E080931E03FE
:10F7A00080931F0394DD65DD812C912C540110E0C2
:10F7B0009B01AC0126503F4F4F4F5F4F2E833F833D
:10F7C0004887598723E0222E54DD11110AC02E816B
:10F7D0003F8148855985261737074807590708F498
:10F7E00054DD85B185B980EA9EDC80E09CDC95B172
:10F7F00095B980FFE9CF45E0BE016F5F7F4F81E69D
:10F80000DFDC8A81C98038E0C39E60011124282F83
:10F8100030E095E0359527959A95E1F7C20ED31E15
:10F820000D2C000CEE08FF0883FF20C0A2E0CC0CDA
:10F83000DD1CEE1CFF1CAA95D1F78370C80ED11CED
:10F84000E11CF11CFE2CED2CDC2CCC248B81C80E91
:10F85000D11CE11CF11CFE2CED2CDC2CCC248C8169
:10F86000C80ED11CE11CF11C6894F7F80D810F70D3
:10F87000093008F0A9CF80E695DC83FF02C06894C8
:10F88000F6F8C0921003D0921103E0921203F092A6
:10F89000130300931403402F68E173E086E690DCC5
:10F8A00040E061E08CE268DC8091100390911103EC
:10F8B000A0911203B091130382309F4FAF4FBF4905
:10F8C00009F082CF80911403883009F07DCF8091B8
:10F8D0001803811179CF80911903823409F074CF14
:10F8E00081E09FEFAFEFBFE9809310039093110386
:10F8F000A0931203B093130380911A03111117C040
:10F90000863009F061CF80911C038E3109F05CCF05
:10F9100080911D03883909F057CF80911E03A501FE
:10F92000940160E0813009F04FCF84E06FC08032F5
:10F93000A9F580E090E0DC01FC01A0935B0020923F
:10F940005700E89507B600FCFDCF9F5FAF4FBF4F54
:10F950008115E0EF9E07E3E0AE07B10569F740E0EF
:10F9600051E06FEF70E084E092E06ED110920302FC
:10F9700010920202109205031092040310920102E9
:10F980001092000220E030E0A90160E084E090DC09
:10F990009EDC812C912C540111E016CF803409F0AB
:10F9A00062C080911E0390E0B0E0A0E0BA2FA92FC2
:10F9B000982F882740911D0350E070E060E0BA0165
:10F9C00055274427840F951FA61FB71F20911F039B
:10F9D000820F911DA11DB11D40911C0350E070E0EC
:10F9E00060E0742F662755274427840F951FA61FB4
:10F9F000B71F8115F0EF9F07F3E0AF07B10540F0A7
:10FA00002FEF3FEE43E050E060E08BE451DC26C096
:10FA100020E133E06C017D0154E040E0C11460EF6F
:10FA2000D60663E0E606F104D8F4F6016491F90124
:10FA300064874F5F5150FFEFCF1ADF0AEF0AFF0ACA
:10FA40002F5F3F4F5111EACF28E420931A034295CC
:10FA5000440F407E8F71842B80931B0338DC9CCF36
:10FA6000F9011486E7CF8A3009F05DC0C0901E030B
:10FA7000D12CF12CE12CFE2CED2CDC2CCC24809113
:10FA80001D0390E0B0E0A0E0DC01992788278C0DF1
:10FA90009D1DAE1DBF1D20911F036C017D01C20E77
:10FAA000D11CE11CF11C80911C0390E0B0E0A0E0AF
:10FAB000B82FAA2799278827C80ED91EEA1EFB1E31
:10FAC0004D2C5E2C6F2C772486011127C11430EF4A
:10FAD000D30633E0E306F10438F02FEF3FEE43E0C6
:10FAE00050E060E08BE092CF209104033091050359
:10FAF0002415350539F08091020290910302892B7B
:10FB000009F085DC50920503409204031093010232
:10FB100000930002A701960160E084E0C9DBD7DB17
:10FB20004601570139CF883009F05BC000911B03B3
:10FB3000D501C40180278F719927AA27BB27892B5C
:10FB40008A2B8B2B29F0A501940160E08DE05ECF1C
:10FB500010E095E0159507959A95E1F7C801110F0A
:10FB6000AA0BBB0B0197A109B109880D991DAA1D0C
:10FB7000BB1D8115904FA340B10508F0AECFC02E3C
:10FB80008CE1E82E83E0F82ED12CDC1410F5D7019F
:10FB90004D917D0180910002909101029C012F5FA7
:10FBA0003F4F30930102209300028C5F9D4FFC0178
:10FBB0004083809102029091030201969093030288
:10FBC000809302022F3F310511F008F020DCD3941E
:10FBD000DCCF8C0C911CA11CB11CA5019401602FE1
:10FBE000A4CE803189F48091020290910302892B86
:10FBF00009F00DDC20E030E0A90160E080E858DB8E
:10FC000066DB232C42DBC8CE803569F4809102028A
:10FC100090910302892B09F0FADB20E030E0A90182
:10FC200060E080E5F3CE803809F0B6CE20E030E029
:10FC3000A90160E0E4CFFB01DC0102C001900D925C
:10FC400041505040D8F70895DC0101C06D934150F8
:0AFC50005040E0F70895F894FFCF4C
:040000033000F000D9
:00000001FF
